:020000040800F2
:100000001005002005010008D71E0008C31C0008C9
:10001000D51E0008C90900087D2100080000000065
:10002000000000000000000000000000DB1E0008CF
:10003000CB09000800000000D91E0008DD1E0008E2
:100040001F0100081F0100081F0100081F01000810
:100050001F0100081F0100081F0100081F01000800
:100060001F0100081F0100081F0100081F010008F0
:100070001F0100081F0100081F0100081F010008E0
:100080001F0100081F0100081F0100081F010008D0
:100090001F0100081F0100081F0100081F010008C0
:1000A0001F0100081F0100081F0100081F010008B0
:1000B0001F0100081F010008000000001F010008C8
:1000C0001F01000800000000000000001F010008E0
:1000D000000000001F0100081F01000800000000D0
:1000E0001F0100081F0100081F010008DFF810D0E1
:1000F00000F0ACFB00480047BD2A0008AFF30080C9
:10010000100500200648804706480047FEE7FEE746
:10011000FEE7FEE7FEE7FEE7FEE7FEE7FEE7FEE7B7
:10012000591F0008ED000008202A04DB203A21FABC
:1001300002F00021704721FA02F3D040C2F1200200
:100140009140084319467047D2B201E000F8012BF4
:10015000491EFBD270470022F6E710B513460A4647
:1001600004461946FFF7F0FF204610BD80EA010261
:1001700010B502F00043400022D04A001FD0010E0B
:1001800001EB1261C0F35600C2F3560240F40000C6
:1001900042F40002A0FB022000047F39140400D0C6
:1001A000401C50EA124001D44000491EC2B20C0665
:1001B00004EBD010401C4008802A02D003E000204D
:1001C00010BD20F00100002900DA0020184310BD06
:1001D000420005D0C0F3C7525242914201DC0020D8
:1001E000704700EBC15070472DE9FE4F804681EA11
:1001F0000300C00F0C46009021F0004123F00045A1
:10020000B8EB0200A94105D24046214690461C4663
:100210000B46024623F00040104347D0270DC7F39A
:100220000A00C3F30A510290401A019040286BDA89
:10023000C3F3130040F4801B0098924620B10023C2
:10024000D2EB030A63EB0B0B01985946C0F1400255
:10025000504600F0A7F906460D4650465946019A09
:1002600000F0AFF910EB08006141002487EA115259
:1002700084EAE7731A4340D0009A62B3019A012AD4
:100280004FEA075215DC001B61EB02014FF0004200
:1002900002EA0752CDE90042001C41F580113246C6
:1002A0002B4600F0E6F903B0BDE8F08F404621464A
:1002B000F9E7001B61EB0201001C41F580130018F7
:1002C0005B412018A2F5001747EB030140EAD57007
:1002D000B6196D4111E06D084FEA360645EAC07562
:1002E0004FEA0752001B61EB0201001C41F580112F
:1002F00049084FEA30000019514132462B4603B0FD
:10030000BDE8F04F00F0A6B900980122400000239C
:10031000D0EB020263EBE073009821464FEAE074F1
:10032000B8EB000061EB0401E9E783F000435BE711
:1003300081F0004158E72DE9FE4F81EA030404F003
:10034000004421F0004100944FF0000B23F00043E3
:1003500050EA01045ED052EA03045BD0C3F30A54AE
:10036000C1F30A552C44A4F2F3340194A0FB0254C7
:10037000C1F3130141F48011C3F3130343F4801359
:1003800001FB024400FB034E840A970A44EA8154AD
:1003900047EA8357A4FB076802958D0A05FB07858A
:1003A0004FEA932C04FB0C542705029D4FEA065894
:1003B00047EA1637B5EB08056EEB070C870E920E71
:1003C00047EA811742EA8312A7FB0201B6EB0B0151
:1003D00064EB00042B0D43EA0C335E1844EB1C5015
:1003E000DA465146E7FB0201C5F313044FEA0B332B
:1003F00043EA14534FEA0432019C43EA0603A4F192
:100400000C040294009CCDE900B400F032F903B072
:10041000BDE8F08F00200146F9E770B521F00043F8
:1004200003430CD0C1F30A550024D5EB040564EB5B
:100430000403D617AD1AB34102DB0020014670BD9C
:10044000201841EB025170BD96230022114600F0A6
:10045000D3B820F00040C10DC0F3160040F40000F6
:100460007F2901DA00207047962903DCC1F196014B
:10047000C840704796398840704770B5C1F30A523A
:1004800001F000450024C1F3130140F2FF3341F4B1
:1004900080119A4201DA002070BD40F233439A4243
:1004A000A2F2334203DC5242FFF73EFE00E09040EE
:1004B0002C43F1D0404270BD00F0004230F00040CB
:1004C0000AD0C10D01F56071C0F3160042EA015176
:1004D000C20840071143704700200146704701F0F1
:1004E000004330B421F0004150EA010206D00A0D69
:1004F000A2F56072C1F31301002A02DC30BC0020B7
:100500007047440F44EAC104C100E01830BC00EB5E
:10051000C25000F068B830B50B46014600202022DA
:10052000012409E021FA02F59D4205D303FA02F500
:10053000491B04FA02F52844151EA2F10102F1DC60
:1005400030BD2DE9F05F0546002092469B46884667
:100550000646814640241BE028464146474622463F
:10056000FFF7E2FD53465A46C01A914110D3114697
:100570001846224600F016F82D1A67EB01084F4680
:1005800022460120002100F00DF817EB00094E4132
:10059000201EA4F10104DFDC484631462A464346CA
:1005A000BDE8F09F202A04DB203A00FA02F1002087
:1005B00070479140C2F1200320FA03F319439040A1
:1005C0007047202A06DBCB17203A41FA02F043EAB3
:1005D000E07306E041FA02F3D040C2F120029140FC
:1005E0000843194670470029A8BF7047401C4900BE
:1005F00008BF20F00100704710B4B0FA80FC00FA88
:100600000CF050EA010404BF10BC704749B1CCF1B2
:10061000200421FA04F411FA0CF118BF012121433E
:100620000843A3EB0C01CB1D4FEA00614FEA1020F9
:1006300042BF002010BC704700EBC350104400299B
:10064000A4BF10BC7047401C490008BF20F0010047
:1006500010BC704710B5141E73F1000408DA401C7A
:1006600041F1000192185B411A4301D120F00100D1
:1006700010BD2DE9F04D92469B4611B1B1FA81F2C1
:1006800002E0B0FA80F220329046FFF78BFF04467A
:100690000F4640EA0A0041EA0B0153465A46084316
:1006A00013D0114653EA010019D0C8F14002504658
:1006B000FFF73AFD05460E46504659464246FFF7BB
:1006C00071FF084305D0012004E020463946BDE80B
:1006D000F08D0020054346EAE0762C4337430A9824
:1006E0006305E40AA0EB08000022FD0A44EA47542F
:1006F0000A3002D500200146E9E7010510196941D9
:10070000DDE9084500196941BDE8F04DA2E72DE992
:10071000F04D81EA030404F0004B21F0004514463B
:100720004FF0000A23F0004150EA050220D054EABD
:1007300001021DD0C5F30A570246C5F31303C1F3E6
:100740001300C1F30A5640F4801543F48013A7EB5D
:100750000608101BD64608F2FD3873EB050002D3DD
:1007600008F1010801E092185B41B8F1000F03DACB
:1007700000200146BDE8F08D00204FF480110646B0
:1007800084460EE0171B73EB050705D3121B63EBC2
:10079000050306434CEA010C49084FEA3000921861
:1007A0005B4150EA0107EDD152EA030012D082EA20
:1007B000040083EA0501084305D0101BAB4106D2B3
:1007C0000122002306E000224FF0004302E06FF018
:1007D000010253101AEB06004CEB085110EB0A0013
:1007E00041EB0B01BDE8F04DFFF734BFC1F30A52F6
:1007F000C1F3130140F2FF3341F480119A4202DA4F
:1008000000200146704740F233439A42A2F233423D
:1008100002DC5242FFF788BCFFF7C4BE30B5041EAD
:1008200071F1000404DB4FF00044404264EB01012D
:10083000141E73F1000405DB1C464FF000435242C6
:1008400063EB0403994208BF904230BD064C074D4C
:1008500006E0E06840F0010394E807009847103490
:10086000AC42F6D3FFF746FC802B0008A02B000813
:1008700070B5044600688168C943C90717D181680B
:1008800021F00101816000F085FC05460AE000BF0F
:1008900000F080FC401B022804D920688068C04317
:1008A000C00706D020688068C043C007F0D0002091
:1008B00070BDA06A40F01000A062E06A40F0010044
:1008C000E062012070BD0000F8B5002604460096E5
:1008D00000688168C943C9072DD0816841F00101D2
:1008E0008160164816490068B0FBF1F000E0401E38
:1008F00000900028FBD100F04DFC054616E000BF3B
:1009000000F048FC401B022810D920688068C043D2
:10091000C0070BD0A06A40F01000A062E06A40F06F
:100920000100E06284F824600120F8BD206880683E
:10093000C043C007E4D10020F8BD00000C00002037
:1009400040420F002DE9F04116A001F019FC1B4DAB
:100950001B4F00244FF6FF766FF00B08194800F08C
:100960009FFA3146174800F0FDF9164800F012F9D9
:10097000FFF76AFDFFF7A0FD00223B46FFF7DBFC17
:100980004246FFF74AFDFFF7AAFD45F82400641C24
:10099000E4B2032CE2D30B4800F0E2FA0748BDE8CA
:1009A000F08100005B44454255475D3A09BDF8C8F7
:1009B000EB41444331BAAFCAFD0D0A0000010020EB
:1009C0000000594014000020FEE7704772B6FEE7B1
:1009D00070B5204D00220821284600F0D5FB4FF4C9
:1009E000A07001F0BBFA02F04FF804460122082182
:1009F000284600F0C9FB42F2D05001F0AFFA204681
:100A0000FFF722FD1449FFF7B1FB6FF00B01FFF771
:100A1000DFFB0121FFF7DCFBFFF74EFD0D4604462F
:100A20000E4A0F4BFFF787FC0E4A0F4BFFF77DFC7A
:100A300000220E4BFFF77FFCFFF71FFD0646224604
:100A40002B460BA001F09CFB31460DA001F098FB5A
:100A5000B0B270BD000C014033335340C3F5285C85
:100A60008FC2C53F9A9999999999B93F00408F4093
:100A70000D0AB5E7D1B9D6B53A2566560A00000089
:100A80000D0ABBD2B3BEC5A8B6C83A2564207567A7
:100A90002F6D330A00000000F8B50024009490F890
:100AA00024202546012A12D0012280F824204A68F9
:100AB0001F23072A0DD20668776B521E02EB8202B3
:100AC00093409F430B6893401F43776319E00220D4
:100AD000F8BD06680D2A0AD2376BD21F02EB8202DC
:100AE00093409F430B6893401F43376309E0F76AC5
:100AF0000D3A02EB820293409F430B6893401F43E1
:100B0000F7620A68072306680A2A0AD3F7680A3ACE
:100B100002EB420293409F438B6893401F43F76070
:100B200008E0376902EB420293409F438B68934091
:100B30001F4337610A68102A01D0112A20D1124BB5
:100B400002689A4217D193681B0219D4936843F440
:100B5000000393600968102912D10C490C4A0968F6
:100B6000B1FBF2F101EB8101490000E0491E009167
:100B70000029FBD104E0816A41F020018162012457
:100B800080F824502046F8BD002401400C000020CD
:100B900040420F000068C06C704700002DE9F04132
:100BA0004FF0000704003D467ED0A06A002628B919
:100BB000E66284F82460204600F07EF82046FFF7C5
:100BC00057FEA16AC90600D420B1A06A40F0100007
:100BD000A06269E0A16A21F4885141F00201A1629A
:100BE0006268E169237B0A4347EA43010A43A1683B
:100BF0004FF48077B94209D0012907D05FF0000196
:100C000094F814C0BCF1010F02D00AE03946F7E7AE
:100C1000F3B1A36A43F02003A362E36A43F0010344
:100C2000E3622368D3F804C02CF4694C4CEA010C4D
:100C3000C3F804C021688B68DFF870C003EA0C03B6
:100C400013438B60A168B9420BD0012909D00CE095
:100C5000DFF85CC0A3690CEB43330B4343F4006142
:100C6000DFE7218A0D05A5F580152168CB6A23F4FD
:100C700070032B43CB62216889680E4B1940914267
:100C800008D1E662A16A21F0020141F00101A162EE
:100C9000BDE8F081A06A20F0020040F01000A062E0
:100CA000E06A40F00100E0620120F1E7FDF7E1FFBA
:100CB00000E0FFFFFE0E1FFF10B586B0002100917F
:100CC000019102910391224B026822490324224898
:100CD0009A4222D18A6942F400728A618A6902F4D6
:100CE000007204928A6942F004028A618A6902F001
:100CF000040204928A6942F008028A61896901F05B
:100D0000080104918021CDE90014694600F054F9EE
:100D1000009469461148019416E0114B9A4215D18E
:100D20008A6942F480628A618A6902F4806204926C
:100D30008A6942F004028A61896901F00401049120
:100D40004021CDE90014694600F036F906B010BD27
:100D5000002401400010024000080140000C014046
:100D6000002801402DE9F84300270D46044600976E
:100D700000F010FA804620688168C90508D5A06A8D
:100D800040F02000A06284F824700120BDE8F883C0
:100D90004168C90503D4C06A10F4700F2AD002203C
:100DA00000F088FA3B490968B1FBF0F62068036956
:100DB00039490B424FEA61014FEAA1121FD1C368C2
:100DC0004FEA611C13EA0C0F19D103690B4225D1BC
:100DD000C068104222D1142023E0681C0AD02DB133
:100DE00000F0D8F9A0EB0800A84203D920680068F9
:100DF000800725D5206800688007EED52DE00369BF
:100E00000B4202D1C168114206D0026923490A424D
:100E100006D1C068084203D1542002E0292000E036
:100E2000FC204643009816E0681C11D02DB100F05C
:100E3000B1F9A0EB0800A8420AD90098B04207D245
:100E4000A06A40F00400A06284F8247003209DE7AB
:100E50000098401C0090B042E6D321686FF0120069
:100E60000860A06A40F40070A06220688068C0F347
:100E7000424007280CD1207B50B9A06A20F4807032
:100E8000A062A06AC00403D4A06A40F00100A0627E
:100E900000207BE70C000020244992244992240082
:100EA00070B5044690F8240001280DD0012084F884
:100EB00024002046FFF708FD02004FF0000005D097
:100EC00084F82400104670BD022070BDA16A40F273
:100ED0000123994341F48071A1621F4D23681F498A
:100EE000AB4218D10E6816F4702F14D0A66A46F4DF
:100EF0008016A6620E68760505D5A66A26F4005609
:100F000046F48056A662A66AF6040AD5E66A26F07A
:100F10000606E66206E0A66A26F48016A6625E6809
:100F2000E9E7E06284F824006FF0020018602068AE
:100F30008368C3F34243072B05D1A84208D109684F
:100F400011F4702F04D0816841F480118160B9E7F9
:100F5000816841F4A001F9E7002801400424014020
:100F600010B5044690F82400012807D0012084F829
:100F700024002046FFF77CFC10B107E0022010BDE2
:100F8000A16A21F4885141F00101A162002184F895
:100F9000241010BD70B5044600F0FCF80546601C36
:100FA00002D004480078044400F0F4F8401BA0424A
:100FB000FAD370BD000000202DE9F84FDFF89C91B6
:100FC000002409F1040A0AF1040B23460F270BF150
:100FD000040EBBE00125A5402A40AA4276D1DFF8E5
:100FE00080C14E68A6EB0C0866452BD00DDC032EA5
:100FF00034D005DC36B3012E19D0022E2FD11BE0E0
:10100000112E16D0122E2AD119E0B8F5881F19D04A
:1010100006DCB8F5803F15D0B8F5801F1FD111E070
:10102000B8F5001F0ED0B8F5041F18D10AE0CB6840
:1010300015E0CB681B1D12E0CB6808330FE0CB68CE
:101040000C330CE08B682BB1012B4FF0080303D05D
:10105000456104E0042302E0056100E00023FF2A6B
:1010600001D8064601E000F104064FEA840501D9E3
:10107000A5F12005D6F8008007FA05FC28EA0C083F
:1010800003FA05F548EA0508C6F800804D68ED004A
:101090005BD5344DAE6946F00106AE61AD6924F012
:1010A000030605F0010500952F4D06EB050CDCF855
:1010B0000850A607360F07FA06F825EA0805DFF8F4
:1010C000AC80404503D14FF0000810E03DE0DFF870
:1010D000A080404502D14FF0010808E0DFF894807D
:1010E000404502D14FF0020801E04FF0030808FA32
:1010F00006F848EA0508CCF808804D68D9F8006081
:10110000ED034D4601D5164300E096432E604D6831
:10111000DAF80060AD03554601D5164300E096436A
:101120002E604D68DBF80060ED025D4601D5164388
:1011300000E096432E604D68DEF80060AD02754613
:1011400001D5164300E096432E60641C0A6832FA0B
:1011500004F57FF43FAFBDE8F88F000000040140C4
:101160000000111000100240000001400008014082
:10117000000C014000100140C26821EA02030A404D
:1011800043EA0241016170470AB1016170470904F5
:10119000FBE7000001488068704700000000002065
:1011A0000248816802781144816070470000002085
:1011B000074810B5016841F010010160032000F0FC
:1011C00067F80F2000F006F800F024F8002010BDAA
:1011D0000020024070B50D4D04464FF47A71287816
:1011E000B1FBF0F00A490968B1FBF0F000F0B8FB80
:1011F00048B9102C07D200222146501E00F028F8D2
:1012000000206C6070BD012070BD00000000002057
:101210000C0000200C4808B5816941F00101816192
:10122000816901F001010091C16941F08051C16102
:10123000C06900F0805000900448416821F0E061EE
:1012400041F00071416008BD001002400000014003
:10125000F0B40E4B1B680C46C3F30223C3F1070521
:10126000042D00D90425191D072901D2002300E00F
:10127000DB1E012606FA05F1491E214099409E40D9
:10128000761E16403143F0BC00F08ABF0CED00E042
:10129000064900F0070208684FF6FF03184040EACD
:1012A0000220034A10430860704700000CED00E084
:1012B0000000FA0510B529A401461DCC86B08DE8C2
:1012C0001D002AA02A4C006804900020012923D088
:1012D00002293AD010291DD161682268D20119D59E
:1012E000C1F38342C9031DF8020009D5616804AA4D
:1012F000C1F34041515C1F4AB2FBF1F1484301E0A8
:101300001D4948436168490204D440005FF003016D
:10131000B0FBF1F006B010BD226AC2F30121012931
:1013200003D1920701D5C803F4E7022905D1626A07
:10133000920702D549F64040ECE70329EAD121683B
:101340008903E7D54FF22440E4E700F033F9616800
:10135000C1F38131491C4900DAE7000002030405AA
:10136000060708090A0B0C0D0E0F101001020000F1
:101370000010024000127A0000093D002DE9F843F8
:1013800005460078354CC00754D0E0690026C000FF
:1013900008D4E06940F08050E061E069012600F087
:1013A000805000902E480168C90512D4016880461B
:1013B00041F480710160FFF7EDFE074605E000BFD4
:1013C000FFF7E8FEC01B642823D8D8F80000C0054A
:1013D000F6D5206A10F4407021D0A98801F440713C
:1013E00081421CD0206A1F49012220F440700A600B
:1013F00000220A602062C00711D0FFF7CBFE07462B
:1014000041F2883808E000BFFFF7C4FEC11B414528
:1014100002D90320BDE8F883206A8007F4D5206A4A
:10142000696820F44070084320621EB1E06920F032
:101430008050E0612878800705D56068A96820F4AD
:101440004040084360602878C00605D56068E968B8
:1014500020F48000084360600020DBE700100240B9
:1014600000700040400442422DE9F0470F4605005D
:1014700061D0434E306800F00700B84209D23068AE
:1014800020F0070038433060306800F00700B842B1
:1014900051D128683B4C810712D5400703D56068BD
:1014A00040F4E06060602878000703D5606840F48D
:1014B000605060606068A96820F0F00008436060D8
:1014C0002878C00728D06868012810D02168022831
:1014D00010D0890700292EDA616821F00301014349
:1014E0006160FFF757FE804641F288390DE02168C0
:1014F0008903EFE78901EDE7FFF74CFEA0EB080158
:10150000494502D90320BDE8F0876068696800F0AA
:101510000C00B0EB810FEFD1306800F00700B8424B
:101520000BD9306820F0070038433060306800F095
:101530000700B84201D00120E5E72878400705D52B
:101540006068E96820F4E06008436060287800077C
:1015500006D56068296920F4605040EAC1006060E7
:1015600000F038F86168084AC1F30311515CC840C3
:101570000649086006480068FFF72CFE0020C2E715
:101580000020024000100240682B00080C000020E0
:10159000040000200448054900684968044AC1F372
:1015A0000221515CC84070470C000020001002402E
:1015B000782B00080448054900684968044AC1F3CB
:1015C000C221515CC84070470C000020001002404E
:1015D000782B000812A185B00FC98DE80F0014A068
:1015E000144A006804905168134801F00C03042B5E
:1015F00010D0082B0ED1C1F38343C9031DF803009B
:101600000AD5516804AAC1F34041515C0A4A5043CB
:10161000B0FBF1F005B0704708494843FAE7000015
:1016200002030405060708090A0B0C0D0E0F101023
:10163000010200000010024000127A0000093D0083
:101640002DE9F84F040070D02078C04DC00749D074
:101650006868C0F38100012807D06868C0F3810082
:10166000022809D16868C00306D52868800339D5E7
:1016700060680028E7D035E06068B0F5803F0BD0A7
:1016800010B1B0F5A02F11D0286820F48030286068
:10169000286820F4802002E0286840F48030286028
:1016A000606890B1FFF776FD06460AE0286840F4CE
:1016B00080202860F0E700BFFFF76CFD801B6428E6
:1016C00073D828688003F7D50CE0FFF763FD064662
:1016D00005E000BFFFF75EFD801B6428F0D8286896
:1016E0008003F7D420789A4E80074FF001094FF01D
:1016F000000839D5686810F00C0F07D06868C0F38F
:101700008100022809D16868C00306D428688007D0
:1017100014D52069012808D110E02069B0B1C6F8BD
:101720000090FFF737FD074605E00AE1FFF732FDBD
:10173000C01B0228C4D828688007F7D528686169CB
:1017400020F0F80040EAC10028600DE0C6F80080F3
:10175000FFF720FD074604E0FFF71CFDC01B022831
:1017600023D828688007F7D4207800072CD579483B
:10177000A169D9B1C0F80090FFF70CFD074604E05D
:10178000FFF708FDC01B02280FD8686A8007F7D54D
:1017900071484FF4FA510068B0FBF1F0009000BFBF
:1017A0000098411E0091FAD20EE080E0C0F800805F
:1017B000FFF7F0FC074604E0FFF7ECFCC01B022833
:1017C00075D8686A8007F7D42078400760D5E86943
:1017D0000027C00008D4E86940F08050E861E8695B
:1017E000012700F0805000905C480168C90513D4BF
:1017F0000168834641F480710160FFF7CBFC8246AB
:1018000006E000BFFFF7C6FCA0EB0A0064284ED834
:10181000DBF80000C005F5D5E06801280AD008B162
:10182000052813D0286A20F001002862286A20F0D9
:10183000040002E0286A40F001002862E06841F2FA
:10184000883B98B1FFF7A6FC82460BE0286A40F07F
:1018500004002862EEE700BFFFF79CFCA0EB0A0142
:1018600059455AD8286A8007F6D50CE0FFF792FC54
:10187000824605E0FFF78EFCA0EB0A0159454CD8E3
:10188000286A8007F6D41FB1E86920F08050E8612B
:10189000E06988B36968C1F38101022944D0022854
:1018A000C6F8608004D0FFF775FC044638E034E0E9
:1018B000FFF770FC074604E0FFF76CFCC01B022832
:1018C0002BD828688001F7D4206AB0F5803F05D175
:1018D0006868A16820F4003008436860D4E9080112
:1018E0000843696821F4741108436860C6F8609081
:1018F000FFF750FC044606E025E000BFFFF74AFC76
:10190000001B022809D828688001F7D51BE000BF1A
:10191000FFF740FC001B022802D90320BDE8F88F26
:1019200028688001F4D40EE00128F7D06868226AA4
:1019300000F48031914204D1616A00F47010884251
:1019400001D00120EAE70020E8E700000010024093
:1019500000004242800442420C000020007000401F
:1019600010B5401EB0F1807F01D3012010BD4FF0B3
:10197000E02460610F21601700F012FC0020A061DC
:1019800007202061002010BD70B590F83C20012A8E
:1019900023D0012480F83C40022280F83D200368D7
:1019A0005A689D6822F070060A6832435A600C4BF0
:1019B00002689A4205D0B2F1804F02D0094B9A4298
:1019C00004D1496825F080031943916080F83D40B7
:1019D000002180F83C10084670BD022070BD000058
:1019E000002C01400004004010B5040003D094F81E
:1019F0003D0010B107E0012010BD002084F83C003C
:101A0000204600F01FF8022084F83D00211D2068C8
:101A100000F0C2FA012084F8460084F83E0084F801
:101A20003F0084F8400084F8410084F8420084F8C4
:101A3000430084F8440084F8450084F83D00002009
:101A400010BD000008B50068B0F1804F08D105480E
:101A5000C16941F00101C161C06900F0010000905D
:101A600008BD00000010024070B5044690F83C002C
:101A7000012817D0012584F83C50022084F83D004D
:101A80002068826822F0770222F47F428260086830
:101A9000502830D00DDC20284DD005DC98B310281C
:101AA0003BD148E0022070BD302844D0402834D1DA
:101AB00039E0602828D0702806D0B0F5805F2CD09F
:101AC000B0F5005F29D10AE0CB68D1E90121206897
:101AD00000F090FA2068816841F0770109E0CB6856
:101AE000D1E90121206800F085FA2068816841F47D
:101AF0008041816011E0CA684968206800F08CFA72
:101B00005021206807E016E0CA684968206800F0A4
:101B100094FA6021206800F077FA84F83D500020A4
:101B200084F83C0070BDCA684968206800F074FA07
:101B300040212068EFE7226801461046EBE770B5C8
:101B4000040004D094F83D00002510B106E0012007
:101B500070BD84F83C50204600F022F8242084F820
:101B60003D002068C16821F40051C160204600F0AA
:101B700077FA2068016921F4904101612068416988
:101B800021F02A0141612068C16841F40051C1601F
:101B90002564202084F83D0084F83E00002070BDBC
:101BA00030B585B000240094019402940394006839
:101BB0001449884224D11448816941F480418161EB
:101BC000816901F480410491816941F004018161DE
:101BD00080690E4D00F0040004904FF400700090F6
:101BE000022001900320039069462846FFF7E4F99C
:101BF0002815CDE90004694628460294FFF7DCF970
:101C000005B030BD0038014000100240000801401E
:101C10002DE9F843044690F83D001F4616460D4650
:101C200020284CD1C5B1BEB194F83C00012846D063
:101C3000012084F83C004FF00008C4F840802120C7
:101C400084F83D00FFF7A6FAA6848146E684A068E2
:101C5000B0F5805F03D004E00120BDE8F88320697F
:101C600028B12E465FF0000584F83C800EE0002687
:101C7000FAE78021204600F04FFAA0B9AEB116F87D
:101C8000010B21684860E08C401EE084E08C4B46EC
:101C90004FF0000200970028EBD14FF040012046A2
:101CA00000F03AFA30B10320D7E735F8020BC0F361
:101CB0000800E6E7202084F83D000020CDE7022060
:101CC000CBE7FEE73EB500211D48009101911B4A7C
:101CD000029102609215826001730124047503254C
:101CE00005614FF460224160C0E90642FEF756FFED
:101CF00008B1FEF76BFE0820CDE9000469461048E4
:101D00000294FEF7C9FE08B1FEF760FE09200090BC
:101D10000220019069460A48FEF7BEFE08B1FEF7B0
:101D200055FE0720CDE9000569460548FEF7B4FEDB
:101D3000002801D0FEF74AFE3EBD0000002401400D
:101D4000140000203EB50024114800940194029430
:101D50000E498460016004730475012505614FF428
:101D600060214460C161FEF719FF08B1FEF72EFE45
:101D70000620CDE90005694602940548FEF78CFE71
:101D8000002801D0FEF722FE3EBD000000280140E1
:101D900044000020F0B585B000242448009401944C
:101DA00002940394816941F010018161816901F01D
:101DB00010010491816941F020018161816901F084
:101DC00020010491816941F004018161816901F080
:101DD00004010491816941F0080181618069144E18
:101DE00000F008004FF400550490002229463046C8
:101DF000FFF7CAF90F4F002208213846FFF7C4F950
:101E000000950125CDE90154694630460395FFF759
:101E1000D3F80820CDE900050320CDE9024069464A
:101E20003846FFF7C9F805B0F0BD000000100240C9
:101E300000100140000C014010B586B00024164887
:101E4000009401940294039404944FF0804105940B
:101E500001604721C0E901144FF6FF71C0E9031486
:101E60008461FFF7C1FD08B1FEF7B0FD4FF480506B
:101E7000009069460848FFF7F7FD08B1FEF7A6FD98
:101E8000049404A904480594FFF77EFD002801D0BE
:101E9000FEF79CFD06B010BD740000200C4810B584
:101EA0000A4901604FF4E1314160002181600C2258
:101EB000C160C0E904128161C161FFF740FE0028E2
:101EC00003D0BDE81040FEF781BD10BD00380140D1
:101ED000BC000020FEE7FEE770477047FFF760B9DF
:101EE00030B593B028216846FEF735F914210AA8C9
:101EF000FEF731F9002501200F9510951195010489
:101F000012958DE8230004904FF4E010CDE90810FD
:101F1000022407946846FFF793FB08B172B6FEE708
:101F20000AA90F2081E831004FF48060CDE90D054A
:101F300002210AA8FFF798FA08B172B6FEE74FF43B
:101F4000004011900F940FA8FFF718FA002801D055
:101F500072B6FEE713B030BD704700000D49002295
:101F60000B685A620A68136843F00103136009683A
:101F70004A6A8242FCD3086A41F21112104207D128
:101F8000086A9210104203D1086820F0010008602E
:101F9000704700007400002070B50268134B144CA9
:101FA0004FF08046984203D0B04201D0A04203D106
:101FB00022F070054A682A43984203D0B04201D00B
:101FC000A04203D122F44074CA6822434C6922F033
:101FD0008002224302608A68C2620A688262984272
:101FE00001D1096901630121416170BD002C0140EB
:101FF0000004004010B5846842EA032224F47F44C0
:102000000A432243826010BD826822F070020A43B4
:1020100042F007018160704710B5036A046A24F03A
:1020200001040462846924F0F00444EA021423F0F9
:102030000A020A438461026210BD10B5036A23F0EC
:10204000100303628369046A23F4704343EA023293
:1020500024F0A00343EA01118261016210BD000077
:1020600070B5044600680169E26821F440511143EB
:1020700001612169A0680843616908432168CA6851
:1020800041F20C639A430243CA6020684169A26925
:1020900021F44071114341611E492068884202D1F8
:1020A000FFF788FA01E0FFF775FA00EBC00101EBDA
:1020B0000012606864218000B2FBF0F3B3FBF1F31F
:1020C0006FF018067343B2FBF0F5B2FBF0F605EBC8
:1020D0008305322303EB0515B5FBF1F5B6FBF1F6ED
:1020E00005F0F00505EB0615B2FBF0F6B2FBF0F0DB
:1020F000B0FBF1F06FF01802504306EB800003EBE9
:102100000010B0FBF1F0216800F00F002844886057
:1021100070BD0000003801402DE9F0419846174697
:102120000E460446069D1DE0681C1BD02DB1FFF72E
:1021300031F8A0EB0800A84214D92068C16821F446
:10214000D071C1602068416921F001014161202006
:1021500084F83D0084F83E00002084F83C00032011
:10216000BDE8F0812068006836EA000004D0002055
:10217000B842D9D00020F3E70120F9E7FEE70000DC
:102180000FB4054B10B503A9044A029800F0EAF811
:1021900010BC5DF814FB00006D2A00081000002040
:1021A0000907090E002804DB00F1E02080F8001484
:1021B000704700F00F0000F1E02080F8141D704718
:1021C00002E008C8121F08C1002AFAD17047704700
:1021D000002001E001C1121F002AFBD1704700005E
:1021E0002DE9FF5F82B00021DDE90430020DDDF84A
:1021F00040B0034318D044F61050A2F2FF324243DD
:102200001514119801281FD0A5EB0B00401C5FEAA4
:10221000000A4FF000064E4FDFF83891B0465046A6
:1022200015D5CAF1000413E0119801244AA301282E
:1022300001D16FEA0B010298119AC0E90031C0E99F
:10224000024206B0BDE8F09FCBF10000DFE7044694
:102250000021404A491842EB0450CDE9001012E039
:10226000E00707D032463B4640464946FEF763F852
:102270008046894632463B4610461946FEF75BF8D3
:1022800006460F466410002CEAD1DDE90401DDE9C1
:102290000023BAF1000F06DAFEF74DF842464B462E
:1022A000FEF749F805E0FEF732FA42464B46FEF7E4
:1022B0002EFA04460E460022284BFEF7AFFA03D84A
:1022C0004FF0FF30014607E00022254B2046314603
:1022D000FDF78AFFFEF78AFA102409E0002C0ADBDA
:1022E0000A220023FEF72DF9039B30321A55641E93
:1022F00050EA0102F2D1641C039AC4F111031444A0
:10230000119A012A03D0012208430DD10AE00843A3
:1023100004D000204FF0110B119072E7A3EB0B05D6
:102320006D1E0DE05B4504DD4FF0000205F1010577
:1023300004E003DA4FF00002A5F10105002AECD019
:1023400002981199C0E90231C0E9004579E700001F
:10235000000014400000F03F300000000000F04397
:102360000000E03F2DE9FF4F95B09A4688460646AB
:102370000025EEE1252877D100242746F94A0121DE
:10238000039400E0044316F8013F203B01FA03F0F8
:102390001042F7D130782A2811D06FF02F0330780F
:1023A000A0F13002092A16D8039A44F0020402EB85
:1023B000820203EB42021044761C0390EFE758F8C8
:1023C000042B0392002A03DA504244F40054039091
:1023D00044F00204761C30782E2816D116F8010F2E
:1023E00044F004042A280DD06FF02F023078A0F1B9
:1023F0003003092B09D807EB870302EB4303C71807
:10240000761CF3E758F8047B761C30786C280FD0E4
:1024100006DC4C2817D068280DD06A2814D104E0B7
:10242000742810D07A280FD10DE044F400140AE08B
:1024300044F4801401E044F440147278824202D1E2
:1024400004F58014761C761C307866280BD013DCDB
:10245000582877D009DC002875D04528F6D04628C2
:10246000F4D047281AD193E118E0632835D06428C6
:1024700079D0652812D18BE1702873D008DC6728E9
:10248000F1D069286FD06E280DD06F2806D1ACE04E
:1024900073282CD0752874D0782853D052461799B9
:1024A00090476D1C54E1C4F30250022809D0032860
:1024B0000DD0D8F8001004280DD00D6008F10408E4
:1024C00046E1D8F80010EA17C1E90052F6E7D8F85B
:1024D00000100D80F2E70D70F0E718F8041B8DF87E
:1024E000001000208DF80100EB46012003E058F8B1
:1024F00004BB4FF0FF3061074FF0000102D40DE044
:1025000009F101018946B9420FDA8145F8DB1BF870
:1025100009100029F4D108E009F10101894681423E
:10252000FADB1BF809100029F6D103985346A0EBFB
:10253000090721463846179A00F080FA284400EB34
:10254000090507E044E008E10DE01BF8010B5246E5
:1025500017999047B9F10109F7D2534621463846F9
:10256000179AF2E039E00A21C4F302524FF0000B4F
:102570000091022A06D058F8040BC117032A09D08B
:102580000AE023E008F1070020F00702F2E8020168
:10259000904605E000B2C117042A01D140B2C1172C
:1025A000002906DA0A460021404261EB02012D2291
:1025B00002E0220504D52B228DF80420012203E03D
:1025C000E20701D02022F7E7914657E00A2100E018
:1025D00010214FF0000B00910BE010214FF0000B89
:1025E00044F004040827009103E008204FF0000B9A
:1025F0000090C4F30252022A05D058F8040B0021BF
:10260000032A08D008E008F1070020F00702F2E8EA
:102610000201904603E080B2042A00D1C0B24FF01C
:10262000000922072AD53278702A07D0DDF800C0C9
:102630008CF0100C5CEA0B0C05D00EE040228DF8FB
:102640000420012208E050EA010306D030238DF86F
:1026500004308DF8052002229146009B83F0080388
:1026600053EA0B030AD150EA010201D1620705D5F2
:1026700030228DF804204FF001097F1E3278582A4D
:1026800004D039A20C920CAA02920BE03BA2F9E70B
:102690005B46009AFDF755FF0C9B9B5C029A521E0D
:1026A0000292137050EA0102F2D1029804A9081AAA
:1026B00000F1200B600702D524F4803400E00127EC
:1026C0005F4502DDA7EB0B0000E0002000EB0B01F3
:1026D000009003984944401A0390E00306D45346FF
:1026E0002146179A039800F0A9F90544002706E04F
:1026F00001A85246C05D179990476D1C7F1C4F453D
:10270000F6DBE0030CD553462146179A039800F0F8
:1027100095F9054404E030205246179990476D1C06
:102720000099481E00900029F5DC08E00298029903
:1027300052460078491C0291179990476D1CBBF1D5
:102740000001ABF1010BF1DC5BE100F065F9054440
:10275000761C307800287FF40DAE19B02846BDE80D
:10276000F08F00000928010030313233343536371C
:1027700038396162636465660000000030313233CD
:10278000343536373839414243444546000000006D
:10279000600700D4062708F1070020F00700F0E8E2
:1027A0000223804603F0004C5FEA0C0001D097A0A2
:1027B00009E0200501D596A005E0E00701D095A02D
:1027C00001E0AFF24C001390307823F0004365280D
:1027D0000CD006DC452809D046281DD047287FD1DB
:1027E0003BE0662818D067287AD136E00021112F07
:1027F00001DB112000E0781CCDE9000104A90CA840
:10280000FFF7EEFCDDE90D010C9A4FF0000B07F12C
:102810000109109200914EE04FF000400097CDE981
:10282000011004A90CA8FFF7DBFCDDE90D020C9BED
:102830000F994FF0000B91461093009211B9791C3B
:1028400000EB0109B7EB090003D4C0F1FF3B07F12E
:102850000109A9EB0700019042E0012F00DA0127EE
:102860000021112F01DD112000E03846CDE90001E3
:1028700004A90CA8FFF7B4FCDDE90D010C9A009146
:102880004FF0000BB946109221070FD4009A4A4529
:1028900003DA914601E0A9F10109B9F1010F05DD63
:1028A000109AA9F10101515C3029F4D0B84202DA42
:1028B00010F1040F03DA0121CDE9011010E0002826
:1028C00003DC8344A9EB000102E0411C494500DD23
:1028D0008946A0EB0B00401C01904FF00040029095
:1028E000200705D40198484502DB4FF0FF300190E6
:1028F00000208DF84B0002980DF14B07B0F1004F0E
:1029000025D002200C902B200D90029800280CDA84
:10291000404202902D200D9007E00A210298FDF719
:10292000FAFD3031029007F8011D0C99481E0C90F9
:102930000029F2DC02980028EFD1791E0D9808706A
:10294000307800F0200040F0450007F8020D11A893
:10295000C01BC01D02901398007800B1012000EB4D
:102960000901019801EBE071029801440398401AB3
:10297000401E0390E00306D453462146179A03985D
:1029800000F05CF805441398007818B15246179986
:1029900090476D1CE00323D553462146179A0398B0
:1029A00000F04CF805441BE0BBF1000F07DB00987A
:1029B000584504DD1098179910F80B0001E017999D
:1029C00030205246904701980BF1010B401E05F153
:1029D0000105019004D12E205246179990476D1C95
:1029E000B9F10001A9F10109DEDC05E017F8010BDE
:1029F0005246179990476D1C0299481E0290002973
:102A0000F4DC53462146179A03989EE62D000000F9
:102A10002B000000200000002DE9F04104460025B5
:102A20001E461746880404D405E039462020B047E6
:102A30006D1C641EF9D52846BDE8F0812DE9F041F2
:102A4000044600251E469046C80301D5302700E005
:102A50002027880404D505E041463846B0476D1C60
:102A6000641EF9D52846BDE8F081000008B50223B0
:102A70008DF80000012269460248FFF7C9F80020DE
:102A800008BD0000BC00002010B50B48FEF708FA96
:102A90004FF6FF710848FEF765F90748FEF77AF828
:102AA000FDF7D2FC04460448FEF75AFA2046BDE87A
:102AB0001040FDF7CEBC000044000020FEF778FB7C
:102AC000FFF70EFAFFF766F9FFF7E8F9FFF7FAF8F4
:102AD000FFF7B2F9FFF736F9094D4FF400544FF400
:102AE0007A7621462846FEF747FBFDF72BFF00F0DC
:102AF00009F8FDF76DFF3046FEF74CFAF1E70000EC
:102B0000001001402DE9FF4104468068FDF7D4FC28
:102B1000074688466068FDF7CFFC05460E462068EC
:102B2000FDF7CAFC8DE8E00102460B4602A0FFF764
:102B300027FBBDE8FF8100004144433120CDA8B50B
:102B4000C0373A20252E3366252520CDA8B5C038BC
:102B50003A20252E3366252520CDA8B5C0393A2048
:102B6000252E336625250A00000000000000000025
:102B70000102030406070809000000000102030423
:102B8000A02B00080000002014000000C021000855
:102B9000B42B000814000020FC040000D021000821
:102BA0000100000010000000000000000024F400FC
:042BB0000000000021
:04000005080000ED02
:00000001FF
