:020000040800F2
:1000000088060020050100089F2D0008F125000842
:100010009D2D0008210A000895310008000000000D
:10002000000000000000000000000000A32D0008F8
:10003000350A000800000000A12D0008A52D0008C9
:100040001F0100081F0100081F0100081F01000810
:100050001F0100081F0100081F0100081F01000800
:100060001F0100081F0100081F0100081F010008F0
:100070001F0100081F0100081F0100081F010008E0
:100080001F0100081F0100081F0100081F010008D0
:100090001F0100081F0100081F0100081F010008C0
:1000A0001F0100081F0100081F0100081F010008B0
:1000B0001F0100081F010008000000001F010008C8
:1000C0001F01000800000000000000001F010008E0
:1000D000000000001F010008893100080000000036
:1000E0001F0100081F0100081F010008DFF810D0E1
:1000F00000F0D8FB00480047053B0008AFF3008044
:10010000880600200648804706480047FEE7FEE7CD
:10011000FEE7FEE7FEE7FEE7FEE7FEE7FEE7FEE7B7
:10012000212E0008ED000008202A04DB203A21FAE5
:1001300002F00021704721FA02F3D040C2F1200200
:10014000914008431946704740EA01039B0703D0DA
:1001500009E008C9121F08C0042AFAD203E011F806
:10016000013B00F8013B521EF9D27047D2B201E0C8
:1001700000F8012B491EFBD270470022F6E710B5AC
:1001800013460A4604461946FFF7F0FF204610BD05
:1001900030B505462A460B4612F8010B13F8014B01
:1001A00008B1A042F8D01CB1002802D06D1CF1E7C4
:1001B000284630BD421C10F8011B0029FBD1801AD3
:1001C000704780EA010210B502F00043400022D0DF
:1001D0004A001FD0010E01EB1261C0F35600C2F3BA
:1001E000560240F4000042F40002A0FB022000048A
:1001F0007F39140400D0401C50EA124001D4400062
:10020000491EC2B20C0604EBD010401C4008802AE4
:1002100002D003E0002010BD20F00100002900DA28
:100220000020184310BD420005D0C0F3C75252420F
:10023000914201DC0020704700EBC15070472DE96E
:10024000FE4F804681EA0300C00F0C46009021F06B
:10025000004123F00045B8EB0200A94105D2404619
:10026000214690461C460B46024623F000401043B0
:1002700047D0270DC7F30A00C3F30A510290401A72
:10028000019040286BDAC3F3130040F4801B009800
:10029000924620B10023D2EB030A63EB0B0B0198CB
:1002A0005946C0F14002504600F0A7F906460D46F7
:1002B00050465946019A00F0AFF910EB0800614131
:1002C000002487EA115284EAE7731A4340D0009A67
:1002D00062B3019A012A4FEA075215DC001B61EB59
:1002E00002014FF0004202EA0752CDE90042001C31
:1002F00041F5801132462B4600F0E6F903B0BDE827
:10030000F08F40462146F9E7001B61EB0201001C1B
:1003100041F5801300185B412018A2F5001747EB48
:10032000030140EAD570B6196D4111E06D084FEA3E
:10033000360645EAC0754FEA0752001B61EB020121
:10034000001C41F5801149084FEA30000019514165
:1003500032462B4603B0BDE8F04F00F0A6B9009836
:10036000012240000023D0EB020263EBE07300980F
:1003700021464FEAE074B8EB000061EB0401E9E7C5
:1003800083F000435BE781F0004158E72DE9FE4F21
:1003900081EA030404F0004421F0004100944FF08E
:1003A000000B23F0004350EA01045ED052EA03043C
:1003B0005BD0C3F30A54C1F30A552C44A4F2F334BE
:1003C0000194A0FB0254C1F3130141F48011C3F363
:1003D000130343F4801301FB024400FB034E840A21
:1003E000970A44EA815447EA8357A4FB07680295B9
:1003F0008D0A05FB07854FEA932C04FB0C54270557
:10040000029D4FEA065847EA1637B5EB08056EEB32
:10041000070C870E920E47EA811742EA8312A7FB68
:100420000201B6EB0B0164EB00042B0D43EA0C3325
:100430005E1844EB1C50DA465146E7FB0201C5F357
:1004400013044FEA0B3343EA14534FEA0432019C7E
:1004500043EA0603A4F10C040294009CCDE900B425
:1004600000F032F903B0BDE8F08F00200146F9E753
:1004700070B521F0004303430CD0C1F30A550024AA
:10048000D5EB040564EB0403D617AD1AB34102DBC8
:100490000020014670BD201841EB025170BD96232B
:1004A0000022114600F0D3B820F00040C10DC0F387
:1004B000160040F400007F2901DA002070479629D9
:1004C00003DCC1F19601C8407047963988407047F7
:1004D00070B5C1F30A5201F000450024C1F31301C5
:1004E00040F2FF3341F480119A4201DA002070BDDE
:1004F00040F233439A42A2F2334203DC5242FFF706
:1005000013FE00E090402C43F1D0404270BD00F05B
:10051000004230F000400AD0C10D01F56071C0F317
:10052000160042EA0151C2084007114370470020FB
:100530000146704701F0004330B421F0004150EA19
:10054000010206D00A0DA2F56072C1F31301002A60
:1005500002DC30BC00207047440F44EAC104C100F3
:10056000E01830BC00EBC25000F068B830B50B4664
:10057000014600202022012409E021FA02F59D42D3
:1005800005D303FA02F5491B04FA02F52844151EA7
:10059000A2F10102F1DC30BD2DE9F05F054600203B
:1005A00092469B4688460646814640241BE02846E4
:1005B000414647462246FFF7B7FD53465A46C01A02
:1005C000914110D311461846224600F016F82D1A14
:1005D00067EB01084F4622460120002100F00DF88C
:1005E00017EB00094E41201EA4F10104DFDC484650
:1005F00031462A464346BDE8F09F202A04DB203AD4
:1006000000FA02F1002070479140C2F1200320FA65
:1006100003F3194390407047202A06DBCB17203A9A
:1006200041FA02F043EAE07306E041FA02F3D040F7
:10063000C2F1200291400843194670470029A8BF23
:100640007047401C490008BF20F00100704710B4FB
:10065000B0FA80FC00FA0CF050EA010404BF10BCB0
:10066000704749B1CCF1200421FA04F411FA0CF1DD
:1006700018BF012121430843A3EB0C01CB1D4FEA16
:1006800000614FEA102042BF002010BC704700EB11
:10069000C35010440029A4BF10BC7047401C49003F
:1006A00008BF20F0010010BC704710B5141E73F194
:1006B000000408DA401C41F1000192185B411A4322
:1006C00001D120F0010010BD2DE9F04D92469B466E
:1006D00011B1B1FA81F202E0B0FA80F22032904614
:1006E000FFF78BFF04460F4640EA0A0041EA0B0180
:1006F00053465A46084313D0114653EA010019D015
:10070000C8F140025046FFF70FFD05460E46504621
:1007100059464246FFF771FF084305D0012004E027
:1007200020463946BDE8F08D0020054346EAE076D4
:100730002C4337430A986305E40AA0EB0800002223
:10074000FD0A44EA47540A3002D500200146E9E791
:10075000010510196941DDE9084500196941BDE845
:10076000F04DA2E72DE9F04D81EA030404F0004BBF
:1007700021F0004514464FF0000A23F0004150EAF2
:10078000050220D054EA01021DD0C5F30A570246E3
:10079000C5F31303C1F31300C1F30A5640F48015E7
:1007A00043F48013A7EB0608101BD64608F2FD3869
:1007B00073EB050002D308F1010801E092185B41D8
:1007C000B8F1000F03DA00200146BDE8F08D0020EB
:1007D0004FF48011064684460EE0171B73EB0507A5
:1007E00005D3121B63EB050306434CEA010C4908D1
:1007F0004FEA300092185B4150EA0107EDD152EA0E
:10080000030012D082EA040083EA0501084305D000
:10081000101BAB4106D20122002306E000224FF05C
:10082000004302E06FF0010253101AEB06004CEB9C
:10083000085110EB0A0041EB0B01BDE8F04DFFF74A
:1008400034BFC1F30A52C1F3130140F2FF3341F444
:1008500080119A4202DA00200146704740F2334389
:100860009A42A2F2334202DC5242FFF75DBCFFF72C
:10087000C4BE000030B5041E71F1000404DB4FF06B
:100880000044404264EB0101141E73F1000405DBD7
:100890001C464FF00043524263EB0403994208BFE9
:1008A000904230BD064C074D06E0E06840F0010381
:1008B00094E8070098471034AC42F6D3FFF71AFCCF
:1008C000783C0008983C000870B5044600688168D0
:1008D000C943C90717D1816821F00101816000F087
:1008E00051FF05460AE000BF00F04CFF401B022804
:1008F00004D920688068C043C00706D0206880689B
:10090000C043C007F0D0002070BDA06A40F01000C6
:10091000A062E06A40F00100E062012070BD0000CA
:10092000F8B500260446009600688168C943C907E7
:100930002DD0816841F00101816016481649006898
:10094000B0FBF1F000E0401E00900028FBD100F069
:1009500019FF054616E000BF00F014FF401B0228F7
:1009600010D920688068C043C0070BD0A06A40F04F
:100970001000A062E06A40F00100E06284F82460A8
:100980000120F8BD20688068C043C007E4D1002082
:10099000F8BD00000C00002040420F002DE9F0419E
:1009A00016A002F0F9FB1B4D1B4F00244FF6FF76FB
:1009B0006FF00B08194800F0FBFC3146174800F0B7
:1009C00059FC164800F07CFBFFF769FDFFF79FFD1F
:1009D00000223B46FFF7DAFC4246FFF749FDFFF7EE
:1009E000A9FD45F82400641CE4B2022CE2D30B48B4
:1009F00000F03EFD0748BDE8F08100005B44454241
:100A000055475D3A09BDF8C8EB41444331BAAFCA16
:100A1000FD0D0A004C010020000059401C00002080
:100A2000FEE70000024A002111606421FFF7A5BB28
:100A3000100000207047000010B5002400F0D0F92D
:100A400060B107A002F0A8FB01240DA10FA000F0E7
:100A5000AFF818B110A002F09FFB0224204610BD91
:100A60005B44454255475D3A094553503832363666
:100A7000B3F5CABCBBAFD6D02E2E2E0D0A0D0A0080
:100A80004865617274636172650000006865617237
:100A900074636172650000005B44454255475D3AEE
:100AA0000945535038323620D2D1BEADC1ACBDD38A
:100AB00057694669A3A10D0A0D0A000070B50546E5
:100AC0000C460648FFF7AEFF22462946BDE87040B7
:100AD0004FF6FF73024801F031BD000058010020BD
:100AE0000801002070B5054664210A48FFF745FB60
:100AF0000949002004464FF47A76086029193346E4
:100B00000122064801F01AFD641CE4B2285D0028A9
:100B1000F4D170BD58010020100000200801002011
:100B200010B5052418E01048FFF77CFF0FA0FFF771
:100B3000D9FFC82002F075F90EA10B48FFF728FB7A
:100B400038B10DA002F028FB0748FFF76BFF01202A
:100B500010BDC82002F065F9641EE4B2E3D20DA016
:100B600002F01AFB002010BD5801002041540D0A6C
:100B7000000000004F4B00005B44454255475D3A82
:100B80000945535030317320D2D1B7A2CFD6A1A39B
:100B90000D0A00005B44454255475D3A09455350F4
:100BA00030317320CEB4B7A2CFD6A1A3200D0A0056
:100BB0002DE9F0410D46064605240BE01A48FFF7E3
:100BC00031FF1AA0FFF78EFFC8221DA1164800F0C2
:100BD00063F910B9641EE4B2F0D2F4B1012441F219
:100BE00088371148FFF71EFF0F4864216430FFF774
:100BF000C4FA0D482B46324612A1643002F0DCFAEA
:100C000009486430FFF76EFF3A460DA1064800F030
:100C100043F920B10120BDE8F0810020FBE7204628
:100C2000641EE4B2DDD2F6E75801002041542B43A4
:100C3000574D4F44455F4355523D310D0A0000006A
:100C40004F4B000041542B43574A41505F4355528C
:100C50003D222573222C222573220D0A000000005C
:100C60002DE9F84F90468A46834600F0A7F84FF4E6
:100C7000FA76304602F0D5F830A002F08DFA02275D
:100C80000024334D41F288391FE064213148FFF7D9
:100C900074FA304864216430FFF76FFA2D482C60F5
:100CA00053465A462CA16430CDF8008002F084FAF5
:100CB00028486430FFF716FF304602F0B2F84A4683
:100CC0002CA1244800F0E8F810B97F1EFFB2DCD256
:100CD0009FB1012764211F48FFF74FFA27A02C601E
:100CE000FFF700FF324629A11A4800F0D5F838B1C5
:100CF00027A002F051FA012707E00020BDE8F88F95
:100D000038467F1EFFB2E5D2F8E764211148FFF7AD
:100D100034FA25A02C60FFF7E5FE304602F081F89A
:100D2000C82225A10B4800F0B7F808B10120E5E77B
:100D300038467F1EFFB2E8D2E0E700005B44454240
:100D400055475D3A09CDCBB3F6CDB8B4AB0D0A002B
:100D5000100000205801002041542B4349505354A7
:100D60004152543D222573222C222573222C2564C6
:100D70000D0A0000434F4E4E4543540041542B434F
:100D800049504D4F44453D310D0A00004F4B000086
:100D90005B44454255475D3A09BDF8C8EBCDB8B450
:100DA000ABC4A3CABD0D0A0041542B43495053455F
:100DB0004E440D0A000000003E00000010B507A0E0
:100DC000FFF790FE322002F02CF804A0FFF78AFE15
:100DD000BDE81040322002F024B800002B2B2B007D
:100DE00010B564211348FFF7C8F912486421643034
:100DF000FFF7C3F9104900200860FFF7DFFF0FA0DD
:100E0000FFF770FE0DA0FFF76DFE4FF4FA7002F0D1
:100E100008F8FFF785FE38B10BA002F0BDF90548D0
:100E2000FFF700FE012010BD10A002F0B5F9002070
:100E300010BD0000580100201000002041542B522A
:100E400053540D0A000000005B44454255475D3A8B
:100E50000945535030317320D3EB204D435520CDFD
:100E6000A8D0C5D5FDB3A32E0D0A00005B444542B2
:100E700055475D3A0945535030317320D3EB204D2F
:100E8000435520CDA8D0C5B2BBD5FDB3A32E0D0AC6
:100E90000000000072B6FEE770B514460D46064627
:100EA00004E0012001F0BDFF641EA4B229463046D3
:100EB000FFF76EF910B11CB1012070BD002CF0D10C
:100EC000002070BD70B5264DCCB000220821284608
:100ED00000F052FC4FF4A07001F0B0FF02F0F8FDFA
:100EE000044601220821284600F046FC42F2D05078
:100EF00001F0A4FF2046FFF7D2FA1A49FFF761F983
:100F00006FF00B01FFF78FF90121FFF78CF9FFF765
:100F1000FEFA0D460446144A144BFFF737FA144AFA
:100F2000144BFFF72DFA0022134BFFF72FFAFFF7B0
:100F3000CFFA0646009022462B4610A002F02CF96C
:100F400022462B4616A101A8009602F035F9002290
:100F500001A91BA001F0FAFC4CB0B0B270BD0000BA
:100F6000000C014033335340C3F5285C8FC2C53FAA
:100F70009A9999999999B93F00408F400D0AB5E720
:100F8000D1B9D6B53A2566562009BBD2B3BEC5A89D
:100F9000B6C83A25642075672F6D330A000000003B
:100FA0007B22566F6C74616765223A252E33662C5E
:100FB00020226475737456616C223A25647D0000AA
:100FC00041495200F8B50024009490F824202546A9
:100FD000012A12D0012280F824204A681F23072A00
:100FE0000DD20668776B521E02EB820293409F433C
:100FF0000B6893401F43776319E00220F8BD066831
:101000000D2A0AD2376BD21F02EB820293409F4314
:101010000B6893401F43376309E0F76A0D3A02EB10
:10102000820293409F430B6893401F43F7620A6814
:10103000072306680A2A0AD3F7680A3A02EB420233
:1010400093409F438B6893401F43F76008E03769E4
:1010500002EB420293409F438B6893401F433761EA
:101060000A68102A01D0112A20D1124B02689A4234
:1010700017D193681B0219D4936843F4000393605B
:101080000968102912D10C490C4A0968B1FBF2F128
:1010900001EB8101490000E0491E00910029FBD1CC
:1010A00004E0816A41F020018162012480F824502B
:1010B0002046F8BD002401400C00002040420F00F3
:1010C0000068C06C704700002DE9F0414FF0000748
:1010D00004003D467ED0A06A002628B9E66284F866
:1010E0002460204600F07EF82046FFF7EDFBA16A61
:1010F000C90600D420B1A06A40F01000A06269E0E7
:10110000A16A21F4885141F00201A1626268E1699B
:10111000237B0A4347EA43010A43A1684FF48077DF
:10112000B94209D0012907D05FF0000194F814C03A
:10113000BCF1010F02D00AE03946F7E7F3B1A36A28
:1011400043F02003A362E36A43F00103E3622368F0
:10115000D3F804C02CF4694C4CEA010CC3F804C069
:1011600021688B68DFF870C003EA0C0313438B60BF
:10117000A168B9420BD0012909D00CE0DFF85CC0AE
:10118000A3690CEB43330B4343F40061DFE7218A8F
:101190000D05A5F580152168CB6A23F470032B4358
:1011A000CB62216889680E4B1940914208D1E662F2
:1011B000A16A21F0020141F00101A162BDE8F081C4
:1011C000A06A20F0020040F01000A062E06A40F047
:1011D0000100E0620120F1E7FDF7E1FF00E0FFFF21
:1011E000FE0E1FFF00B585B0002100910191029114
:1011F00003911B4B02681B4803219A4214D1826958
:1012000042F400728261826902F40072049282697F
:1012100042F0080282618069009100F008000191AB
:1012200004906946104817E0104B9A4216D1826923
:1012300042F480628261826902F48062049282696F
:1012400042F004028261806900F0040004904020B2
:10125000CDE900016946064800F0A6F905B000BDD9
:101260000024014000100240000C01400028014011
:10127000000801402DE9F84300270D460446009779
:1012800000F080FA804620688168C90508D5A06A08
:1012900040F02000A06284F824700120BDE8F883AB
:1012A0004168C90503D4C06A10F4700F2AD0022027
:1012B00000F006FB3B490968B1FBF0F620680369C2
:1012C00039490B424FEA61014FEAA1121FD1C368AD
:1012D0004FEA611C13EA0C0F19D103690B4225D1A7
:1012E000C068104222D1142023E0681C0AD02DB11E
:1012F00000F048FAA0EB0800A84203D92068006873
:10130000800725D5206800688007EED52DE00369A9
:101310000B4202D1C168114206D0026923490A4238
:1013200006D1C068084203D1542002E0292000E021
:10133000FC204643009816E0681C11D02DB100F047
:1013400021FAA0EB0800A8420AD90098B04207D2BF
:10135000A06A40F00400A06284F8247003209DE796
:101360000098401C0090B042E6D321686FF0120054
:101370000860A06A40F40070A06220688068C0F332
:10138000424007280CD1207B50B9A06A20F480701D
:10139000A062A06AC00403D4A06A40F00100A06269
:1013A00000207BE70C00002024499224499224006D
:1013B00070B5044690F8240001280DD0012084F86F
:1013C00024002046FFF7ACFA02004FF0000005D0E1
:1013D00084F82400104670BD022070BDA16A40F25E
:1013E0000123994341F48071A1621F4D23681F4975
:1013F000AB4218D10E6816F4702F14D0A66A46F4CA
:101400008016A6620E68760505D5A66A26F40056F3
:1014100046F48056A662A66AF6040AD5E66A26F065
:101420000606E66206E0A66A26F48016A6625E68F4
:10143000E9E7E06284F824006FF002001860206899
:101440008368C3F34243072B05D1A84208D109683A
:1014500011F4702F04D0816841F480118160B9E7E4
:10146000816841F4A001F9E700280140042401400B
:1014700010B5044690F82400012807D0012084F814
:1014800024002046FFF720FA10B107E0022010BD2B
:10149000A16A21F4885141F00101A162002184F880
:1014A000241010BD10B590F821100022022905D09B
:1014B0000421816380F82020012010BD01680B68A1
:1014C00023F00E030B6001680B6823F001030B602F
:1014D00090F84030C46B012101FA03F3636080F897
:1014E000211080F82020104610BD000010B590F8A3
:1014F00021100024022903D00421816301243DE04E
:1015000001680A6822F00E020A6001680A6822F087
:1015100001020A601A4A0168914201D1012121E0C9
:10152000174A1432914201D110211BE0144A28328B
:10153000914201D1891515E0114A3C32914201D105
:1015400089140FE00E4A5032914202D14FF480319B
:1015500008E00B4A6432914202D14FF4801101E05D
:101560004FF08071064A083A5160012180F821103D
:10157000002180F82010416B01B18847204610BD42
:101580000800024070B5044600F0FCF80546601CF7
:1015900002D004480078044400F0F4F8401BA04254
:1015A000FAD370BD000000202DE9F84FDFF89C91C0
:1015B000002409F1040A0AF1040B23460F270BF15A
:1015C000040EBBE00125A5402A40AA4276D1DFF8EF
:1015D00080C14E68A6EB0C0866452BD00DDC032EAF
:1015E00034D005DC36B3012E19D0022E2FD11BE0EA
:1015F000112E16D0122E2AD119E0B8F5881F19D055
:1016000006DCB8F5803F15D0B8F5801F1FD111E07A
:10161000B8F5001F0ED0B8F5041F18D10AE0CB684A
:1016200015E0CB681B1D12E0CB6808330FE0CB68D8
:101630000C330CE08B682BB1012B4FF0080303D067
:10164000456104E0042302E0056100E00023FF2A75
:1016500001D8064601E000F104064FEA840501D9ED
:10166000A5F12005D6F8008007FA05FC28EA0C0849
:1016700003FA05F548EA0508C6F800804D68ED0054
:101680005BD5344DAE6946F00106AE61AD6924F01C
:10169000030605F0010500952F4D06EB050CDCF85F
:1016A0000850A607360F07FA06F825EA0805DFF8FE
:1016B000AC80404503D14FF0000810E03DE0DFF87A
:1016C000A080404502D14FF0010808E0DFF8948087
:1016D000404502D14FF0020801E04FF0030808FA3C
:1016E00006F848EA0508CCF808804D68D9F800608B
:1016F000ED034D4601D5164300E096432E604D683C
:10170000DAF80060AD03554601D5164300E0964374
:101710002E604D68DBF80060ED025D4601D5164392
:1017200000E096432E604D68DEF80060AD0275461D
:1017300001D5164300E096432E60641C0A6832FA15
:1017400004F57FF43FAFBDE8F88F000000040140CE
:10175000000011100010024000000140000801408C
:10176000000C014000100140C26821EA02030A4057
:1017700043EA0241016170470AB1016170470904FF
:10178000FBE700000148806870470000000000206F
:10179000024881680278114481607047000000208F
:1017A000074810B5016841F010010160032000F006
:1017B00075F80F2000F006F800F024F8002010BDA6
:1017C0000020024070B50D4D04464FF47A71287820
:1017D000B1FBF0F00A490968B1FBF0F000F0C6FB7C
:1017E00048B9102C07D200222146501E00F036F8CE
:1017F00000206C6070BD012070BD00000000002062
:101800000C0000200C4808B5816941F0010181619C
:10181000816901F001010091C16941F08051C1610C
:10182000C06900F0805000900448416821F0E061F8
:1018300041F00071416008BD00100240000001400D
:10184000002809DB00F01F020121914040098000BF
:1018500000F1E020C0F8001170470000F0B40E4B1A
:101860001B680C46C3F30223C3F10705042D00D9FE
:101870000425191D072901D2002300E0DB1E0126E3
:1018800006FA05F1491E214099409E40761E1640F9
:101890003143F0BC01F0A4BC0CED00E0064900F0BF
:1018A000070208684FF6FF03184040EA0220034A87
:1018B00010430860704700000CED00E00000FA05DE
:1018C00010B529A401461DCC86B08DE81D002AA0C4
:1018D0002A4C006804900020012923D002293AD024
:1018E00010291DD161682268D20119D5C1F3834244
:1018F000C9031DF8020009D5616804AAC1F340417B
:10190000515C1F4AB2FBF1F1484301E01D494843D5
:101910006168490204D440005FF00301B0FBF1F0BC
:1019200006B010BD226AC2F30121012903D192073A
:1019300001D5C803F4E7022905D1626A920702D5EE
:1019400049F64040ECE70329EAD121688903E7D54D
:101950004FF22440E4E700F033F96168C1F38131CC
:10196000491C4900DAE700000203040506070809DC
:101970000A0B0C0D0E0F10100102000000100240A7
:1019800000127A0000093D002DE9F8430546007871
:10199000354CC00754D0E0690026C00008D4E06987
:1019A00040F08050E061E069012600F08050009036
:1019B0002E480168C90512D40168804641F480713F
:1019C0000160FFF7DFFE074605E000BFFFF7DAFE24
:1019D000C01B642823D8D8F80000C005F6D5206ABB
:1019E00010F4407021D0A98801F4407181421CD0CC
:1019F000206A1F49012220F440700A6000220A6018
:101A00002062C00711D0FFF7BDFE074641F28838BB
:101A100008E000BFFFF7B6FEC11B414502D9032015
:101A2000BDE8F883206A8007F4D5206A696820F44D
:101A30004070084320621EB1E06920F08050E061F0
:101A40002878800705D56068A96820F440400843DD
:101A500060602878C00605D56068E96820F48000D9
:101A6000084360600020DBE7001002400070004087
:101A7000400442422DE9F0470F46050061D0434E35
:101A8000306800F00700B84209D2306820F0070043
:101A900038433060306800F00700B84251D1286800
:101AA0003B4C810712D5400703D5606840F4E060E5
:101AB00060602878000703D5606840F4605060607B
:101AC0006068A96820F0F000084360602878C007CB
:101AD00028D06868012810D02168022810D0890712
:101AE00000292EDA616821F0030101436160FFF7EC
:101AF00049FE804641F288390DE021688903EFE70D
:101B00008901EDE7FFF73EFEA0EB0801494502D948
:101B10000320BDE8F0876068696800F00C00B0EB56
:101B2000810FEFD1306800F00700B8420BD9306860
:101B300020F0070038433060306800F00700B842FA
:101B400001D00120E5E72878400705D56068E968FD
:101B500020F4E060084360602878000706D56068DC
:101B6000296920F4605040EAC100606000F038F854
:101B70006168084AC1F30311515CC8400649086016
:101B800006480068FFF71EFE0020C2E70020024062
:101B9000001002405C3C00080C0000200400002003
:101BA0000448054900684968044AC1F30221515CB0
:101BB000C84070470C000020001002406C3C000838
:101BC0000448054900684968044AC1F3C221515CD0
:101BD000C84070470C000020001002406C3C000818
:101BE00012A185B00FC98DE80F0014A0144A006837
:101BF00004905168134801F00C03042B10D0082BFB
:101C00000ED1C1F38343C9031DF803000AD55168FF
:101C100004AAC1F34041515C0A4A5043B0FBF1F0C1
:101C200005B0704708494843FAE70000020304057D
:101C3000060708090A0B0C0D0E0F10100102000018
:101C40000010024000127A0000093D002DE9F84F13
:101C5000040070D02078C04DC00749D06868C0F338
:101C60008100012807D06868C0F38100022809D1EB
:101C70006868C00306D52868800339D560680028E5
:101C8000E7D035E06068B0F5803F0BD010B1B0F51B
:101C9000A02F11D0286820F480302860286820F414
:101CA000802002E0286840F480302860606890B1AD
:101CB000FFF768FD06460AE0286840F480202860A7
:101CC000F0E700BFFFF75EFD801B642873D828682B
:101CD0008003F7D50CE0FFF755FD064605E000BF91
:101CE000FFF750FD801B6428F0D828688003F7D4E4
:101CF00020789A4E80074FF001094FF0000839D53F
:101D0000686810F00C0F07D06868C0F381000228E3
:101D100009D16868C00306D42868800714D52069F3
:101D2000012808D110E02069B0B1C6F80090FFF793
:101D300029FD074605E00AE1FFF724FDC01B022844
:101D4000C4D828688007F7D52868616920F0F800B2
:101D500040EAC10028600DE0C6F80080FFF712FDE0
:101D6000074604E0FFF70EFDC01B022823D82868B1
:101D70008007F7D4207800072CD57948A169D9B11C
:101D8000C0F80090FFF7FEFC074604E0FFF7FAFCFE
:101D9000C01B02280FD8686A8007F7D571484FF436
:101DA000FA510068B0FBF1F0009000BF0098411EAE
:101DB0000091FAD20EE080E0C0F80080FFF7E2FC6C
:101DC000074604E0FFF7DEFCC01B022875D8686AEE
:101DD0008007F7D42078400760D5E8690027C00065
:101DE00008D4E86940F08050E861E869012700F014
:101DF000805000905C480168C90513D4016883468F
:101E000041F480710160FFF7BDFC824606E000BF2F
:101E1000FFF7B8FCA0EB0A0064284ED8DBF80000FE
:101E2000C005F5D5E06801280AD008B1052813D00F
:101E3000286A20F001002862286A20F0040002E0ED
:101E4000286A40F001002862E06841F2883B98B1BE
:101E5000FFF798FC82460BE0286A40F004002862F5
:101E6000EEE700BFFFF78EFCA0EB0A0159455AD8F8
:101E7000286A8007F6D50CE0FFF784FC824605E06F
:101E8000FFF780FCA0EB0A0159454CD8286A80076F
:101E9000F6D41FB1E86920F08050E861E06988B3AA
:101EA0006968C1F38101022944D00228C6F8608024
:101EB00004D0FFF767FC044638E034E0FFF762FC2B
:101EC000074604E0FFF75EFCC01B02282BD82868F9
:101ED0008001F7D4206AB0F5803F05D16868A16819
:101EE00020F4003008436860D4E9080108436968B9
:101EF00021F4741108436860C6F86090FFF742FC53
:101F0000044606E025E000BFFFF73CFC001B02286A
:101F100009D828688001F7D51BE000BFFFF732FC25
:101F2000001B022802D90320BDE8F88F2868800131
:101F3000F4D40EE00128F7D06868226A00F48031FA
:101F4000914204D1616A00F47010884201D00120EE
:101F5000EAE70020E8E700000010024000004242EB
:101F6000800442420C0000200070004010B5401E6A
:101F7000B0F1807F01D3012010BD4FF0E0246061FB
:101F80000F21601701F02CF90020A06107202061CB
:101F9000002010BD70B590F83C20012A23D0012408
:101FA00080F83C40022280F83D2003685A689D6812
:101FB00022F070060A6832435A600C4B02689A425B
:101FC00005D0B2F1804F02D0094B9A4204D1496842
:101FD00025F080031943916080F83D40002180F88E
:101FE0003C10084670BD022070BD0000002C01406E
:101FF0000004004010B5040003D094F83D0010B177
:1020000007E0012010BD002084F83C00204600F0CD
:102010001FF8022084F83D00211D206800F02CFFED
:10202000012084F8460084F83E0084F83F0084F8DC
:10203000400084F8410084F8420084F8430084F8AA
:10204000440084F8450084F83D00002010BD0000E5
:1020500008B50068B0F1804F08D10548C16941F06A
:102060000101C161C06900F00100009008BD0000DD
:102070000010024090F83D10012901D00120704766
:10208000022180F83D100168CA6842F00102CA606E
:1020900000680A49884205D0B0F1804F02D0084953
:1020A000884204D1816801F00701062903D0016844
:1020B00041F001010160002070470000002C014048
:1020C0000004004070B5044690F83C00012817D089
:1020D000012584F83C50022084F83D002068826885
:1020E00022F0770222F47F4282600868502830D0C4
:1020F0000DDC20284DD005DC98B310283BD148E0FA
:10210000022070BD302844D0402834D139E0602806
:1021100028D0702806D0B0F5805F2CD0B0F5005FD5
:1021200029D10AE0CB68D1E90121206800F0D2FE74
:102130002068816841F0770109E0CB68D1E901218D
:10214000206800F0C7FE2068816841F4804181600A
:1021500011E0CA684968206800F0CEFE502120686E
:1021600007E016E0CA684968206800F0D6FE6021E2
:10217000206800F0B9FE84F83D50002084F83C004F
:1021800070BDCA684968206800F0B6FE402120682A
:10219000EFE7226801461046EBE770477047000002
:1021A000F8B5026804461068D168536910F00F0F43
:1021B0004FF0000553D003F0010601F49077374348
:1021C0005FD0C20705D0CA0503D5226C42F00102D8
:1021D0002264420705D5DA0703D0226C42F00202DE
:1021E0002264820705D5DA0703D0226C42F004028C
:1021F0002264020707D501F02002324303D0226C8B
:1022000042F008022264226C002A34D0800604D5F1
:10221000880602D5204600F0B2FE20684069216C95
:10222000C0F38010090700D430B3204600F08FFEC1
:102230002068416949061BD5416921F0400141618F
:10224000A06BA8B158494163A06BFFF74FF9002874
:1022500011D0A06B416B01B0BDE8F0400847830688
:102260000FD58B060DD52046BDE8F84000F087BE9F
:102270002046FFF793FFF8BD2046FFF78FFF256448
:10228000F8BD266B2023012E52D1C60650D5CE06AE
:102290004ED5106850680090506940062AD5A16B51
:1022A000086840680004000CEAD0A68D8642E7D991
:1022B000E0858869202818D0D06820F48070D0602C
:1022C0002068416921F0010141612068416921F0E4
:1022D0004001416184F83E3025632068C16821F0E7
:1022E0001001C160A06BFFF7DDF8A08DE18D401AF1
:1022F00081B219E0A08DE18D401A81B2E08D0028F5
:10230000BED00029BCD0D06820F49070D060206886
:10231000426922F00102426184F83E302563206860
:10232000C26822F01002C2602046FFF736FFF8BDF7
:1023300005062BD50D0629D594F83D002128F6D1A8
:10234000A068B0F5805F01D12069B0B1206A411C5E
:102350002162216800784860E08C401E0004000C77
:10236000E084E4D12068C16821F08001C160206868
:10237000C16841F04001C160F8BD206A0088C0F327
:1023800008005060206A801C2062E5E74006F3D513
:102390004806F1D5D168204621F04001D16084F88B
:1023A0003D3000F024F9F8BD3F2F000870B504005F
:1023B00004D094F83D00002510B106E0012070BD66
:1023C00084F83C50204600F023F8242084F83D0097
:1023D0002068C16821F40051C160204600F02AFE47
:1023E0002068016921F4904101612068416921F070
:1023F0002A0141612068C16841F40051C16025642F
:10240000202084F83D0084F83E00002070BD0000CC
:1024100070B586B0002400940194029403942B4E6E
:1024200003682B49022003222A4DB34221D18B6934
:1024300043F480438B618B6903F4804304938B697D
:1024400043F004038B618969039201F00401049154
:102450000102CDE9001069462846FFF7A5F82815C6
:10246000CDE90004694628460294FFF79DF806B0BE
:1024700070BD194EB342FAD1CB6943F40033CB613E
:10248000CB6903F4003304938B6943F004038B613D
:102490008969039201F0040104910421CDE900103F
:1024A00069462846FFF780F80820CDE90004694610
:1024B00028460294FFF778F8002211462620FFF7FD
:1024C000CDF92620FFF7BCF9D1E700000038014024
:1024D00000100240000801400044004090F83E30E7
:1024E000202B0ED159B152B190F83C30012B08D0BD
:1024F000012380F83C300023036300F0F7BD012086
:102500007047022070470000084988420CD10848F3
:102510000949084B027808681A54401C08600122D7
:1025200003490248FFF7DABF7047000008010020A6
:102530002002002058010020100000202DE9F8435F
:10254000044690F83D001F4616460D4620284CD103
:10255000C5B1BEB194F83C00012846D0012084F8F2
:102560003C004FF00008C4F84080212084F83D0072
:10257000FFF708F9A6848146E684A068B0F5805F7D
:1025800003D004E00120BDE8F883206928B12E467D
:102590005FF0000584F83C800EE00026FAE7802119
:1025A000204600F0BEFDA0B9AEB116F8010B2168BF
:1025B0004860E08C401EE084E08C4B464FF0000207
:1025C00000970028EBD14FF04001204600F0A9FD14
:1025D00030B10320D7E735F8020BC0F30800E6E777
:1025E000202084F83D000020CDE70220CBE7704793
:1025F000FEE7000010B540F25B7215A118A0FEF7CF
:102600002FFB00281AD017A000F0C6FD1EA220A1A3
:1026100020A000F09BF8002812D020A000F0BCFD04
:102620000122002125A000F00DFA58B125A000F0EC
:10263000B3FDBDE810402B48FFF71CBD2AA002E007
:1026400033A000E03AA0BDE8104000F0A5BD0000B6
:102650006C696C6967616F67616F2E78797A0000C9
:10266000544350005B44454255475D3A095443503A
:102670002F495020B3C9B9A6C1ACBDD3B7FECEF126
:10268000C6F72E0D0A000000323332333233000019
:1026900073746D003130332D416972005B444542E3
:1026A00055475D3A09B3C9B9A6C1ACBDD34D515424
:1026B00054B7FECEF1C6F70D0A00000074657374BE
:1026C000000000005B44454255475D3A094D5154B6
:1026D0005420546F70696320B6A9D4C4B3C9B9A695
:1026E0000D0A00007C0000205B44454255475D3ADE
:1026F000095443502F495020CEDEB7A8C1ACBDD3FA
:102700004D515454B7FECEF1C6F72E0D0A0000000D
:102710005B44454255475D3A09CEDEB7A8C1ACBD22
:10272000D34D515454B7FECEF1C6F7210D0A000027
:102730005B44454255475D3A094D515454207375E9
:10274000627363726962650D0A0000002DE9F74F3C
:1027500092468346FDF72EFD07460198FDF72AFDB8
:1027600006465046FDF726FD754C00220546628060
:10277000B819618828444FF0100C724B03EB010824
:10278000491C618088F800C01030C11700EB51610E
:1027900021F07F0CA0EB0C0000F0FF0CC81100280A
:1027A00002DD00BF4CF0800C618803EB010801F1F1
:1027B0000101618088F800C0E7DC6188994618460D
:1027C0000B4401F1010161801A7061884FF0040827
:1027D00000EB010301F10101618083F80080618851
:1027E0004FF04D0300EB010C01F1010161808CF809
:1027F000003061884FF0510300EB010C01F1010141
:1028000061808CF8003061884FF0540300EB010CBC
:1028100001F1010161808CF80030618800EB010C4E
:1028200001F1010161808CF80030618800EB010347
:1028300001F10101618083F8008061884FF0C203DB
:1028400000EB010C01F1010161808CF8003061881E
:1028500000EB010301F1010161801A7061884FF002
:102860003C0200EB010301F1010161801A706188F3
:102870004FEA172200EB010301F1010161801A7098
:10288000618800EB010201F101016180177061882C
:102890003A4609EB01005946FDF756FC608838447A
:1028A0006080002E15DD6088320A09EB0003401CB1
:1028B00060801A70608809EB0002401C608016700E
:1028C0006088324648440199FDF73EFC60883044F8
:1028D0006080002D15DD60882A0A09EB0003401C8A
:1028E00060801A70608809EB0002401C60801570DF
:1028F00060882A4648445146FDF726FC60882844F3
:102900006080114F01261048FEF78CF861880D4851
:1029100000F090F81D253878202802D17878022818
:102920000BD06420FEF72EFE6D1EEDB2F3D23046C2
:10293000761EF6B2E7D2BDE8FE8F0120FBE700006D
:1029400014000020BC010020580100202DE9F047B0
:1029500090468A468146FDF72DFC06465046FDF717
:1029600029FC324C074600206080B8F1000F06EBCE
:10297000070001D0001D00E0801C618830222C4D32
:102980006B18491C61801A70C11700EB516121F06E
:102990007F02801AC2B2C811002801DD42F0800215
:1029A000618805EB010301F1010161801A70EBDC24
:1029B00060884FEA162105EB000200F101006080FB
:1029C0001170608805EB000100F1010060800E705D
:1029D0006088324628444946FDF7B6FB608830449B
:1029E0006080B8F1000F0FD0104960884A782B182A
:1029F000401C60801A70097860882A18401C60802A
:102A000011702088401C208060883A462844514636
:102A1000FDF79AFB6088384460806188044800F0C4
:102A200009F86088C0B2BDE8F087000014000020FB
:102A3000BC010020FEF742B802210148FFF7FABFAF
:102A4000763C00082DE9F047454C4FF0000817464A
:102A500089468246A4F80280FDF7ACFB414D06464C
:102A6000002F02D04FF0010001E04FF00000304491
:102A700000F1040002D04FF0820201E04FF0A20208
:102A8000618805EB010301F10101618083F80020F9
:102A90004FEAE07100EB516121F07F02A0EB0200F0
:102AA000C2B24FEAE110002802DD00BF42F080020E
:102AB000618805EB010301F1010161801A70E7DC17
:102AC000608805EB000100F10100608081F8008062
:102AD00060884FF0010105EB000200F10100608009
:102AE000117060884FEA162105EB000200F1010029
:102AF00060801170608805EB000100F101006080CA
:102B00000E706088324628445146FDF71DFB6088F0
:102B1000304460802FB160882A18401C608082F8A1
:102B20000090114F01251048FDF77CFF61880D488A
:102B3000FFF780FF1D263878902802D17878032887
:102B400009D06420FEF71EFD761EF6B2F3D26D1E8C
:102B5000EDB2E8D215B10120BDE8F0870020FBE717
:102B600014000020BC010020580100203EB50021C7
:102B7000174800910191154A0291026092158260F6
:102B8000017301240475022505614FF46022416040
:102B9000C0E90642FEF798FA08B1FEF77BF9082073
:102BA000CDE9000469460A480294FEF70BFA08B121
:102BB000FEF770F90920CDE9000569460448FEF7E3
:102BC00001FA002801D0FEF765F93EBD002401405E
:102BD0001C0000203EB5002411480094019402948A
:102BE0000E498460016004730475012505614FF48A
:102BF00060214460C161FEF767FA08B1FEF74AF947
:102C00000620CDE90005694602940548FEF7DAF989
:102C1000002801D0FEF73EF93EBD0000002801402B
:102C20004C000020F0B585B00024244800940194A5
:102C300002940394816941F010018161816901F07E
:102C400010010491816941F020018161816901F0E5
:102C500020010491816941F004018161816901F0E1
:102C600004010491816941F0080181618069144E79
:102C700000F008004FF40055049000222946304629
:102C8000FEF77AFD0F4F002208213846FEF774FD4B
:102C900000950125CDE90154694630460395FEF7BC
:102CA00083FC0820CDE900050320CDE902406946F8
:102CB0003846FEF779FC05B0F0BD00000010024078
:102CC00000100140000C014010B586B000241648E9
:102CD000009401940294039404944FF0804105946D
:102CE00001604721C0E901144FF6FF71C0E90314E8
:102CF0008461FFF77FF908B1FEF7CCF84FF48050FC
:102D0000009069460848FFF7DDF908B1FEF7C2F800
:102D1000049404A904480594FFF73CF9002801D065
:102D2000FEF7B8F806B010BD7C0000200C4810B5C6
:102D30000A4901604FF4E1314160002181600C22B9
:102D4000C160C0E904128161C161FFF72FFB002857
:102D500003D0BDE81040FEF79DB810BD003801401B
:102D6000C40000200C4810B50A4901604FF4E1315D
:102D70004160002181600C22C160C0E904128161C0
:102D8000C161FFF713FB002803D0BDE81040FEF738
:102D900081B810BD0044004008010020FEE7FEE7B6
:102DA00070477047FEF7F4BC30B593B028216846F1
:102DB000FDF7E3F914210AA8FDF7DFF9002501204A
:102DC0000F9510951195010412958DE8230004903C
:102DD0004FF4E010CDE90810022407946846FEF78E
:102DE00035FF08B172B6FEE70AA90F2081E831006D
:102DF0004FF48060CDE90D0502210AA8FEF73AFEE6
:102E000008B172B6FEE74FF4004011900F940FA87E
:102E1000FEF7BAFD002801D072B6FEE713B030BD50
:102E2000704770B5064600244FF47A75304600F0BE
:102E300005F8641CA4B2AC42F8D370BD0D49002261
:102E40000B685A620A68136843F00103136009684B
:102E50004A6A8242FCD3086A41F21112104207D139
:102E6000086A9210104203D1086820F0010008603F
:102E7000704700007C00002070B50268134B144CB2
:102E80004FF08046984203D0B04201D0A04203D117
:102E900022F070054A682A43984203D0B04201D01C
:102EA000A04203D122F44074CA6822434C6922F044
:102EB0008002224302608A68C2620A688262984283
:102EC00001D1096901630121416170BD002C0140FC
:102ED0000004004010B5846842EA032224F47F44D1
:102EE0000A432243826010BD826822F070020A43C6
:102EF00042F007018160704710B5036A046A24F04C
:102F000001040462846924F0F00444EA021423F00A
:102F10000A020A438461026210BD10B5036A23F0FD
:102F2000100303628369046A23F4704343EA0232A4
:102F300024F0A00343EA01118261016210BD10B5C3
:102F4000406A0021C185C184FFF728F910BD0168DE
:102F5000CA6822F49072CA6001684A6922F00102CC
:102F60004A61016B012904D10168CA6822F010028C
:102F7000CA60202180F83E1000210163704708B527
:102F800090F83E10222901D0022008BD82684FF43B
:102F900080539A4201D1016921B1816A9A421BD0C2
:102FA0004AB10AE00268816A5268C2F308020A80E4
:102FB000816A891C08E0026972B10268526802F0F5
:102FC0007F020A70816A491C8162C18D491E090411
:102FD000090CC18503D019E002685268F1E7016865
:102FE000CA6822F02002CA600168CA6822F48072AE
:102FF000CA6001684A6922F001024A61202180F812
:103000003E10016B012903D0FFF77EFA002008BDB6
:10301000002101630168CA6822F01002CA600168D9
:103020000A68D20602D50A6849680091818DFFF7C7
:10303000B4F8EBE770B5044600680169E26821F472
:103040004051114301612169A06808436169084347
:103050002168CA6841F20C639A430243CA6020683F
:103060004169A26921F44071114341611E49206800
:10307000884202D1FEF7A4FD01E0FEF791FD00EBCE
:10308000C00101EB0012606864218000B2FBF0F324
:10309000B3FBF1F36FF018067343B2FBF0F5B2FB2C
:1030A000F0F605EB8305322303EB0515B5FBF1F5CF
:1030B000B6FBF1F605F0F00505EB0615B2FBF0F6F0
:1030C000B2FBF0F0B0FBF1F06FF01802504306EBEA
:1030D000800003EB0010B0FBF1F0216800F00F005E
:1030E0002844886070BD00000038014081628285FC
:1030F000C28500210164222280F83E2080F83C1025
:103100000168CA6842F48072CA6001684A6942F084
:1031100001024A610068C16841F02001C1600020DD
:1031200070472DE9F041984617460E460446069D25
:103130001DE0681C1BD02DB1FEF724FBA0EB08009E
:10314000A84214D92068C16821F4D071C1602068F8
:10315000416921F001014161202084F83D0084F89B
:103160003E00002084F83C000320BDE8F081206888
:10317000006836EA000004D00020B842D9D0002010
:10318000F3E70120F9E700000148FFF709B8000064
:1031900008010020FEE700000FB4054B10B503A99D
:1031A000044A029800F0FEF810BC5DF814FB000021
:1031B000B53A0008180000200FB4084B10B504A958
:1031C00002AA039800F0EEF8044602A9002000F0DD
:1031D0006CFC204610BC5DF814FB0000AB3A000804
:1031E0000907090E002804DB00F1E02080F8001434
:1031F000704700F00F0000F1E02080F8141D7047C8
:1032000002E008C8121F08C1002AFAD170477047AF
:10321000002001E001C1121F002AFBD1704700000D
:103220002DE9FF5F82B00021DDE90430020DDDF8F9
:1032300040B0034318D044F61050A2F2FF3242438C
:103240001514119801281FD0A5EB0B00401C5FEA54
:10325000000A4FF000064E4FDFF83891B046504656
:1032600015D5CAF1000413E0119801244AA30128DE
:1032700001D16FEA0B010298119AC0E90031C0E94F
:10328000024206B0BDE8F09FCBF10000DFE7044644
:103290000021404A491842EB0450CDE9001012E0E9
:1032A000E00707D032463B4640464946FDF76EF8F8
:1032B0008046894632463B4610461946FDF766F879
:1032C00006460F466410002CEAD1DDE90401DDE971
:1032D0000023BAF1000F06DAFDF758F842464B46D4
:1032E000FDF754F805E0FDF73DFA42464B46FDF781
:1032F00039FA04460E460022284BFDF7BBFA03D8E4
:103300004FF0FF30014607E00022254B20463146B2
:10331000FCF795FFFDF795FA102409E0002C0ADB75
:103320000A220023FDF738F9039B30321A55641E38
:1033300050EA0102F2D1641C039AC4F1110314444F
:10334000119A012A03D0012208430DD10AE0084353
:1033500004D000204FF0110B119072E7A3EB0B0586
:103360006D1E0DE05B4504DD4FF0000205F1010527
:1033700004E003DA4FF00002A5F10105002AECD0C9
:1033800002981199C0E90231C0E9004579E70000CF
:10339000000014400000F03F300000000000F04347
:1033A0000000E03F2DE9FF4F95B09A46884606465B
:1033B0000025EEE1252877D100242746F94A01218E
:1033C000039400E0044316F8013F203B01FA03F0A8
:1033D0001042F7D130782A2811D06FF02F033078BF
:1033E000A0F13002092A16D8039A44F0020402EB35
:1033F000820203EB42021044761C0390EFE758F878
:10340000042B0392002A03DA504244F40054039040
:1034100044F00204761C30782E2816D116F8010FDD
:1034200044F004042A280DD06FF02F023078A0F168
:103430003003092B09D807EB870302EB4303C718B6
:10344000761CF3E758F8047B761C30786C280FD094
:1034500006DC4C2817D068280DD06A2814D104E067
:10346000742810D07A280FD10DE044F400140AE03B
:1034700044F4801401E044F440147278824202D192
:1034800004F58014761C761C307866280BD013DC8B
:10349000582877D009DC002875D04528F6D0462872
:1034A000F4D047281AD193E118E0632835D0642876
:1034B00079D0652812D18BE1702873D008DC672899
:1034C000F1D069286FD06E280DD06F2806D1ACE0FE
:1034D00073282CD0752874D0782853D05246179969
:1034E00090476D1C54E1C4F30250022809D0032810
:1034F0000DD0D8F8001004280DD00D6008F1040894
:1035000046E1D8F80010EA17C1E90052F6E7D8F80A
:1035100000100D80F2E70D70F0E718F8041B8DF82D
:10352000001000208DF80100EB46012003E058F860
:1035300004BB4FF0FF3061074FF0000102D40DE0F3
:1035400009F101018946B9420FDA8145F8DB1BF820
:1035500009100029F4D108E009F1010189468142EE
:10356000FADB1BF809100029F6D103985346A0EBAB
:10357000090721463846179A00F080FA284400EBE4
:10358000090507E044E008E10DE01BF8010B524695
:1035900017999047B9F10109F7D2534621463846A9
:1035A000179AF2E039E00A21C4F302524FF0000BFF
:1035B0000091022A06D058F8040BC117032A09D03B
:1035C0000AE023E008F1070020F00702F2E8020118
:1035D000904605E000B2C117042A01D140B2C117DC
:1035E000002906DA0A460021404261EB02012D2241
:1035F00002E0220504D52B228DF80420012203E0ED
:10360000E20701D02022F7E7914657E00A2100E0C7
:1036100010214FF0000B00910BE010214FF0000B38
:1036200044F004040827009103E008204FF0000B49
:103630000090C4F30252022A05D058F8040B00216E
:10364000032A08D008E008F1070020F00702F2E89A
:103650000201904603E080B2042A00D1C0B24FF0CC
:10366000000922072AD53278702A07D0DDF800C079
:103670008CF0100C5CEA0B0C05D00EE040228DF8AB
:103680000420012208E050EA010306D030238DF81F
:1036900004308DF8052002229146009B83F0080338
:1036A00053EA0B030AD150EA010201D1620705D5A2
:1036B00030228DF804204FF001097F1E3278582AFD
:1036C00004D039A20C920CAA02920BE03BA2F9E7BB
:1036D0005B46009AFCF760FF0C9B9B5C029A521EB3
:1036E0000292137050EA0102F2D1029804A9081A5A
:1036F00000F1200B600702D524F4803400E001279C
:103700005F4502DDA7EB0B0000E0002000EB0B01A2
:10371000009003984944401A0390E00306D45346AE
:103720002146179A039800F0A9F90544002706E0FE
:1037300001A85246C05D179990476D1C7F1C4F45EC
:10374000F6DBE0030CD553462146179A039800F0A8
:1037500095F9054404E030205246179990476D1CB6
:103760000099481E00900029F5DC08E002980299B3
:1037700052460078491C0291179990476D1CBBF185
:103780000001ABF1010BF1DC5BE100F065F90544F0
:10379000761C307800287FF40DAE19B02846BDE8BD
:1037A000F08F0000092801003031323334353637CC
:1037B000383961626364656600000000303132337D
:1037C000343536373839414243444546000000001D
:1037D000600700D4062708F1070020F00700F0E892
:1037E0000223804603F0004C5FEA0C0001D097A052
:1037F00009E0200501D596A005E0E00701D095A0DD
:1038000001E0AFF24C001390307823F000436528BC
:103810000CD006DC452809D046281DD047287FD18A
:103820003BE0662818D067287AD136E00021112FB6
:1038300001DB112000E0781CCDE9000104A90CA8EF
:10384000FFF7EEFCDDE90D010C9A4FF0000B07F1DC
:103850000109109200914EE04FF000400097CDE931
:10386000011004A90CA8FFF7DBFCDDE90D020C9B9D
:103870000F994FF0000B91461093009211B9791CEB
:1038800000EB0109B7EB090003D4C0F1FF3B07F1DE
:103890000109A9EB0700019042E0012F00DA01279E
:1038A0000021112F01DD112000E03846CDE9000193
:1038B00004A90CA8FFF7B4FCDDE90D010C9A0091F6
:1038C0004FF0000BB946109221070FD4009A4A45D9
:1038D00003DA914601E0A9F10109B9F1010F05DD13
:1038E000109AA9F10101515C3029F4D0B84202DAF2
:1038F00010F1040F03DA0121CDE9011010E00028D6
:1039000003DC8344A9EB000102E0411C494500DDD2
:103910008946A0EB0B00401C01904FF00040029044
:10392000200705D40198484502DB4FF0FF30019095
:1039300000208DF84B0002980DF14B07B0F1004FBD
:1039400025D002200C902B200D90029800280CDA34
:10395000404202902D200D9007E00A210298FCF7CA
:1039600005FE3031029007F8011D0C99481E0C909D
:103970000029F2DC02980028EFD1791E0D9808701A
:10398000307800F0200040F0450007F8020D11A843
:10399000C01BC01D02901398007800B1012000EBFD
:1039A0000901019801EBE071029801440398401A63
:1039B000401E0390E00306D453462146179A03980D
:1039C00000F05CF805441398007818B15246179936
:1039D00090476D1CE00323D553462146179A039860
:1039E00000F04CF805441BE0BBF1000F07DB00982A
:1039F000584504DD1098179910F80B0001E017994D
:103A000030205246904701980BF1010B401E05F102
:103A10000105019004D12E205246179990476D1C44
:103A2000B9F10001A9F10109DEDC05E017F8010B8D
:103A30005246179990476D1C0299481E0290002922
:103A4000F4DC53462146179A03989EE62D000000A9
:103A50002B000000200000002DE9F0410446002565
:103A60001E461746880404D405E039462020B04796
:103A70006D1C641EF9D52846BDE8F0812DE9F041A2
:103A8000044600251E469046C80301D5302700E0B5
:103A90002027880404D505E041463846B0476D1C10
:103AA000641EF9D52846BDE8F0810A68531C0B60F6
:103AB0001070704708B502238DF800000122694696
:103AC0000248FEF73BFD002008BD0000C4000020B6
:103AD00010B50B48FDF76CFC4FF6FF710848FDF779
:103AE000C9FB0748FDF7ECFAFCF7D9FC044604488B
:103AF000FDF7BEFC2046BDE81040FCF7D5BC000039
:103B00004C0000200024FDF74BFEFFF74DF9FFF7B6
:103B100089F8FFF70BF9FFF729F8FFF7D5F8FFF75A
:103B200059F8FFF71FF901221D491E48FEF7D6FC80
:103B3000FCF782FFFEF75EFD32260527DFF868A05E
:103B40004FF47A784FF400590A25641C444500D19B
:103B50000024B4FBF6F006FB104008B9FEF76CFF3A
:103B6000B4FBF5F005FB104010B910A0FFF714FBF3
:103B7000B4FBF7F007FB104018B949465046FDF773
:103B8000F3FDB4FBF5F005FB104028B9FCF706FF88
:103B900000F01AF8FDF796F96420FDF7F3FCD4E77E
:103BA0002002002008010020001001405B44454233
:103BB00055475D3A09CFB5CDB3D4CBD0D0D6D02EB2
:103BC0002E2E0D0A0000000070B504468AB0406831
:103BD000FCF79DFC05460E462068FCF798FCCDE9F5
:103BE000005602460B460DA0FFF7D6FA6068FCF7B8
:103BF0008EFC05460E462068FCF789FCCDE9005690
:103C000002460B460DA102A8FFF7D6FA002202A930
:103C100011A0FEF79BFE0AB070BD0000414443377F
:103C20003A20252E336625250920CDA8B5C0383A7F
:103C300020252E33662525090A0000007B224D51E0
:103C400033223A252E33662C20224D5137223A2535
:103C50002E33667D00000000414952000000000044
:103C6000000000000102030406070809000000002C
:103C700001020304E000C000983C0008000000209E
:103C80001C00000000320008B43C00081C000020AA
:103C90006C06000010320008010000001000000057
:103CA000000000000024F4000000000000000000FC
:043CB0000000000010
:04000005080000ED02
:00000001FF
