:020000040800F2
:10000000E8040020AD0100089317000885110008DE
:1000100091170008ED0300084D19000800000000CA
:10002000000000000000000000000000971700081A
:10003000EF0300080000000095170008991700085A
:10004000C7010008C7010008C7010008C701000870
:10005000C7010008C7010008F1030008C701000834
:10006000C7010008C7010008C7010008C701000850
:10007000C7010008C7010008C7010008C701000840
:10008000C7010008C7010008B9020008000000000D
:10009000000000000000000000000000C701000890
:1000A000C7010008C7010008C7010008C701000810
:1000B000C7010008C7010008C7010008C701000800
:1000C000C7010008C7010008C7010008C7010008F0
:1000D000C7010008C7010008C701000800000000B0
:1000E000C7010008C7010008C701000800000000A0
:1000F000000000000000000000000000C701000830
:1001000000000000C7010008C7010008C70100087F
:1001100000000000000000000000000000000000DF
:10012000C7010008C7010008C7010008C70100088F
:10013000C7010008000000000000000000000000EF
:10014000000000000000000000000000C7010008DF
:10015000C7010008C7010008C7010008C70100085F
:10016000C7010008C70100080000000000000000EF
:10017000000000000000000000000000000000007F
:1001800000000000C701000800000000000000009F
:10019000C7010008DFF810D000F07CF800480047E5
:1001A0008D190008AFF30080E8040020064880475E
:1001B00006480047FEE7FEE7FEE7FEE7FEE7FEE74C
:1001C000FEE7FEE7FEE7FEE73118000895010008AC
:1001D0002DE9F05F0546002092469B46884606467C
:1001E000814640241BE0284641464746224600F00F
:1001F00041F853465A46C01A914110D31146184649
:10020000224600F028F82D1A67EB01084F462246D7
:100210000120002100F01FF817EB00094E41201EBD
:10022000A4F10104DFDC484631462A464346BDE8D6
:10023000F09FD2B201E000F8012B491EFBD27047BB
:100240000022F6E710B513460A4604461946FFF7A2
:10025000F0FF204610BD202A04DB203A00FA02F10C
:10026000002070479140C2F1200320FA03F31943A4
:1002700090407047202A04DB203A21FA02F0002146
:10028000704721FA02F3D040C2F1200291400843A6
:1002900019467047064C074D06E0E06840F0010340
:1002A00094E8070098471034AC42F6D3FFF776FF86
:1002B000A02A0008C02A0008014800F065B9000023
:1002C00014000020464910B54A6822F440324A60C2
:1002D0004A6843681A434A6001684A6822F4807297
:1002E0004A6001684A68036942EA03224A60016879
:1002F0004A6822F040724A6001684A6883681A437B
:100300004A6001688A6822F400628A6001688A682B
:10031000C3681A438A60816A6FF07062D1420168D3
:100320008A6822F070628A6001688A680CD0836AE9
:100330001A438A6001688A6822F040528A60016824
:100340008A68C36A1A4301E022F040528A60016859
:100350008A6822F002028A6001688A68037E42EAA3
:1003600043028A6090F82010002901684A680FD083
:1003700042F400624A6001684A6822F460424A60BE
:1003800001684A68174C436A04EB43331A4301E09F
:1003900022F400624A600168CA6A22F47002CA62EA
:1003A0000168CA6A838B104C04EB03531A43CA6278
:1003B00001688A6822F400728A6001688A6890F88D
:1003C000303042EA43228A6001688A6822F48062FF
:1003D0008A6001688A68406942EA8020886010BDAE
:1003E0000023014000E0FFFF0000F0FFFEE7704740
:1003F000012000F0E7B972B6FEE7704778B5002437
:10040000009490F83C20012A19D0012280F83C2069
:100410000A6807230568092A13D9EE680A3A02EB2D
:10042000420293409E43EE600B788A680A3B03EBDE
:1004300043039A400368DD682A43DA6010E0022033
:1004400078BD2E6902EB420293409E432E610B78E9
:100450008A6803EB43039A4003681D692A431A61C3
:100460004A681F23072A13D205686E6B521E02EBDF
:10047000820293409E436E630B790A885B1E92B2A0
:1004800003EB83039A4003685D6B2A435A6327E0BA
:1004900005680D2A12D22E6BD21F02EB8202934006
:1004A0009E432E630B790A88DB1F92B203EB830312
:1004B0009A4003681D6B2A431A6311E0EE6A0D3AF5
:1004C00002EB820293409E43EE620B790A880D3B59
:1004D00092B203EB83039A400368DD6A2A43DA622F
:1004E000164B0568144A9D4206D10D68122D03D1A2
:1004F000556845F48005556005689D4218D10B6824
:10050000102B01D0112B13D1536843F40003536017
:10051000096810290CD10A490A4A0968B1FBF2F1AD
:1005200001EB8101490000E0491E00910029FBD147
:1005300080F83C40002078BD0023014000200140AD
:100540001000002040420F0010B5094800F019F8D3
:1005500000EE100ADFED080A0648B8EE400A20EE69
:10056000200ADFED060A20EE200A80ED000A10BD09
:100570001400002000000020000080393333534075
:1005800070470068C06C704770B504460068016829
:100590004268C1F34001C2F3401251B34AB3216C27
:1005A000C90603D4216C41F400712164816811F003
:1005B000405F17D1217EA9B9C16A11F4700F02D032
:1005C000816849050ED4416821F020014160206C0A
:1005D00020F480702064206CC00403D4206C40F0B0
:1005E000010020642046FFF7AFFF21686FF0120082
:1005F0000860206801684268C1F38001C2F3C0123C
:1006000089B382B3216CC90603D4216C41F4005133
:100610002164816811F4401F1ED1816B11F4401FC9
:1006200002D08168490517D44168490514D481680E
:1006300011F0405F10D1217E71B9416821F0800135
:100640004160206C20F480502064206CC00503D4ED
:10065000206C40F0010020642046FFF7CEFE2168A8
:100660006FF00C00086020680168426811F0010F0B
:10067000C2F380120ED06AB10068C0070AD0206CA5
:1006800040F480302064204600F046F821686FF086
:1006900001000860206801684268C1F34011C2F39C
:1006A000806200290DD0002A0BD0616C41F002015C
:1006B00061646FF0200505602046FFF761FF206848
:1006C000056070BD70B504004FF0000503D0206CCC
:1006D000002610B107E0012070BD204600F01EF892
:1006E000666484F83C60206CC00610D4206C20F452
:1006F000885040F0020020642046FFF7E3FD666466
:10070000206C20F0020040F00100206400E0012590
:1007100084F83C60284670BD7047000010B586B074
:10072000044614216846FFF78BFD1549206888426E
:1007300024D114480021026842F4807202600068EB
:1007400000F4807005900F481438026842F00102EE
:100750000260006800F00100059002200090032074
:10076000CDE901016946084800F038F80022114639
:10077000122000F09FF9122000F08EF906B010BD93
:1007800000200140443802400000024070B5044699
:1007900000F022F90546601C02D0044800780444A9
:1007A00000F01AF9401BA042FAD370BD04000020EB
:1007B000012803D14103024800F000B9704700004E
:1007C00000080240044910B50A68024202D00860DD
:1007D000FFF7EEFF10BD0000143C01402DE9F84F7B
:1007E000DFF8B8A1002201240AF1040B03254FF021
:1007F0000F090BF1040E00BF0B6804FA02F6334038
:10080000B34273D10F7907F00307012F01D0022FF4
:1008100016D187684FEA420805FA08FC27EA0C0758
:10082000D1F80CC00CFA08FC4CEA070CC0F808C060
:100830004768B7430E79C6F3001696403E434660BC
:100840000E79F643B6070DD0C768560005FA06FCC8
:1008500027EA0C07D1F808C00CFA06FC4CEA070C92
:10086000C0F80CC00E7906F00306022E10D1D6088F
:1008700000EB8608D8F8206057074FEAD76C09FAD2
:100880000CF7BE430F6907FA0CF73743C8F820701E
:1008900006684FEA420C05FA0CF7BE430F7907F0E1
:1008A000030707FA0CF7374307604E6816F4403F1A
:1008B0006DD03B4E376847F480473760366822F08A
:1008C000030706F480460096364E07EB060CDCF86C
:1008D000086897073F0F09FA07F826EA0806DFF8C5
:1008E000C880404503D14FF000081EE04FE0DFF81C
:1008F000BC80404502D14FF0010816E0DFF8B0801F
:10090000404502D14FF002080FE0DFF8A8804045D3
:1009100002D14FF0030808E0DFF89C80404502D187
:100920004FF0040801E04FF0070808FA07F848EA1A
:100930000608CCF80888DAF800605746D1F804C0F9
:100940009E435FEACC3C00D51E433E60DBF800606E
:100950005F46D1F804C09E435FEA8C3C00D51E433D
:100960003E60DEF800607746D1F804C09E435FEA3F
:10097000CC2C00D51E433E60084F0C373E68D1F8A2
:1009800004C09E435FEA8C2C00D51E433E60521C7F
:10099000102AFFF431AFBDE8F88F0000003C0140A1
:1009A0004438024000300140000002400004024090
:1009B00000080240000C024000100240426921EA97
:1009C00002030A4043EA0241816170470AB1816132
:1009D00070470904FBE70000014880687047000089
:1009E0000400002002488168027811448160704749
:1009F000040000200B4810B5016841F4007101604B
:100A0000016841F480610160016841F48071016016
:100A1000032000F06FF80F2000F006F800F024F833
:100A2000002010BD003C024070B50D4D04464FF44F
:100A30007A712878B1FBF0F00A490968B1FBF0F04F
:100A400000F00CFB48B9102C07D200222146501EA2
:100A500000F030F800206C6070BD012070BD000017
:100A600004000020100000200A4808B5016841F485
:100A700080410160006800F4804000900548001F3C
:100A8000016841F080510160006800F080500090E2
:100A900008BD000044380240002809DB00F01F02B6
:100AA000012191404009800000F1E020C0F80011D0
:100AB00070470000F0B40E4B1B680C46C3F30223D2
:100AC000C3F10705042D00D90425191D072901D2FA
:100AD000002300E0DB1E012606FA05F1491E214035
:100AE00099409E40761E16403143F0BC00F02FBF67
:100AF0000CED00E0064900F0070208684FF6FF031E
:100B0000184040EA0220034A104308607047000082
:100B10000CED00E00000FA052DE9F0470E46050057
:100B200065D0DFF81481D8F80000F7B200F00700B4
:100B3000B04207D288F80070D8F8000000F0070033
:100B4000B04254D128683D4C810712D5400703D5E7
:100B5000206840F4E05020602878000703D5206822
:100B600040F4604020602068A96820F0F00008434D
:100B700020602878C0072DD03049686808390128DE
:100B800012D0022813D0032811D009688907002940
:100B90002DDA216821F0030101432160FFF71CFFDA
:100BA000814641F2883A0EE009688903EFE7096857
:100BB0008901ECE7FFF710FFA0EB0901514502D9CD
:100BC0000320BDE8F0872068696800F00C00B0EBF6
:100BD000810FEFD1D8F80010404601F00701B14273
:100BE00007D90770006800F00700B04201D001206B
:100BF000E7E72878400705D52068E96820F4E05049
:100C0000084320602878000706D52068296920F469
:100C1000604040EAC100206000F038F82168084ACE
:100C2000C1F30311515CC8400649086006480068DA
:100C3000FFF7FAFE0020C4E7003C024008380240FB
:100C4000EC190008100000200800002004480549A5
:100C500000680968044AC1F38221515CC8407047AA
:100C60001000002008380240FC190008044805491B
:100C700000680968044AC1F34231515CC8407047BA
:100C80001000002008380240FC190008154810B573
:100C9000006810F00C02144813D01449042A0FD035
:100CA000082A0ED10F4C241F2268236802F03F024D
:100CB0005B0207D52068C0F38810A0FB010106E0A5
:100CC000084610BD2168C1F38811A1FB0001002373
:100CD000FFF77EFA2168C1F30141491C4900B0FBCE
:100CE000F1F010BD083802400024F40040787D0186
:100CF0002DE9F84F04006ED02078DFF84C93C00740
:100D0000A9F104054AD009F104000168C1F3810189
:100D1000012908D00068C0F3810002280AD1D9F85F
:100D20000000400206D52868800337D56068002897
:100D3000E1D033E06068B0F5803F10D0B0F5A02F6F
:100D4000286810D020F480302860286820F48020A3
:100D500028606068A8B1FFF73FFE06460DE02868EE
:100D600040F48030F4E740F480202860F7E700BFCB
:100D7000FFF732FE801B642873D828688003F7D5FC
:100D80000CE0FFF729FE064605E000BFFFF724FE52
:100D9000801B6428F0D828688003F7D42078DFF817
:100DA000AC8280074FF0000A3ED5A748001D0168BD
:100DB00011F00C0F08D00068C0F3810002280BD19D
:100DC000D9F80000400207D42868800716D5E068EB
:100DD000012800D112E033E1E068B8B10120C8F881
:100DE0000000FFF7F9FD064605E000BFFFF7F4FD40
:100DF000801B0228C0D828688007F7D52868216999
:100E000020F0F80040EAC10028600DE0C8F800A01A
:100E1000FFF7E2FD064604E0FFF7DEFD801B022837
:100E20001FD828688007F7D42078000722D5864F7E
:100E300087486169703771B101210160FFF7CCFD0E
:100E4000064604E0FFF7C8FD801B022809D8386871
:100E50008007F7D50EE0C0F800A0FFF7BDFD0646FD
:100E600005E082E0FFF7B8FD801B02287DD83868D6
:100E70008007F7D42078400768D5DFF8CCB1002789
:100E80000BF13C0BDBF80000C0000BD4DBF80010CA
:100E900041F08051CBF80010DBF80000012700F092
:100EA000805000906B4E3068C00510D4306840F41C
:100EB00080703060FFF790FD009005E0FFF78CFD3B
:100EC0000099401A022850D83068C005F6D55E4E09
:100ED000A0686C3601280FD00528306810D020F0AB
:100EE00001003060306820F004003060A068B8B1C4
:100EF000FFF772FD00900FE0306840F00100F4E76A
:100F000040F004003060F7E7FFF766FD0099411AF2
:100F100041F28830814266D830688007F4D50EE00F
:100F2000FFF75AFD009007E0FFF756FD0099411AC0
:100F300041F28830814256D830688007F4D42FB10E
:100F4000DBF8001021F08051CBF80010A069C8B385
:100F50003D49091D0968C1F3810102294AD00228CF
:100F6000504607D0C8F8600000E03CE0FFF734FDD1
:100F700004463BE04746C8F86000FFF72DFD0646F3
:100F800005E000BFFFF728FD801B02282BD828684A
:100F90008001F7D4D4E907010843A16A2E4A490821
:100FA00002EB0141626A41EA8211084394F82C1075
:100FB00040EA0161C9F8001001203866FFF70CFD16
:100FC000044606E03EE000BFFFF706FD001B0228D6
:100FD00009D828688001F7D534E000BFFFF7FCFC92
:100FE000001B022802D90320BDE8F88F2868800181
:100FF000F4D427E00128F7D0D9F80000E26900F422
:10100000800191421CD1226A00F03F01914217D128
:1010100047F6C071626A0140B1EB821F10D1A26A2B
:101020004FF0FF3300F4403103EB5202B1EB024FBB
:1010300006D194F82C1000F07060B0EB016F01D075
:101040000120D1E70020CFE70438024000004742EA
:10105000800E4742007000400000FFFF10B5401EA8
:10106000B0F1807F01D3012010BD4FF0E02460611A
:101070000F21601700F06BFC0020A06107202061A9
:10108000002010BD70B5040004D094F83D00002588
:1010900010B106E0012070BD84F83C50204600F0FD
:1010A00023F8242084F83D002068C16821F4005111
:1010B000C160204600F0C4FB2068016921F4904122
:1010C00001612068416921F02A0141612068C168FD
:1010D00041F40051C1602564202084F83D0084F86B
:1010E0003E00002070BD0000F0B587B0044614211A
:1010F0006846FFF7A5F820491E4F266800251E4ABE
:101100001439022303241D48BE4214D1166846F048
:1011100010061660126802F0100205920A6842F08A
:1011200001020A60096801F00101059161028DE880
:101130002A00072117E0124FBE4219D1166846F067
:1011400020061660126802F0200205920A6842F03A
:1011500001020A60096801F0010105914FF4C051D4
:101160008DE82A000821CDE903416946FFF736FBE7
:1011700007B0F0BD001001404438024000000240BA
:1011800000140140FEE770B5002404F1B000C0B2C5
:1011900000F0E6F9012000F0E3F9102000F0E0F99A
:1011A0000025002000F006FA6D1CEDB2802DF8D36A
:1011B000641CE4B2082CE8D370BD40F2365305E05D
:1011C0001946491E89B2FCD2401E80B20028F7D1D0
:1011D0007047000070B506465FF0000404F1B000EF
:1011E000C0B200F0BDF9012000F0BAF9102000F003
:1011F000B7F90025304600F0DDF96D1CEDB2802D09
:10120000F8D3641CE4B2082CE8D370BD10B5384C98
:10121000012210212046FFF7D9FB00224021204661
:10122000FFF7D4FB3220FFF7C8FF01224021204600
:10123000FFF7CCFBAE2000F093F9002000F090F90E
:10124000102000F08DF9402000F08AF9812000F094
:1012500087F9CF2000F084F9A12000F081F9C8209F
:1012600000F07EF9A62000F07BF9A82000F078F9C4
:101270003F2000F075F9D32000F072F9002000F053
:101280006FF9D52000F06CF9802000F069F9D920C1
:1012900000F066F9F12000F063F9DA2000F060F95F
:1012A000122000F05DF9DB2000F05AF9402000F038
:1012B00057F9202000F054F9022000F051F98D2058
:1012C00000F04EF9142000F04BF9A42000F048F98A
:1012D000A62000F045F9AF2000F042F90020FFF70A
:1012E00079FF0021BDE81040084600F023B9000056
:1012F000000002402DE9F05F984691468B468246F9
:1013000000250A9E64E00020012409EB05020BE0A1
:101310008B4207D108EB000357785B78BB4201D1C1
:10132000040105E0801CC0B218F800307F2BEFD814
:10133000BAF1760F05D90BF101004FF0000A00F069
:10134000FF0B5946504600F0F5F8012C1ED05946C7
:10135000504600F0EFF80027305D00F02BF9641CD8
:101360007F1CFFB2A4B2102FF6D30BF10800C1B25C
:10137000504600F0DFF80027305D00F01BF9641CD8
:101380007F1CFFB2A4B2102FF6D31BE06D1CEDB290
:101390005946504600F0CEF80024002000F00AF92B
:1013A000641CE4B2102CF8D30BF10100C1B250461A
:1013B00000F0C0F80024002000F0FCF8641CE4B247
:1013C000102CF8D30AF11000AD1C00F0FF0AEDB2AA
:1013D00019F80510002996D1BDE8F09F2DE9F047D6
:1013E0009A4690468946054600261CE02038C7B23A
:1013F0007E2D04D909F10100002500F0FF094946BE
:10140000284600F097F807EB470000240AEB400756
:10141000385D00F0CFF8641CE4B2062CF8D3AD1DA3
:10142000761CEDB2F6B218F806000028DED1BDE851
:10143000F0872DE9F0479A469146884605460026F2
:1014400029E02038C7B2782D04D908F10100002521
:1014500000F0FF084146284600F06CF800240AEB33
:101460000717385D00F0A6F8641CE4B2082CF8D326
:1014700008F10800C1B2284600F05CF800243819D1
:10148000007A00F097F8641CE4B2082CF7D3083512
:10149000761CEDB2F6B219F806000028D1D1BDE8ED
:1014A000F08700002DE9FC470025164689460446D2
:1014B0002F46DDF8288031E07F288DF8040012D90E
:1014C000701901AA40788DF8050017480090A0F126
:1014D00081038DF8067049462046FFF70BFF103454
:1014E000E4B2AD1C19E08DF80570B8F1010F03D01E
:1014F000B8F1030F08D00FE00C4B01AA4946204673
:10150000FFF797FF083406E0094B01AA4946204639
:10151000FFF764FFA41DE4B26D1CEDB2705D0028FE
:10152000CAD1BDE8FC870000AD1C0008AD2400084E
:10153000041A000810B50446B02000EBD100C0B278
:1015400000F00EF8102040EA141000F009F804F042
:101550000F00BDE8104040F0010000F001B80000AD
:1015600070B5134E05460824002280213046FFF74F
:101570002DFA002210213046FFF728FA14E0280641
:1015800001D5012200E0002220213046FFF71EFA9B
:10159000012210213046FFF719FA002210213046AF
:1015A000FFF714FA6806050E641EE4B2E7D270BDB8
:1015B0000000024070B5134E054608240122802128
:1015C0003046FFF703FA002210213046FFF7FEF9FC
:1015D00014E0280601D5012200E000222021304637
:1015E000FFF7F4F9012210213046FFF7EFF900224E
:1015F00010213046FFF7EAF96806050E641EE4B2D2
:10160000E7D270BD000002401FB5002115480091CF
:1016100001910291124A039102604FF48032C0E9B5
:10162000012101240161047680F820100E4AC0E9EE
:101630000A21C461C16080F830104461FFF742F8AC
:1016400008B1FEF7D8FE009401946946054802945B
:10165000FEF7D4FE002801D0FEF7CDFE1FBD00002E
:1016600000200140140000200100000FF0B587B0F9
:1016700014216846FEF7E4FD26480024016841F085
:1016800004010160016801F004010591016841F065
:1016900080010160016801F080010591016841F05D
:1016A0000101016000681C4E00F001004FF400557C
:1016B0000590002229463046FFF788F9174F00228F
:1016C000F0213846FFF782F900950125CDE9015454
:1016D000694630460394FFF781F84FF40410CDE9D2
:1016E0000050694638460295FFF778F8F0200090E0
:1016F000CDE90154694638460394FFF76FF800229C
:1017000011460620FFF7D6F90620FFF7C5F907B006
:10171000F0BD0000303802400008024000000240E6
:101720000C4810B50A4901604FF4E13141600021D5
:1017300081600C22C160C0E904128161C161FFF7C0
:10174000A1FC002803D0BDE81040FEF754BE10BD38
:10175000001001405C0000200C4810B50A490160EF
:101760004FF4E1314160002181600C22C160C0E989
:1017700004128161C161FFF785FC002803D0BDE838
:101780001040FEF738BE10BD00140140A00000203C
:10179000FEE7FEE770477047FFF724B930B593B016
:1017A00030216846FEF74CFD14210CA8FEF748FDD9
:1017B0001D480025016841F080510160006800F07B
:1017C000805011901948016821F4404141F40041D2
:1017D00001600068022400F4404011900120009054
:1017E000000401908001CDE9064019200890A8204E
:1017F000CDE9090404200B906846FFF779FA08B197
:1018000072B6FEE70CA90F2081E831004FF480503A
:10181000CDE90F0502210CA8FFF77EF9002801D0C1
:1018200072B6FEE713B030BD403802400070004091
:101830000248016841F470010160704788ED00E0E2
:1018400070B5044600680169E26821F44051114313
:1018500001612169A068E269084361691143084395
:101860002168CA6849F20C639A430243CA6020683F
:101870004169A26921F440711143416131492068F5
:10188000884202D03049884202D1FFF7EFF901E0E7
:10189000FFF7DCF9E2690023192164253226B2F54D
:1018A000004F626828D0A0FB0101930F9200FEF761
:1018B0008FFC0146B0FBF5F06FF01802504301EBCE
:1018C000800006EB0010B0FBF5F000F0F002B1FB79
:1018D000F5F002EB0012B1FBF5F06FF0180358437E
:1018E00001EB800006EB0010B0FBF5F000F00F00FC
:1018F00021681044886070BDA0FB010192185B4113
:10190000FEF766FC0146B0FBF5F00201B1FBF5F015
:101910006FF01803584301EB800006EBC000B0FBEA
:10192000F5F000F0F80002EB4002B1FBF5F058438F
:1019300001EB800006EBC000B0FBF5F000F0070003
:10194000D6E700000010014000140140FEE709073F
:10195000090E002804DB00F1E02080F80014704735
:1019600000F00F0000F1E02080F8141D704702E045
:1019700008C8121F08C1002AFAD17047704700201A
:1019800001E001C1121F002AFBD1704708B5FFF723
:1019900031F8FFF703FFFFF769FEFFF7DDFEFFF702
:1019A00033FEFFF7BDFEFFF731FC012400210223C7
:1019B00009A208460094FFF775FD4FF47A75284692
:1019C000FEF7E4FEFFF7DFFB0021022302A2084638
:1019D0000094FFF767FDF2E7D6C7C4DCBCD2BED3E4
:1019E000B9DCC0EDCFB5CDB30000000000000000B1
:1019F00000000000010203040607080900000000BF
:101A0000010203040000000000000000002F00009D
:101A100000000700070000147F147F1400242A7FB1
:101A20002A12006264081323003649552250000030
:101A30000503000000001C224100000041221C00A0
:101A40000014083E08140008083E0808000000A022
:101A5000600000080808080800006060000000201E
:101A600010080402003E5149453E0000427F4000FC
:101A7000004261514946002141454B310018141282
:101A80007F10002745454539003C4A49493000014F
:101A90007109050300364949493600064949291E9E
:101AA0000000363600000000563600000008142200
:101AB0004100001414141414000041221408000200
:101AC0000151090600324959513E007C1211127C25
:101AD000007F49494936003E41414122007F414152
:101AE000221C007F49494941007F09090901003E44
:101AF0004149497A007F0808087F0000417F410082
:101B0000002040413F01007F08142241007F4040F7
:101B10004040007F020C027F007F0408107F003EDF
:101B20004141413E007F09090906003E4151215EC5
:101B3000007F091929460046494949310001017FC2
:101B40000101003F4040403F001F2040201F003F58
:101B50004038403F0063140814630007087008070A
:101B600000615149454300007F41410000552A551D
:101B70002A55000041417F00000402010204004098
:101B800040404040000001020400002054545478BA
:101B9000007F4844443800384444442000384444DA
:101BA000487F00385454541800087E090102001878
:101BB000A4A4A47C007F080404780000447D4000B5
:101BC000004080847D00007F102844000000417F99
:101BD0004000007C04180478007C08040478003875
:101BE0004444443800FC242424180018242418FCFD
:101BF000007C0804040800485454542000043F4466
:101C00004020003C4040207C001C2040201C003C28
:101C10004030403C004428102844001CA0A0A07C78
:101C2000004464544C44141414141414B2E2BEE07E
:101C3000C0EBD6DCB3A4C3E6BBFDB6C8B8DFC6C2F2
:101C4000C4B6D2C7CBD1CBF7CEC0D0C7B4F3D0A1E6
:101C5000B2E9BCC7C2BCC9BEB3FDCFB5CDB3D6B522
:101C6000C9E8B5A5BCDBB9ABC7EAD4AAD1AFC3BF3D
:101C7000B5E7B3D8D1B9BEADCEB3A1E3A94FD0CDAE
:101C8000BAC5B0E6B1BECAA3D3E0BFD5BCE4B7B510
:101C9000BBD8CDCBB3F6C0EEB0C2BBD4D6C7C4DC84
:101CA000BCD2BED3B9DCC0EDCFB5CDB3001060025D
:101CB0008C00FE02F202FE00F800FF000004047E29
:101CC000018047300F10270047807F0000003E2230
:101CD000E2223E00FE2222222222E20200203F20B7
:101CE0001F1111007F44444444444740000404044D
:101CF000F484D4A5A6A4D484F40404040000FE0251
:101D000002123A1613121A3242827E00000000FEBE
:101D100082929292FE92929282FE00000080601F58
:101D200000001E1212121E40807F00000080808082
:101D300080FF8080A09088848280808000000000E6
:101D400000FF40211204081020204040000202E25F
:101D50002222F22E2222E22222E20202000000FFD0
:101D600040407F4949497F4040FF00000020242433
:101D7000A4FE232220FC04040404FC000010080636
:101D800001FF010680631901010933C0000000FC56
:101D9000242424FC252624FC242424040040308F01
:101DA00080844C55252525554C80808000040404F2
:101DB00004F49495969494F4040404040000FE0240
:101DC000027A4A4A4A4A4A7A0282FE00002020FFEA
:101DD000202000F8888888FF8888A8180010301F05
:101DE0000888601F80432C1028468180000808C89E
:101DF00048484849CE48484848C80808000000FFFD
:101E0000444444447F44444444FF00000000806054
:101E1000F807001CE0010600E01E000000010000C1
:101E2000FF00804020130C13204080800010101011
:101E3000FF109000FE9180FF8092FE00000444821B
:101E40007F01008082462A132A4682800080602417
:101E50002424A4643F2424A42424A06000008048F7
:101E600029094D8D7B0B09284C98000000000202C7
:101E7000020202FE0202020202FE00000040404096
:101E80004040407F4040404142414040000000000F
:101E9000BE2A2A2AEA2A2A2A3E00000000004442DA
:101EA000494949497F49494949414000002020208A
:101EB00020202020FF202020202020200080804083
:101EC00020100C0300030C10204080800000000054
:101ED000E0000000FF000000204080000008040334
:101EE000000040807F0000000000010E00404424FC
:101EF000A4948C84FF848C94A424444000404040EB
:101F00005F4A4A4A4A4A4A4A5F404040004040428B
:101F1000CC0000008484848484FC00000000000065
:101F20007F2010003F404040404140700080808250
:101F30009292929292929292FE80808000404022F1
:101F4000241048807F040818242240400080FE822C
:101F500082FE80FE8282FE8000F800FF00403F008B
:101F600020BF403F40807F00004F807F0000FE2266
:101F70005A8620102824E324281020200000FF0483
:101F80000827110D41817F01050931000000002261
:101F9000322AA6A26221110981010000000042221A
:101FA000130B42827E02020A12234600002030AC4C
:101FB00063300088C8A8998E88A8C8880022672244
:101FC00012128040300F00003F40407100008060DE
:101FD000F80704E4A4A4BFA4A4E4040000010000E2
:101FE000FF40407F4A4A4A4A4A7F404000404042C0
:101FF000CC0040A09E8282829EA020200000000093
:102000003F908840432C102846418080000000F813
:10201000494A4C48F8484C4A49F80000001010134F
:1020200012121212FF12121212131010000080600E
:10203000F8074020900C030C902040400001000065
:10204000FF0080601F000000FF00000000008040D3
:1020500020180680000718204080000000010020A2
:10206000702826212020243860000101000000FE95
:1020700020202000F2121AD61212F2020000001FD5
:10208000080402804F20180710204F8000202022D3
:102090002222E2222222E22222222020008040204C
:1020A000100C030000003F40404040780040404298
:1020B000CC0020D04C4B48C80808F80000000000B5
:1020C0007F20101F1212125F80403F000020100C72
:1020D000F312125292121212F20202000001011FB8
:1020E00011111115195191513F111101000000F802
:1020F00088888888FF88888888F800000000001F8A
:10210000080808087F888888889F80F0001060028F
:10211000CC8080FC4020FF1008F800000004047E02
:102120000100003F40404F4044474078000000FE1F
:102130000282828282FA8282828282020080601F10
:1021400040404040407F404044584040002030AC38
:1021500063201880824222121A26428000226722BF
:10216000121212404242427E42424240002030ACB3
:1021700063201800084848FF4848480800226722A2
:1021800012121200020202FF0212221E00000000C0
:1021900000000C12120C0000000000000000000003
:1021A000000000000000000000000000000008F037
:1021B0000808F00808F00022312926000000000776
:1021C000000007000007000000000000002022A21D
:1021D0007E2222FE2222007C0000FF0000444249B1
:1021E000484848497E484848494A414000808080E4
:1021F000BEA2A2A2A2A2A2A2BE8080800000000075
:1022000006050404044484443C0000000000FE2051
:10221000203F2000FC24E4242223E20000807F01F0
:1022200001FF80601F8041261826418000001010A9
:102230001010D030FF30D010101010000010080423
:1022400002090808FF0808090204081000484AFAB1
:102250000AFE09F949A80000F00000FF0022110B56
:1022600004FF0409122300000F40807F008080409B
:1022700020504844C3444850204080800000402201
:102280001A0242827F0202020A12600000100C440D
:1022900024140405060404142444140C00004040D3
:1022A000414141417F414141414040000000F8012E
:1022B0000600F0121212F2020202FE000000FF00FD
:1022C00000001F1111111F0040807F00004040429C
:1022D000CC0000FC24A4242222A3620000004020A1
:1022E0001F2058475048454245485040000000FED6
:1022F0000202F2121212F20202FE00000000007F3F
:102300002020272424242720207F00000040404252
:10231000CC0000FF4949C949497F800000004020A6
:102320001F20405F48444041424558400000007C27
:1023300040404040FF40404040FC000000007C40E6
:10234000404040407F4040404040FC00008084448A
:102350004424140CFF0C142444448480000808080E
:1023600008094989790D0B0908080808000000FCD4
:102370000454E645F444E45404FC00000088884B0F
:10238000482928180D182829484B8888004458C027
:102390007FD0482622E23AA222222A060080601F2D
:1023A000007F2010131212FF12121210001094530B
:1023B000321E325210007E4242427E000000000077
:1023C000FF49494949494949FF0000000008CC4AF2
:1023D00049484ACC18007F88888482E00000FF12B8
:1023E0001252927F00007E88888482E000102C24A4
:1023F00024A4A465A624242424A4340C0040494920
:1024000029241452897F040A11102020000000FEA4
:102410009292929292F29292929E80800040300F1D
:1024200000FC44444447444444FC000000886423C6
:10243000A2A6AAA2BAA4A3A2262AA2620000000011
:10244000FF4A4A4A4A4A4A4BF80000000004848482
:10245000FC848400FE9292FE9292FE000020602096
:102460001F1010404444447F444444400000002274
:10247000322AA6A262211109810100000000422235
:10248000130B42827E02020A12234600002030AC67
:1024900063300088C8A8998E88A8C888002267225F
:1024A00012128040300F00003F40407100000000D9
:1024B000000000000000000000000000000000001C
:1024C000F800000000000000333000000000100C95
:1024D00006100C0600000000000000000040C0785C
:1024E00040C0784000043F04043F040400007088AA
:1024F000FC08300000001820FF211E0000F008F04A
:1025000000E018000000211C031E211E0000F0083E
:1025100088700000001E2123241927211010160E98
:1025200000000000000000000000000000000000AB
:10253000E018040200000000071820400000020418
:1025400018E0000000004020180700000040408014
:10255000F0804040000202010F0102020000000072
:10256000F0000000000101011F0101010000000056
:10257000000000000080B0700000000000000000BB
:102580000000000000000101010101010100000044
:1025900000000000000030300000000000000000DB
:1025A0000080601804006018060100000000E010C0
:1025B000080810E000000F102020100F000010107D
:1025C000F8000000000020203F20200000007008DC
:1025D00008088870000030282422213000003008CC
:1025E00088884830000018202020110E000000C00C
:1025F0002010F8000000070424243F240000F808FD
:1026000088880808000019212020110E0000E01021
:102610008888180000000F112020110E00003808D3
:1026200008C83808000000003F0000000000708863
:102630000808887000001C222121221C0000E010E4
:10264000080810E0000000312222110F00000000F5
:10265000C0C000000000000030300000000000009A
:10266000800000000000008060000000000000808A
:1026700040201008000001020408102000404040E3
:102680004040404000040404040404040000081016
:102690002040800000002010080402010000704863
:1026A000080808F0000000003036010000C030C803
:1026B00028E810E0000718272423140B000000C0AE
:1026C00038E0000000203C23020227382008F88868
:1026D0008888700000203F202020110E00C03008A4
:1026E0000808083800071820202010080008F808FB
:1026F000080810E000203F202020100F0008F88874
:1027000088E8081000203F20202320180008F888BF
:1027100088E8081000203F200003000000C03008B7
:10272000080838000007182020221E020008F808B8
:10273000000008F808203F210101213F200008087F
:10274000F8080800000020203F20200000000008BA
:1027500008F8080800C08080807F00000008F88822
:10276000C028180800203F20012638200008F8085B
:102770000000000000203F20202020300008F8F852
:1027800000F8F80800203F003F003F200008F83024
:10279000C00008F808203F200007183F00E010089C
:1027A000080810E0000F10202020100F0008F80883
:1027B000080808F000203F210101010000E0100896
:1027C000080810E0000F18242438504F0008F8883B
:1027D0008888887000203F2000030C30200070881B
:1027E00008080838000038202121221C0018080899
:1027F000F8080818000000203F2000000008F80832
:10280000000008F808001F202020201F00087888FA
:102810000000C83808000007380E010000F8080062
:10282000F80008F800033C0700073C03000818689C
:10283000808068180820302C03032C30200838C80A
:1028400000C83808000000203F20000000100808E1
:1028500008C8380800203826212020180000000071
:10286000FE020202000000007F40404000000C30E9
:10287000C000000000000000010638C00000020295
:1028800002FE000000004040407F00000000000405
:10289000020202040000000000000000000000002E
:1028A0000000000000808080808080808000020224
:1028B0000400000000000000000000000000008094
:1028C00080808000000019242222223F2008F80086
:1028D0008080000000003F112020110E0000000049
:1028E0008080800000000E112020201100000000D8
:1028F000808088F800000E112020103F200000800A
:102900008080800000001F2222222213000080808D
:10291000F0888888180020203F20200000000080D8
:102920008080808000006B94949493600008F8008D
:102930008080800000203F210000203F2000809800
:1029400098000000000020203F2020000000000030
:10295000809898000000C08080807F000008F80008
:102960000080808000203F24022D302000000808D5
:10297000F8000000000020203F2020000080808020
:102980008080808000203F20003F20003F8080002A
:102990008080800000203F210000203F2000008038
:1029A0008080800000001F202020201F00808000E9
:1029B000808000000080FFA12020110E0000000098
:1029C0008080808000000E112020A0FF8080808009
:1029D000008080800020203F212000010000008036
:1029E000808080800000332424242419000080800B
:1029F000E0808000000000001F2020000080800098
:102A00000000808000001F202020103F2080808058
:102A1000000080808000010E3008060100808000E8
:102A200080008080800F300C030C300F000080800D
:102A300000808080000020312E0E312000808080B8
:102A4000000080808080818E7018060100008080E8
:102A500080808080000021302C2221300000000086
:102A600000807C020200000000003F4040000000A7
:102A700000FF00000000000000FF00000000020254
:102A80007C800000000040403F0000000000060184
:102A90000102020404000000000000000000000029
:102AA000C02A000800000020140000006E19000871
:102AB000D42A000814000020D40400007E19000865
:102AC00000000000010000001000000000000000F5
:042AD0000024F400EA
:040000050800019559
:00000001FF
