:020000040800F2
:10000000E04E00206D020008871B0008251500083F
:10001000851B0008D1040008BD1E00080000000078
:10002000000000000000000000000000AD0100081A
:10003000D304000800000000090200084F1C00085B
:10004000870200088702000887020008870200086C
:1000500087020008870200081505000887020008CB
:10006000870200088702000887020008870200084C
:10007000870200088702000887020008870200083C
:1000800087020008870200089D03000800000000A6
:1000900000000000000000000000000087020008CF
:1000A000870200080D1D000887020008870200086B
:1000B00087020008870200088702000887020008FC
:1000C00087020008870200088702000887020008EC
:1000D000870200088702000887020008000000006D
:1000E000870200088702000887020008000000005D
:1000F000000000000000000000000000870200086F
:10010000000000008702000887020008870200083C
:1001100000000000000000000000000000000000DF
:10012000870200088702000887020008870200088B
:10013000870200080000000000000000000000002E
:10014000000000000000000000000000870200081E
:10015000870200088702000887020008870200085B
:10016000870200088702000800000000000000006D
:10017000000000000000000000000000000000007F
:1001800000000000870200080000000000000000DE
:1001900087020008DFF810D000F0EEF800480047B2
:1001A000FD1E0008AFF30080E04E00202C4B1968C4
:1001B0000868B0E8F04F80F30988BFF36F8F4FF005
:1001C000000080F3118870470000000008480068B4
:1001D000006880F308884FF0000080F3148862B64E
:1001E00061B6BFF34F8FBFF36F8F00DF00BF00BF5B
:1001F00008ED00E0DFF80C00016841F470010160D7
:10020000704700BF88ED00E0EFF30980BFF36F8F08
:10021000134B1A681EF0100F08BF20ED108A20E95A
:10022000F04F106009B44FF0500080F31188BFF315
:100230004F8FBFF36F8F02F02DFD4FF0000080F362
:10024000118809BC19680868B0E8F04F1EF0100F5B
:1002500008BFB0EC108A80F30988BFF36F8F704736
:1002600074000020EFF305807047000006488047C7
:1002700006480047FEE7FEE7FEE7FEE7FEE7FEE78B
:10028000FEE7FEE7FEE7FEE7FD1C0008950100081B
:100290002DE9F05F0546002092469B4688460646BB
:1002A000814640241BE0284641464746224600F04E
:1002B00053F853465A46C01A914110D31146184676
:1002C000224600F03AF82D1A67EB01084F46224605
:1002D0000120002100F031F817EB00094E41201EEB
:1002E000A4F10104DFDC484631462A464346BDE816
:1002F000F09F40EA01039B0703D009E008C9121FE1
:1003000008C0042AFAD203E011F8013B00F8013BCF
:10031000521EF9D27047D2B201E000F8012B491EFB
:10032000FBD270470022F6E710B513460A46044692
:100330001946FFF7F0FF204610BD202A04DB203AC3
:1003400000FA02F1002070479140C2F1200320FA28
:1003500003F3194390407047202A04DB203A21FA26
:1003600002F00021704721FA02F3D040C2F12002CE
:100370009140084319467047064C074D06E0E06877
:1003800040F0010394E8070098471034AC42F6D3DC
:10039000FFF704FF6C4A00088C4A0008014800F08F
:1003A00085B90000F4000020464910B54A6822F4DF
:1003B00040324A604A6843681A434A6001684A68A2
:1003C00022F480724A6001684A68036942EA0322A3
:1003D0004A6001684A6822F040724A6001684A68CF
:1003E00083681A434A6001688A6822F400628A605E
:1003F00001688A68C3681A438A60816A6FF0706214
:10040000D14201688A6822F070628A6001688A6855
:100410000CD0836A1A438A6001688A6822F04052CD
:100420008A6001688A68C36A1A4301E022F0405278
:100430008A6001688A6822F002028A6001688A681C
:10044000037E42EA43028A6090F820100029016886
:100450004A680FD042F400624A6001684A6822F498
:1004600060424A6001684A68174C436A04EB4333B0
:100470001A4301E022F400624A600168CA6A22F469
:100480007002CA620168CA6A838B104C04EB035382
:100490001A43CA6201688A6822F400728A6001689D
:1004A0008A6890F8303042EA43228A6001688A689C
:1004B00022F480628A6001688A68406942EA80208A
:1004C000886010BD0023014000E0FFFF0000F0FF46
:1004D000FEE7704738B50125009504460021026803
:1004E0000223084601F0AEF90095022310210020F6
:1004F000626801F0A7F90095022320210020A2687C
:1005000001F0A0F90095022330210020226901F0BA
:1005100099F938BD012000F0D5B972B6FEE77047F1
:1005200078B50024009490F83C20012A19D00122CB
:1005300080F83C200A6807230568092A13D9EE6869
:100540000A3A02EB420293409E43EE600B788A68BF
:100550000A3B03EB43039A400368DD682A43DA60F1
:1005600010E0022078BD2E6902EB420293409E43C8
:100570002E610B788A6803EB43039A4003681D6978
:100580002A431A614A681F23072A13D205686E6B33
:10059000521E02EB820293409E436E630B790A88DF
:1005A0005B1E92B203EB83039A4003685D6B2A43A0
:1005B0005A6327E005680D2A12D22E6BD21F02EB78
:1005C000820293409E432E630B790A88DB1F92B20E
:1005D00003EB83039A4003681D6B2A431A6311E0FF
:1005E000EE6A0D3A02EB820293409E43EE620B7973
:1005F0000A880D3B92B203EB83039A400368DD6ADD
:100600002A43DA62164B0568144A9D4206D10D68EA
:10061000122D03D1556845F48005556005689D424B
:1006200018D10B68102B01D0112B13D1536843F450
:1006300000035360096810290CD10A490A4A096865
:10064000B1FBF2F101EB8101490000E0491E00918C
:100650000029FBD180F83C40002078BD00230140F8
:10066000002001402000002040420F0010B5094842
:1006700000F019F800EE100ADFED080A0648B8EE9F
:10068000400A20EE200ADFED060A20EE200A80ED67
:10069000000A10BDF4000020000000200000803996
:1006A0003333534070470068C06C704770B50446E0
:1006B000006801684268C1F34001C2F3401251B3BF
:1006C0004AB3216CC90603D4216C41F40071216442
:1006D000816811F0405F17D1217EA9B9C16A11F478
:1006E000700F02D0816849050ED4416821F02001C5
:1006F0004160206C20F480702064206CC00403D41E
:10070000206C40F0010020642046FFF7AFFF216815
:100710006FF012000860206801684268C1F3800130
:10072000C2F3C01289B382B3216CC90603D4216C11
:1007300041F400512164816811F4401F1ED1816B86
:1007400011F4401F02D08168490517D4416849055A
:1007500014D4816811F0405F10D1217E71B94168D5
:1007600021F080014160206C20F480502064206CD6
:10077000C00503D4206C40F0010020642046FFF740
:10078000CEFE21686FF00C000860206801684268A6
:1007900011F0010FC2F380120ED06AB10068C007D9
:1007A0000AD0206C40F480302064204600F046F8E7
:1007B00021686FF001000860206801684268C1F399
:1007C0004011C2F3806200290DD0002A0BD0616C69
:1007D00041F0020161646FF0200505602046FFF7DB
:1007E00061FF2068056070BD70B504004FF0000522
:1007F00003D0206C002610B107E0012070BD204618
:1008000000F01EF8666484F83C60206CC00610D4CA
:10081000206C20F4885040F0020020642046FFF74E
:10082000C3FD6664206C20F0020040F001002064EB
:1008300000E0012584F83C60284670BD7047000048
:1008400010B586B0044614216846FFF76BFD1549C4
:100850002068884224D114480021026842F4807242
:100860000260006800F4807005900F481438026838
:1008700042F001020260006800F0010005900220D1
:1008800000900320CDE901016946084800F026F8F0
:1008900000220521122000F0ABF9122000F09AF995
:1008A00006B010BD00200140443802400000024064
:1008B000012803D14103024800F000B9704700004D
:1008C00000080240044910B50A68024202D00860DC
:1008D000FFF7EEFF10BD0000143C01402DE9F84F7A
:1008E000DFF8B8A1002201240AF1040B03254FF020
:1008F0000F090BF1040E00BF0B6804FA02F6334037
:10090000B34273D10F7907F00307012F01D0022FF3
:1009100016D187684FEA420805FA08FC27EA0C0757
:10092000D1F80CC00CFA08FC4CEA070CC0F808C05F
:100930004768B7430E79C6F3001696403E434660BB
:100940000E79F643B6070DD0C768560005FA06FCC7
:1009500027EA0C07D1F808C00CFA06FC4CEA070C91
:10096000C0F80CC00E7906F00306022E10D1D6088E
:1009700000EB8608D8F8206057074FEAD76C09FAD1
:100980000CF7BE430F6907FA0CF73743C8F820701D
:1009900006684FEA420C05FA0CF7BE430F7907F0E0
:1009A000030707FA0CF7374307604E6816F4403F19
:1009B0006DD03B4E376847F480473760366822F089
:1009C000030706F480460096364E07EB060CDCF86B
:1009D000086897073F0F09FA07F826EA0806DFF8C4
:1009E000C880404503D14FF000081EE04FE0DFF81B
:1009F000BC80404502D14FF0010816E0DFF8B0801E
:100A0000404502D14FF002080FE0DFF8A8804045D2
:100A100002D14FF0030808E0DFF89C80404502D186
:100A20004FF0040801E04FF0070808FA07F848EA19
:100A30000608CCF80888DAF800605746D1F804C0F8
:100A40009E435FEACC3C00D51E433E60DBF800606D
:100A50005F46D1F804C09E435FEA8C3C00D51E433C
:100A60003E60DEF800607746D1F804C09E435FEA3E
:100A7000CC2C00D51E433E60084F0C373E68D1F8A1
:100A800004C09E435FEA8C2C00D51E433E60521C7E
:100A9000102AFFF431AFBDE8F88F0000003C0140A0
:100AA000443802400030014000000240000402408F
:100AB00000080240000C024000100240426921EA96
:100AC00002030A4043EA0241816170470AB1816131
:100AD00070470904FBE70000014880687047000088
:100AE0001400002002488168027811448160704738
:100AF000140000200B4810B5016841F4007101603A
:100B0000016841F480610160016841F48071016015
:100B1000032000F08DF80F2000F006F800F03EF8FA
:100B2000002010BD003C024010B5014688B00022F4
:100B3000192000F05DF8192000F04CF8134800244B
:100B4000016841F400310160006805A900F400303B
:100B50000690684600F018F900F046F90C490D4A75
:100B6000B0FBF1F10C48491E026040F2E732C0E9E7
:100B70000324C0E9011400F031FB10B1012008B0DA
:100B800010BD054800F058FBF9E70000443802406A
:100B900040420F0000440140C40100200C4882B0D4
:100BA000016841F480410160006800F480400090D9
:100BB0000748001F016841F0805101600068002271
:100BC00000F0805000900F21901E02B000F010B88D
:100BD00044380240002809DB00F01F020121914047
:100BE0004009800000F1E020C0F8001170470000CB
:100BF000F0B40E4B1B680C46C3F30223C3F1070588
:100C0000042D00D90425191D072901D2002300E075
:100C1000DB1E012606FA05F1491E214099409E403F
:100C2000761E16403143F0BC01F049B90CED00E0EE
:100C3000064900F0070208684FF6FF03184040EA33
:100C40000220034A10430860704700000CED00E0EA
:100C50000000FA052DE9F0470E46050065D0DFF8E3
:100C60001481D8F80000F7B200F00700B04207D2B4
:100C700088F80070D8F8000000F00700B04254D1A6
:100C800028683D4C810712D5400703D5206840F401
:100C9000E05020602878000703D5206840F46040C9
:100CA00020602068A96820F0F000084320602878C0
:100CB000C0072DD0304968680839012812D00228B1
:100CC00013D0032811D00968890700292DDA21687B
:100CD00021F0030101432160FFF7FEFE814641F24E
:100CE000883A0EE009688903EFE709688901ECE7B3
:100CF000FFF7F2FEA0EB0901514502D90320BDE840
:100D0000F0872068696800F00C00B0EB810FEFD12C
:100D1000D8F80010404601F00701B14207D907702A
:100D2000006800F00700B04201D00120E7E7287812
:100D3000400705D52068E96820F4E05008432060AA
:100D40002878000706D52068296920F4604040EA29
:100D5000C100206000F058F82168084AC1F303116F
:100D6000515CC8400649086006480068FFF7DCFE91
:100D70000020C4E7003C02400838024080370008E9
:100D800020000020180000200F2202600C4A136887
:100D900003F003034360136803F0F00383601368F8
:100DA00003F4E053C36012684FF4E05303EAD20245
:100DB00002610448006800F0070008607047000006
:100DC00008380240003C02400448054900680968B0
:100DD000044AC1F38221515CC840704720000020C2
:100DE000083802409037000804480549006809683F
:100DF000044AC1F34231515CC840704720000020D2
:100E00000838024090370008154810B5006810F007
:100E10000C02144813D01449042A0FD0082A0ED10A
:100E20000F4C241F2268236802F03F025B0207D5A3
:100E30002068C0F38810A0FB010106E0084610BD41
:100E40002168C1F38811A1FB00010023FFF720FAFC
:100E50002168C1F30141491C4900B0FBF1F010BD0C
:100E6000083802400024F40040787D012DE9F84F55
:100E700004006ED02078DFF84C93C007A9F1040578
:100E80004AD009F104000168C1F38101012908D0A9
:100E90000068C0F3810002280AD1D9F8000040029E
:100EA00006D52868800337D560680028E1D033E094
:100EB0006068B0F5803F10D0B0F5A02F286810D042
:100EC00020F480302860286820F480202860606842
:100ED000A8B1FFF701FE06460DE0286840F4803017
:100EE000F4E740F480202860F7E700BFFFF7F4FD47
:100EF000801B642873D828688003F7D50CE0FFF7BF
:100F0000EBFD064605E000BFFFF7E6FD801B642809
:100F1000F0D828688003F7D42078DFF8AC82800707
:100F20004FF0000A3ED5A748001D016811F00C0FD4
:100F300008D00068C0F3810002280BD1D9F8000066
:100F4000400207D42868800716D5E068012800D140
:100F500012E033E1E068B8B10120C8F80000FFF703
:100F6000BBFD064605E000BFFFF7B6FD801B02286B
:100F7000C0D828688007F7D52868216920F0F800D4
:100F800040EAC10028600DE0C8F800A0FFF7A4FD0A
:100F9000064604E0FFF7A0FD801B02281FD8286842
:100FA0008007F7D42078000722D5864F87486169EB
:100FB000703771B101210160FFF78EFD064604E034
:100FC000FFF78AFD801B022809D838688007F7D50B
:100FD0000EE0C0F800A0FFF77FFD064605E082E0C6
:100FE000FFF77AFD801B02287DD838688007F7D488
:100FF0002078400768D5DFF8CCB100270BF13C0B17
:10100000DBF80000C0000BD4DBF8001041F0805189
:10101000CBF80010DBF80000012700F080500090B2
:101020006B4E3068C00510D4306840F4807030607A
:10103000FFF752FD009005E0FFF74EFD0099401AC2
:10104000022850D83068C005F6D55E4EA0686C36D0
:1010500001280FD00528306810D020F00100306042
:10106000306820F004003060A068B8B1FFF734FDAC
:1010700000900FE0306840F00100F4E740F0040019
:101080003060F7E7FFF728FD0099411A41F28830F8
:10109000814266D830688007F4D50EE0FFF71CFD6A
:1010A000009007E0FFF718FD0099411A41F28830DF
:1010B000814256D830688007F4D42FB1DBF8001095
:1010C00021F08051CBF80010A069C8B33D49091D3B
:1010D0000968C1F3810102294AD00228504607D08D
:1010E000C8F8600000E03CE0FFF7F6FC04463BE097
:1010F0004746C8F86000FFF7EFFC064605E000BF72
:10110000FFF7EAFC801B02282BD828688001F7D45F
:10111000D4E907010843A16A2E4A490802EB0141BC
:10112000626A41EA8211084394F82C1040EA016196
:10113000C9F8001001203866FFF7CEFC044606E02F
:101140003EE000BFFFF7C8FC001B022809D8286852
:101150008001F7D534E000BFFFF7BEFC001B02287A
:1011600002D90320BDE8F88F28688001F4D427E075
:101170000128F7D0D9F80000E26900F4800191421B
:101180001CD1226A00F03F01914217D147F6C0718D
:10119000626A0140B1EB821F10D1A26A4FF0FF33A7
:1011A00000F4403103EB5202B1EB024F06D194F848
:1011B0002C1000F07060B0EB016F01D00120D1E77E
:1011C0000020CFE70438024000004742800E47422B
:1011D000007000400000FFFF7047704710B504002A
:1011E00003D094F83D0010B107E0012010BD0020AD
:1011F00084F83C00204600F01EF8022084F83D00F0
:10120000211D206800F088FD012084F8460084F844
:101210003E0084F83F0084F8400084F8410084F8E0
:10122000420084F8430084F8440084F8450084F8C0
:101230003D00002010BD704790F83D10012901D0FD
:1012400001207047022180F83D100168CA6842F011
:101250000102CA6000680E4988420ED0B0F1804F8A
:101260000BD00C49884208D00B49884205D00B4965
:10127000884202D00A49884204D1816801F00701FE
:10128000062903D0016841F0010101600020704788
:10129000000001400004004000080040000C004035
:1012A00000400140704770B50446006801694FF086
:1012B0000005C943890715D4C168C943890711D4FA
:1012C000E91E01610120207720688069800720469F
:1012D00002D0FFF7E7FF04E000F098F8204600F0A6
:1012E00096F8257720680169C943490717D4C16872
:1012F000C943490713D46FF004010161022020772C
:101300002068806910F4407F204602D0FFF7CAFFB2
:1013100004E000F07BF8204600F079F8257720689B
:101320000169C943090716D4C168C943090712D422
:101330006FF008010161042020772068C0698007F0
:10134000204602D0FFF7AEFF04E000F05FF8204631
:1013500000F05DF8257720680169C943C90617D4F4
:10136000C168C943C90613D46FF010010161082098
:1013700020772068C06910F4407F204602D0FFF734
:1013800091FF04E000F042F8204600F040F8257795
:1013900020680169C943C90708D1C168C943C907A1
:1013A00004D1891E0161204600F032F820680169ED
:1013B000C943090609D4C168C943090605D46FF0B9
:1013C000800101612046FFF707FF20680169C943DA
:1013D000490609D4C168C943490605D46FF04001E4
:1013E0000161204600F01EF820680169C9438906A2
:1013F0000BD4C168C943890607D46FF0200101618D
:101400002046BDE87040FFF7E8BE70BD70477047EA
:1014100000680349884201D1FFF764BB70470000B0
:1014200000440140704770B5040004D094F83D00BA
:10143000002510B106E0012070BD84F83C50204624
:1014400000F022F8242084F83D002068C16821F4CF
:101450000051C160204600F0ABFC2068016921F416
:10146000904101612068416921F02A0141612068B1
:10147000C16841F40051C1602564202084F83D001A
:1014800084F83E00002070BDF0B587B004461421FA
:101490006846FEF747FF20491E4F266800251E4A72
:1014A0001439022303241D48BE4214D1166846F0A5
:1014B00010061660126802F0100205920A6842F0E7
:1014C00001020A60096801F00101059161028DE8DD
:1014D0002A00072117E0124FBE4219D1166846F0C4
:1014E00020061660126802F0200205920A6842F097
:1014F00001020A60096801F0010105914FF4C05131
:101500008DE82A000821CDE903416946FFF7E6F995
:1015100007B0F0BD00100140443802400000024016
:1015200000140140FEE770B5002404F1B000C0B221
:1015300000F0E6F9012000F0E3F9102000F0E0F9F6
:101540000025002000F006FA6D1CEDB2802DF8D3C6
:10155000641CE4B2082CE8D370BD40F2365305E0B9
:101560001946491E89B2FCD2401E80B20028F7D12C
:101570007047000070B506465FF0000404F1B0004B
:10158000C0B200F0BDF9012000F0BAF9102000F05F
:10159000B7F90025304600F0DDF96D1CEDB2802D65
:1015A000F8D3641CE4B2082CE8D370BD10B5384CF5
:1015B000012210212046FFF789FA0022402120460F
:1015C000FFF784FA3220FFF7C8FF012240212046AE
:1015D000FFF77CFAAE2000F093F9002000F090F9BC
:1015E000102000F08DF9402000F08AF9812000F0F1
:1015F00087F9CF2000F084F9A12000F081F9C820FC
:1016000000F07EF9A62000F07BF9A82000F078F920
:101610003F2000F075F9D32000F072F9002000F0AF
:101620006FF9D52000F06CF9802000F069F9D9201D
:1016300000F066F9F12000F063F9DA2000F060F9BB
:10164000122000F05DF9DB2000F05AF9402000F094
:1016500057F9202000F054F9022000F051F98D20B4
:1016600000F04EF9142000F04BF9A42000F048F9E6
:10167000A62000F045F9AF2000F042F90020FFF766
:1016800079FF0021BDE81040084600F023B90000B2
:10169000000002402DE9F05F984691468B46824655
:1016A00000250A9E64E00020012409EB05020BE0FE
:1016B0008B4207D108EB000357785B78BB4201D11E
:1016C000040105E0801CC0B218F800307F2BEFD871
:1016D000BAF1760F05D90BF101004FF0000A00F0C6
:1016E000FF0B5946504600F0F5F8012C1ED0594624
:1016F000504600F0EFF80027305D00F02BF9641C35
:101700007F1CFFB2A4B2102FF6D30BF10800C1B2B8
:10171000504600F0DFF80027305D00F01BF9641C34
:101720007F1CFFB2A4B2102FF6D31BE06D1CEDB2EC
:101730005946504600F0CEF80024002000F00AF987
:10174000641CE4B2102CF8D30BF10100C1B2504676
:1017500000F0C0F80024002000F0FCF8641CE4B2A3
:10176000102CF8D30AF11000AD1C00F0FF0AEDB206
:1017700019F80510002996D1BDE8F09F2DE9F04732
:101780009A4690468946054600261CE02038C7B296
:101790007E2D04D909F10100002500F0FF0949461A
:1017A000284600F097F807EB470000240AEB4007B3
:1017B000385D00F0CFF8641CE4B2062CF8D3AD1D00
:1017C000761CEDB2F6B218F806000028DED1BDE8AE
:1017D000F0872DE9F0479A4691468846054600264F
:1017E00029E02038C7B2782D04D908F1010000257E
:1017F00000F0FF084146284600F06CF800240AEB90
:101800000717385D00F0A6F8641CE4B2082CF8D382
:1018100008F10800C1B2284600F05CF8002438192D
:10182000007A00F097F8641CE4B2082CF7D308356E
:10183000761CEDB2F6B219F806000028D1D1BDE849
:10184000F08700002DE9FC4700251646894604462E
:101850002F46DDF8288031E07F288DF8040012D96A
:10186000701901AA40788DF8050017480090A0F182
:101870009D038DF8067049462046FFF70BFF103494
:10188000E4B2AD1C19E08DF80570B8F1010F03D07A
:10189000B8F1030F08D00FE00C4B01AA49462046CF
:1018A000FFF797FF083406E0094B01AA4946204696
:1018B000FFF764FFA41DE4B26D1CEDB2705D00285B
:1018C000CAD1BDE8FC8700005D3A00081D4400084D
:1018D0009837000810B50446B02000EBD100C0B224
:1018E00000F00EF8102040EA141000F009F804F09F
:1018F0000F00BDE8104040F0010000F001B800000A
:1019000070B5134E05460824002280213046FFF7AB
:10191000DDF8002210213046FFF7D8F814E0280641
:1019200001D5012200E0002220213046FFF7CEF849
:10193000012210213046FFF7C9F80022102130465D
:10194000FFF7C4F86806050E641EE4B2E7D270BD66
:101950000000024070B5134E054608240122802184
:101960003046FFF7B3F8002210213046FFF7AEF8FB
:1019700014E0280601D5012200E000222021304693
:10198000FFF7A4F8012210213046FFF79FF800224C
:1019900010213046FFF79AF86806050E641EE4B27F
:1019A000E7D270BD000002401FB50021154800912C
:1019B00001910291124A039102604FF48032C0E912
:1019C000012101240161047680F820100E4AC0E94B
:1019D0000A21C461C16080F830104461FEF704FF41
:1019E00008B1FEF79AFD00940194694605480294F7
:1019F000FEF796FD002801D0FEF78FFD1FBD000009
:101A000000200140F40000200100000F10B50E4A34
:101A100000210E4800F0C2FA0D4C0B4A0021206054
:101A200024320C4800F0BAFA074A606048320021BC
:101A3000094800F0B3FA044AA0606C32002107485C
:101A400000F0ACFAE06010BDF0360008891B000819
:101A500004000020151C0008351C0008471C000865
:101A6000F0B587B014216846FEF75CFC26480024D8
:101A7000016841F004010160016801F00401059171
:101A8000016841F080010160016801F08001059169
:101A9000016841F00101016000681C4E00F0010086
:101AA0004FF400550590002229463046FFF70EF806
:101AB000174F0022F0213846FFF708F8009501255E
:101AC000CDE90154694630460394FEF707FF4FF411
:101AD0000410CDE90050694638460295FEF7FEFE37
:101AE000F0200090CDE90154694638460394FEF792
:101AF000F5FE002205210620FFF77AF80620FFF701
:101B000069F807B0F0BD000030380240000802401C
:101B1000000002400C4810B50A4901604FF4E13161
:101B20004160002181600C22C160C0E90412816122
:101B3000C161FFF778FC002803D0BDE81040FEF734
:101B4000ECBC10BD001001403C0100200C4810B559
:101B50000A4901604FF4E1314160002181600C22AB
:101B6000C160C0E904128161C161FFF75CFC00281B
:101B700003D0BDE81040FEF7D0BC10BD00140140FA
:101B800080010020FEE7FEE708B5012400210223C2
:101B900015A208460094FFF755FE4FF47A752846C3
:101BA00000F0C4FFFFF7BFFC0021022313A2084688
:101BB0000094FFF747FE284600F0B8FFFFF7B3FC9C
:101BC000022310A2002114200094FFF73BFE2846B8
:101BD00000F0ACFFFFF7A7FC0D48FEF77BFC2846A2
:101BE00000F0A4FFF8E70000D6C7C4DCBCD2BED327
:101BF000B9DCC0EDCFB5CDB300000000C0EEB0C27F
:101C0000BBD400002D2D3EB5DAD2BBD0D0000000F1
:101C100024000020064D4FF400544FF47A762146FC
:101C20002846FEF74BFF304600F080FFF7E7000044
:101C3000000802404FF47A74204600F077FF01203C
:101C400000F071F9F8E7012000F06DF9FBE710B53D
:101C50004FF0E020006901F095FB012803D0BDE8BA
:101C6000104001F0C3B810BD30B593B030216846C4
:101C7000FEF758FB14210CA8FEF754FB1D48002565
:101C8000016841F080510160006800F080501190BF
:101C90001948016821F4404141F4004101600068A5
:101CA000022400F4404011900120009000040190B3
:101CB0008001CDE9064019200890A820CDE909044B
:101CC00004200B906846FFF7D1F808B172B6FEE722
:101CD0000CA90F2081E831004FF48050CDE90F05A9
:101CE00002210CA8FEF7B6FF002801D072B6FEE76D
:101CF00013B030BD40380240007000400248016817
:101D000041F470010160704788ED00E00148FFF781
:101D1000CABA0000C4010020F0B502681D4B1E4C79
:101D20009F031E4D1E4E984207D0B84205D0A042D8
:101D300003D0A84201D0B04204D122F0700C4A680E
:101D400042EA0C02984210D0B8420ED0A0420CD009
:101D5000A8420AD0B04208D0124CA04205D0124C82
:101D6000A04202D0114CA04203D122F44074CA68B0
:101D700022434C6922F08002224302608A68C262D8
:101D80000A688262984201D10969016301214161B7
:101D9000F0BD0000000001400004004000080040C9
:101DA000000C004000400140004401400048014058
:101DB00070B5044600680169E26821F4405111439E
:101DC00001612169A068E269084361691143084320
:101DD0002168CA6849F20C639A430243CA602068CA
:101DE0004169A26921F44071114341613149206880
:101DF000884202D03049884202D1FEF7F5FF01E067
:101E0000FEF7E2FFE2690023192164253226B2F5CC
:101E1000004F626828D0A0FB0101930F9200FEF7EB
:101E200037FA0146B0FBF5F06FF01802504301EBB2
:101E3000800006EB0010B0FBF5F000F0F002B1FB03
:101E4000F5F002EB0012B1FBF5F06FF01803584308
:101E500001EB800006EB0010B0FBF5F000F00F0086
:101E600021681044886070BDA0FB010192185B419D
:101E7000FEF70EFA0146B0FBF5F00201B1FBF5F0FA
:101E80006FF01803584301EB800006EBC000B0FB75
:101E9000F5F000F0F80002EB4002B1FBF5F058431A
:101EA00001EB800006EBC000B0FBF5F000F007008E
:101EB000D6E700000010014000140140FEE70907CA
:101EC000090E002804DB00F1E02080F800147047C0
:101ED00000F00F0000F1E02080F8141D704702E0D0
:101EE00008C8121F08C1002AFAD1704770470020A5
:101EF00001E001C1121F002AFBD17047FEF7FAFD75
:101F0000FFF7B2FEFFF7ACFDFFF720FEFFF74CFD39
:101F1000FFF700FEFFF74AFB00F012F8FFF776FD2F
:101F200000F020F8FEE710B5EFF3058111B16FF076
:101F3000050403E0002408B100F0F8FD204610BDC0
:101F4000EFF3058010B16FF0050070470448016899
:101F500011B14FF0FF307047012101600020704740
:101F6000C400002010B5EFF3058010B16FF005003C
:101F700010BD08480168012902D04FF0FF3010BDA4
:101F8000054A002182F8141D0221016000F036FE8E
:101F9000002010BDC40000200BE000E02DE9FF414F
:101FA0004FEA01034FF00005EFF30581039549BBAC
:101FB00040B38027182100244AB3166806B134467E
:101FC00096691EB13146761E382E02D21679F60772
:101FD00003D0002004B0BDE8F081566906B1B7080F
:101FE000D2F808C0BCF1000F0DD0D5685C2D18D315
:101FF00012693AB136B18DE806103A46214601F031
:1020000096F903900DE0D6685EB912694AB903AA41
:10201000CDE90012BAB2214601F05CF9012800D0E6
:1020200003950398D6E700002DE9F041134C0F46C5
:102030000546E6682068001D00F044FC681C07D1D6
:1020400037B12168BDE8F0410D48091D00F08ABC98
:1020500020683544B5424560216805D2A06BBDE8D3
:10206000F041091D00F066BC606B091D00F062FCC8
:10207000A06A854200D2A562BDE8F081740000200C
:10208000FC0600202DE9F041054600F077FC2D4CC0
:10209000A068401CA06020682B4F10B1606930B36D
:1020A0002BE02560A068012827D1002606EB8600DA
:1020B00007EB800000F030FC761C382EF6D3234866
:1020C00000F02AFC2148143000F026FC1F4828307C
:1020D00000F022FC1D483C3000F01EFC1B48503034
:1020E00000F01AFC194860631430A06305E0206812
:1020F000E96AC06A884200D82560606A401C606254
:102100006864E86A2169884200D9206100EB800098
:1021100007EB8000291D00F025FC00F04FFC6069F2
:1021200000280CD02068E96AC06A884207D20849B2
:102130004FF080500860BFF34F8FBFF36F8FBDE843
:10214000F0810000740000204C020020AC0600204A
:1021500004ED00E038B500F011FC104C2068C8B95F
:102160000F4800F0D9FB0E48143000F0D5FB0C48A6
:10217000E060143020610A4B0020F03B009003F136
:10218000500210210A2000F047FE206010B105A186
:1021900000F096FCBDE8384000F010BCB000002014
:1021A00000080020546D72510000000030B4026C31
:1021B0000B46002A0BD0C1681144C1608468A1425B
:1021C00001D30168C16030BC1846FEF792B830BC3C
:1021D00070472DE9F041856B174604460026026CD6
:1021E00082B1C7B1E068FEF784F8E168206C091A93
:1021F000E1602268914202D2A168081AE060022FD1
:1022000016D017E02068A8B9A06801F033F9064697
:102210000020A0600EE06068FEF76BF8216C60683B
:1022200008446060A168884204D32068606001E0CF
:1022300005B16D1E6D1CA5633046BDE8F08110B57B
:10224000044690F8590058B101280CD002280FD04C
:10225000502080F31188BFF34F8FBFF36F8FFEE7DD
:10226000206B00F0BFFB2046BDE8104000F0BABB79
:1022700010BD000010484FF47051420706D0C01D39
:102280000D4920F00700411AC1F570510B4A002397
:102290000144C2E900030839183A21F0070111602E
:1022A0004B600B600B1AC0E9001393604FF00040C5
:1022B0005360506170470000E00E0020E0000020F5
:1022C000144E154CA6F29C474FF08058DFF84C9006
:1022D00012E000BF00F052FBF068C568281D00F056
:1022E000F1FAA068401EA0606068401E606000F0C7
:1022F00065FB2846FFF7A3FF60680028EAD138682D
:102300000128F9D9C9F80080BFF34F8FBFF36F8F51
:10231000F2E70000E80600207400002004ED00E071
:1023200070B51D46049C51B1C4F80020C4E90F01EA
:102330000121204600F0A4FD84F84C5070BD2460BB
:10234000F4E700002DE9F05F8846DDE90B941546BF
:10235000834691009A460A9EA522206BFDF7DBFF7B
:102360006FF00301206B01EB8501084420F00707A3
:10237000780707D0502080F31188BFF34F8FBFF349
:102380006F8FFEE70025B8F1000F0FD05FF000005F
:10239000221818F8001082F8341018F8001011B143
:1023A000401C1028F4D384F8435001E084F83450E2
:1023B000382E00D33726E662C4E91365201D00F0ED
:1023C000B6FA04F1180000F0B2FA2461C6F1380040
:1023D0006462A061656584F8585052465946384693
:1023E00000F05AFA2060B9F1000F01D0C9F800409E
:1023F000BDE8F09F30B5114900E011460A688242FD
:10240000FBD34B685C18844203D140681844486091
:10241000084643681C18944209D1084C183C2468AB
:10242000A24209D052681A4442600A6812680260E7
:10243000814200D0086030BD0460F9E7E000002070
:1024400070B5002441600B4D0061914206D8D11A4D
:102450008269914206D2011D286907E09A4203D29F
:10246000994201D3012403E0011DE86800F062FAFB
:10247000204670BDB000002010B5044600F07EFA82
:10248000A06B28B15FF0000400F098FA204610BD60
:102490000124F9E730B589B03C4D6EE0049800287E
:1024A00006DADDE90601059A90470498002864DB06
:1024B000069C606910B1201D00F004FA03A800F02A
:1024C000D7F8024604980A2857D2DFE800F005053D
:1024D000052D334A05052D3394F8280040F00100FE
:1024E00084F828000599A069059B01442046FFF760
:1024F000A7FF68B3216A2046884794F82800400760
:102500003BD5002000900598A16900234218194688
:10251000204601F0B9F8D8B9502080F31188BFF3F4
:102520004F8FBFF36F8FFEE714F8280F20F00100E4
:10253000207022E094F8280040F0010084F8280080
:102540000598A06128B1811813462046FFF778FF4F
:1025500013E0502080F31188BFF34F8FBFF36F8FCC
:10256000FEE794F82800810703D4204600F03AFAE9
:1025700003E020F0010084F82800002204A9286864
:1025800000F0D2FD002889D109B030BDB000002094
:102590002DE9FC410F46054600F074FB01A800F050
:1025A00067F80446019818B100F0DCFFBDE8FC8133
:1025B000254EAFB130690068D0B30027291B3A46D9
:1025C000306800F091FA00F0CDFF0028EED11F49ED
:1025D0004FF080500860BFF34F8FBFF36F8FE5E778
:1025E000A542EBD800F0BEFFF0682746C068C4687B
:1025F000201D00F067F994F82800410719D5A0695B
:102600002B4641193A462046FFF71AFFA8B1002091
:102610000346014600902A46204601F035F860B98D
:10262000502080F31188BFF34F8FBFF36F8FFEE709
:1026300007E020F0010084F82800216A204688473E
:10264000B4E70127BAE70000B000002004ED00E085
:102650000648416B096829B1416BC968C968496876
:10266000816270474FF0FF31FAE7000074000020EC
:1026700070B5054600F094FE064E0446B0688442EC
:1026800003D200F009F8012000E000202860204675
:10269000B46070BDB0000020F8B5194D20E0C068EE
:1026A000C4680668201D00F00DF9216A204688479D
:1026B00094F82800400713D5A0693044B04206D9E9
:1026C00024616060211DE86800F034F908E0002012
:1026D0000346014600903246204600F0D5FF38B14F
:1026E000E86801680029DAD12969C5E90310F8BD55
:1026F000502080F31188BFF34F8FBFF36F8FFEE739
:10270000B000002008484068401C4FF0500080F3A3
:10271000118804D0BFF34F8FBFF36F8FFEE7BFF375
:102720004F8FBFF36F8FFEE7E8000020074CE06893
:10273000016841B1C0680021D0F80000FFF728FF10
:10274000FFF7A8FEF3E701210020F7E7B000002023
:102750002DE9F041044600F011F994F9455004F1D7
:10276000240609E0606A48B1304600F0C3FE08B1B3
:1027700000F00AFA6D1E6DB2002DF3DC4FF0FF364B
:1027800084F8456000F01AF900F0F8F894F9445024
:1027900004F1100709E0206948B1384600F0AAFEAC
:1027A00008B100F0F1F96D1E6DB2002DF3DC84F874
:1027B0004460BDE8F04100F001B900002DE9F041AE
:1027C0000546002700F05EFA324E306808B9FFF780
:1027D00051FD706905424ED1C5B3083568070ED06A
:1027E00005F00700C0F108000544680707D0502035
:1027F00080F31188BFF34F8FBFF36F8FFEE72DB3C8
:102800007068854237D82348183001460C6801E0CB
:1028100020460C466168A94202D221680029F7D1FE
:1028200031688C4227D007682168016060680837EA
:10283000411B10290FD96019420708D0502080F39E
:102840001188BFF34F8FBFF36F8FFEE713E0416036
:102850006560FFF7CFFD61687068401A7060B2680C
:10286000904200D2B060706901430020C4E90001C9
:10287000F068401CF06000F075FE780707D050202B
:1028800080F31188BFF34F8FBFF36F8FFEE7384699
:10289000BDE8F081C800002010B5031F4FF0807420
:1028A0001C601B1F21F001011960191F044B0B60F4
:1028B00014390A60091F6FF0020244380A6010BD23
:1028C00005270008D0E9013201699A60D0E90123A7
:1028D0005A604A68824201D182684A6000220261DD
:1028E0000868401E0860086870470000034B0360DA
:1028F00003F15C0008608020106070472808002009
:10290000044B036003F15C0008604FF480701060BA
:1029100070470000840A002000F108014FF0FF32E8
:10292000C0E90112C160016100210160704700210E
:102930000161704730B50B685A1C02D000F10802E3
:1029400002E0026904E02246546825689D42FAD9F3
:1029500053684B6099608A60516008610168491C46
:10296000016030BD42684A6093688B60936859602B
:10297000916008610168491C01607047502080F334
:102980001188BFF34F8FBFF36F8F0A494868401C0F
:10299000486001280CD10848006810F0FF0F07D0EC
:1029A000502080F31188BFF34F8FBFF36F8FFEE786
:1029B00070470000E800002004ED00E00849486886
:1029C00028B1401E486001D180F311887047502023
:1029D00080F31188BFF34F8FBFF36F8FFEE70000C6
:1029E000E800002070B500282AD0164DA0F1080498
:1029F00060686969084207D1502080F31188BFF3ED
:102A00004F8FBFF36F8FFEE722683AB1502080F3FB
:102A10001188BFF34F8FBFF36F8FFEE7884360606D
:102A200000F030F960686968084468602046FFF784
:102A3000E1FC2869401C2861BDE8704000F092BDAF
:102A400070BD0000C80000204FF0E02000210161AF
:102A5000816105494FF47A720968B1FBF2F1491EB0
:102A600041610721016170472000002010B5FDF78A
:102A7000F9FB114910280ED300F1E02090F8F00383
:102A80000A78904207D2502080F31188BFF34F8F0D
:102A9000BFF36F8FFEE709480068896800F4E060C3
:102AA000884207D9502080F31188BFF34F8FBFF3BE
:102AB0006F8FFEE710BD0000E80000200CED00E085
:102AC00010B5084B002200BF53F832401CB1521C15
:102AD000082AF9D310BD43F8321003EBC201486055
:102AE00010BD00000C02002070B515460E460446CD
:102AF000FFF744FF94F944100020491C01D184F8E9
:102B0000440094F94510491C01D184F84500FFF7B1
:102B100055FFA06B28B92A46314604F1240000F085
:102B200051F82046BDE87040FFF712BE10B5020014
:102B300014D00F48006B38B1502080F31188BFF3D8
:102B40004F8FBFF36F8FFEE700F09CF80021104617
:102B5000FFF76AFA00F006FD002807D105494FF09B
:102B600080500860BFF34F8FBFF36F8F10BD000020
:102B70007400002004ED00E002490A6A0260C9689E
:102B8000416070477400002001490120C86170470E
:102B90007400002010B50C4650B10949096818317D
:102BA000FFF7C8FE2046BDE810400121FFF73CBA00
:102BB000502080F31188BFF34F8FBFF36F8FFEE774
:102BC0007400002070B514460D4668B10A490968C2
:102BD0001831FFF7C7FE0CB14FF0FF3521462846EC
:102BE000BDE87040FFF720BA502080F31188BFF392
:102BF0004F8FBFF36F8FFEE77400002030B587B0B2
:102C00000024039405AA04A903A80494FFF76EFE08
:102C1000DDE903010094CDE90110002315A1174857
:102C2000059A00F084FB164D0028E8621FD000F0E2
:102C3000FBFC012809D0401C19D1502080F31188D9
:102C4000BFF34F8FBFF36F8FFEE7502080F31188E3
:102C5000BFF34F8FBFF36F8F4FF0FF30A86201209B
:102C60006861EC6007B0BDE8304000F045B807B0DF
:102C700030BD000049444C4500000000C12200085E
:102C8000740000200248016B491C0163704700007A
:102C900074000020164810B5016B11B10121C1610B
:102CA00010BD0021C1610169124A01E0B9B1491E9C
:102CB00001EB810352F82330002BF7D001EB8103A5
:102CC00002EB830202F1080453685B685360A3427D
:102CD00001D15B685360DA680260016110BD502069
:102CE00080F31188BFF34F8FBFF36F8FFEE70000B3
:102CF000740000204C0200201CB537480168374A98
:102D0000914207D1502080F31188BFF34F8FBFF35A
:102D10006F8FFEE700683149491E884207D1502075
:102D200080F31188BFF34F8FBFF36F8FFEE72C49FD
:102D300008780190FF20087008788DF800009DF851
:102D400000009DF8002000F0F000904207D05020D5
:102D500080F31188BFF34F8FBFF36F8FFEE79DF8AD
:102D60000000204C00F0500020700720A06005E01B
:102D70009DF8002052008DF80020401E9DF8002094
:102D80001206F5D4A060032807D0502080F31188E4
:102D9000BFF34F8FBFF36F8FFEE74FF44070A0601B
:102DA000019808700C482030016841F470010160FE
:102DB000016841F070410160FFF746FE002060604D
:102DC000FDF718FA0848016841F040410160FDF73D
:102DD000FDF900201CBD000000ED00E071C20F41B4
:102DE00000E400E0E800002034EF00E010B55020DF
:102DF00080F31188BFF34F8FBFF36F8F00F0D6FAC7
:102E000018B104494FF080500860002080F3118809
:102E100010BD000004ED00E038B5049D18B153B1B9
:102E2000CAB181B120E0502080F31188BFF34F8FE9
:102E3000BFF36F8FFEE7502080F31188BFF34F8FF1
:102E4000BFF36F8FFEE7502080F31188BFF34F8FE1
:102E5000BFF36F8FFEE739B1502080F31188BFF3C5
:102E60004F8FBFF36F8FFEE750241C46012384F879
:102E700046302B460094FFF753FA204638BD000039
:102E800070B50D46040025D0FFF778FDD4E90F207A
:102E9000216802FB0011A1600021A163216861602B
:102EA0000A46D4E90F01401E00FB0121E1602146E2
:102EB0004FF0FF3001F8440F487004F110008DB15D
:102EC000FFF72AFD04F12400FFF726FDFFF776FD4A
:102ED000012070BD502080F31188BFF34F8FBFF3E6
:102EE0006F8FFEE721690029F0D000F003FB002876
:102EF000ECD004494FF080500860BFF34F8FBFF310
:102F00006F8FE3E704ED00E02DE9FF4782B01D4637
:102F10008A464FF00008040003D0BAF1000F08D031
:102F200011E0502080F31188BFF34F8FBFF36F8FF4
:102F3000FEE7206C38B1502080F31188BFF34F8F2B
:102F4000BFF36F8FFEE7022D0AD1E06B012807D097
:102F5000502080F31188BFF34F8FBFF36F8FFEE7D0
:102F600000F010FA3F4F4FF000094FF0805648B97B
:102F7000049838B1502080F31188BFF34F8FBFF30E
:102F80006F8FFEE7FFF7FAFCA06BE16B884207D377
:102F9000022D05D00498D0B1B8F1000F1AD01EE070
:102FA0002A4651462046FFF714F9616A19B104F127
:102FB000240000F09FFA20B13E60BFF34F8FBFF3B3
:102FC0006F8FFFF7FBFC012006B0BDE8F087FFF72D
:102FD000F5FC22E06846FFF7CFFD4FF00108FFF750
:102FE000EDFCFFF74FFEFFF7C9FC94F94400401CCD
:102FF00001D184F8449094F94500401C01D184F833
:103000004590FFF7DBFC04A9684600F029F930B1D0
:103010002046FFF79DFB00F0A5FA0020D4E7FFF75C
:10302000ADFCA06BE16B884213D1FFF7C7FC04F144
:1030300010000499FFF7AEFD2046FFF789FB00F072
:1030400091FA00289ED13E60BFF34F8FBFF36F8F80
:1030500098E7FFF7B3FC2046FFF77AFB00F082FA0F
:1030600090E7000004ED00E02DE9F0471F46904690
:103070008946040003D0B9F1000F08D011E05020B8
:1030800080F31188BFF34F8FBFF36F8FFEE7206C83
:1030900038B1502080F31188BFF34F8FBFF36F8F8B
:1030A000FEE7022F0AD1E06B012807D0502080F301
:1030B0001188BFF34F8FBFF36F8FFEE7FFF7D6FC8A
:1030C0005020EFF3118680F31188BFF34F8FBFF3C9
:1030D0006F8FA06BE16B884206D3022F04D00020D3
:1030E00086F31188BDE8F08794F94550A06B3A4605
:1030F00049462046FFF76DF8681C04D06D1C84F823
:1031000045500120ECE7606A0028FAD004F1240061
:1031100000F0F0F90028F4D0B8F1000FF1D001214F
:10312000C8F80010EDE700002DE9F747002683B04E
:103130008A46040003D0BAF1000F08D011E05020F5
:1031400080F31188BFF34F8FBFF36F8FFEE7206CC2
:1031500038B1502080F31188BFF34F8FBFF36F8FCA
:10316000FEE700F00FF9DFF8F4804FF000094FF0B0
:10317000805748B9059838B1502080F31188BFF3C3
:103180004F8FBFF36F8FFEE7FFF7F8FBA56BC5B15D
:1031900051462046FFF70AF86D1EA563206950B11D
:1031A00004F1100000F0A6F928B1C8F80070BFF3D0
:1031B0004F8FBFF36F8FFFF701FC012006B0BDE812
:1031C000F087059808B11EB106E0FFF7F7FB27E08E
:1031D0006846FFF7D1FC0126FFF7F0FBFFF752FD31
:1031E000FFF7CCFB94F94400401C01D184F84490D3
:1031F00094F94500401C01D184F84590FFF7DEFBAF
:1032000005A9684600F02CF8002820460AD0FFF7F0
:103210009FFA00F0A7F92046FFF72EF90028B3D057
:103220000020CBE7FFF728F990B104F124000599BD
:10323000FFF7B0FC2046FFF78BFA00F093F9002867
:10324000A2D1C8F80070BFF34F8FBFF36F8F9BE719
:103250002046FFF77DFA00F085F995E704ED00E0E0
:103260002DE9F0410C46050011D0C4B1FFF786FBF3
:10327000174BDA686E682068911B471C17D02F68BF
:103280001B6A9F4219D0964217D8012410E05020A3
:1032900080F31188BFF34F8FBFF36F8FFEE750208D
:1032A00080F31188BFF34F8FBFF36F8FFEE70024C9
:1032B000FFF784FB2046BDE8F081884205D9401A1B
:1032C00020602846FFF758FCF1E700202060DCE78B
:1032D000740000202DE9FF5F8346DDE90E879946E3
:1032E00016468A469000FFF769FA05001CD05C205C
:1032F000FFF764FA040014D00020256384F8590015
:10330000CDE90240CDE900874B463246514658464A
:10331000FFF718F82046FEF7B5FE012004B0BDE81F
:10332000F09F2846FFF75EFB4FF0FF30F6E7F0B561
:1033300085B0DDE90B640A9DA6B1DCB15C2700977E
:103340002663022684F85960002604AFCDE90246C0
:10335000CDE90057FEF7F6FF2046FEF793FE0498EE
:1033600005B0F0BD502080F31188BFF34F8FBFF33D
:103370006F8FFEE7502080F31188BFF34F8FBFF3AC
:103380006F8FFEE70548416919B1006B18B1002045
:103390007047012070470220704700007400002031
:1033A0000148C06870470000740000202DE9F0411A
:1033B0002E4C0027206B28B1A069401CA061384624
:1033C000BDE8F081E668761CE66013D1606B0068AA
:1033D00038B1502080F31188BFF34F8FBFF36F8F48
:1033E000FEE7606BA16B6163A063206A401C2062F2
:1033F000FFF72EF9A06ADFF87880864209D3606B68
:103400000068A0B1606BC068C5686868864211D268
:10341000A0622068C06A00EB800158F821000128F2
:1034200000D90127E0690028C9D00127C7E74FF07C
:10343000FF30EDE7281DFFF745FAA86A18B105F13E
:103440001800FFF73FFAE86A2169884200D9206135
:1034500000EB800108EB8100291DFFF783FAE86A81
:103460002168C96A8842CAD30127C8E774000020CE
:103470004C02002070B504004FF0000133D01B4D0A
:103480002868844207D0502080F31188BFF34F8F03
:10349000BFF36F8FFEE7206D38B1401E2065E36CEF
:1034A000E26A9A421FD040B11DE0502080F311889B
:1034B000BFF34F8FBFF36F8FFEE7201DFFF702FAB8
:1034C000E06CE062C0F13800A061E06A29698842DE
:1034D00000D92861064900EB800001EB8000211D26
:1034E000FFF740FA0121084670BD0000740000207B
:1034F0004C02002070B5C068C46854B104F11800D3
:103500000646FFF7DFF9144D286B50B131461348DA
:1035100015E0502080F31188BFF34F8FBFF36F8FFA
:10352000FEE7201DFFF7CEF9E06A2969884200D93D
:1035300028610B4900EB800001EB8000211DFFF7A3
:1035400011FAE06A2968C96A884202D90120E86153
:1035500070BD002070BD000074000020D406002063
:103560004C0200202DE9F0472C4D00242746286B03
:1035700038B1FFF703FA286B401E2863286B40B16F
:1035800046E0502080F31188BFF34F8FBFF36F8F59
:10359000FEE7A968224E0120D1B3A6F591698046C5
:1035A0003068E0B1F068C46804F11800FFF78AF9E8
:1035B000201DFFF787F9E06A2969884200D9286150
:1035C00000EB800109EB8100211DFFF7CBF9E06AD8
:1035D0002968C96A8842E3D3C5F81C80E0E70CB1CA
:1035E000FFF736F8AC694CB14FEA0806FFF7DEFE8C
:1035F00000B1EE61641EF9D10020A861E86938B11C
:103600000849012738070860BFF34F8FBFF36F8F5A
:10361000FFF7D4F93846BDE8F087000074000020B9
:10362000D406002004ED00E010B586B0FEF792FD50
:10363000114C2068B8B100200390049005AA04A999
:1036400003A8FFF75DF9DDE9032102208DE80700FB
:1036500000230AA10B48059AFFF769FE606010B1CC
:1036600006B0012010BD502080F31188BFF34F8FAA
:10367000BFF36F8FFEE70000B0000020546D722092
:10368000537663002D2700082DE9FF411E4613469F
:1036900002000A9D4FF0000016D0144C2768002F3E
:1036A0000FD0CDE900130292062917DAFFF76AFE60
:1036B00002284FF000030FD0002269462068FFF770
:1036C00023FC04B0BDE8F081502080F31188BFF3E3
:1036D0004F8FBFF36F8FFEE72A46EEE70023324697
:1036E00069463846FFF7C0FCEBE70000B000002059
:1036F000344A000800000000000000000000000044
:10370000000000000002000018000000000000009F
:1037100000000000104A0008000000000000000047
:10372000000000000000000000020000080000008F
:1037300000000000000000001C4A0008000000001B
:103740000000000000000000000000000002000077
:10375000080000000000000000000000284A0008E7
:103760000000000000000000000000000000000059
:10377000000200000800000000000000000000003F
:103780000000000000000000010203040607080911
:10379000000000000102030400000000000000001F
:1037A000002F000000000700070000147F147F14A2
:1037B00000242A7F2A120062640813230036495528
:1037C000225000000503000000001C224100000000
:1037D00041221C000014083E08140008083E080896
:1037E000000000A0600000080808080800006060F1
:1037F0000000002010080402003E5149453E000030
:10380000427F4000004261514946002141454B3111
:10381000001814127F10002745454539003C4A49DD
:10382000493000017109050300364949493600064F
:103830004949291E000036360000000056360000B7
:103840000008142241000014141414140000412232
:10385000140800020151090600324959513E007C0A
:103860001211127C007F49494936003E41414122F4
:10387000007F4141221C007F49494941007F0909DD
:103880000901003E4149497A007F0808087F00008D
:10389000417F4100002040413F01007F0814224148
:1038A000007F40404040007F020C027F007F040800
:1038B000107F003E4141413E007F09090906003E5C
:1038C0004151215E007F0919294600464949493185
:1038D0000001017F0101003F4040403F001F2040A8
:1038E000201F003F4038403F006314081463000766
:1038F0000870080700615149454300007F414100BD
:1039000000552A552A55000041417F00000402015C
:10391000020400404040404000000102040000203A
:1039200054545478007F4844443800384444442078
:1039300000384444487F00385454541800087E0925
:1039400001020018A4A4A47C007F080404780000ED
:10395000447D4000004080847D00007F10284400AA
:103960000000417F4000007C04180478007C0804BB
:10397000047800384444443800FC242424180018F7
:10398000242418FC007C08040408004854545420E3
:1039900000043F444020003C4040207C001C20406C
:1039A000201C003C4030403C004428102844001CAF
:1039B000A0A0A07C004464544C44141414141414A7
:1039C000B2E2BEE0C0EBD6DCB3A4C3E6BBFDB6C832
:1039D000B8DFC6C2C4B6D2C7CBD1CBF7CEC0D0C732
:1039E000B4F3D0A1B2E9BCC7C2BCC9BEB3FDCFB568
:1039F000CDB3D6B5C9E8B5A5BCDBB9ABC7EAD4AA87
:103A0000D1AFC3BFB5E7B3D8D1B9BEADCEB3A1E393
:103A1000A94FD0CDBAC5B0E6B1BECAA3D3E0BFD5D9
:103A2000BCE4B7B5BBD8CDCBB3F6C0EEB0C2BBD407
:103A3000D6C7C4DCBCD2BED3B9DCC0EDCFB5CDB3E4
:103A4000B5DAD2BBB6FEC8FDCBC4CEE5C1F9C6DF40
:103A5000D0D0CFD4CABECEC2CAAAB6C800106002A7
:103A60008C00FE02F202FE00F800FF000004047E5B
:103A7000018047300F10270047807F0000003E2262
:103A8000E2223E00FE2222222222E20200203F20E9
:103A90001F1111007F44444444444740000404047F
:103AA000F484D4A5A6A4D484F40404040000FE0283
:103AB00002123A1613121A3242827E00000000FEF1
:103AC00082929292FE92929282FE00000080601F8B
:103AD00000001E1212121E40807F000000808080B5
:103AE00080FF8080A0908884828080800000000019
:103AF00000FF40211204081020204040000202E292
:103B00002222F22E2222E22222E20202000000FF02
:103B100040407F4949497F4040FF00000020242465
:103B2000A4FE232220FC04040404FC000010080668
:103B300001FF010680631901010933C0000000FC88
:103B4000242424FC252624FC242424040040308F33
:103B500080844C55252525554C8080800004040424
:103B600004F49495969494F4040404040000FE0272
:103B7000027A4A4A4A4A4A7A0282FE00002020FF1C
:103B8000202000F8888888FF8888A8180010301F37
:103B90000888601F80432C1028468180000808C8D0
:103BA00048484849CE48484848C80808000000FF2F
:103BB000444444447F44444444FF00000000806087
:103BC000F807001CE0010600E01E000000010000F4
:103BD000FF00804020130C13204080800010101044
:103BE000FF109000FE9180FF8092FE00000444824E
:103BF0007F01008082462A132A468280008060244A
:103C00002424A4643F2424A42424A0600000804829
:103C100029094D8D7B0B09284C98000000000202F9
:103C2000020202FE0202020202FE000000404040C8
:103C30004040407F40404041424140400000000041
:103C4000BE2A2A2AEA2A2A2A3E000000000044420C
:103C5000494949497F4949494941400000202020BC
:103C600020202020FF2020202020202000808040B5
:103C700020100C0300030C10204080800000000086
:103C8000E0000000FF000000204080000008040366
:103C9000000040807F0000000000010E004044242E
:103CA000A4948C84FF848C94A4244440004040401D
:103CB0005F4A4A4A4A4A4A4A5F40404000404042BE
:103CC000CC0000008484848484FC00000000000098
:103CD0007F2010003F404040404140700080808283
:103CE0009292929292929292FE8080800040402224
:103CF000241048807F040818242240400080FE825F
:103D000082FE80FE8282FE8000F800FF00403F00BD
:103D100020BF403F40807F00004F807F0000FE2298
:103D20005A8620102824E324281020200000FF04B5
:103D30000827110D41817F01050931000000002293
:103D4000322AA6A26221110981010000000042224C
:103D5000130B42827E02020A12234600002030AC7E
:103D600063300088C8A8998E88A8C8880022672276
:103D700012128040300F00003F4040710000806010
:103D8000F80704E4A4A4BFA4A4E404000001000014
:103D9000FF40407F4A4A4A4A4A7F404000404042F2
:103DA000CC0040A09E8282829EA0202000000000C5
:103DB0003F908840432C102846418080000000F846
:103DC000494A4C48F8484C4A49F800000010101382
:103DD00012121212FF121212121310100000806041
:103DE000F8074020900C030C902040400001000098
:103DF000FF0080601F000000FF0000000000804006
:103E000020180680000718204080000000010020D4
:103E1000702826212020243860000101000000FEC7
:103E200020202000F2121AD61212F2020000001F07
:103E3000080402804F20180710204F800020202205
:103E40002222E2222222E22222222020008040207E
:103E5000100C030000003F404040407800404042CA
:103E6000CC0020D04C4B48C80808F80000000000E7
:103E70007F20101F1212125F80403F000020100CA4
:103E8000F312125292121212F20202000001011FEA
:103E900011111115195191513F111101000000F834
:103EA00088888888FF88888888F800000000001FBC
:103EB000080808087F888888889F80F000106002C2
:103EC000CC8080FC4020FF1008F800000004047E35
:103ED0000100003F40404F4044474078000000FE52
:103EE0000282828282FA8282828282020080601F43
:103EF00040404040407F404044584040002030AC6B
:103F000063201880824222121A26428000226722F1
:103F1000121212404242427E42424240002030ACE5
:103F200063201800084848FF4848480800226722D4
:103F300012121200020202FF0212221E00000000F2
:103F400000000C12120C0000000000000000000035
:103F5000000000000000000000000000000008F069
:103F60000808F00808F000223129260000000007A8
:103F7000000007000007000000000000002022A24F
:103F80007E2222FE2222007C0000FF0000444249E3
:103F9000484848497E484848494A41400080808016
:103FA000BEA2A2A2A2A2A2A2BE80808000000000A7
:103FB00006050404044484443C0000000000FE2084
:103FC000203F2000FC24E4242223E20000807F0123
:103FD00001FF80601F8041261826418000001010DC
:103FE0001010D030FF30D010101010000010080456
:103FF00002090808FF0808090204081000484AFAE4
:104000000AFE09F949A80000F00000FF0022110B88
:1040100004FF0409122300000F40807F00808040CD
:1040200020504844C3444850204080800000402233
:104030001A0242827F0202020A12600000100C443F
:1040400024140405060404142444140C0000404005
:10405000414141417F414141414040000000F80160
:104060000600F0121212F2020202FE000000FF002F
:1040700000001F1111111F0040807F0000404042CE
:10408000CC0000FC24A4242222A3620000004020D3
:104090001F2058475048454245485040000000FE08
:1040A0000202F2121212F20202FE00000000007F71
:1040B0002020272424242720207F00000040404285
:1040C000CC0000FF4949C949497F800000004020D9
:1040D0001F20405F48444041424558400000007C5A
:1040E00040404040FF40404040FC000000007C4019
:1040F000404040407F4040404040FC0000808444BD
:104100004424140CFF0C1424444484800008080840
:1041100008094989790D0B0908080808000000FC06
:104120000454E645F444E45404FC00000088884B41
:10413000482928180D182829484B8888004458C059
:104140007FD0482622E23AA222222A060080601F5F
:10415000007F2010131212FF12121210001094533D
:10416000321E325210007E4242427E0000000000A9
:10417000FF49494949494949FF0000000008CC4A24
:1041800049484ACC18007F88888482E00000FF12EA
:104190001252927F00007E88888482E000102C24D6
:1041A00024A4A465A624242424A4340C0040494952
:1041B00029241452897F040A11102020000000FED7
:1041C0009292929292F29292929E80800040300F50
:1041D00000FC44444447444444FC000000886423F9
:1041E000A2A6AAA2BAA4A3A2262AA2620000000044
:1041F000FF4A4A4A4A4A4A4BF800000000048484B5
:10420000FC848400FE9292FE9292FE0000206020C8
:104210001F1010404444447F4444444000000022A6
:10422000322AA6A262211109810100000000422267
:10423000130B42827E02020A12234600002030AC99
:1042400063300088C8A8998E88A8C8880022672291
:1042500012128040300F00003F404071000804936C
:1042600092969A92FA94939296FA020200404047EC
:104270002424140CFF04042444241C0000808080A7
:10428000808080808080808080808080000000002E
:104290000000000000000000000000000000000816
:1042A000080808080808080808080000001010108E
:1042B00010101010101010101010101000000484B6
:1042C0008484848484848484848404000020202062
:1042D0002020202020202020202020200000FC045E
:1042E0000404FC040404FC040404FC0000007F2813
:1042F000242320202020212222227F0000000242AD
:104300004242C27E42424242C2020200004040405B
:1043100040784740404040407F40404000202020BF
:1043200020202021222C202020202020000040209E
:10433000100C03000000010204186000008080805F
:10434000808040FF404040202020200000000000EE
:104350000000003F4040404040407800000010888E
:10436000C4330040424242C2424242400002010085
:10437000FF0000000040807F0000000000000000FF
:10438000FE92929292929292FE000000004042446D
:1043900058407F4040407F405048464000404042A7
:1043A00042424242C2424242424240400020100841
:1043B000060040807F000000020408300010600208
:1043C0008C0000FE9292929292FE00000004047E05
:1043D00001407E42427E427E42427E4000106002A8
:1043E0008C00FE929292929292FE00000004047E53
:1043F000014448507F40407F50484440000000FC4A
:10440000242424FC252624FC242424040040308F6A
:1044100080844C55252525554C8080800000000067
:10442000000000000000000000000000000000008C
:10443000F800000000000000333000000000100C05
:1044400006100C0600000000000000000040C078CC
:1044500040C0784000043F04043F0404000070881A
:10446000FC08300000001820FF211E0000F008F0BA
:1044700000E018000000211C031E211E0000F008AF
:1044800088700000001E2123241927211010160E09
:10449000000000000000000000000000000000001C
:1044A000E018040200000000071820400000020489
:1044B00018E0000000004020180700000040408085
:1044C000F0804040000202010F01020200000000E3
:1044D000F0000000000101011F01010100000000C7
:1044E000000000000080B07000000000000000002C
:1044F00000000000000001010101010101000000B5
:10450000000000000000303000000000000000004B
:104510000080601804006018060100000000E01030
:10452000080810E000000F102020100F00001010ED
:10453000F8000000000020203F202000000070084C
:10454000080888700000302824222130000030083C
:1045500088884830000018202020110E000000C07C
:104560002010F8000000070424243F240000F8086D
:1045700088880808000019212020110E0000E01092
:104580008888180000000F112020110E0000380844
:1045900008C83808000000003F00000000007088D4
:1045A0000808887000001C222121221C0000E01055
:1045B000080810E0000000312222110F0000000066
:1045C000C0C000000000000030300000000000000B
:1045D00080000000000000806000000000000080FB
:1045E0004020100800000102040810200040404054
:1045F0004040404000040404040404040000081087
:1046000020408000000020100804020100007048D3
:10461000080808F0000000003036010000C030C873
:1046200028E810E0000718272423140B000000C01E
:1046300038E0000000203C23020227382008F888D8
:104640008888700000203F202020110E00C0300814
:104650000808083800071820202010080008F8086B
:10466000080810E000203F202020100F0008F888E4
:1046700088E8081000203F20202320180008F88830
:1046800088E8081000203F200003000000C0300828
:10469000080838000007182020221E020008F80829
:1046A000000008F808203F210101213F20000808F0
:1046B000F8080800000020203F202000000000082B
:1046C00008F8080800C08080807F00000008F88893
:1046D000C028180800203F20012638200008F808CC
:1046E0000000000000203F20202020300008F8F8C3
:1046F00000F8F80800203F003F003F200008F83095
:10470000C00008F808203F200007183F00E010080C
:10471000080810E0000F10202020100F0008F808F3
:10472000080808F000203F210101010000E0100806
:10473000080810E0000F18242438504F0008F888AB
:104740008888887000203F2000030C30200070888B
:1047500008080838000038202121221C0018080809
:10476000F8080818000000203F2000000008F808A2
:10477000000008F808001F202020201F000878886B
:104780000000C83808000007380E010000F80800D3
:10479000F80008F800033C0700073C03000818680D
:1047A000808068180820302C03032C30200838C87B
:1047B00000C83808000000203F2000000010080852
:1047C00008C83808002038262120201800000000E2
:1047D000FE020202000000007F40404000000C305A
:1047E000C000000000000000010638C00000020206
:1047F00002FE000000004040407F00000000000476
:10480000020202040000000000000000000000009E
:104810000000000000808080808080808000020294
:104820000400000000000000000000000000008004
:1048300080808000000019242222223F2008F800F6
:104840008080000000003F112020110E00000000B9
:104850008080800000000E11202020110000000048
:10486000808088F800000E112020103F200000807A
:104870008080800000001F222222221300008080FE
:10488000F0888888180020203F2020000000008049
:104890008080808000006B94949493600008F800FE
:1048A0008080800000203F210000203F2000809871
:1048B00098000000000020203F20200000000000A1
:1048C000809898000000C08080807F000008F80079
:1048D0000080808000203F24022D30200000080846
:1048E000F8000000000020203F2020000080808091
:1048F0008080808000203F20003F20003F8080009B
:104900008080800000203F210000203F20000080A8
:104910008080800000001F202020201F0080800059
:10492000808000000080FFA12020110E0000000008
:104930008080808000000E112020A0FF8080808079
:10494000008080800020203F2120000100000080A6
:10495000808080800000332424242419000080807B
:10496000E0808000000000001F2020000080800008
:104970000000808000001F202020103F20808080C9
:10498000000080808000010E300806010080800059
:1049900080008080800F300C030C300F000080807E
:1049A00000808080000020312E0E31200080808029
:1049B000000080808080818E701806010000808059
:1049C00080808080000021302C22213000000000F7
:1049D00000807C020200000000003F404000000018
:1049E00000FF00000000000000FF000000000202C5
:1049F0007C800000000040403F00000000000601F5
:104A00000102020404000000000000000000000099
:104A10006D795461736B3032000000006D79546120
:104A2000736B3033000000006D795461736B303468
:104A30000000000064656661756C745461736B00FE
:104A4000CFD4CABECEC2CAAAB6C80000B5DAD2BB9D
:104A5000D0D00000B5DACBC4D0D00000B5DAC8FDA4
:104A6000D0D00000B5DAB6FED0D000008C4A0008E5
:104A700000000020F4000000DE1E0008804B00084B
:104A8000F4000020EC4D0000EE1E000800000000C5
:104A90000000000000000000000000000000000016
:104AA0000100000010000000000000000024F400DD
:104AB0004C4A0008644A00085C4A0008544A00084E
:104AC000404A000800000000000000000000000054
:104AD00000000000000000000000000000000000D6
:104AE00000000000000000000000000000000000C6
:104AF00000000000000000000000000000000000B6
:104B000000000000000000000000000000000000A5
:104B10000000000000000000000000000000000095
:104B20000000000000000000000000000000000085
:104B30000000000000000000000000000000000075
:104B40000000000000000000000000000000000065
:104B50000000000000000000000000000000000055
:104B60000000000000000000000000000000000045
:104B70000000000000000000AAAAAAAA000000008D
:040000050800019559
:00000001FF
