:020000040800F2
:100000008006002005010008232600085D1E000868
:1000100021260008FB060008352C0008000000001F
:10002000000000000000000000000000272600087B
:1000300049070008000000002526000829260008BE
:100040001F0100081F0100081F0100081F01000810
:100050001F0100081F0100081F0100081F01000800
:100060001F0100081F0100081F0100081F010008F0
:100070001F0100081F0100081F0100081F010008E0
:100080001F0100081F0100081F0100081F010008D0
:100090001F0100081F0100081F0100081F010008C0
:1000A0001F0100081F0100081F0100081F010008B0
:1000B000E52600081F010008000000001F010008DD
:1000C0001F01000800000000000000001F010008E0
:1000D000000000001F010008E12A000800000000E5
:1000E0001F0100081F0100081F010008DFF810D0E1
:1000F00000F0D0FA0048004751370008AFF3008005
:10010000800600200648804706480047FEE7FEE7D5
:10011000FEE7FEE7FEE7FEE7FEE7FEE7FEE7FEE7B7
:100120008B260008ED000008202A04DB203A21FA83
:1001300002F00021704721FA02F3D040C2F1200200
:10014000914008431946704740EA01039B0703D0DA
:1001500009E008C9121F08C0042AFAD203E011F806
:10016000013B00F8013B521EF9D27047D2B201E0C8
:1001700000F8012B491EFBD270470022F6E710B5AC
:1001800013460A4604461946FFF7F0FF204610BD05
:1001900030B505462A460B4612F8010B13F8014B01
:1001A00008B1A042F8D01CB1002802D06D1CF1E7C4
:1001B000284630BD421C10F8011B0029FBD1801AD3
:1001C00070470EB540F2334102910021CDE9001194
:1001D0000A460B4600F058F803B000BD30B50B4698
:1001E000014600202022012409E021FA02F59D4267
:1001F00005D303FA02F5491B04FA02F52844151E3B
:10020000A2F10102F1DC30BD2DE9F05F05460020CE
:1002100092469B4688460646814640241BE0284677
:10022000414647462246FFF77FFF53465A46C01ACB
:10023000914110D311461846224600F03DFA2D1A7E
:1002400067EB01084F4622460120002100F034FAF6
:1002500017EB00094E41201EA4F10104DFDC4846E3
:1002600031462A464346BDE8F09F10B5141E73F18F
:10027000000408DA401C41F1000192185B411A4366
:1002800001D120F0010010BD2DE9F04D92469B46B2
:1002900011B1B1FA81F202E0B0FA80F22032904658
:1002A00000F00AFA04460F4640EA0A0041EA0B0150
:1002B00053465A46084313D0114653EA010019D059
:1002C000C8F140025046FFF72FFF05460E46504644
:1002D0005946424600F0F0F9084305D0012004E0F9
:1002E00020463946BDE8F08D0020054346EAE07619
:1002F0002C4337430A986305E40AA0EB0800002268
:10030000FD0A44EA47540A3002D500200146E9E7D5
:10031000010510196941DDE9084500196941BDE889
:10032000F04DA2E72DE9FE4F804681EA0300C00FA1
:100330000C46009021F0004123F00045B8EB02008C
:10034000A94105D24046214690461C460B4602462E
:1003500023F00040104347D0270DC7F30A00C3F332
:100360000A510290401A019040286BDAC3F313003F
:1003700040F4801B0098924620B10023D2EB030A80
:1003800063EB0B0B01985946C0F14002504600F058
:1003900093F906460D4650465946019A00F09BF9DE
:1003A00010EB08006141002487EA115284EAE773E8
:1003B0001A4340D0009A62B3019A012A4FEA0752C9
:1003C00015DC001B61EB02014FF0004202EA07520C
:1003D000CDE90042001C41F5801132462B46FFF763
:1003E00053FF03B0BDE8F08F40462146F9E7001BFC
:1003F00061EB0201001C41F5801300185B412018DD
:10040000A2F5001747EB030140EAD570B6196D411C
:1004100011E06D084FEA360645EAC0754FEA07520B
:10042000001B61EB0201001C41F5801149084FEAF5
:1004300030000019514132462B4603B0BDE8F04F61
:10044000FFF713BF0098012240000023D0EB020207
:1004500063EBE073009821464FEAE074B8EB0000CC
:1004600061EB0401E9E783F000435BE781F00041C1
:1004700058E72DE9FE4F81EA030404F0004421F01F
:10048000004100944FF0000B23F0004350EA0104B8
:100490005ED052EA03045BD0C3F30A54C1F30A5599
:1004A0002C44A4F2F3340194A0FB0254C1F31301D1
:1004B00041F48011C3F3130343F4801301FB02449E
:1004C00000FB034E840A970A44EA815447EA8357A3
:1004D000A4FB076802958D0A05FB07854FEA932C5C
:1004E00004FB0C542705029D4FEA065847EA1637CD
:1004F000B5EB08056EEB070C870E920E47EA8117E5
:1005000042EA8312A7FB0201B6EB0B0164EB000485
:100510002B0D43EA0C335E1844EB1C50DA4651466F
:10052000E7FB0201C5F313044FEA0B3343EA14530C
:100530004FEA0432019C43EA0603A4F10C0402943E
:10054000009CCDE900B4FFF79FFE03B0BDE8F08F3B
:1005500000200146F9E72DE9F04D81EA030404F09B
:10056000004B21F0004514464FF0000A23F00041F3
:1005700050EA050220D054EA01021DD0C5F30A5703
:100580000246C5F31303C1F31300C1F30A5640F446
:10059000801543F48013A7EB0608101BD64608F21B
:1005A000FD3873EB050002D308F1010801E0921851
:1005B0005B41B8F1000F03DA00200146BDE8F08D81
:1005C00000204FF48011064684460EE0171B73EBA3
:1005D000050705D3121B63EB050306434CEA010C28
:1005E00049084FEA300092185B4150EA0107EDD10B
:1005F00052EA030012D082EA040083EA05010843AC
:1006000005D0101BAB4106D20122002306E00022D8
:100610004FF0004302E06FF0010253101AEB0600A6
:100620004CEB085110EB0A0041EB0B01BDE8F04D1B
:10063000FFF71BBEC1F30A52C1F3130140F2FF33AF
:1006400041F480119A4202DA00200146704740F2DC
:1006500033439A42A2F2334202DC5242FFF764BDB6
:1006600000F02AB830B5041E71F1000404DB4FF02D
:100670000044404264EB0101141E73F1000405DBE9
:100680001C464FF00043524263EB0403994208BFFB
:10069000904230BD064C074D06E0E06840F0010393
:1006A00094E8070098471034AC42F6D3FFF722FDD8
:1006B000DC370008FC370008202A04DB203A00FA67
:1006C00002F1002070479140C2F1200320FA03F3A9
:1006D000194390407047202A06DBCB17203A41FA95
:1006E00002F043EAE07306E041FA02F3D040C2F1BF
:1006F00020029140084319467047FEE7024A002154
:1007000011606421FFF739BD180000201FB50220D9
:100710000090012002900020019003200390694680
:10072000014800F0EBFA1FBD000801401FB5022090
:10073000009001200190032003906946014800F0D9
:10074000DDFA1FBD000801407047000010B500240D
:1007500000F0E0F960B107A002F06EFA012408A1F0
:100760000AA000F0A7F818B10BA002F065FA022465
:10077000204610BD45535038323636A3A10D0A002D
:10078000486561727463617265000000686561723A
:10079000746361726500000045535038323620435F
:1007A0004F4E4E45435445442057494649A3A10D59
:1007B0000A00000070B505460C460648FFF79EFF8C
:1007C00022462946BDE870404FF6FF73024801F00B
:1007D00031BA00004E010020F400002070B505463B
:1007E00064210A48FFF7C9FC0949002004464FF478
:1007F0007A760860291933460122064801F01AFA70
:10080000641CE4B2285D0028F4D170BD4E010020C4
:1008100018000020F400002010B5052418E010484E
:10082000FFF76CFF0FA0FFF7D9FFC82001F02EFFE4
:100830000EA10B48FFF7ACFC38B10DA002F0FCF99B
:100840000748FFF75BFF012010BDC82001F01EFF25
:10085000641EE4B2E3D20EA002F0EEF9002010BD57
:100860004E01002041540D0A000000004F4B0000D3
:10087000A1BE6D61696EA1BF64656275673A45533B
:10088000502030315320464F554E442E0D0A000063
:10089000A1BE6D61696EA1BF64656275673A45531B
:1008A0005020303153204E4F5420464F554E2E206D
:1008B0000D0A00002DE9F0410D46064605240BE027
:1008C0001A48FFF71BFF1AA0FFF788FFC8221DA1D7
:1008D000164800F07BF910B9641EE4B2F0D2F4B10E
:1008E000012441F288371148FFF708FF64211648B8
:1008F000FFF743FC2B46324614A1134802F0ACF933
:100900001148FFF76BFF3A460EA1084800F05EF968
:1009100038B115A002F090F90120BDE8F081002067
:10092000FBE72046641EE4B2DDD2F6E74E0100206C
:1009300041542B43574D4F44455F4355523D310D74
:100940000A0000004F4B00001602002041542B43C8
:10095000574A41505F4355523D222573222C222590
:1009600073220D0A00000000A1BE6D61696EA1BF77
:1009700064656275673A5749464920C1ACBDD3B337
:10098000C9B9A60D0A0000002DE9F84F90468A4625
:10099000834600F0ADF84FF4FA76304601F076FE6B
:1009A0002EA002F049F902270024334D41F2883984
:1009B0001CE064213148FFF7E0FB64213048FFF779
:1009C000DCFB2C6053465A462EA12D48CDF8008002
:1009D00002F042F92A48FFF701FF304601F056FEC7
:1009E0004A462FA1254800F0F1F810B97F1EFFB24A
:1009F000DFD29FB1012764212048FFF7BEFB2AA068
:100A00002C60FFF7EBFE32462BA11C4800F0DEF80D
:100A100038B12AA002F010F9012707E00020BDE854
:100A2000F88F38467F1EFFB2E5D2F8E764211348FD
:100A3000FFF7A3FB29A02C60FFF7D0FE304601F0A2
:100A400025FEC82229A10D4800F0C0F808B10120F8
:100A5000E5E738467F1EFFB2E8D2E0E7A1BE6D6150
:100A6000696EA1BF64656275673ACDCBB3F6CDB848
:100A7000B4AB0D0A00000000180000204E01002059
:100A80001602002041542B43495053544152543DC7
:100A9000222573222C222573222C25640D0A0000A6
:100AA000434F4E4E4543540041542B4349504D4F04
:100AB00044453D310D0A00004F4B0000A1BE6D6161
:100AC000696EA1BF64656275673ABDF8C8EBCDB8C1
:100AD000B4ABC4A3CABD0D0A0000000041542B43AF
:100AE000495053454E440D0A000000003E000000EE
:100AF00010B507A0FFF772FE322001F0C7FD04A079
:100B0000FFF76CFEBDE81040322001F0BFBD0000D1
:100B10002B2B2B0010B564211248FFF72EFB64210C
:100B20001148FFF72AFB114900200860FFF7E0FF9A
:100B30000FA0FFF753FE0EA0FFF750FE4FF4FA7020
:100B400001F0A4FDFFF768FE38B10CA002F074F8C4
:100B50000448FFF7D3FD012010BD12A002F06CF88D
:100B6000002010BD4E0100201602002018000020B9
:100B700041542B5253540D0A00000000A1BE6D6178
:100B8000696EA1BF64656275673A45535038323665
:100B900036D2D1BEADC1ACBDD3B5BD4D43552E0D82
:100BA0000A000000A1BE6D61696EA1BF6465627537
:100BB000673A45535038323636CEB4C1ACBDD3B5A2
:100BC000BD4D43552E0D0A0072B6FEE770B51446B2
:100BD0000D46064604E0012001F058FD641EA4B253
:100BE00029463046FFF7D4FA10B11CB1012070BD80
:100BF000002CF0D1002070BD10B590F8211000221B
:100C0000022905D00421816380F82020012010BD35
:100C100001680B6823F00E030B6001680B6823F07A
:100C200001030B6090F84030C46B012101FA03F31B
:100C3000636080F8211080F82020104610BD00006D
:100C400010B590F821100024022903D004218163FB
:100C500001243DE001680A6822F00E020A60016882
:100C60000A6822F001020A601A4A0168914201D121
:100C7000012121E0174A1432914201D110211BE0D9
:100C8000144A2832914201D1891515E0114A3C32AB
:100C9000914201D189140FE00E4A5032914202D1A3
:100CA0004FF4803108E00B4A6432914202D14FF494
:100CB000801101E04FF08071064A083A516001212D
:100CC00080F82110002180F82010416B01B1884785
:100CD000204610BD0800024070B5044600F000F93F
:100CE0000546601C02D004480078044400F0F8F87F
:100CF000401BA042FAD370BD040000202DE9F84F3C
:100D0000DFF89C91002409F1040A0AF1040B234640
:100D10000F270BF1040EBBE00125A5402A40AA4293
:100D200076D1DFF880C14E68A6EB0C0866452BD063
:100D30000DDC032E34D005DC36B3012E19D0022E83
:100D40002FD11BE0112E16D0122E2AD119E0B8F5A2
:100D5000881F19D006DCB8F5803F15D0B8F5801F84
:100D60001FD111E0B8F5001F0ED0B8F5041F18D13F
:100D70000AE0CB6815E0CB681B1D12E0CB68083396
:100D80000FE0CB680C330CE08B682BB1012B4FF0DC
:100D9000080303D0456104E0042302E0056100E09C
:100DA0000023FF2A01D8064601E000F104064FEABD
:100DB000840501D9A5F12005D6F8008007FA05FCC5
:100DC00028EA0C0803FA05F548EA0508C6F8008089
:100DD0004D68ED005BD5344DAE6946F00106AE615D
:100DE000AD6924F0030605F0010500952F4D06EBD3
:100DF000050CDCF80850A607360F07FA06F825EAB6
:100E00000805DFF8AC80404503D14FF0000810E042
:100E10003DE0DFF8A080404502D14FF0010808E036
:100E2000DFF89480404502D14FF0020801E04FF016
:100E3000030808FA06F848EA0508CCF808804D6867
:100E4000D9F80060ED034D4601D5164300E0964306
:100E50002E604D68DAF80060AD03554601D51643A3
:100E600000E096432E604D68DBF80060ED025D46C1
:100E700001D5164300E096432E604D68DEF8006011
:100E8000AD02754601D5164300E096432E60641C02
:100E90000A6832FA04F57FF43FAFBDE8F88F00002E
:100EA0000004014000001110001002400000014049
:100EB00000080140000C014000100140806808401B
:100EC00000D001207047C26821EA02030A4043EAC9
:100ED0000241016170470AB1016170470904FBE7F3
:100EE00001488068704700000400002002488168C3
:100EF000027811448160704704000020074810B553
:100F0000016841F010010160032000F075F80F2026
:100F100000F006F800F024F8002010BD0020024088
:100F200070B50D4D04464FF47A712878B1FBF0F09E
:100F30000A490968B1FBF0F000F0ECFA48B9102C4E
:100F400007D200222146501E00F036F800206C60C7
:100F500070BD012070BD00000400002010000020C2
:100F60000C4808B5816941F001018161816901F096
:100F700001010091C16941F08051C161C06900F077
:100F8000805000900448416821F0E06141F0007118
:100F9000416008BD0010024000000140002809DB4C
:100FA00000F01F02012191404009800000F1E02083
:100FB000C0F8001170470000F0B40E4B1B680C46DF
:100FC000C3F30223C3F10705042D00D90425191D1D
:100FD000072901D2002300E0DB1E012606FA05F1F5
:100FE000491E214099409E40761E16403143F0BC78
:100FF00001F046BE0CED00E0064900F0070208686B
:101000004FF6FF03184040EA0220034A10430860ED
:10101000704700000CED00E00000FA052DE9F047F4
:101020000F46050061D0434E306800F00700B8421B
:1010300009D2306820F0070038433060306800F093
:101040000700B84251D128683B4C810712D54007B0
:1010500003D5606840F4E06060602878000703D53D
:10106000606840F4605060606068A96820F0F0003B
:10107000084360602878C00728D06868012810D02D
:101080002168022810D0890700292EDA616821F032
:10109000030101436160FFF723FF804641F2883975
:1010A0000DE021688903EFE78901EDE7FFF718FFFD
:1010B000A0EB0801494502D90320BDE8F08760682C
:1010C000696800F00C00B0EB810FEFD1306800F0E0
:1010D0000700B8420BD9306820F007003843306071
:1010E000306800F00700B84201D00120E5E7287819
:1010F000400705D56068E96820F4E0600843606057
:101100002878000706D56068296920F4605040EA15
:10111000C100606000F038F86168084AC1F303114B
:10112000515CC8400649086006480068FFF7F8FEB1
:101130000020C2E70020024000100240C43700082F
:101140001000002008000020044805490068496894
:10115000044AC1F30221515CC840704710000020CE
:1011600000100240D4370008044805490068496867
:10117000044AC1F3C221515CC840704710000020EE
:1011800000100240D437000812A185B00FC98DE8C5
:101190000F0014A0144A006804905168134801F02D
:1011A0000C03042B10D0082B0ED1C1F38343C903C9
:1011B0001DF803000AD5516804AAC1F34041515CEF
:1011C0000A4A5043B0FBF1F005B070470849484364
:1011D000FAE7000002030405060708090A0B0C0DD4
:1011E0000E0F1010010200000010024000127A00E1
:1011F00000093D002DE9F84F040070D02078C04D63
:10120000C00749D06868C0F38100012807D068682A
:10121000C0F38100022809D16868C00306D5286898
:10122000800339D560680028E7D035E06068B0F504
:10123000803F0BD010B1B0F5A02F11D0286820F45A
:1012400080302860286820F4802002E0286840F47C
:1012500080302860606890B1FFF742FE06460AE0E1
:10126000286840F480202860F0E700BFFFF738FED0
:10127000801B642873D828688003F7D50CE0FFF73B
:101280002FFE064605E000BFFFF72AFE801B6428FC
:10129000F0D828688003F7D420789A4E80074FF062
:1012A00001094FF0000839D5686810F00C0F07D01D
:1012B0006868C0F38100022809D16868C00306D4B9
:1012C0002868800714D52069012808D110E020691A
:1012D000B0B1C6F80090FFF703FE074605E00AE14B
:1012E000FFF7FEFDC01B0228C4D828688007F7D589
:1012F0002868616920F0F80040EAC10028600DE02C
:10130000C6F80080FFF7ECFD074604E0FFF7E8FDB4
:10131000C01B022823D828688007F7D4207800074C
:101320002CD57948A169D9B1C0F80090FFF7D8FD54
:10133000074604E0FFF7D4FDC01B02280FD8686AF7
:101340008007F7D571484FF4FA510068B0FBF1F00F
:10135000009000BF0098411E0091FAD20EE080E09C
:10136000C0F80080FFF7BCFD074604E0FFF7B8FDBA
:10137000C01B022875D8686A8007F7D42078400718
:1013800060D5E8690027C00008D4E86940F08050C3
:10139000E861E869012700F0805000905C4801682E
:1013A000C90513D40168834641F480710160FFF7D9
:1013B00097FD824606E000BFFFF792FDA0EB0A0012
:1013C00064284ED8DBF80000C005F5D5E068012898
:1013D0000AD008B1052813D0286A20F0010028623D
:1013E000286A20F0040002E0286A40F00100286228
:1013F000E06841F2883B98B1FFF772FD82460BE04E
:10140000286A40F004002862EEE700BFFFF768FD9D
:10141000A0EB0A0159455AD8286A8007F6D50CE096
:10142000FFF75EFD824605E0FFF75AFDA0EB0A01DB
:1014300059454CD8286A8007F6D41FB1E86920F0D6
:101440008050E861E06988B36968C1F381010229CD
:1014500044D00228C6F8608004D0FFF741FD04465E
:1014600038E034E0FFF73CFD074604E0FFF738FDC5
:10147000C01B02282BD828688001F7D4206AB0F559
:10148000803F05D16868A16820F400300843686097
:10149000D4E908010843696821F4741108436860BD
:1014A000C6F86090FFF71CFD044606E025E000BF8B
:1014B000FFF716FD001B022809D828688001F7D520
:1014C0001BE000BFFFF70CFD001B022802D9032020
:1014D000BDE8F88F28688001F4D40EE00128F7D029
:1014E0006868226A00F48031914204D1616A00F494
:1014F0007010884201D00120EAE70020E8E70000F0
:1015000000100240000042428004424210000020CD
:101510000070004010B5401EB0F1807F01D3012063
:1015200010BD4FF0E02460610F21601701F0A8FBAF
:101530000020A06107202061002010BD7047704787
:1015400070B590F83C20012A23D0012480F83C405B
:10155000022280F83D2003685A689D6822F07006D8
:101560000A6832435A600C4B02689A4205D0B2F1C5
:10157000804F02D0094B9A4204D1496825F080037C
:101580001943916080F83D40002180F83C100846E6
:1015900070BD022070BD0000002C0140000400401E
:1015A00010B5040003D094F83D0010B107E001200D
:1015B00010BD002084F83C00204600F01FF80220F7
:1015C00084F83D00211D206801F092F8012084F884
:1015D000460084F83E0084F83F0084F8400084F818
:1015E000410084F8420084F8430084F8440084F801
:1015F000450084F83D00002010BD000008B5114AE8
:1016000001681148914208D1816941F4006181610A
:10161000806900F40060009008BDB1F1804FFBD1FB
:10162000C16941F00101C161C069002200F00100FF
:10163000009011461C20FFF7BFFCBDE808401C20AD
:10164000FFF7ACBC002C01400010024090F83D10A8
:10165000012901D001207047022180F83D10016866
:10166000CA6842F00102CA6000680A49884205D08F
:10167000B0F1804F02D00849884204D1816801F05E
:101680000701062903D0016841F001010160002033
:1016900070470000002C01400004004070B5044673
:1016A00090F83C00012817D0012584F83C50022016
:1016B00084F83D002068826822F0770222F47F429D
:1016C00082600868502830D00DDC20284DD005DC21
:1016D00098B310283BD148E0022070BD302844D098
:1016E000402834D139E0602828D0702806D0B0F5E1
:1016F000805F2CD0B0F5005F29D10AE0CB68D1E93A
:101700000121206801F022F82068816841F077010A
:1017100009E0CB68D1E90121206801F017F82068C1
:10172000816841F48041816011E0CA68496820689D
:1017300001F01EF85021206807E016E0CA684968E9
:10174000206801F026F86021206801F009F884F88B
:101750003D50002084F83C0070BDCA68496820688C
:1017600001F006F840212068EFE7226801461046A4
:10177000EBE7704770B50446006801694FF000055B
:10178000C943890715D4C168C943890711D4E91E23
:10179000016101202077206880698007204602D0FF
:1017A000FFF7E7FF04E000F098F8204600F096F815
:1017B000257720680169C943490717D4C168C9431F
:1017C000490713D46FF004010161022020772068DB
:1017D000806910F4407F204602D0FFF7CAFF04E082
:1017E00000F07BF8204600F079F825772068016941
:1017F000C943090716D4C168C943090712D46FF059
:1018000008010161042020772068C0698007204614
:1018100002D0FFF7AEFF04E000F05FF8204600F0D2
:101820005DF8257720680169C943C90617D4C168E6
:10183000C943C90613D46FF0100101610820207755
:101840002068C06910F4407F204602D0FFF791FF66
:1018500004E000F042F8204600F040F825772068C8
:101860000169C943C90708D1C168C943C90704D17F
:10187000891E0161204600F032F820680169C943E1
:10188000090609D4C168C943090605D46FF080016F
:1018900001612046FFF752FE20680169C9434906ED
:1018A00009D4C168C943490605D46FF040010161FC
:1018B000204600F015F820680169C94389060BD459
:1018C000C168C943890607D46FF020010161204631
:1018D000BDE87040FFF733BE70BD7047704770477A
:1018E0007047704770470000F8B5026804461068FA
:1018F000D168536910F00F0F4FF0000553D003F07B
:10190000010601F4907737435FD0C20705D0CA05BE
:1019100003D5226C42F001022264420705D5DA07A2
:1019200003D0226C42F002022264820705D5DA0756
:1019300003D0226C42F004022264020707D501F0B2
:101940002002324303D0226C42F008022264226C4F
:10195000002A34D0800604D5880602D5204600F03F
:10196000B9FF20684069216CC0F38010090700D4DA
:1019700030B3204600F096FF2068416949061BD528
:10198000416921F040014161A06BA8B15849416310
:10199000A06BFFF755F9002811D0A06B416B01B087
:1019A000BDE8F040084783060FD58B060DD52046CD
:1019B000BDE8F84000F08EBF2046FFF793FFF8BD6A
:1019C0002046FFF78FFF2564F8BD266B2023012EEC
:1019D00052D1C60650D5CE064ED51068506800903C
:1019E000506940062AD5A16B086840680004000CC5
:1019F000EAD0A68D8642E7D9E0858869202818D0EC
:101A0000D06820F48070D0602068416921F0010125
:101A100041612068416921F04001416184F83E3014
:101A200025632068C16821F01001C160A06BFFF739
:101A3000E3F8A08DE18D401A81B219E0A08DE18D0F
:101A4000401A81B2E08D0028BED00029BCD0D068F9
:101A500020F49070D0602068426922F00102426157
:101A600084F83E3025632068C26822F01002C2600C
:101A70002046FFF736FFF8BD05062BD50D0629D504
:101A800094F83D002128F6D1A068B0F5805F01D11F
:101A90002069B0B1206A411C216221680078486049
:101AA000E08C401E0004000CE084E4D12068C16892
:101AB00021F08001C1602068C16841F04001C1602F
:101AC000F8BD206A0088C0F308005060206A801CBE
:101AD0002062E5E74006F3D54806F1D5D1682046F7
:101AE00021F04001D16084F83D3000F0FCF8F8BDF1
:101AF0009528000870B5040004D094F83D00002536
:101B000010B106E0012070BD84F83C50204600F082
:101B100023F8242084F83D002068C16821F4005196
:101B2000C160204600F032FF2068016921F4904135
:101B300001612068416921F02A0141612068C16882
:101B400041F40051C1602564202084F83D0084F8F0
:101B50003E00002070BD000030B585B00024009428
:101B60000194029403940068184988422BD11848C4
:101B7000C16941F40031C161C16901F400310491CE
:101B8000816941F0040181618069124D00F0040017
:101B900004900420009002200190032003906946E5
:101BA0002846FFF7ABF80820CDE90004694628462F
:101BB0000294FFF7A3F8002211462620FFF7FCF954
:101BC0002620FFF7EBF905B030BD000000440040CF
:101BD000001002400008014090F83E30202B0ED14A
:101BE00059B152B190F83C30012B08D0012380F854
:101BF0003C300023036300F025BF01207047022022
:101C000070470000084988420DD108480849A0F1F2
:101C10006403027808681A54401C086001220349D2
:101C20000148FFF7D9BF7047F4000020B20100203F
:101C3000180000202DE9F843044690F83D001F46A7
:101C400016460D4620284CD1C5B1BEB194F83C00D3
:101C5000012846D0012084F83C004FF00008C4F869
:101C60004080212084F83D00FFF73AF9A6848146A0
:101C7000E684A068B0F5805F03D004E00120BDE8F1
:101C8000F883206928B12E465FF0000584F83C8077
:101C90000EE00026FAE78021204600F0EEFEA0B913
:101CA000AEB116F8010B21684860E08C401EE0845C
:101CB000E08C4B464FF0000200970028EBD14FF02C
:101CC0004001204600F0D9FE30B10320D7E735F8B7
:101CD000020BC0F30800E6E7202084F83D00002056
:101CE000CDE70220CBE7704770B5040004D094F82C
:101CF0003D00002510B106E0012070BD84F83C5085
:101D0000204600F01BF8022084F83D00204600F039
:101D1000EDFE2068016921F480410161206841697C
:101D200021F02A0141612068C16841F40051C1607D
:101D30002564012084F83D00002070BD30B585B0D9
:101D4000002400940194029403940068144988428A
:101D500024D11448816941F480418161816901F491
:101D600080410491816941F00401816180690E4DD7
:101D700000F0040004904FF44070009002200190A5
:101D80000320039069462846FEF7B8FF2815CDE9E1
:101D90000004694628460294FEF7B0FF05B030BD46
:101DA0000038014000100240000801402DE9F84FC2
:101DB000044690F83D001F4616460D4601284BD1BB
:101DC000CDB1C6B194F83C00012845D04FF00108D0
:101DD00084F83C804FF00009C4F84090122084F849
:101DE0003D00FFF77DF8268582466685A068B0F540
:101DF000805F03D004E00120BDE8F88F206910B1B6
:101E00002E4600250EE000260CE08021204600F042
:101E1000D7FEA0B9AEB116F8010B21684860608DFD
:101E2000401E6085608D53464FF0000200970028E9
:101E3000EBD14FF04001204600F0C2FE30B103204C
:101E4000DAE735F8020BC0F30800E6E784F83D80D6
:101E500084F83C900020CFE70220CDE7FEE70000A9
:101E600010B540F25B7214A117A0FEF78DFD00289B
:101E70001BD016A000F0E0FE1EA220A120A000F0C2
:101E8000A9F8002813D023A000F0D6FE01220021DB
:101E90002EA000F02BFA00282EA009D000F0CCFED6
:101EA000BDE810403348FFF7D1BB33A000E03CA0B1
:101EB000BDE8104000F0C0BE6C696C6967616F6777
:101EC000616F2E78797A000054435000A1BE6D6195
:101ED000696EA1BF696E666F3A434F4E4E454354DB
:101EE000454420544F20534552564552210D0A0D6A
:101EF0000A000000323332333233000073746D0055
:101F000053544D33322D455350383236362D4152CD
:101F10004D000000A1BE6D61696EA1BF696E666F64
:101F20003A4D51545420534552564552205355432F
:101F30004345535346554C4C5920434F4E4E454311
:101F4000544544EFBC815C720A0D0A0074657374D9
:101F500000000000A1BE6D61696EA1BF696E666F71
:101F60003A4D515454207375627363726962650D02
:101F70000A00000068000020A1BE6D61696EA1BF6B
:101F8000696E666F3A4E4F5420434F4E4E45435450
:101F9000454420544F20534552564552210D0A00C6
:101FA000A1BE6D61696EA1BF696E666F3A4D5154F5
:101FB0005420534552564552204641494C454420F1
:101FC000544F20424520434F4E4E454354454421F3
:101FD0000D0A00002DE9F74F834692467CA000F0E1
:101FE0002BFE5846FEF7E6F807460198FEF7E2F8A2
:101FF00006465046FEF7DEF87E4C0022054662801B
:10200000B819618828444FF0100C7B4B03EB010892
:10201000491C618088F800C01030C11700EB516185
:1020200021F07F0CA0EB0C0000F0FF0CC811002881
:1020300002DD00BF4CF0800C618803EB010801F168
:102040000101618088F800C0E7DC61889946184684
:102050000B4401F1010161801A7061884FF004089E
:1020600000EB010301F10101618083F800806188C8
:102070004FF04D0300EB010C01F1010161808CF880
:10208000003061884FF0510300EB010C01F10101B8
:1020900061808CF8003061884FF0540300EB010C34
:1020A00001F1010161808CF80030618800EB010CC6
:1020B00001F1010161808CF80030618800EB0103BF
:1020C00001F10101618083F8008061884FF0C20353
:1020D00000EB010C01F1010161808CF80030618896
:1020E00000EB010301F1010161801A7061884FF07A
:1020F0003C0200EB010301F1010161801A7061886B
:102100004FEA172200EB010301F1010161801A700F
:10211000618800EB010201F10101618017706188A3
:102120003A4609EB01005946FEF70EF8608838443C
:102130006080002E15DD6088320A09EB0003401C28
:1021400060801A70608809EB0002401C6080167085
:102150006088324648440199FDF7F6FF60883044B4
:102160006080002D15DD60882A0A09EB0003401C01
:1021700060801A70608809EB0002401C6080157056
:1021800060882A4648445146FDF7DEFF60882844AF
:1021900060801A4F01261948FEF7B0FA6188164888
:1021A00000F0A2F81D253878202802D1787802287E
:1021B0000BD06420FEF790FD6D1EEDB2F3D23046D9
:1021C000761EF6B2E7D2BDE8FE8F0120FBE70000E5
:1021D000A1BE6D61696EA1BF64656275673AE8BFB3
:1021E0009BE585A54D5154545F434F4E4E45435496
:1021F0000D0A000014000020160200204E010020ED
:102200002DE9F04790468A468146FDF7D3FF064602
:102210005046FDF7CFFF324C074600206080B8F1F2
:10222000000F06EB070001D0001D00E0801C618854
:1022300030222C4D6B18491C61801A70C11700EBBD
:10224000516121F07F02801AC2B2C811002801DD5D
:1022500042F08002618805EB010301F10101618018
:102260001A70EBDC60884FEA162105EB000200F1E2
:10227000010060801170608805EB000100F1010031
:1022800060800E706088324628444946FDF75CFF46
:10229000608830446080B8F1000F0FD0104960882A
:1022A0004A782B18401C60801A70097860882A18B8
:1022B000401C608011702088401C208060883A4655
:1022C00028445146FDF740FF6088384460806188AB
:1022D000044800F009F86088C0B2BDE8F08700004B
:1022E0001400002016020020FEF764BA2DE9F04722
:1022F000474C4FF00008174689468246A4F80280F2
:10230000FDF758FF434D0646002F02D04FF0010065
:1023100001E04FF00000304400F1040002D04FF023
:10232000820201E04FF0A202618805EB010301F196
:102330000101618083F800204FEAE07100EB5161F8
:1023400021F07F02A0EB0200C2B24FEAE1100028A8
:1023500002DD00BF42F08002618805EB010301F15C
:10236000010161801A70E7DC608805EB000100F173
:102370000100608081F8008060884FF0010105EB6A
:10238000000200F101006080117060884FEA1621A0
:1023900005EB000200F1010060801170608805EB20
:1023A000000100F1010060800E7060883246284410
:1023B0005146FDF7C9FE608830446080154916A07B
:1023C00000F03AFC2FB160882A18401C608082F827
:1023D00000901A4F01251948FEF790F961880D48C1
:1023E000FFF782FF1D263878902802D178780328DD
:1023F00009D06420FEF770FC761EF6B2F3D26D1E93
:10240000EDB2E8D215B10120BDE8F0870020FBE76E
:102410001400002016020020A1BE6D61696EA1BFEC
:1024200064656275673A4D5154545F54585F535414
:1024300052494E472C25730D0A0000004E01002022
:102440002DE9F04186B000242048009401940294C4
:102450000394816941F010018161816901F01001EB
:102460000491816941F020018161816901F02001BD
:102470000491816941F0040181618069144F00F089
:1024800004004FF400550490002229463846FEF718
:1024900022FDDFF84080002212214046FEF71BFD9E
:1024A0000095022601250396CDE901546946384678
:1024B000FEF724FC1220CDE90005CDE9024669466D
:1024C0004046FEF71BFC06B0BDE8F081001002405C
:1024D000001001400008014010B586B000241848E3
:1024E00000940194029403940494144905940160A7
:1024F0004721C0E901144FF6FF71C0E903148021A0
:10250000C0E90541FFF74CF808B1FEF75DFB4FF459
:102510008050009069460A48FFF7C0F808B1FEF7FE
:1025200053FB049404A906480594FFF709F8002812
:1025300001D0FEF749FB06B010BD0000002C0140A1
:102540002000002010B586B00024174800940194A4
:102550000294039404944FF080410594016041F685
:102560001F41C0E9011442F20F71C0E90314802138
:102570008161FFF715F808B1FEF726FB4FF4805094
:10258000009069460848FFF789F808B1FEF71CFB80
:10259000049404A904480594FEF7D2FF002801D052
:1025A000FEF712FB06B010BD680000200D4810B504
:1025B0000B4901604FF4E1314160002181600C2240
:1025C000C160C0E904128161C1610162FFF78CFB47
:1025D000002803D0BDE81040FEF7F6BA10BD000099
:1025E00000380140B00000200C4810B50A490160D5
:1025F0004FF4E1314160002181600C22C160C0E9EB
:1026000004128161C161FFF775FA002803D0BDE8AB
:102610001040FEF7D9BA10BD00440040F40000207D
:10262000FEE7FEE770477047FEF760BC30B58FB03D
:1026300028216846FDF7A1FD14210AA8FDF79DFD9C
:1026400001210804CDE90010002402940225049120
:10265000CDE907504FF4E01009906846FEF7CAFD37
:1026600008B172B6FEE70F20CDE90A054FF480608D
:10267000CDE90C4002210AA80E94FEF7CFFC0028F9
:1026800001D072B6FEE70FB030BD704770B5064698
:1026900000244FF47A75304600F006F8641CA4B2AA
:1026A000AC42F8D370BD00000D4900220B685A629D
:1026B0000A68136843F00103136009684A6A82429A
:1026C000FCD3086A41F21112104207D1086A921035
:1026D000104203D1086820F0010008607047000034
:1026E000200000200148FFF745B8000068000020E6
:1026F00070B50268134B144C4FF08046984203D0DB
:10270000B04201D0A04203D122F070054A682A43AA
:10271000984203D0B04201D0A04203D122F44074C9
:10272000CA6822434C6922F08002224302608A6810
:10273000C2620A688262984201D10969016301217B
:10274000416170BD002C01400004004010B5846858
:1027500042EA032224F47F440A432243826010BDEC
:10276000826822F070020A4342F0070181607047DC
:1027700010B5036A046A24F001040462846924F039
:10278000F00444EA021423F00A020A43846102625C
:1027900010BD10B5036A23F0100303628369046A55
:1027A00023F4704343EA023224F0A00343EA011108
:1027B0008261016210BD000030B5CFB000208DF8FD
:1027C00034018DF8380104464EA94DA800F0EEFE04
:1027D00000B3641CE4B20A2CF6D300BF9DF83801A4
:1027E000FDF7EFFC04460D469DF83401FDF7E9FCCA
:1027F00002460B460BA102A8CDE9004500F02CFAD9
:10280000002202A90EA0FFF7FBFC0FA000F014FAB3
:102810004FB030BD9DF838219DF8341111A000F063
:102820000BFADBE77B2274656D70223A252E316648
:102830002C202268756D223A252E6C667D000000E2
:102840007465737400000000A1BE6D61696EA1BF64
:1028500064656275673A5075626C69736865642176
:102860000D0A0000A1BE6D61696EA1BF646562754D
:10287000673A74656D70657274757265203A256487
:10288000200A2068756D69646974793A2564200AA4
:102890000D0A000010B5406A0021C185C184FFF710
:1028A00021F810BD0168CA6822F49072CA600168FC
:1028B0004A6922F001024A61016B012904D10168D1
:1028C000CA6822F01002CA60202180F83E10002160
:1028D0000163704708B590F83E10222901D002200C
:1028E00008BD82684FF480539A4201D1016921B139
:1028F000816A9A421BD04AB10AE00268816A526832
:10290000C2F308020A80816A891C08E0026972B178
:102910000268526802F07F020A70816A491C816273
:10292000C18D491E0904090CC18503D019E0026854
:102930005268F1E70168CA6822F02002CA600168A3
:10294000CA6822F48072CA6001684A6922F00102F2
:102950004A61202180F83E10016B012903D0FFF766
:1029600051F9002008BD002101630168CA6822F006
:102970001002CA6001680A68D20602D50A6849686E
:102980000091818DFEF7ADFFEBE7000070B50446C6
:1029900000680169E26821F4405111430161216935
:1029A000A0680843616908432168CA6841F20C6362
:1029B0009A430243CA6020684169A26921F44071C8
:1029C000114341611E492068884202D1FEF7CCFBC9
:1029D00001E0FEF7B9FB00EBC00101EB00126068FB
:1029E00064218000B2FBF0F3B3FBF1F36FF0180643
:1029F0007343B2FBF0F5B2FBF0F605EB830532232F
:102A000003EB0515B5FBF1F5B6FBF1F605F0F005A6
:102A100005EB0615B2FBF0F6B2FBF0F0B0FBF1F0FF
:102A20006FF01802504306EB800003EB0010B0FB80
:102A3000F1F0216800F00F002844886070BD0000AC
:102A40000038014081628285C28500210164222212
:102A500080F83E2080F83C100168CA6842F4807219
:102A6000CA6001684A6942F001024A610068C168AF
:102A700041F02001C160002070472DE9F0419846E7
:102A800017460E460446069D1DE0681C1BD02DB15E
:102A9000FEF726FAA0EB0800A84214D92068C16806
:102AA00021F4D071C1602068416921F001014161C8
:102AB000202084F83D0084F83E00002084F83C008B
:102AC0000320BDE8F0812068006836EA000004D0E9
:102AD0000020B842D9D00020F3E70120F9E7000038
:102AE0000148FEF701BF0000F40000202DE9F0418D
:102AF00004460068C16821F00C01C16020680169CA
:102B0000D4E906231A43E568236A21F47C512B4358
:102B10001A430A4342F4006101612268D16841F21C
:102B20000C6081432369A068184363690B43184311
:102B3000D0602068416921F4407141611F492068DB
:102B400064253226884202D1FEF70EFB01E0FEF733
:102B5000FBFA00EBC00101EB001160686FF0180C8C
:102B60008000B1FBF0F3B3FBF5F3B1FBF0F7B1FB81
:102B7000F0F203FB0CF307EB830306EB0313B2FB4A
:102B8000F5F2B3FBF5F3120103F0F00302EB43029D
:102B9000B1FBF0F3B1FBF0F0B0FBF5F000FB0CF093
:102BA00003EB800006EB0010B0FBF5F0216800F0AD
:102BB0000F0010448860BDE8F0810000003801403B
:102BC0002DE9F041984617460E460446069D25E03D
:102BD000681C23D02DB1FEF783F9A0EB0800A842B2
:102BE0001CD92068C16821F08001C1602068C168DB
:102BF00021F02001C1602068C16821F48071C160AA
:102C00002068416921F001014161012084F83D0003
:102C1000002084F83C000320BDE8F08120680068B3
:102C200036EA000004D00020B842D1D00020F3E7FB
:102C30000120F9E7FEE700000FB4054B10B503A92A
:102C4000044A029800F0FEF810BC5DF814FB000086
:102C5000353700081C0000200FB4084B10B504A93C
:102C600002AA039800F0EEF8044602A9002000F042
:102C70006CFC204610BC5DF814FB00004B350008CE
:102C80000907090E002804DB00F1E02080F8001499
:102C9000704700F00F0000F1E02080F8141D70472D
:102CA00002E008C8121F08C1002AFAD17047704715
:102CB000002001E001C1121F002AFBD17047000073
:102CC0002DE9FF5F82B00021DDE90430020DDDF85F
:102CD00040B0034318D044F61050A2F2FF324243F2
:102CE0001514119801281FD0A5EB0B00401C5FEABA
:102CF000000A4FF000064E4FDFF83891B0465046BC
:102D000015D5CAF1000413E0119801244AA3012843
:102D100001D16FEA0B010298119AC0E90031C0E9B4
:102D2000024206B0BDE8F09FCBF10000DFE70446A9
:102D30000021404A491842EB0450CDE9001012E04E
:102D4000E00707D032463B4640464946FDF791FB37
:102D50008046894632463B4610461946FDF789FBB8
:102D600006460F466410002CEAD1DDE90401DDE9D6
:102D70000023BAF1000F06DAFDF77BFB42464B4613
:102D8000FDF777FB05E0FDF7E6FB42464B46FDF716
:102D9000E2FB04460E460022284BFDF763FC03D8F5
:102DA0004FF0FF30014607E00022254B2046314618
:102DB000FDF7B8FAFDF73EFC102409E0002C0ADB11
:102DC0000A220023FDF720FA039B30321A55641EB5
:102DD00050EA0102F2D1641C039AC4F111031444B5
:102DE000119A012A03D0012208430DD10AE00843B9
:102DF00004D000204FF0110B119072E7A3EB0B05EC
:102E00006D1E0DE05B4504DD4FF0000205F101058C
:102E100004E003DA4FF00002A5F10105002AECD02E
:102E200002981199C0E90231C0E9004579E7000034
:102E3000000014400000F03F300000000000F043AC
:102E40000000E03F2DE9FF4F95B09A4688460646C0
:102E50000025EEE1252877D100242746F94A0121F3
:102E6000039400E0044316F8013F203B01FA03F00D
:102E70001042F7D130782A2811D06FF02F03307824
:102E8000A0F13002092A16D8039A44F0020402EB9A
:102E9000820203EB42021044761C0390EFE758F8DD
:102EA000042B0392002A03DA504244F400540390A6
:102EB00044F00204761C30782E2816D116F8010F43
:102EC00044F004042A280DD06FF02F023078A0F1CE
:102ED0003003092B09D807EB870302EB4303C7181C
:102EE000761CF3E758F8047B761C30786C280FD0FA
:102EF00006DC4C2817D068280DD06A2814D104E0CD
:102F0000742810D07A280FD10DE044F400140AE0A0
:102F100044F4801401E044F440147278824202D1F7
:102F200004F58014761C761C307866280BD013DCF0
:102F3000582877D009DC002875D04528F6D04628D7
:102F4000F4D047281AD193E118E0632835D06428DB
:102F500079D0652812D18BE1702873D008DC6728FE
:102F6000F1D069286FD06E280DD06F2806D1ACE063
:102F700073282CD0752874D0782853D052461799CE
:102F800090476D1C54E1C4F30250022809D0032875
:102F90000DD0D8F8001004280DD00D6008F10408F9
:102FA00046E1D8F80010EA17C1E90052F6E7D8F870
:102FB00000100D80F2E70D70F0E718F8041B8DF893
:102FC000001000208DF80100EB46012003E058F8C6
:102FD00004BB4FF0FF3061074FF0000102D40DE059
:102FE00009F101018946B9420FDA8145F8DB1BF886
:102FF00009100029F4D108E009F101018946814254
:10300000FADB1BF809100029F6D103985346A0EB10
:10301000090721463846179A00F080FA284400EB49
:10302000090507E044E008E10DE01BF8010B5246FA
:1030300017999047B9F10109F7D25346214638460E
:10304000179AF2E039E00A21C4F302524FF0000B64
:103050000091022A06D058F8040BC117032A09D0A0
:103060000AE023E008F1070020F00702F2E802017D
:10307000904605E000B2C117042A01D140B2C11741
:10308000002906DA0A460021404261EB02012D22A6
:1030900002E0220504D52B228DF80420012203E052
:1030A000E20701D02022F7E7914657E00A2100E02D
:1030B00010214FF0000B00910BE010214FF0000B9E
:1030C00044F004040827009103E008204FF0000BAF
:1030D0000090C4F30252022A05D058F8040B0021D4
:1030E000032A08D008E008F1070020F00702F2E800
:1030F0000201904603E080B2042A00D1C0B24FF032
:10310000000922072AD53278702A07D0DDF800C0DE
:103110008CF0100C5CEA0B0C05D00EE040228DF810
:103120000420012208E050EA010306D030238DF884
:1031300004308DF8052002229146009B83F008039D
:1031400053EA0B030AD150EA010201D1620705D507
:1031500030228DF804204FF001097F1E3278582A62
:1031600004D039A20C920CAA02920BE03BA2F9E720
:103170005B46009AFDF748F80C9B9B5C029A521E36
:103180000292137050EA0102F2D1029804A9081ABF
:1031900000F1200B600702D524F4803400E0012701
:1031A0005F4502DDA7EB0B0000E0002000EB0B0108
:1031B000009003984944401A0390E00306D4534614
:1031C0002146179A039800F0A9F90544002706E064
:1031D00001A85246C05D179990476D1C7F1C4F4552
:1031E000F6DBE0030CD553462146179A039800F00E
:1031F00095F9054404E030205246179990476D1C1C
:103200000099481E00900029F5DC08E00298029918
:1032100052460078491C0291179990476D1CBBF1EA
:103220000001ABF1010BF1DC5BE100F065F9054455
:10323000761C307800287FF40DAE19B02846BDE822
:10324000F08F000009280100303132333435363731
:1032500038396162636465660000000030313233E2
:103260003435363738394142434445460000000082
:10327000600700D4062708F1070020F00700F0E8F7
:103280000223804603F0004C5FEA0C0001D097A0B7
:1032900009E0200501D596A005E0E00701D095A042
:1032A00001E0AFF24C001390307823F00043652822
:1032B0000CD006DC452809D046281DD047287FD1F0
:1032C0003BE0662818D067287AD136E00021112F1C
:1032D00001DB112000E0781CCDE9000104A90CA855
:1032E000FFF7EEFCDDE90D010C9A4FF0000B07F142
:1032F0000109109200914EE04FF000400097CDE997
:10330000011004A90CA8FFF7DBFCDDE90D020C9B02
:103310000F994FF0000B91461093009211B9791C50
:1033200000EB0109B7EB090003D4C0F1FF3B07F143
:103330000109A9EB0700019042E0012F00DA012703
:103340000021112F01DD112000E03846CDE90001F8
:1033500004A90CA8FFF7B4FCDDE90D010C9A00915B
:103360004FF0000BB946109221070FD4009A4A453E
:1033700003DA914601E0A9F10109B9F1010F05DD78
:10338000109AA9F10101515C3029F4D0B84202DA57
:1033900010F1040F03DA0121CDE9011010E000283B
:1033A00003DC8344A9EB000102E0411C494500DD38
:1033B0008946A0EB0B00401C01904FF000400290AA
:1033C000200705D40198484502DB4FF0FF300190FB
:1033D00000208DF84B0002980DF14B07B0F1004F23
:1033E00025D002200C902B200D90029800280CDA9A
:1033F000404202902D200D9007E00A210298FCF730
:10340000EDFE3031029007F8011D0C99481E0C901A
:103410000029F2DC02980028EFD1791E0D9808707F
:10342000307800F0200040F0450007F8020D11A8A8
:10343000C01BC01D02901398007800B1012000EB62
:103440000901019801EBE071029801440398401AC8
:10345000401E0390E00306D453462146179A039872
:1034600000F05CF805441398007818B1524617999B
:1034700090476D1CE00323D553462146179A0398C5
:1034800000F04CF805441BE0BBF1000F07DB00988F
:10349000584504DD1098179910F80B0001E01799B2
:1034A00030205246904701980BF1010B401E05F168
:1034B0000105019004D12E205246179990476D1CAA
:1034C000B9F10001A9F10109DEDC05E017F8010BF3
:1034D0005246179990476D1C0299481E0290002988
:1034E000F4DC53462146179A03989EE62D0000000F
:1034F0002B000000200000002DE9F04104460025CB
:103500001E461746880404D405E039462020B047FB
:103510006D1C641EF9D52846BDE8F0812DE9F04107
:10352000044600251E469046C80301D5302700E01A
:103530002027880404D505E041463846B0476D1C75
:10354000641EF9D52846BDE8F0810A68531C0B605B
:103550001070704770B50024FDF7D8F8124D04E0E4
:10356000641CE4B20120FFF79FF802212846FDF712
:10357000A5FC10B1642CF3D30FE0642C0DD2002411
:1035800004E0641CE4B20120FFF78EF80221284613
:10359000FDF794FC18B1642C04D3012070BD642C99
:1035A000EFD3FAE7002070BD000801402DE9FC5F71
:1035B000002489468246A0462546264600F0A2F809
:1035C000FFF7C8FF10B10120BDE8FC9F0027EB46C4
:1035D00000F062F80BF807007F1CFFB2052FF7D34D
:1035E0009DF800109DF801009DF803300A189DF821
:1035F000020003441A449DF804309A4201D10C465B
:103600008046244801780A2910D200EB410181F854
:103610000280017800EB4101CC700178491CC9B2ED
:1036200001700A2907D30A2141701AE080F802804C
:10363000C47001210170417811B10A2911D027E02D
:10364000002102780AE000BF00EB4103491C9C788E
:10365000DB782C443344A5B29EB2C9B28A42F3D877
:103660000EE090F80120002100EB4103491C9C78FA
:10367000DB782C443344C9B2A5B29EB28A42F3D857
:10368000B5FBF2F0B6FBF2F18AF8000089F8001001
:10369000002099E7380100202DE9F0410020184E64
:1036A00005464006070E002404E0641CE4B2012035
:1036B000FEF7FAFF02213046FDF700FC08B1642C4A
:1036C000F3D3002404E0641CE4B20120FEF7ECFF15
:1036D00002213046FDF7F2FB08B9642CF3D31E201B
:1036E000FEF7E2FF02213046FDF7E8FB00B10120C2
:1036F0006D1C3843EDB2082DD3D3BDE8F081000036
:103700000008014010B5FDF711F8094C0022022114
:103710002046FDF7E0FB1620FEF7B8FF012202214C
:103720002046FDF7D8FBBDE810401E20FEF7BCBFC9
:103730000008014008B502238DF800000122694607
:103740000248FEF733FB002008BD0000B000002057
:10375000FDF7D4FBFEF76AFFFEF772FEFEF7F2FEFE
:10376000FEF7BAFEFEF722FFFEF73EFF1048FDF718
:103770006DFF01220F491048FEF72EFAFCF7E6FF15
:10378000FEF76EFB0D4C0E4F4FF47A754FF400565A
:10379000207838B131463846FDF795FB6420FDF7B7
:1037A0009BFAF5E72846FDF797FAFFF705F8EFE7EC
:1037B00068000020B2010020F4000020000000207A
:1037C000001001400000000000000000010203049E
:1037D000060708090000000001020304FC37000886
:1037E0000000002020000000A02C00081C38000869
:1037F0002000002060060000B02C0008000000003F
:103800000100000010000000000000000024F4008F
:0C381000000000000000000000000000AC
:04000005080000ED02
:00000001FF
