:020000040800F2
:1000000028060020050100085F18000829160008CE
:100010005D180008C70100087D1C000800000000F2
:10002000000000000000000000000000631800084D
:10003000C9010008000000006118000865180008E8
:100040001F0100081F0100081F0100081F01000810
:100050001F0100081F0100081F0100081F01000800
:100060001F0100081F0100081F0100081F010008F0
:100070001F0100081F0100081F0100081F010008E0
:100080001F0100081F0100081F0100081F010008D0
:100090001F0100081F0100081F0100081F010008C0
:1000A0001F0100081F0100081F0100081F010008B0
:1000B000E51800081F010008000000001F010008EB
:1000C0001F01000800000000000000001F010008E0
:1000D000000000001F0100089D1B00080000000038
:1000E0001F0100081F0100081F010008DFF810D0E1
:1000F00000F02CF800480047BD1C0008AFF300805A
:10010000280600200648804706480047FEE7FEE72D
:10011000FEE7FEE7FEE7FEE7FEE7FEE7FEE7FEE7B7
:10012000E1180008ED000008D2B201E000F8012B50
:10013000491EFBD270470022F6E710B513460A4667
:1001400004461946FFF7F0FF204610BD064C074D48
:1001500006E0E06840F0010394E807009847103497
:10016000AC42F6D3FFF7C6FF1C1D00083C1D00087B
:1001700070B5044600688168C943C90717D1816812
:1001800021F00101816000F0CBFA05460AE000BFD2
:1001900000F0C6FA401B022804D920688068C043DA
:1001A000C00706D020688068C043C007F0D0002098
:1001B00070BDA06A40F01000A062E06A40F001004B
:1001C000E062012070BDFEE7704772B6FEE70000F6
:1001D000F8B50024009490F824202546012A12D076
:1001E000012280F824204A681F23072A0DD20668BE
:1001F000776B521E02EB820293409F430B68934041
:100200001F43776319E00220F8BD06680D2A0AD261
:10021000376BD21F02EB820293409F430B689340DF
:100220001F43376309E0F76A0D3A02EB82029340FD
:100230009F430B6893401F43F7620A6807230668D1
:100240000A2A0AD3F7680A3A02EB420293409F4314
:100250008B6893401F43F76008E0376902EB420266
:1002600093409F438B6893401F4337610A68102A6D
:1002700001D0112A20D1124B02689A4217D19368FB
:100280001B0219D4936843F4000393600968102992
:1002900012D10C490C4A0968B1FBF2F101EB810162
:1002A000490000E0491E00910029FBD104E0816A69
:1002B00041F020018162012480F824502046F8BDDD
:1002C000002401400C00002040420F002DE9F041C5
:1002D0004FF0000704003D467ED0A06A002628B9F2
:1002E000E66284F82460204600F07EF82046FFF79E
:1002F0003FFFA16AC90600D420B1A06A40F01000F7
:10030000A06269E0A16A21F4885141F00201A16272
:100310006268E169237B0A4347EA43010A43A16813
:100320004FF48077B94209D0012907D05FF000016E
:1003300094F814C0BCF1010F02D00AE03946F7E787
:10034000F3B1A36A43F02003A362E36A43F001031D
:10035000E3622368D3F804C02CF4694C4CEA010C26
:10036000C3F804C021688B68DFF870C003EA0C038F
:1003700013438B60A168B9420BD0012909D00CE06E
:10038000DFF85CC0A3690CEB43330B4343F400611B
:10039000DFE7218A0D05A5F580152168CB6A23F4D6
:1003A00070032B43CB62216889680E4B1940914240
:1003B00008D1E662A16A21F0020141F00101A162C7
:1003C000BDE8F081A06A20F0020040F01000A062B9
:1003D000E06A40F00100E0620120F1E7FDF7E1FF93
:1003E00000E0FFFFFE0E1FFF00B585B00021009169
:1003F00001910291039100680E49884218D10E487C
:10040000816941F400718161816901F40071049195
:10041000816941F0040181618069694600F004004E
:1004200004902020009003200190044800F08AF8F6
:1004300005B000BD0024014000100240000801404A
:1004400010B590F821100022022905D00421816303
:1004500080F82020012010BD01680B6823F00E03F6
:100460000B6001680B6823F001030B6090F84030CB
:10047000C46B012101FA03F3636080F8211080F856
:100480002020104610BD000010B590F82110002467
:10049000022903D00421816301243DE001680A6838
:1004A00022F00E020A6001680A6822F001020A6066
:1004B0001A4A0168914201D1012121E0174A143200
:1004C000914201D110211BE0144A2832914201D1FE
:1004D000891515E0114A3C32914201D189140FE08F
:1004E0000E4A5032914202D14FF4803108E00B4A5B
:1004F0006432914202D14FF4801101E04FF08071DB
:10050000064A083A5160012180F82110002180F844
:100510002010416B01B18847204610BD0800024001
:1005200070B5044600F0FCF80546601C02D0044893
:100530000078044400F0F4F8401BA042FAD370BDE8
:10054000000000202DE9F84FDFF89C91002409F10C
:10055000040A0AF1040B23460F270BF1040EBBE03B
:100560000125A5402A40AA4276D1DFF880C14E6815
:10057000A6EB0C0866452BD00DDC032E34D005DC31
:1005800036B3012E19D0022E2FD11BE0112E16D01A
:10059000122E2AD119E0B8F5881F19D006DCB8F55B
:1005A000803F15D0B8F5801F1FD111E0B8F5001FAE
:1005B0000ED0B8F5041F18D10AE0CB6815E0CB685F
:1005C0001B1D12E0CB6808330FE0CB680C330CE046
:1005D0008B682BB1012B4FF0080303D0456104E079
:1005E000042302E0056100E00023FF2A01D806464B
:1005F00001E000F104064FEA840501D9A5F12005C8
:10060000D6F8008007FA05FC28EA0C0803FA05F57D
:1006100048EA0508C6F800804D68ED005BD5344D0A
:10062000AE6946F00106AE61AD6924F0030605F03F
:10063000010500952F4D06EB050CDCF80850A607C8
:10064000360F07FA06F825EA0805DFF8AC804045C2
:1006500003D14FF0000810E03DE0DFF8A0804045F6
:1006600002D14FF0010808E0DFF89480404502D144
:100670004FF0020801E04FF0030808FA06F848EAD4
:100680000508CCF808804D68D9F80060ED034D46A8
:1006900001D5164300E096432E604D68DAF80060FD
:1006A000AD03554601D5164300E096432E604D68D4
:1006B000DBF80060ED025D4601D5164300E096438D
:1006C0002E604D68DEF80060AD02754601D5164318
:1006D00000E096432E60641C0A6832FA04F57FF449
:1006E0003FAFBDE8F88F000000040140000011108A
:1006F000001002400000014000080140000C0140D1
:1007000000100140C26821EA02030A4043EA0241A4
:10071000016170470AB1016170470904FBE70000FD
:10072000014880687047000000000020024881688E
:10073000027811448160704700000020074810B51E
:10074000016841F010010160032000F075F80F20EE
:1007500000F006F800F024F8002010BD0020024050
:1007600070B50D4D04464FF47A712878B1FBF0F066
:100770000A490968B1FBF0F000F062FB48B9102C9F
:1007800007D200222146501E00F036F800206C608F
:1007900070BD012070BD0000000000200C00002092
:1007A0000C4808B5816941F001018161816901F05E
:1007B00001010091C16941F08051C161C06900F03F
:1007C000805000900448416821F0E06141F00071E0
:1007D000416008BD0010024000000140002809DB14
:1007E00000F01F02012191404009800000F1E0204B
:1007F000C0F8001170470000F0B40E4B1B680C46A7
:10080000C3F30223C3F10705042D00D90425191DE4
:10081000072901D2002300E0DB1E012606FA05F1BC
:10082000491E214099409E40761E16403143F0BC3F
:1008300001F025BA0CED00E0064900F00702086857
:100840004FF6FF03184040EA0220034A10430860B5
:10085000704700000CED00E00000FA052DE9F843B8
:1008600005460078354CC00754D0E0690026C0002A
:1008700008D4E06940F08050E061E069012600F0B2
:10088000805000902E480168C90512D40168804646
:1008900041F480710160FFF743FF074605E000BFA8
:1008A000FFF73EFFC01B642823D8D8F80000C0051E
:1008B000F6D5206A10F4407021D0A98801F4407167
:1008C00081421CD0206A1F49012220F440700A6036
:1008D00000220A602062C00711D0FFF721FF0746FF
:1008E00041F2883808E000BFFFF71AFFC11B4145FD
:1008F00002D90320BDE8F883206A8007F4D5206A76
:10090000696820F44070084320621EB1E06920F05D
:100910008050E0612878800705D56068A96820F4D8
:100920004040084360602878C00605D56068E968E3
:1009300020F48000084360600020DBE700100240E4
:1009400000700040400442422DE9F0470F46050088
:1009500061D0434E306800F00700B84209D23068D9
:1009600020F0070038433060306800F00700B842DC
:1009700051D128683B4C810712D5400703D56068E8
:1009800040F4E06060602878000703D5606840F4B8
:10099000605060606068A96820F0F0000843606003
:1009A0002878C00728D06868012810D0216802285C
:1009B00010D0890700292EDA616821F00301014374
:1009C0006160FFF7ADFE804641F288390DE0216895
:1009D0008903EFE78901EDE7FFF7A2FEA0EB08012D
:1009E000494502D90320BDE8F0876068696800F0D6
:1009F0000C00B0EB810FEFD1306800F00700B84277
:100A00000BD9306820F0070038433060306800F0C0
:100A10000700B84201D00120E5E72878400705D556
:100A20006068E96820F4E0600843606028780007A7
:100A300006D56068296920F4605040EAC100606012
:100A400000F038F86168084AC1F30311515CC840EE
:100A50000649086006480068FFF782FE0020C2E7EA
:100A60000020024000100240041D00080C0000207D
:100A7000040000200448054900684968044AC1F39D
:100A80000221515CC84070470C0000200010024059
:100A9000141D00080448054900684968044AC1F368
:100AA000C221515CC84070470C0000200010024079
:100AB000141D000812A185B00FC98DE80F0014A005
:100AC000144A006804905168134801F00C03042B89
:100AD00010D0082B0ED1C1F38343C9031DF80300C6
:100AE0000AD5516804AAC1F34041515C0A4A5043F7
:100AF000B0FBF1F005B0704708494843FAE7000041
:100B000002030405060708090A0B0C0D0E0F10104E
:100B1000010200000010024000127A0000093D00AE
:100B20002DE9F84F040070D02078C04DC00749D09F
:100B30006868C0F38100012807D06868C0F38100AD
:100B4000022809D16868C00306D52868800339D512
:100B500060680028E7D035E06068B0F5803F0BD0D2
:100B600010B1B0F5A02F11D0286820F48030286093
:100B7000286820F4802002E0286840F48030286053
:100B8000606890B1FFF7CCFD06460AE0286840F4A3
:100B900080202860F0E700BFFFF7C2FD801B6428BB
:100BA00073D828688003F7D50CE0FFF7B9FD064637
:100BB00005E000BFFFF7B4FD801B6428F0D828686B
:100BC0008003F7D420789A4E80074FF001094FF048
:100BD000000839D5686810F00C0F07D06868C0F3BA
:100BE0008100022809D16868C00306D428688007FC
:100BF00014D52069012808D110E02069B0B1C6F8E9
:100C00000090FFF78DFD074605E00AE1FFF788FD3C
:100C1000C01B0228C4D828688007F7D528686169F6
:100C200020F0F80040EAC10028600DE0C6F800801E
:100C3000FFF776FD074604E0FFF772FDC01B0228B0
:100C400023D828688007F7D4207800072CD5794866
:100C5000A169D9B1C0F80090FFF762FD074604E032
:100C6000FFF75EFDC01B02280FD8686A8007F7D522
:100C700071484FF4FA510068B0FBF1F0009000BFEA
:100C80000098411E0091FAD20EE080E0C0F800808A
:100C9000FFF746FD074604E0FFF742FDC01B0228B0
:100CA00075D8686A8007F7D42078400760D5E8696E
:100CB0000027C00008D4E86940F08050E861E86986
:100CC000012700F0805000905C480168C90513D4EA
:100CD0000168834641F480710160FFF721FD82467F
:100CE00006E000BFFFF71CFDA0EB0A0064284ED809
:100CF000DBF80000C005F5D5E06801280AD008B18E
:100D0000052813D0286A20F001002862286A20F004
:100D1000040002E0286A40F001002862E06841F225
:100D2000883B98B1FFF7FCFC82460BE0286A40F054
:100D300004002862EEE700BFFFF7F2FCA0EB0A0117
:100D400059455AD8286A8007F6D50CE0FFF7E8FC29
:100D5000824605E0FFF7E4FCA0EB0A0159454CD8B8
:100D6000286A8007F6D41FB1E86920F08050E86156
:100D7000E06988B36968C1F38101022944D002287F
:100D8000C6F8608004D0FFF7CBFC044638E034E0BE
:100D9000FFF7C6FC074604E0FFF7C2FCC01B0228B1
:100DA0002BD828688001F7D4206AB0F5803F05D1A0
:100DB0006868A16820F4003008436860D4E908013D
:100DC0000843696821F4741108436860C6F86090AC
:100DD000FFF7A6FC044606E025E000BFFFF7A0FCF5
:100DE000001B022809D828688001F7D51BE000BF46
:100DF000FFF796FC001B022802D90320BDE8F88FFC
:100E000028688001F4D40EE00128F7D06868226ACF
:100E100000F48031914204D1616A00F4701088427C
:100E200001D00120EAE70020E8E7000000100240BE
:100E300000004242800442420C000020007000404A
:100E400010B5401EB0F1807F01D3012010BD4FF0DE
:100E5000E02460610F21601700F011FF0020A06105
:100E600007202061002010BD7047704770B590F8D2
:100E70003C20012A23D0012480F83C40022280F843
:100E80003D2003685A689D6822F070060A68324364
:100E90005A600C4B02689A4205D0B2F1804F02D0E2
:100EA000094B9A4204D1496825F0800319439160A7
:100EB00080F83D40002180F83C10084670BD0220BB
:100EC00070BD0000002C01400004004010B504007B
:100ED00003D094F83D0010B107E0012010BD0020C0
:100EE00084F83C00204600F01FF8022084F83D0002
:100EF000211D206800F0FCFC012084F8460084F8E5
:100F00003E0084F83F0084F8400084F8410084F8F3
:100F1000420084F8430084F8440084F8450084F8D3
:100F20003D00002010BD000008B5114A01681148BD
:100F3000914208D1816941F400618161806900F4C6
:100F40000060009008BDB1F1804FFBD1C16941F054
:100F50000101C161C069002200F00100009011464A
:100F60001C20FFF749FCBDE808401C20FFF736BCF9
:100F7000002C01400010024090F83D10012901D0E2
:100F800001207047022180F83D100168CA6842F0D4
:100F90000102CA6000680A49884205D0B0F1804F5A
:100FA00002D00849884204D1816801F0070106296E
:100FB00003D0016841F0010101600020704700008A
:100FC000002C01400004004070B5044690F83C003D
:100FD000012817D0012584F83C50022084F83D00F8
:100FE0002068826822F0770222F47F4282600868DB
:100FF000502830D00DDC20284DD005DC98B31028C7
:101000003BD148E0022070BD302844D0402834D184
:1010100039E0602828D0702806D0B0F5805F2CD049
:10102000B0F5005F29D10AE0CB68D1E90121206841
:1010300000F08CFC2068816841F0770109E0CB6802
:10104000D1E90121206800F081FC2068816841F429
:101050008041816011E0CA684968206800F088FC1E
:101060005021206807E016E0CA684968206800F04F
:1010700090FC6021206800F073FC84F83D50002053
:1010800084F83C0070BDCA684968206800F070FCB4
:1010900040212068EFE7226801461046EBE77047E1
:1010A00070B50446006801694FF00005C94389071F
:1010B00015D4C168C943890711D4E91E0161012013
:1010C0002077206880698007204602D0FFF7E7FF7D
:1010D00004E000F098F8204600F096F825772068A4
:1010E0000169C943490717D4C168C943490713D4E3
:1010F0006FF004010161022020772068806910F4FC
:10110000407F204602D0FFF7CAFF04E000F07BF8E2
:10111000204600F079F8257720680169C94309075E
:1011200016D4C168C943090712D46FF008010161E0
:10113000042020772068C0698007204602D0FFF78E
:10114000AEFF04E000F05FF8204600F05DF8257780
:1011500020680169C943C90617D4C168C943C906D3
:1011600013D46FF010010161082020772068C06956
:1011700010F4407F204602D0FFF791FF04E000F01A
:1011800042F8204600F040F8257720680169C943FD
:10119000C90708D1C168C943C90704D1891E0161C3
:1011A000204600F032F820680169C943090609D4D5
:1011B000C168C943090605D46FF08001016120466A
:1011C000FFF752FE20680169C943490609D4C16886
:1011D000C943490605D46FF040010161204600F083
:1011E00015F820680169C94389060BD4C168C94351
:1011F000890607D46FF0200101612046BDE87040E8
:10120000FFF733BE70BD7047704770477047704737
:1012100070470000F8B5026804461068D168536949
:1012200010F00F0F4FF0000553D003F0010601F44A
:10123000907737435FD0C20705D0CA0503D5226C2B
:1012400042F001022264420705D5DA0703D0226C7E
:1012500042F002022264820705D5DA0703D0226C2D
:1012600042F004022264020707D501F02002324353
:1012700003D0226C42F008022264226C002A34D08F
:10128000800604D5880602D5204600F0B4FB20680D
:101290004069216CC0F38010090700D430B32046A8
:1012A00000F091FB2068416949061BD5416921F096
:1012B00040014161A06BA8B158494163A06BFFF7A1
:1012C000E3F8002811D0A06B416B01B0BDE8F040FD
:1012D000084783060FD58B060DD52046BDE8F8409C
:1012E00000F089BB2046FFF793FFF8BD2046FFF7CB
:1012F0008FFF2564F8BD266B2023012E52D1C60630
:1013000050D5CE064ED51068506800905069400602
:101310002AD5A16B086840680004000CEAD0A68DAD
:101320008642E7D9E0858869202818D0D06820F463
:101330008070D0602068416921F00101416120681E
:10134000416921F04001416184F83E302563206805
:10135000C16821F01001C160A06BFFF771F8A08D8A
:10136000E18D401A81B219E0A08DE18D401A81B261
:10137000E08D0028BED00029BCD0D06820F4907049
:10138000D0602068426922F00102426184F83E3058
:1013900025632068C26822F01002C2602046FFF771
:1013A00036FFF8BD05062BD50D0629D594F83D006E
:1013B0002128F6D1A068B0F5805F01D12069B0B1D5
:1013C000206A411C2162216800784860E08C401E40
:1013D0000004000CE084E4D12068C16821F08001A1
:1013E000C1602068C16841F04001C160F8BD206A59
:1013F0000088C0F308005060206A801C2062E5E786
:101400004006F3D54806F1D5D168204621F04001C9
:10141000D16084F83D3000F0A3F8F8BDB71900089A
:1014200070B5040004D094F83D00002510B106E02A
:10143000012070BD84F83C50204600F023F82420A1
:1014400084F83D002068C16821F40051C160204645
:1014500000F02CFB2068016921F4904101612068B3
:10146000416921F02A0141612068C16841F40051BD
:10147000C1602564202084F83D0084F83E000020EF
:1014800070BD000030B585B0002400940194029432
:1014900003940068184988422BD11848C16941F467
:1014A0000031C161C16901F400310491816941F0E9
:1014B000040181618069124D00F004000490042051
:1014C0000090022001900320039069462846FFF710
:1014D00039F80820CDE90004694628460294FFF750
:1014E00031F8002211462620FFF786F92620FFF763
:1014F00075F905B030BD0000004400400010024006
:101500000008014090F83E30202B0ED159B152B165
:1015100090F83C30012B08D0012380F83C300023A8
:10152000036300F01FBB01207047022070470000DA
:10153000084988420DD108480849A0F1640302789F
:1015400008681A54401C0860012203490148FFF74B
:10155000D9BF704718010020C001002010000020F2
:10156000704770B5040004D094F83D00002510B118
:1015700006E0012070BD84F83C50204600F01CF8C5
:10158000022084F83D00204600F00EFB206801692F
:1015900021F4804101612068416921F02A01416103
:1015A0002068C16841F40051C1602564012084F8BD
:1015B0003D00002070BD000030B585B000240094CF
:1015C00001940294039400681449884224D1144879
:1015D000816941F480418161816901F48041049114
:1015E000816941F00401816180690E4D00F00400C1
:1015F00004904FF44070009002200190032003906B
:1016000069462846FEF79EFF2815CDE90004694685
:1016100028460294FEF796FF05B030BD0038014021
:101620000010024000080140FEE700003EB5002423
:1016300011480094019402940E498460016004737F
:101640000475012505614FF460214460C161FEF716
:101650003DFE08B1FEF7B9FD0520CDE9000569465C
:1016600002940548FEF7B4FD002801D0FEF7ADFD59
:101670003EBD000000240140140000202DE9F0418F
:1016800086B0002420480094019402940394816958
:1016900041F010018161816901F0100104918169BB
:1016A00041F020018161816901F02001049181698B
:1016B00041F0040181618069144F00F004004FF48F
:1016C00000550490002229463846FFF723F8DFF83A
:1016D0004080002212214046FFF71CF800950226A8
:1016E00001250396CDE9015469463846FEF72AFFE5
:1016F0001220CDE90005CDE9024669464046FEF7D5
:1017000021FF06B0BDE8F08100100240001001404A
:101710000008014010B586B00024184800940194D8
:101720000294039404941449059401604721C0E98C
:1017300001144FF6FF71C0E903148021C0E905418F
:10174000FFF7C4FB08B1FEF740FD4FF48050009056
:1017500069460A48FFF738FC08B1FEF736FD0494E5
:1017600004A906480594FFF781FB002801D0FEF785
:101770002CFD06B010BD0000002C014044000020EC
:1017800010B586B000241748009401940294039485
:1017900004944FF080410594016041F61F41C0E977
:1017A000011442F20F71C0E9031480218161FFF737
:1017B0008DFB08B1FEF709FD4FF48050009069469B
:1017C0000848FFF701FC08B1FEF7FFFC049404A9E8
:1017D00004480594FFF74AFB002801D0FEF7F5FC0A
:1017E00006B010BD8C0000200D4810B50B490160FB
:1017F0004FF4E1314160002181600C22C160C0E9F9
:1018000004128161C1610162FFF7ABFE002803D0C1
:10181000BDE81040FEF7D9BC10BD00000038014003
:10182000D40000200C4810B50A4901604FF4E131A2
:101830004160002181600C22C160C0E90412816115
:10184000C161FFF7EDFD002803D0BDE81040FEF7B1
:10185000BCBC10BD0044004018010020FEE7FEE7BC
:1018600070477047FEF762BF30B593B028216846D5
:10187000FEF761FC14210AA8FEF75DFC002501209B
:101880000F9510951195010412958DE82300049091
:101890004FF4E010CDE90810022407946846FFF7E2
:1018A0003FF908B172B6FEE70AA90F2081E83100BE
:1018B0004FF48060CDE90D0502210AA8FFF744F836
:1018C00008B172B6FEE74FF4004011900F940FA8D4
:1018D000FEF7C4FF002801D072B6FEE713B030BD9A
:1018E000704700000148FFF7DBBB00008C000020C0
:1018F00070B50268134B144C4FF08046984203D0E9
:10190000B04201D0A04203D122F070054A682A43B8
:10191000984203D0B04201D0A04203D122F44074D7
:10192000CA6822434C6922F08002224302608A681E
:10193000C2620A688262984201D109690163012189
:10194000416170BD002C01400004004010B5846866
:1019500042EA032224F47F440A432243826010BDFA
:10196000826822F070020A4342F0070181607047EA
:1019700010B5036A046A24F001040462846924F047
:10198000F00444EA021423F00A020A43846102626A
:1019900010BD10B5036A23F0100303628369046A63
:1019A00023F4704343EA023224F0A00343EA011116
:1019B0008261016210BD10B5406A0021C185C184F9
:1019C000FFF726FC10BD0168CA6822F49072CA6055
:1019D00001684A6922F001024A61016B012904D1C0
:1019E0000168CA6822F01002CA60202180F83E1007
:1019F00000210163704708B590F83E10222901D0FC
:101A0000022008BD82684FF480539A4201D10169D7
:101A100021B1816A9A421BD04AB10AE00268816A08
:101A20005268C2F308020A80816A891C08E00269D0
:101A300072B10268526802F07F020A70816A491C22
:101A40008162C18D491E0904090CC18503D019E0CA
:101A500002685268F1E70168CA6822F02002CA6091
:101A60000168CA6822F48072CA6001684A6922F07B
:101A700001024A61202180F83E10016B012903D048
:101A8000FFF756FD002008BD002101630168CA6808
:101A900022F01002CA6001680A68D20602D50A68FC
:101AA00049680091818DFFF7B2FBEBE770B5044602
:101AB00000680169E26821F4405111430161216924
:101AC000A0680843616908432168CA6841F20C6351
:101AD0009A430243CA6020684169A26921F44071B7
:101AE000114341611E492068884202D1FEF7D2FFAE
:101AF00001E0FEF7BFFF00EBC00101EB00126068E0
:101B000064218000B2FBF0F3B3FBF1F36FF0180631
:101B10007343B2FBF0F5B2FBF0F605EB830532231D
:101B200003EB0515B5FBF1F5B6FBF1F605F0F00595
:101B300005EB0615B2FBF0F6B2FBF0F0B0FBF1F0EE
:101B40006FF01802504306EB800003EB0010B0FB6F
:101B5000F1F0216800F00F002844886070BD00009B
:101B60000038014081628285C28500210164222201
:101B700080F83E2080F83C100168CA6842F4807208
:101B8000CA6001684A6942F001024A610068C1689E
:101B900041F02001C1600020704700000148FFF7BC
:101BA00039BB0000180100202DE9F041044600680F
:101BB000C16821F00C01C16020680169D4E90623E5
:101BC0001A43E568236A21F47C512B431A430A43E4
:101BD00042F4006101612268D16841F20C608143E6
:101BE0002369A068184363690B431843D0602068D9
:101BF000416921F4407141611F4920686425322602
:101C0000884202D1FEF746FF01E0FEF733FF00EB0A
:101C1000C00101EB001160686FF0180C8000B1FB8F
:101C2000F0F3B3FBF5F3B1FBF0F7B1FBF0F203FB1C
:101C30000CF307EB830306EB0313B2FBF5F2B3FBE4
:101C4000F5F3120103F0F00302EB4302B1FBF0F3F2
:101C5000B1FBF0F0B0FBF5F000FB0CF003EB800003
:101C600006EB0010B0FBF5F0216800F00F00104407
:101C70008860BDE8F081000000380140FEE70907F8
:101C8000090E002804DB00F1E02080F80014704702
:101C900000F00F0000F1E02080F8141D704702E012
:101CA00008C8121F08C1002AFAD1704770470020E7
:101CB00001E001C1121F002AFBD17047FEF73EFD73
:101CC000FFF7D2FDFFF7DAFCFFF75AFDFFF722FD21
:101CD000FFF78AFDFFF7A6FDFFF7A8FC0748FFF70F
:101CE0004BF9074E4FF4FA744FF400552046FEF7B7
:101CF00017FC29463046FEF705FDF7E78C0000206B
:101D00000010014000000000000000000102030478
:101D10000607080900000000010203043C1D00083A
:101D200000000020140000009E1C0008501D000848
:101D30001400002014060000AE1C00080100000082
:101D400010000000000000000024F400000000006B
:04000005080000ED02
:00000001FF
