:020000040800F2
:1000000040050020AD0100087B160008171000080D
:1000100079160008B9020008B119000800000000B4
:100020000000000000000000000000007F16000833
:10003000BB020008000000007D16000881160008C1
:10004000C7010008C7010008C7010008C701000870
:10005000C7010008C70100080303000811030008D6
:1000600017030008C7010008C7010008C7010008FE
:10007000C7010008C7010008C7010008C701000840
:10008000C7010008C7010008C70100080000000000
:10009000000000000000000000000000C701000890
:1000A000C7010008C7010008C7010008C701000810
:1000B000C7010008C7010008C7010008C701000800
:1000C000C7010008C7010008C7010008C7010008F0
:1000D000C7010008C7010008C701000800000000B0
:1000E00009030008C7010008C7010008000000005C
:1000F000000000000000000000000000C701000830
:1001000000000000C7010008C7010008C70100087F
:1001100000000000000000000000000000000000DF
:10012000C7010008C7010008C7010008C70100088F
:10013000C7010008000000000000000000000000EF
:10014000000000000000000000000000C7010008DF
:10015000C7010008C7010008C7010008C70100085F
:10016000C7010008C70100080000000000000000EF
:10017000000000000000000000000000000000007F
:1001800000000000C701000800000000000000009F
:10019000C7010008DFF810D000F07CF800480047E5
:1001A000091C0008AFF30080400500200648804786
:1001B00006480047FEE7FEE7FEE7FEE7FEE7FEE74C
:1001C000FEE7FEE7FEE7FEE71917000895010008C5
:1001D0002DE9F05F0546002092469B46884606467C
:1001E000814640241BE0284641464746224600F00F
:1001F00041F853465A46C01A914110D31146184649
:10020000224600F028F82D1A67EB01084F462246D7
:100210000120002100F01FF817EB00094E41201EBD
:10022000A4F10104DFDC484631462A464346BDE8D6
:10023000F09FD2B201E000F8012B491EFBD27047BB
:100240000022F6E710B513460A4604461946FFF7A2
:10025000F0FF204610BD202A04DB203A00FA02F10C
:10026000002070479140C2F1200320FA03F31943A4
:1002700090407047202A04DB203A21FA02F0002146
:10028000704721FA02F3D040C2F1200291400843A6
:1002900019467047064C074D06E0E06840F0010340
:1002A00094E8070098471034AC42F6D3FFF776FF86
:1002B0006433000884330008FEE770472DE9F041FD
:1002C000002516460F4680462C4601F07BF8305D2F
:1002D00001F0B8F8641C6D1CEDB2E4B27F2DF6D3CA
:1002E0000837F9B2404601F06DF80025305D01F0A5
:1002F000A9F8641C6D1CEDB2E4B23F2DF6D3BDE845
:10030000F081012000F062B84FF4806000F05EB828
:10031000022000F05BB8042000F058B872B6FEE787
:1003200070B5044600F05CF90546601C02D0044834
:100330000078044400F054F9401BA042FAD370BD89
:100340000400002070B5154A01210128117011D058
:10035000134D144C022814D0042817D0B0F5806F28
:1003600007D111A001F026FB207805EBC0008078B2
:10037000207070BDBDE870404FF400510E4800F091
:1003800021B9207805EBC000C078F1E70BA001F09F
:1003900011FB207805EBC0004078E9E7140000204D
:1003A00018000020150000205B44454255475D3A87
:1003B00009CFC20D0A000000000802405B4445421C
:1003C00055475D3A09C9CF0D0A000000044910B530
:1003D0000A68024202D00860FFF7B4FF10BD0000B7
:1003E000143C01402DE9F84FDFF8B8A100220124A8
:1003F0000AF1040B03254FF00F090BF1040E00BFA7
:100400000B6804FA02F63340B34273D10F7907F058
:100410000307012F01D0022F16D187684FEA420847
:1004200005FA08FC27EA0C07D1F80CC00CFA08FC06
:100430004CEA070CC0F808C04768B7430E79C6F30A
:10044000001696403E4346600E79F643B6070DD03F
:10045000C768560005FA06FC27EA0C07D1F808C061
:100460000CFA06FC4CEA070CC0F80CC00E7906F03A
:100470000306022E10D1D60800EB8608D8F82060BB
:1004800057074FEAD76C09FA0CF7BE430F6907FA12
:100490000CF73743C8F8207006684FEA420C05FA9B
:1004A0000CF7BE430F7907F0030707FA0CF7374341
:1004B00007604E6816F4403F6DD03B4E376847F4F6
:1004C00080473760366822F0030706F480460096BE
:1004D000364E07EB060CDCF8086897073F0F09FA61
:1004E00007F826EA0806DFF8C880404503D14FF038
:1004F00000081EE04FE0DFF8BC80404502D14FF01D
:10050000010816E0DFF8B080404502D14FF0020844
:100510000FE0DFF8A880404502D14FF0030808E063
:10052000DFF89C80404502D14FF0040801E04FF015
:10053000070808FA07F848EA0608CCF80888DAF845
:1005400000605746D1F804C09E435FEACC3C00D51A
:100550001E433E60DBF800605F46D1F804C09E4356
:100560005FEA8C3C00D51E433E60DEF800607746B3
:10057000D1F804C09E435FEACC2C00D51E433E60F8
:10058000084F0C373E68D1F804C09E435FEA8C2CBC
:1005900000D51E433E60521C102AFFF431AFBDE867
:1005A000F88F0000003C0140443802400030014018
:1005B000000002400004024000080240000C02401B
:1005C00000100240426921EA02030A4043EA024164
:1005D000816170470AB1816170470904FBE700003F
:1005E00001488068704700000400002002488168CC
:1005F0000278114481607047040000200B4810B558
:10060000016841F400710160016841F4806101609A
:10061000016841F480710160032000F06FF80F2041
:1006200000F006F800F024F8002010BD003C024065
:1006300070B50D4D04464FF47A712878B1FBF0F097
:100640000A490968B1FBF0F000F00CFB48B9102C26
:1006500007D200222146501E00F030F800206C60C6
:1006600070BD012070BD00000400002010000020BB
:100670000A4808B5016841F480410160006800F44F
:10068000804000900548001F016841F080510160E2
:10069000006800F08050009008BD0000443802401F
:1006A000002809DB00F01F02012191404009800071
:1006B00000F1E020C0F8001170470000F0B40E4BCC
:1006C0001B680C46C3F30223C3F10705042D00D9B0
:1006D0000425191D072901D2002300E0DB1E012695
:1006E00006FA05F1491E214099409E40761E1640AB
:1006F0003143F0BC01F066B90CED00E0064900F0B2
:10070000070208684FF6FF03184040EA0220034A38
:1007100010430860704700000CED00E00000FA058F
:100720002DE9F0470E46050065D0DFF81481D8F8B2
:100730000000F7B200F00700B04207D288F800705E
:10074000D8F8000000F00700B04254D128683D4CB2
:10075000810712D5400703D5206840F4E05020609F
:100760002878000703D5206840F4604020602068A6
:10077000A96820F0F000084320602878C0072DD039
:10078000304968680839012812D0022813D003289C
:1007900011D00968890700292DDA216821F00301A9
:1007A00001432160FFF71CFF814641F2883A0EE0C9
:1007B00009688903EFE709688901ECE7FFF710FF93
:1007C000A0EB0901514502D90320BDE8F08720685C
:1007D000696800F00C00B0EB810FEFD1D8F8001081
:1007E000404601F00701B14207D90770006800F0E8
:1007F0000700B04201D00120E7E72878400705D57F
:100800002068E96820F4E050084320602878000759
:1008100006D52068296920F4604040EAC1002060C4
:1008200000F038F82168084AC1F30311515CC84050
:100830000649086006480068FFF7FAFE0020C4E792
:10084000003C024008380240901C000810000020C4
:10085000080000200448054900680968044AC1F3FB
:100860008221515CC84070471000002008380240C7
:10087000A01C00080448054900680968044AC1F33F
:100880004231515CC84070471000002008380240D7
:10089000A01C0008154810B5006810F00C021448A0
:1008A00013D01449042A0FD0082A0ED10F4C241F4C
:1008B0002268236802F03F025B0207D52068C0F37C
:1008C0008810A0FB010106E0084610BD2168C1F3B5
:1008D0008811A1FB00010023FFF77AFC2168C1F316
:1008E0000141491C4900B0FBF1F010BD083802403D
:1008F0000024F40040787D012DE9F84F04006ED00B
:100900002078DFF84C93C007A9F104054AD009F11B
:1009100004000168C1F38101012908D00068C0F317
:10092000810002280AD1D9F80000400206D52868C3
:10093000800337D560680028E1D033E06068B0F507
:10094000803F10D0B0F5A02F286810D020F4803060
:100950002860286820F4802028606068A8B1FFF72C
:100960003FFE06460DE0286840F48030F4E740F48E
:1009700080202860F7E700BFFFF732FE801B642865
:1009800073D828688003F7D50CE0FFF729FE0646E8
:1009900005E000BFFFF724FE801B6428F0D828681C
:1009A0008003F7D42078DFF8AC8280074FF0000A8C
:1009B0003ED5A748001D016811F00C0F08D0006853
:1009C000C0F3810002280BD1D9F80000400207D4FF
:1009D0002868800716D5E068012800D112E033E1CD
:1009E000E068B8B10120C8F80000FFF7F9FD06463D
:1009F00005E000BFFFF7F4FD801B0228C0D828687F
:100A00008007F7D52868216920F0F80040EAC10086
:100A100028600DE0C8F800A0FFF7E2FD064604E0FC
:100A2000FFF7DEFD801B02281FD828688007F7D457
:100A30002078000722D5864F87486169703771B1E9
:100A400001210160FFF7CCFD064604E0FFF7C8FD79
:100A5000801B022809D838688007F7D50EE0C0F857
:100A600000A0FFF7BDFD064605E082E0FFF7B8FDF8
:100A7000801B02287DD838688007F7D4207840078B
:100A800068D5DFF8CCB100270BF13C0BDBF8000098
:100A9000C0000BD4DBF8001041F08051CBF80010FF
:100AA000DBF80000012700F0805000906B4E3068AA
:100AB000C00510D4306840F480703060FFF790FDBE
:100AC000009005E0FFF78CFD0099401A022850D8ED
:100AD0003068C005F6D55E4EA0686C3601280FD090
:100AE0000528306810D020F001003060306820F018
:100AF00004003060A068B8B1FFF772FD00900FE00D
:100B0000306840F00100F4E740F004003060F7E79F
:100B1000FFF766FD0099411A41F28830814266D89C
:100B200030688007F4D50EE0FFF75AFD009007E02B
:100B3000FFF756FD0099411A41F28830814256D89C
:100B400030688007F4D42FB1DBF8001021F0805119
:100B5000CBF80010A069C8B33D49091D0968C1F36D
:100B6000810102294AD00228504607D0C8F8600007
:100B700000E03CE0FFF734FD04463BE04746C8F8A0
:100B80006000FFF72DFD064605E000BFFFF728FDDA
:100B9000801B02282BD828688001F7D4D4E90701EC
:100BA0000843A16A2E4A490802EB0141626A41EA00
:100BB0008211084394F82C1040EA0161C9F8001032
:100BC00001203866FFF70CFD044606E03EE000BF5A
:100BD000FFF706FD001B022809D828688001F7D519
:100BE00034E000BFFFF7FCFC001B022802D9032001
:100BF000BDE8F88F28688001F4D427E00128F7D0F9
:100C0000D9F80000E26900F4800191421CD1226A07
:100C100000F03F01914217D147F6C071626A01406E
:100C2000B1EB821F10D1A26A4FF0FF3300F44031C4
:100C300003EB5202B1EB024F06D194F82C1000F0F6
:100C40007060B0EB016F01D00120D1E70020CFE749
:100C50000438024000004742800E474200700040C6
:100C60000000FFFF10B5401EB0F1807F01D30120CE
:100C700010BD4FF0E02460610F21601700F0A2FE6C
:100C80000020A06107202061002010BD70B590F801
:100C90003C20012A2CD0012480F83C40022280F81C
:100CA0003D2003685A689D6822F070060A68324346
:100CB0005A60104B02689A420ED0B2F1804F0BD0AE
:100CC0000D4B9A4208D00D4B9A4205D00C4B9A42DC
:100CD00002D00C4B9A4204D1496825F08003194395
:100CE000916080F83D40002180F83C10084670BDBE
:100CF000022070BD000001400004004000080040D8
:100D0000000C00400040014010B5040003D094F8EE
:100D10003D0010B107E0012010BD002084F83C0028
:100D2000204600F01FF8022084F83D00211D2068B5
:100D300000F0FAFC012084F8460084F83E0084F8B4
:100D40003F0084F8400084F8410084F8420084F8B1
:100D5000430084F8440084F8450084F83D000020F6
:100D600010BD000008B50068B0F1804F08D10548FB
:100D7000016841F001010160006800F0010000908D
:100D800008BD00004038024070B5044690F83C00B1
:100D90000025012817D0012684F83C60022084F841
:100DA0003D002068826822F0770222F47F42826050
:100DB0000868502838D00DDC20284FD005DC90B3CF
:100DC000102811D14AE0022070BD302846D04028BA
:100DD0000AD13BE060282FD070280DD0B0F5805F9D
:100DE00003D0B0F5005F12D0012584F83D600020EB
:100DF00084F83C00284670BDCB68D1E90121206809
:100E000000F0DEFC2068816841F0770109E0CB68E2
:100E1000D1E90121206800F0D3FC2068816841F409
:100E200080418160E1E719E0CA684968206800F004
:100E3000D9FC5021206806E0CA684968206800F0A3
:100E4000E2FC6021206800F0C5FCCEE7CA68496872
:100E5000206800F0C7FC40212068F4E722680146C2
:100E60001046F0E770B5040004D094F83D0000256A
:100E700010B106E0012070BD84F83C50204600F01F
:100E800023F8242084F83D002068C16821F4005133
:100E9000C160204600F0CAFC2068016921F490413D
:100EA00001612068416921F02A0141612068C1681F
:100EB00041F40051C1602564202084F83D0084F88D
:100EC0003E00002070BD0000F0B587B0044614213C
:100ED0006846FFF7B5F91F4F236800221E49022418
:100EE000032507261D48BB4213D11B4B14331F6833
:100EF00047F010071F601B6803F0100305930B6891
:100F000043F001030B60096801F0010105916902DA
:100F100015E0134FBB421AD10F4B10331F6847F433
:100F200000371F601B6803F4003305930B6843F020
:100F300001030B60096801F0010105910C21CDE965
:100F4000001402AB694683E86400FFF74BFA07B070
:100F5000F0BD0000001001403038024000000240A7
:100F6000004400402DE9F843044690F83D001F4638
:100F700016460D4620284CD1C5B1BEB194F83C00B0
:100F8000012846D0012084F83C004FF00008C4F846
:100F90004080212084F83D00FFF722FBA684814693
:100FA000E684A068B0F5805F03D004E00120BDE8CE
:100FB000F883206928B12E465FF0000584F83C8054
:100FC0000EE00026FAE78021204600F0B5FCA0B92B
:100FD000AEB116F8010B21684860E08C401EE08439
:100FE000E08C4B464FF0000200970028EBD14FF009
:100FF0004001204600F0A0FC30B10320D7E735F8CF
:10100000020BC0F30800E6E7202084F83D00002032
:10101000CDE70220CBE7FEE770B5002404F1B00075
:10102000C0B200F0E5F9012000F0E2F9102000F074
:10103000DFF90025002000F005FA6D1CEDB2802DCF
:10104000F8D3641CE4B2082CE8D370BD40F23653E8
:1010500005E01946491E89B2FCD2401E80B2002824
:10106000F7D1704770B506465FF0000404F1B00098
:10107000C0B200F0BDF9012000F0BAF9102000F074
:10108000B7F90025304600F0DDF96D1CEDB2802D7A
:10109000F8D3641CE4B2082CE8D370BD10B5384C0A
:1010A000012210212046FFF795FA00224021204618
:1010B000FFF790FA3220FFF7C9FF012240212046B6
:1010C000FFF788FAAE2000F093F9002000F090F9C5
:1010D000102000F08DF9402000F08AF9812000F006
:1010E00087F9CF2000F084F9A12000F081F9C82011
:1010F00000F07EF9A62000F07BF9A82000F078F936
:101100003F2000F075F9D32000F072F9002000F0C4
:101110006FF9D52000F06CF9802000F069F9D92032
:1011200000F066F9F12000F063F9DA2000F060F9D0
:10113000122000F05DF9DB2000F05AF9402000F0A9
:1011400057F9202000F054F9022000F051F98D20C9
:1011500000F04EF9142000F04BF9A42000F048F9FB
:10116000A62000F045F9AF2000F042F90020FFF77B
:1011700079FF0021BDE81040084600F023B90000C7
:10118000000002402DE9F05F984691468B4682466A
:1011900000250A9E64E00020012409EB05020BE013
:1011A0008B4207D108EB000357785B78BB4201D133
:1011B000040105E0801CC0B218F800307F2BEFD886
:1011C000BAF1760F05D90BF101004FF0000A00F0DB
:1011D000FF0B5946504600F0F5F8012C1ED0594639
:1011E000504600F0EFF80027305D00F02BF9641C4A
:1011F0007F1CFFB2A4B2102FF6D30BF10800C1B2CE
:10120000504600F0DFF80027305D00F01BF9641C49
:101210007F1CFFB2A4B2102FF6D31BE06D1CEDB201
:101220005946504600F0CEF80024002000F00AF99C
:10123000641CE4B2102CF8D30BF10100C1B250468B
:1012400000F0C0F80024002000F0FCF8641CE4B2B8
:10125000102CF8D30AF11000AD1C00F0FF0AEDB21B
:1012600019F80510002996D1BDE8F09F2DE9F04747
:101270009A4690468946054600261CE02038C7B2AB
:101280007E2D04D909F10100002500F0FF0949462F
:10129000284600F097F807EB470000240AEB4007C8
:1012A000385D00F0CFF8641CE4B2062CF8D3AD1D15
:1012B000761CEDB2F6B218F806000028DED1BDE8C3
:1012C000F0872DE9F0479A46914688460546002664
:1012D00029E02038C7B2782D04D908F10100002593
:1012E00000F0FF084146284600F06CF800240AEBA5
:1012F0000717385D00F0A6F8641CE4B2082CF8D398
:1013000008F10800C1B2284600F05CF80024381942
:10131000007A00F097F8641CE4B2082CF7D3083583
:10132000761CEDB2F6B219F806000028D1D1BDE85E
:10133000F08700002DE9FC47002516468946044643
:101340002F46DDF8288031E07F288DF8040012D97F
:10135000701901AA40788DF8050017480090A0F197
:10136000A1038DF8067049462046FFF70BFF1034A5
:10137000E4B2AD1C19E08DF80570B8F1010F03D08F
:10138000B8F1030F08D00FE00C4B01AA49462046E4
:10139000FFF797FF083406E0094B01AA49462046AB
:1013A000FFF764FFA41DE4B26D1CEDB2705D002870
:1013B000CAD1BDE8FC870000711F00087129000830
:1013C000A81C000810B50446B02000EBD100C0B244
:1013D00000F00EF8102040EA141000F009F804F0B4
:1013E0000F00BDE8104040F0010000F001B800001F
:1013F00070B5134E05460824002280213046FFF7C1
:10140000E9F8002210213046FFF7E4F814E028063E
:1014100001D5012200E0002220213046FFF7DAF852
:10142000012210213046FFF7D5F800221021304666
:10143000FFF7D0F86806050E641EE4B2E7D270BD6F
:101440000000024070B5134E054608240122802199
:101450003046FFF7BFF8002210213046FFF7BAF8F8
:1014600014E0280601D5012200E0002220213046A8
:10147000FFF7B0F8012210213046FFF7ABF8002249
:1014800010213046FFF7A6F86806050E641EE4B288
:10149000E7D270BD00000240F0B587B01421684665
:1014A000FEF7CEFE3C480024016841F004010160D3
:1014B000016801F004010591016841F080010160BB
:1014C000016801F080010591016841F001010160AE
:1014D000016801F001010591016841F0020101601C
:1014E00000682E4E00F002004FF4005505900022D7
:1014F00029463046FFF76EF8294F0022F021384682
:10150000FFF768F800950125CDE90154694630469A
:101510000394FEF767FF4FF40410CDE900506946CD
:1015200038460295FEF75EFFF0200090CDE90154A9
:10153000694638460394FEF755FF40F20640009096
:101540004FF4881001900220029069461548FEF77A
:1015500049FF002211460620FFF7B0F80620FFF7EA
:101560009FF8002211460720FFF7A8F80720FFF791
:1015700097F8002211460820FFF7A0F80820FFF78F
:101580008FF8002211462820FFF798F82820FFF74F
:1015900087F807B0F0BD0000303802400008024074
:1015A000000002400004024010B586B00024154837
:1015B000009401940294039404944FF080410594A4
:1015C000C0E90014611EC0E9024104618461FFF7B3
:1015D0009BFB08B1FEF7A2FE4FF4805000906946D5
:1015E0000848FFF7D1FB08B1FEF798FE049404A960
:1015F00004480594FFF74AFB002801D0FEF78EFE51
:1016000006B010BD6C0000200C4810B50A490160FE
:101610004FF4E1314160002181600C22C160C0E9DA
:1016200004128161C161FFF71DFC002803D0BDE8F1
:101630001040FEF773BE10BD00100140B400002042
:101640000C4810B50A4901604FF4E13141600021B6
:1016500081600C22C160C0E904128161C161FFF7A1
:1016600001FC002803D0BDE81040FEF757BE10BDB6
:1016700000440040F8000020FEE7FEE77047704796
:10168000FEF7B4BF30B593B030216846FEF7D8FD01
:1016900014210CA8FEF7D4FD1D480025016841F077
:1016A00080510160006800F0805011901948016875
:1016B00021F4404141F4004101600068022400F43B
:1016C0004040119001200090000401908001CDE97C
:1016D000064019200890A820CDE9090404200B90A9
:1016E0006846FFF709F908B172B6FEE70CA90F20AA
:1016F00081E831004FF48050CDE90F0502210CA89C
:10170000FFF70EF8002801D072B6FEE713B030BD27
:1017100040380240007000400248016841F4700106
:101720000160704788ED00E0F0B502681D4B1E4C6B
:101730009F031E4D1E4E984207D0B84205D0A042CE
:1017400003D0A84201D0B04204D122F0700C4A6804
:1017500042EA0C02984210D0B8420ED0A0420CD0FF
:10176000A8420AD0B04208D0124CA04205D0124C78
:10177000A04202D0114CA04203D122F44074CA68A6
:1017800022434C6922F08002224302608A68C262CE
:101790000A688262984201D10969016301214161AD
:1017A000F0BD0000000001400004004000080040BF
:1017B000000C00400040014000440140004801404E
:1017C00010B5846842EA032224F47F440A4322438A
:1017D000826010BD826822F070020A4342F0070165
:1017E0008160704710B5036A046A24F00104046242
:1017F000846924F0F00444EA021423F00A020A4344
:101800008461026210BD10B5036A23F01003036205
:101810008369046A23F4704343EA023224F0A0038C
:1018200043EA01118261016210BD000070B50446F7
:1018300000680169E26821F44051114301612169A6
:10184000A068E26908436169114308432168CA68D6
:1018500049F20C639A430243CA6020684169A26955
:1018600021F440711143416131492068884202D01E
:101870003049884202D1FEF7FDFF01E0FEF7EAFFA2
:10188000E2690023192164253226B2F5004F62680F
:1018900028D0A0FB0101930F9200FEF799FC0146AE
:1018A000B0FBF5F06FF01802504301EB800006EB3F
:1018B0000010B0FBF5F000F0F002B1FBF5F002EB28
:1018C0000012B1FBF5F06FF01803584301EB8000F4
:1018D00006EB0010B0FBF5F000F00F00216810449B
:1018E000886070BDA0FB010192185B41FEF770FC9F
:1018F0000146B0FBF5F00201B1FBF5F06FF0180303
:10190000584301EB800006EBC000B0FBF5F000F09F
:10191000F80002EB4002B1FBF5F0584301EB800008
:1019200006EBC000B0FBF5F000F00700D6E70000C2
:1019300000100140001401402DE9F041984617467F
:101940000E460446069D27E0681C25D02DB1FEF703
:1019500047FEA0EB0800A8421ED920680C3050E8D2
:10196000001F21F4D07140E80012002AF5D1206850
:10197000143050E8001F21F0010140E80012002A55
:10198000F5D1202084F83D0084F83E00002084F842
:101990003C000320BDE8F0812068006836EA0000C2
:1019A00004D00020B842CFD00020F3E70120F9E7AF
:1019B000FEE70000014A024900F023B8251A00089A
:1019C000680000200907090E002804DB00F1E02070
:1019D00080F80014704700F00F0000F1E02080F85C
:1019E000141D704702E008C8121F08C1002AFAD16E
:1019F00070477047002001E001C1121F002AFBD18F
:101A000070472DE9F04116460F460446002503E0D5
:101A10003946B047641C6D1C20780028F8D1284650
:101A2000BDE8F08108B502238DF800000122694667
:101A30000248FFF797FA002008BD0000B40000201C
:101A400038B5FFF7E9FA0124002102230DA2084668
:101A50000094FFF76FFC02230CA2102100200094D9
:101A6000FFF768FC02230BA2202100200094FFF75F
:101A700061FC022309A2302100200094FFF75AFCE8
:101A800038BD00002D2D3ED6F7D2B300B5DAD2BB5B
:101A9000D0D00000B5DAB6FED0D00000B5DAC8FD6F
:101AA000D0D0000038B5FFF7B7FA01240021022397
:101AB0000DA208460094FFF73DFC02230CA2102162
:101AC00000200094FFF736FC02230CA22021002006
:101AD0000094FFF72FFC02230AA23021002000947B
:101AE000FFF728FC38BD0000D6F7D2B30000000095
:101AF0002D2D3EB5DAD2BBD0D0000000B5DAB6FE4F
:101B0000D0D00000B5DAC8FDD0D0000038B5FFF75E
:101B100083FA0124002102230DA208460094FFF756
:101B200009FC02230CA2102100200094FFF702FC04
:101B300002230BA2202100200094FFF7FBFB0223CD
:101B40000AA2302100200094FFF7F4FB38BD00000A
:101B5000D6F7D2B300000000B5DAD2BBD0D0000077
:101B60002D2D3EB5DAB6FED0D0000000B5DAC8FDA6
:101B7000D0D0000038B5FFF74FFA0124002102232E
:101B80000DA208460094FFF7D5FB02230CA21021FA
:101B900000200094FFF7CEFB02230BA2202100209F
:101BA0000094FFF7C7FB022309A230210020009414
:101BB000FFF7C0FB38BD0000D6F7D2B3000000002D
:101BC000B5DAD2BBD0D00000B5DAB6FED0D0000076
:101BD0002D2D3EB5DAC8FDD0D000000008B5FFF7C6
:101BE0001BFA012000210090022305A20846FFF7FE
:101BF000A1FB0021BDE80840024A0846FEF75EBB93
:101C000031000000612F000808B5FEF7F7FCFFF770
:101C100039FDFFF741FCFFF7F7FCFFF7C5FCFFF7C5
:101C20000FFDFFF73BFA01200021009002230FA2D5
:101C30000846FFF77FFB4FF47A70FEF771FBFFF762
:101C4000EBF90F4C0F4FDFF84080104D0026207845
:101C5000012807D198F8000007EBC0004068286011
:101C6000804726700120FEF75BFBF0E7D6C7C4DC97
:101C7000BCD2BED3B9DCC0EDCFB5CDB300000000FF
:101C80001400002018000020150000200000002093
:101C9000000000000000000001020304060708091C
:101CA000000000000102030400000000000000002A
:101CB000002F000000000700070000147F147F14AD
:101CC00000242A7F2A120062640813230036495533
:101CD000225000000503000000001C22410000000B
:101CE00041221C000014083E08140008083E0808A1
:101CF000000000A0600000080808080800006060FC
:101D00000000002010080402003E5149453E00003A
:101D1000427F4000004261514946002141454B311C
:101D2000001814127F10002745454539003C4A49E8
:101D3000493000017109050300364949493600065A
:101D40004949291E000036360000000056360000C2
:101D5000000814224100001414141414000041223D
:101D6000140800020151090600324959513E007C15
:101D70001211127C007F49494936003E41414122FF
:101D8000007F4141221C007F49494941007F0909E8
:101D90000901003E4149497A007F0808087F000098
:101DA000417F4100002040413F01007F0814224153
:101DB000007F40404040007F020C027F007F04080B
:101DC000107F003E4141413E007F09090906003E67
:101DD0004151215E007F0919294600464949493190
:101DE0000001017F0101003F4040403F001F2040B3
:101DF000201F003F4038403F006314081463000771
:101E00000870080700615149454300007F414100C7
:101E100000552A552A55000041417F000004020167
:101E20000204004040404040000001020400002045
:101E300054545478007F4844443800384444442083
:101E400000384444487F00385454541800087E0930
:101E500001020018A4A4A47C007F080404780000F8
:101E6000447D4000004080847D00007F10284400B5
:101E70000000417F4000007C04180478007C0804C6
:101E8000047800384444443800FC24242418001802
:101E9000242418FC007C08040408004854545420EE
:101EA00000043F444020003C4040207C001C204077
:101EB000201C003C4030403C004428102844001CBA
:101EC000A0A0A07C004464544C44141414141414B2
:101ED000B2E2BEE0C0EBD6DCB3A4C3E6BBFDB6C83D
:101EE000B8DFC6C2C4B6D2C7CBD1CBF7CEC0D0C73D
:101EF000B4F3D0A1B2E9BCC7C2BCC9BEB3FDCFB573
:101F0000CDB3D6B5C9E8B5A5BCDBB9ABC7EAD4AA91
:101F1000D1AFC3BFB5E7B3D8D1B9BEADCEB3A1E39E
:101F2000A94FD0CDBAC5B0E6B1BECAA3D3E0BFD5E4
:101F3000BCE4B7B5BBD8CDCBB3F6C0EEB0C2BBD412
:101F4000D6C7C4DCBCD2BED3B9DCC0EDCFB5CDB3EF
:101F5000B5DAD2BBB6FEC8FDCBC4CEE5C1F9C6DF4B
:101F6000D0D0CEC2CAAAB6C8CFD4CABED6F7D2B3D2
:101F7000001060028C00FE02F202FE00F800FF007A
:101F80000004047E018047300F10270047807F0047
:101F900000003E22E2223E00FE2222222222E20213
:101FA00000203F201F1111007F4444444444474017
:101FB00000040404F484D4A5A6A4D484F404040482
:101FC0000000FE0202123A1613121A3242827E00FA
:101FD000000000FE82929292FE92929282FE000097
:101FE0000080601F00001E1212121E40807F000041
:101FF0000080808080FF8080A090888482808080A4
:102000000000000000FF4021120408102020404082
:10201000000202E22222F22E2222E22222E2020226
:10202000000000FF40407F4949497F4040FF0000D9
:1020300000202424A4FE232220FC04040404FC0029
:102040000010080601FF010680631901010933C071
:10205000000000FC242424FC252624FC2424240441
:102060000040308F80844C55252525554C8080803C
:102070000004040404F49495969494F40404040471
:102080000000FE02027A4A4A4A4A4A7A0282FE0066
:10209000002020FF202000F8888888FF8888A81862
:1020A0000010301F0888601F80432C102846818054
:1020B000000808C848484849CE48484848C8080861
:1020C000000000FF444444447F44444444FF000073
:1020D00000008060F807001CE0010600E01E000020
:1020E00000010000FF00804020130C13204080807E
:1020F00000101010FF109000FE9180FF8092FE00F3
:10210000000444827F01008082462A132A4682808E
:10211000008060242424A4643F2424A42424A060F8
:102120000000804829094D8D7B0B09284C98000040
:1021300000000202020202FE0202020202FE00008F
:10214000004040404040407F40404041424140408C
:1021500000000000BE2A2A2AEA2A2A2A3E0000009D
:1021600000004442494949497F49494949414000A1
:102170000020202020202020FF20202020202020A0
:102180000080804020100C0300030C102040808051
:1021900000000000E0000000FF0000002040800080
:1021A00000080403000040807F0000000000010ED2
:1021B00000404424A4948C84FF848C94A424444040
:1021C000004040405F4A4A4A4A4A4A4A5F404040CB
:1021D00000404042CC0000008484848484FC0000E1
:1021E000000000007F2010003F4040404041407010
:1021F000008080829292929292929292FE8080804F
:1022000000404022241048807F04081824224040C7
:102210000080FE8282FE80FE8282FE8000F800FF47
:1022200000403F0020BF403F40807F00004F807F44
:102230000000FE225A8620102824E32428102020A3
:102240000000FF040827110D41817F0105093100BD
:1022500000000022322AA6A2622111098101000099
:1022600000004222130B42827E02020A1223460021
:10227000002030AC63300088C8A8998E88A8C88830
:102280000022672212128040300F00003F40407150
:1022900000008060F80704E4A4A4BFA4A4E4040040
:1022A00000010000FF40407F4A4A4A4A4A7F4040BE
:1022B00000404042CC0040A09E8282829EA020200E
:1022C000000000003F908840432C10284641808049
:1022D000000000F8494A4C48F8484C4A49F80000C8
:1022E0000010101312121212FF12121212131010F9
:1022F00000008060F8074020900C030C90204040C4
:1023000000010000FF0080601F000000FF000000CF
:102310000000804020180680000718204080000040
:1023200000010020702826212020243860000101AF
:10233000000000FE20202000F2121AD61212F20233
:102340000000001F080402804F20180710204F8053
:10235000002020222222E2222222E2222222202007
:1023600000804020100C030000003F4040404078B7
:1023700000404042CC0020D04C4B48C80808F80030
:10238000000000007F20101F1212125F80403F00EB
:102390000020100CF312125292121212F2020200DA
:1023A0000001011F11111115195191513F11110116
:1023B000000000F888888888FF88888888F80000EE
:1023C0000000001F080808087F888888889F80F020
:1023D00000106002CC8080FC4020FF1008F8000054
:1023E0000004047E0100003F40404F4044474078D5
:1023F000000000FE0282828282FA8282828282024F
:102400000080601F40404040407F40404458404072
:10241000002030AC63201880824222121A264280AB
:1024200000226722121212404242427E4242424041
:10243000002030AC63201800084848FF484848088E
:102440000022672212121200020202FF0212221E52
:102450000000000000000C12120C00000000000040
:10246000000000000000000000000000000000006C
:10247000000008F00808F00808F0002231292600C2
:102480000000000700000700000700000000000037
:10249000002022A27E2222FE2222007C0000FF00D9
:1024A00000444249484848497E484848494A4140D2
:1024B00000808080BEA2A2A2A2A2A2A2BE80808032
:1024C0000000000006050404044484443C000000AD
:1024D0000000FE20203F2000FC24E4242223E20010
:1024E00000807F0101FF80601F8041261826418007
:1024F000000010101010D030FF30D010101010005D
:102500000010080402090808FF080809020408105E
:1025100000484AFA0AFE09F949A80000F00000FF45
:102520000022110B04FF0409122300000F40807FDA
:102530000080804020504844C34448502040808060
:10254000000040221A0242827F0202020A12600048
:1025500000100C4424140405060404142444140C30
:1025600000004040414141417F41414141404000E4
:102570000000F8010600F0121212F2020202FE0040
:102580000000FF0000001F1111111F0040807F009C
:1025900000404042CC0000FC24A4242222A362007C
:1025A000000040201F2058475048454245485040B1
:1025B000000000FE0202F2121212F20202FE0000FD
:1025C0000000007F2020272424242720207F0000D3
:1025D00000404042CC0000FF4949C949497F800082
:1025E000000040201F20405F484440414245584081
:1025F0000000007C40404040FF40404040FC000064
:1026000000007C40404040407F4040404040FC0053
:10261000008084444424140CFF0C1424444484801B
:102620000008080808094989790D0B0908080808F5
:10263000000000FC0454E645F444E45404FC0000AB
:102640000088884B482928180D182829484B888865
:10265000004458C07FD0482622E23AA222222A060D
:102660000080601F007F2010131212FF1212121040
:1026700000109453321E325210007E4242427E00BD
:1026800000000000FF49494949494949FF0000004D
:102690000008CC4A49484ACC18007F88888482E0E8
:1026A0000000FF121252927F00007E88888482E030
:1026B00000102C2424A4A465A624242424A4340CCF
:1026C0000040494929241452897F040A111020200E
:1026D000000000FE9292929292F29292929E8080DC
:1026E0000040300F00FC44444447444444FC000094
:1026F00000886423A2A6AAA2BAA4A3A2262AA26240
:1027000000000000FF4A4A4A4A4A4A4BF8000000CB
:1027100000048484FC848400FE9292FE9292FE0067
:10272000002060201F1010404444447F4444444033
:1027300000000022322AA6A26221110981010000B4
:1027400000004222130B42827E02020A122346003C
:10275000002030AC63300088C8A8998E88A8C8884B
:102760000022672212128040300F00003F4040716B
:102770000008049392969A92FA94939296FA02021F
:10278000004040472424140CFF04042444241C006B
:1027900000808080808080808080808080808080B9
:1027A0000000000000000000000000000000000029
:1027B00000000008080808080808080808080000C1
:1027C0000010101010101010101010101010101019
:1027D0000000048484848484848484848484040045
:1027E0000020202020202020202020202020202009
:1027F0000000FC040404FC040404FC040404FC00C5
:1028000000007F28242320202020212222227F0054
:10281000000002424242C27E42424242C2020200E2
:102820000040404040784740404040407F4040406A
:102830000020202020202021222C202020202020A9
:1028400000004020100C030000000102041860008A
:1028500000808080808040FF404040202020200079
:10286000000000000000003F404040404040780031
:1028700000001088C4330040424242C242424240FB
:1028800000020100FF0000000040807F0000000007
:1028900000000000FE92929292929292FE0000003E
:1028A0000040424458407F4040407F4050484640AE
:1028B0000040404242424242C242424242424040C2
:1028C00000201008060040807F000000020408304D
:1028D000001060028C0000FE9292929292FE000024
:1028E0000004047E01407E42427E427E42427E409F
:1028F000001060028C00FE929292929292FE000072
:102900000004047E014448507F40407F50484440CA
:10291000000000FC242424FC252624FC2424240478
:102920000040308F80844C55252525554C80808073
:102930000000080808080809FA080808080808003C
:1029400000404041414141417F414141414140407E
:1029500000000202F2121A16D2121212F202020041
:10296000000080804F402018070810204F80000092
:102970000000000000000000000000000000000057
:1029800000000000F80000000000000033300000EC
:102990000000100C06100C060000000000000000F3
:1029A0000040C07840C0784000043F04043F040465
:1029B00000007088FC08300000001820FF211E0075
:1029C00000F008F000E018000000211C031E211E8A
:1029D0000000F00888700000001E21232419272120
:1029E0001010160E000000000000000000000000A3
:1029F00000000000E018040200000000071820405A
:102A00000000020418E00000000040201807000049
:102A100000404080F0804040000202010F010202AD
:102A200000000000F0000000000101011F01010191
:102A300000000000000000000080B07000000000F6
:102A40000000000000000000000001010101010180
:102A50000100000000000000000030300000000015
:102A600000000000008060180400601806010000EB
:102A70000000E010080810E000000F102020100FE8
:102A800000001010F8000000000020203F2020006F
:102A900000007008080888700000302824222130C7
:102AA0000000300888884830000018202020110ECF
:102AB000000000C02010F8000000070424243F2478
:102AC0000000F80888880808000019212020110E4D
:102AD0000000E0108888180000000F112020110E5F
:102AE0000000380808C83808000000003F00000057
:102AF000000070880808887000001C222121221C18
:102B00000000E010080810E0000000312222110F40
:102B100000000000C0C000000000000030300000D5
:102B20000000000080000000000000806000000045
:102B3000000000804020100800000102040810205E
:102B400000404040404040400004040404040404A9
:102B5000000008102040800000002010080402013E
:102B600000007048080808F000000000303601003E
:102B700000C030C828E810E0000718272423140BF1
:102B8000000000C038E0000000203C23020227388B
:102B90002008F8888888700000203F202020110E2F
:102BA00000C0300808080838000718202020100846
:102BB0000008F808080810E000203F202020100F2F
:102BC0000008F88888E8081000203F2020232018FB
:102BD0000008F88888E8081000203F200003000063
:102BE00000C03008080838000007182020221E0204
:102BF0000008F808000008F808203F210101213FE3
:102C000020000808F8080800000020203F202000CD
:102C10000000000808F8080800C08080807F0000DD
:102C20000008F888C028180800203F200126382016
:102C30000008F8080000000000203F20202020307D
:102C40000008F8F800F8F80800203F003F003F2097
:102C50000008F830C00008F808203F200007183F9F
:102C600000E01008080810E0000F10202020100FCE
:102C70000008F808080808F000203F2101010100C1
:102C800000E01008080810E0000F18242438504F06
:102C90000008F8888888887000203F2000030C30E6
:102CA0002000708808080838000038202121221CE4
:102CB00000180808F8080818000000203F2000004D
:102CC0000008F808000008F808001F202020201F36
:102CD000000878880000C83808000007380E010096
:102CE00000F80800F80008F800033C0700073C0360
:102CF00000081868808068180820302C03032C30E6
:102D0000200838C800C83808000000203F20000014
:102D10000010080808C8380800203826212020188C
:102D200000000000FE020202000000007F40404060
:102D300000000C30C000000000000000010638C098
:102D40000000020202FE000000004040407F000040
:102D50000000000402020204000000000000000065
:102D600000000000000000000080808080808080E3
:102D700080000202040000000000000000000000CB
:102D80000000008080808000000019242222223F61
:102D90002008F8008080000000003F112020110E64
:102DA000000000008080800000000E112020201113
:102DB00000000000808088F800000E112020103FE5
:102DC000200000808080800000001F222222221329
:102DD00000008080F0888888180020203F20200094
:102DE000000000808080808000006B949494936049
:102DF0000008F8008080800000203F210000203F74
:102E00002000809898000000000020203F20200033
:102E100000000000809898000000C08080807F0043
:102E20000008F8000080808000203F24022D302020
:102E300000000808F8000000000020203F202000CB
:102E4000008080808080808000203F20003F200024
:102E50003F8080008080800000203F210000203FD4
:102E6000200000808080800000001F202020201F84
:102E700000808000808000000080FFA12020110ED3
:102E8000000000008080808000000E112020A0FF44
:102E900080808080008080800020203F21200001F1
:102EA00000000080808080800000332424242419C6
:102EB00000008080E0808000000000001F202000D3
:102EC000008080000000808000001F202020103F34
:102ED00020808080000080808000010E3008060184
:102EE0000080800080008080800F300C030C300F49
:102EF0000000808000808080000020312E0E312074
:102F000000808080000080808080818E70180601A3
:102F10000000808080808080000021302C222130C1
:102F20000000000000807C020200000000003F4022
:102F30004000000000FF00000000000000FF000053
:102F4000000002027C800000000040403F000000C2
:102F5000000006010102020404000000000000005D
:102F60000000000000000000000000000000000061
:102F70000000000000000000000000000000000051
:102F80000000000000000000000000000000000041
:102F90000000000000000000000000000000000031
:102FA0000000000000000000000000000000000021
:102FB0000000000000000000000000000000000011
:102FC0000000000000000000000000000000000001
:102FD00000000000000000000000000000000000F1
:102FE00000000000000000000000000000000000E1
:102FF00000000000000000000000000000000000D1
:1030000000000000000000000000000000000000C0
:1030100000000000000000000000000000000000B0
:1030200000000000000000000000000000000000A0
:103030000000000000000000000000000000000090
:103040000000000000000000000000000000000080
:103050000000000000000000000000000000000070
:103060000000000000000000000000000000000060
:103070000000000000001A3AFAE2F2FEFE7A7F3FFA
:10308000F7F4F404747C7C1C4347CFCECCFEFEFEE8
:103090000303FFFEFC0404FCFCFC00000000000035
:1030A0000000000000000000000000000000000020
:1030B0000000000000000000000000000000000010
:1030C0000000000000000000000000000000000000
:1030D00000000000000000000000000000000000F0
:1030E00000000000000000000000000000000000E0
:1030F000000000000000C0F0783F0F1FBCF0E07837
:103100003F1F1F7EF0E08080C0E0FFFFFF9F1F1F7A
:103110000C0C7F7F7F08080F0F07000000000000E5
:10312000000000000000000000000000000000009F
:10313000000000000000000000000000000000008F
:10314000000000000000000000000000000000007F
:10315000000000000000000000000000000000006F
:10316000000000000000000000000000000000005F
:10317000000000000000000000000001010100004C
:103180000000000000010101010100000101010136
:103190000101010101010101010100000000000025
:1031A000000000000000000000000000000000001F
:1031B000000000000000000000000000000000000F
:1031C00000000000000000000000000000000000FF
:1031D00000000000000000000000000000000000EF
:1031E00000000000000000000000000000000000DF
:1031F00000000000000000000000000000000000CF
:1032000000000000000000000000000000000000BE
:1032100000000000000000000000000000000000AE
:10322000000000000000000000000000000000009E
:10323000000000000000000000000000000000008E
:10324000000000000000000000000000000000007E
:10325000000000000000000000000000000000006E
:10326000000000000000000000000000000000005E
:10327000000000000000000000000000000000004E
:10328000000000000000000000000000000000003E
:10329000000000000000000000000000000000002E
:1032A000000000000000000000000000000000001E
:1032B000000000000000000000000000000000000E
:1032C00000000000000000000000000000000000FE
:1032D00000000000000000000000000000000000EE
:1032E00000000000000000000000000000000000DE
:1032F00000000000000000000000000000000000CE
:1033000000000000000000000000000000000000BD
:1033100000000000000000000000000000000000AD
:10332000000000000000000000000000000000009D
:10333000000000000000000000000000000000008D
:10334000000000000000000000000000000000007D
:10335000000000000000000000000000000000006D
:103360000000000084330008000000206C00000012
:10337000E4190008F03300086C000020D4040000B9
:10338000F419000800000000010000001000000017
:10339000000000000024F40000000000000301040D
:1033A000411A000801000209A51A000802010309D8
:1033B0000D1B000803020009751B00080404040427
:1033C000DD1B0008000000000000000000000000FD
:1033D00000000000000000000000000000000000ED
:1033E00000000000000000000000000000000000DD
:040000050800019559
:00000001FF
