:020000040800F2
:10000000304500206D020008871A0008ED15000831
:10001000851A00089D030008292000080000000040
:10002000000000000000000000000000AD0100081A
:100030009F03000800000000090200089D1B000843
:10004000870200088702000887020008870200086C
:100050008702000887020008A1030008A703000820
:10006000AD030008B30300088702000887020008F8
:10007000870200088702000887020008870200083C
:1000800087020008870200088702000800000000BD
:1000900000000000000000000000000087020008CF
:1000A000870200086D1C000887020008870200080C
:1000B00087020008870200088702000887020008FC
:1000C00087020008870200088702000887020008EC
:1000D00087020008870200081D20000800000000B9
:1000E000870200088702000887020008000000005D
:1000F000000000000000000000000000870200086F
:10010000000000008702000887020008870200083C
:1001100000000000000000000000000000000000DF
:10012000870200088702000887020008870200088B
:10013000870200080000000000000000000000002E
:10014000000000000000000000000000870200081E
:10015000870200088702000887020008870200085B
:10016000870200088702000800000000000000006D
:10017000000000000000000000000000000000007F
:1001800000000000870200080000000000000000DE
:1001900087020008DFF810D000F0EEF800480047B2
:1001A000C5200008AFF30080304500202C4B1968B3
:1001B0000868B0E8F04F80F30988BFF36F8F4FF005
:1001C000000080F3118870470000000008480068B4
:1001D000006880F308884FF0000080F3148862B64E
:1001E00061B6BFF34F8FBFF36F8F00DF00BF00BF5B
:1001F00008ED00E0DFF80C00016841F470010160D7
:10020000704700BF88ED00E0EFF30980BFF36F8F08
:10021000134B1A681EF0100F08BF20ED108A20E95A
:10022000F04F106009B44FF0500080F31188BFF315
:100230004F8FBFF36F8F02F0ABFC4FF0000080F3E5
:10024000118809BC19680868B0E8F04F1EF0100F5B
:1002500008BFB0EC108A80F30988BFF36F8F704736
:1002600024000020EFF30580704700000648804717
:1002700006480047FEE7FEE7FEE7FEE7FEE7FEE78B
:10028000FEE7FEE7FEE7FEE75D1C000895010008BB
:100290002DE9F05F0546002092469B4688460646BB
:1002A000814640241BE0284641464746224600F04E
:1002B00053F853465A46C01A914110D31146184676
:1002C000224600F03AF82D1A67EB01084F46224605
:1002D0000120002100F031F817EB00094E41201EEB
:1002E000A4F10104DFDC484631462A464346BDE816
:1002F000F09F40EA01039B0703D009E008C9121FE1
:1003000008C0042AFAD203E011F8013B00F8013BCF
:10031000521EF9D27047D2B201E000F8012B491EFB
:10032000FBD270470022F6E710B513460A46044692
:100330001946FFF7F0FF204610BD202A04DB203AC3
:1003400000FA02F1002070479140C2F1200320FA28
:1003500003F3194390407047202A04DB203A21FA26
:1003600002F00021704721FA02F3D040C2F12002CE
:100370009140084319467047064C074D06E0E06877
:1003800040F0010394E8070098471034AC42F6D3DC
:10039000FFF704FF4037000860370008FEE77047AA
:1003A000012000F071B8022000F06EB8042000F0C7
:1003B0006BB8082000F068B872B6FEE72DE9F0418E
:1003C0000446876D00F06AF9064694F8350000256A
:1003D000022806D08020606584F834500120BDE8F2
:1003E000F0812068016821F01601016020684169F0
:1003F00021F080014161206C08B9A06C20B1206817
:10040000016821F0080101602068016821F0010104
:1004100001600CE000F042F9801B052807D920207C
:100420006065032084F8350084F83450D7E72068ED
:100430000068C007EED194F85C103F208840B86097
:10044000012084F8350084F834500020C7E790F884
:100450003510022903D08021416501207047052114
:1004600080F835100068016821F00101016000206A
:1004700070470000012803D14103024800F000B991
:100480007047000000080240044910B50A680242A3
:1004900002D00860FFF7EEFF10BD0000143C0140E1
:1004A0002DE9F84FDFF8B8A1002201240AF1040B6E
:1004B00003254FF00F090BF1040E00BF0B6804FA7F
:1004C00002F63340B34273D10F7907F00307012FCF
:1004D00001D0022F16D187684FEA420805FA08FCBE
:1004E00027EA0C07D1F80CC00CFA08FC4CEA070C00
:1004F000C0F808C04768B7430E79C6F300169640A7
:100500003E4346600E79F643B6070DD0C7685600E5
:1005100005FA06FC27EA0C07D1F808C00CFA06FC1D
:100520004CEA070CC0F80CC00E7906F00306022E48
:1005300010D1D60800EB8608D8F8206057074FEA9C
:10054000D76C09FA0CF7BE430F6907FA0CF737436B
:10055000C8F8207006684FEA420C05FA0CF7BE4353
:100560000F7907F0030707FA0CF7374307604E6867
:1005700016F4403F6DD03B4E376847F480473760F4
:10058000366822F0030706F480460096364E07EBE5
:10059000060CDCF8086897073F0F09FA07F826EA07
:1005A0000806DFF8C880404503D14FF000081EE080
:1005B0004FE0DFF8BC80404502D14FF0010816E063
:1005C000DFF8B080404502D14FF002080FE0DFF8BD
:1005D000A880404502D14FF0030808E0DFF89C8076
:1005E000404502D14FF0040801E04FF0070808FA37
:1005F00007F848EA0608CCF80888DAF80060574699
:10060000D1F804C09E435FEACC3C00D51E433E6057
:10061000DBF800605F46D1F804C09E435FEA8C3C83
:1006200000D51E433E60DEF800607746D1F804C076
:100630009E435FEACC2C00D51E433E60084F0C372A
:100640003E68D1F804C09E435FEA8C2C00D51E435F
:100650003E60521C102AFFF431AFBDE8F88F000055
:10066000003C01404438024000300140000002409C
:100670000004024000080240000C0240001002404A
:10068000426921EA02030A4043EA0241816170475C
:100690000AB1816170470904FBE7000001488068E6
:1006A000704700001400002002488168027811445D
:1006B00081607047140000200B4810B5016841F4B8
:1006C00000710160016841F480610160016841F4DA
:1006D00080710160032000F08DF80F2000F006F813
:1006E00000F03EF8002010BD003C024010B501466D
:1006F00088B00022192000F05DF8192000F04CF8B5
:1007000013480024016841F400310160006805A924
:1007100000F400300690684600F018F900F046F941
:100720000C490D4AB0FBF1F10C48491E026040F241
:10073000E732C0E90324C0E9011400F06FFB10B1F7
:10074000012008B010BD054800F0A8FBF9E7000043
:100750004438024040420F0000440140F8030020AA
:100760000C4882B0016841F480410160006800F4E7
:10077000804000900748001F016841F080510160EF
:100780000068002200F0805000900F21901E02B0FF
:1007900000F010B844380240002809DB00F01F02C6
:1007A000012191404009800000F1E020C0F80011D3
:1007B00070470000F0B40E4B1B680C46C3F30223D5
:1007C000C3F10705042D00D90425191D072901D2FD
:1007D000002300E0DB1E012606FA05F1491E214038
:1007E00099409E40761E16403143F0BC01F026BC75
:1007F0000CED00E0064900F0070208684FF6FF0321
:10080000184040EA0220034A104308607047000085
:100810000CED00E00000FA052DE9F0470E4605005A
:1008200065D0DFF81481D8F80000F7B200F00700B7
:10083000B04207D288F80070D8F8000000F0070036
:10084000B04254D128683D4C810712D5400703D5EA
:10085000206840F4E05020602878000703D5206825
:1008600040F4604020602068A96820F0F000084350
:1008700020602878C0072DD03049686808390128E1
:1008800012D0022813D0032811D009688907002943
:100890002DDA216821F0030101432160FFF7FEFEFC
:1008A000814641F2883A0EE009688903EFE709685A
:1008B0008901ECE7FFF7F2FEA0EB0901514502D9EF
:1008C0000320BDE8F0872068696800F00C00B0EBF9
:1008D000810FEFD1D8F80010404601F00701B14276
:1008E00007D90770006800F00700B04201D001206E
:1008F000E7E72878400705D52068E96820F4E0504C
:10090000084320602878000706D52068296920F46C
:10091000604040EAC100206000F058F82168084AB1
:10092000C1F30311515CC8400649086006480068DD
:10093000FFF7DCFE0020C4E7003C0240083802401C
:10094000F836000820000020180000200F22026066
:100950000C4A136803F003034360136803F0F003C9
:100960008360136803F4E053C36012684FF4E053EC
:1009700003EAD20202610448006800F00700086040
:100980007047000008380240003C02400448054916
:1009900000680968044AC1F38221515CC84070476D
:1009A00020000020083802400837000804480549A4
:1009B00000680968044AC1F34231515CC84070477D
:1009C000200000200838024008370008154810B5FC
:1009D000006810F00C02144813D01449042A0FD0F8
:1009E000082A0ED10F4C241F2268236802F03F0210
:1009F0005B0207D52068C0F38810A0FB010106E068
:100A0000084610BD2168C1F38811A1FB0001002335
:100A1000FFF73EFC2168C1F30141491C4900B0FBCE
:100A2000F1F010BD083802400024F40040787D0148
:100A30002DE9F84F04006ED02078DFF84C93C00702
:100A4000A9F104054AD009F104000168C1F381014C
:100A5000012908D00068C0F3810002280AD1D9F822
:100A60000000400206D52868800337D5606800285A
:100A7000E1D033E06068B0F5803F10D0B0F5A02F32
:100A8000286810D020F480302860286820F4802066
:100A900028606068A8B1FFF701FE06460DE02868EF
:100AA00040F48030F4E740F480202860F7E700BF8E
:100AB000FFF7F4FD801B642873D828688003F7D5FE
:100AC0000CE0FFF7EBFD064605E000BFFFF7E6FD93
:100AD000801B6428F0D828688003F7D42078DFF8DA
:100AE000AC8280074FF0000A3ED5A748001D016880
:100AF00011F00C0F08D00068C0F3810002280BD160
:100B0000D9F80000400207D42868800716D5E068AD
:100B1000012800D112E033E1E068B8B10120C8F843
:100B20000000FFF7BBFD064605E000BFFFF7B6FD7E
:100B3000801B0228C0D828688007F7D5286821695B
:100B400020F0F80040EAC10028600DE0C8F800A0DD
:100B5000FFF7A4FD064604E0FFF7A0FD801B022876
:100B60001FD828688007F7D42078000722D5864F41
:100B700087486169703771B101210160FFF78EFD0F
:100B8000064604E0FFF78AFD801B022809D8386872
:100B90008007F7D50EE0C0F800A0FFF77FFD0646FE
:100BA00005E082E0FFF77AFD801B02287DD83868D7
:100BB0008007F7D42078400768D5DFF8CCB100274C
:100BC0000BF13C0BDBF80000C0000BD4DBF800108D
:100BD00041F08051CBF80010DBF80000012700F055
:100BE000805000906B4E3068C00510D4306840F4DF
:100BF00080703060FFF752FD009005E0FFF74EFD7A
:100C00000099401A022850D83068C005F6D55E4ECB
:100C1000A0686C3601280FD00528306810D020F06D
:100C200001003060306820F004003060A068B8B186
:100C3000FFF734FD00900FE0306840F00100F4E76A
:100C400040F004003060F7E7FFF728FD0099411AF3
:100C500041F28830814266D830688007F4D50EE0D2
:100C6000FFF71CFD009007E0FFF718FD0099411AFF
:100C700041F28830814256D830688007F4D42FB1D1
:100C8000DBF8001021F08051CBF80010A069C8B348
:100C90003D49091D0968C1F3810102294AD0022892
:100CA000504607D0C8F8600000E03CE0FFF7F6FCD3
:100CB00004463BE04746C8F86000FFF7EFFC0646F5
:100CC00005E000BFFFF7EAFC801B02282BD828684C
:100CD0008001F7D4D4E907010843A16A2E4A4908E4
:100CE00002EB0141626A41EA8211084394F82C1038
:100CF00040EA0161C9F8001001203866FFF7CEFC18
:100D0000044606E03EE000BFFFF7C8FC001B0228D7
:100D100009D828688001F7D534E000BFFFF7BEFC92
:100D2000001B022802D90320BDE8F88F2868800143
:100D3000F4D427E00128F7D0D9F80000E26900F4E4
:100D4000800191421CD1226A00F03F01914217D1EB
:100D500047F6C071626A0140B1EB821F10D1A26AEE
:100D60004FF0FF3300F4403103EB5202B1EB024F7E
:100D700006D194F82C1000F07060B0EB016F01D038
:100D80000120D1E70020CFE70438024000004742AD
:100D9000800E4742007000400000FFFF7047704720
:100DA00070B590F83C20012A2CD0012480F83C40FA
:100DB000022280F83D2003685A689D6822F0700680
:100DC0000A6832435A60104B02689A420ED0B2F160
:100DD000804F0BD00D4B9A4208D00D4B9A4205D054
:100DE0000C4B9A4202D00C4B9A4204D1496825F030
:100DF00080031943916080F83D40002180F83C1049
:100E0000084670BD022070BD000001400004004093
:100E100000080040000C00400040014010B50400F4
:100E200003D094F83D0010B107E0012010BD002070
:100E300084F83C00204600F01FF8022084F83D00B2
:100E4000211D206800F018FF012084F8460084F876
:100E50003E0084F83F0084F8400084F8410084F8A4
:100E6000420084F8430084F8440084F8450084F884
:100E70003D00002010BD000008B50068B0F1804FB3
:100E800008D10548016841F001010160006800F0E7
:100E90000100009008BD00004038024090F83D106D
:100EA000012901D001207047022180F83D1001681E
:100EB000CA6842F00102CA6000680E4988420ED03A
:100EC000B0F1804F0BD00C49884208D00B498842C2
:100ED00005D00B49884202D00A49884204D1816872
:100EE00001F00701062903D0016841F0010101600A
:100EF000002070470000014000040040000800404E
:100F0000000C00400040014070B5044690F83C00E1
:100F10000025012817D0012684F83C60022084F8BF
:100F20003D002068826822F0770222F47F428260CE
:100F30000868502838D00DDC20284FD005DC90B34D
:100F4000102811D14AE0022070BD302846D0402838
:100F50000AD13BE060282FD070280DD0B0F5805F1B
:100F600003D0B0F5005F12D0012584F83D60002069
:100F700084F83C00284670BDCB68D1E90121206887
:100F800000F0C6FE2068816841F0770109E0CB6877
:100F9000D1E90121206800F0BBFE2068816841F49E
:100FA00080418160E1E719E0CA684968206800F083
:100FB000C1FE5021206806E0CA684968206800F038
:100FC000CAFE6021206800F0ADFECEE7CA6849681D
:100FD000206800F0AFFE40212068F4E72268014657
:100FE0001046F0E7704770B50446006801694FF09D
:100FF0000005C943890715D4C168C943890711D4BD
:10100000E91E016101202077206880698007204661
:1010100002D0FFF7E7FF04E000F098F8204600F068
:1010200096F8257720680169C943490717D4C16834
:10103000C943490713D46FF00401016102202077EE
:101040002068806910F4407F204602D0FFF7CAFF75
:1010500004E000F07BF8204600F079F8257720685E
:101060000169C943090716D4C168C943090712D4E5
:101070006FF008010161042020772068C0698007B3
:10108000204602D0FFF7AEFF04E000F05FF82046F4
:1010900000F05DF8257720680169C943C90617D4B7
:1010A000C168C943C90613D46FF01001016108205B
:1010B00020772068C06910F4407F204602D0FFF7F7
:1010C00091FF04E000F042F8204600F040F8257758
:1010D00020680169C943C90708D1C168C943C90764
:1010E00004D1891E0161204600F032F820680169B0
:1010F000C943090609D4C168C943090605D46FF07C
:10110000800101612046FFF749FE20680169C9435B
:10111000490609D4C168C943490605D46FF04001A6
:101120000161204600F01EF820680169C943890664
:101130000BD4C168C943890607D46FF0200101614F
:101140002046BDE87040FFF72ABE70BD704770476B
:1011500000680349884201D1FFF7A6BA7047000032
:10116000004401407047704770470000F8B50168BF
:1011700004460868CA684B6910F00F0F4FF000056D
:1011800059D003F0010602F49077374365D0C107C8
:1011900005D0D10503D5216C41F00101216441073F
:1011A00005D5D90703D0216C41F0020121648107E4
:1011B00005D5D90703D0216C41F004012164010752
:1011C00007D502F02001314303D0216C41F0080122
:1011D0002164216C00293AD0800604D5900602D5FE
:1011E000204600F0F9FD20684069216CC0F38010B2
:1011F000090700D460B3204600F0C7FD20684069AD
:10120000400621D52068143050E8001F21F040012D
:1012100040E80012002AF5D1A06BA8B16C49016525
:10122000A06BFFF714F9002811D0A06B016D01B07D
:10123000BDE8F040084783060FD593060DD520463C
:10124000BDE8F84000F0C8BD2046FFF78DFFF8BDAF
:101250002046FFF789FF2564F8BD266B2023012E69
:1012600079D1C60677D5D60675D508684868009046
:101270004869400640D5A16B086840680004000C2E
:10128000EAD0A28D8242E7D9E085C869B0F5807FB7
:101290002DD020680C3050E8001F21F4807140E808
:1012A0000012002AF5D12068143050E8001F21F008
:1012B000010140E80012002AF5D12068143050E8FE
:1012C000001F21F0400140E80012002AF5D184F807
:1012D0003E30256320680C3050E8001F21F01001DB
:1012E00040E80012002AF5D1A06BFFF767F8A08D47
:1012F000E18D401A81B229E0A08DE18D401A81B2C2
:10130000E08D0028A8D00029A6D020680C3050E835
:10131000002F22F4907240E80026002EF5D12068BC
:10132000143050E8002F22F0010240E80026002E81
:10133000F5D184F83E30256320680C3050E8002F4A
:1013400022F0100240E80023002BF5D12046FFF7E1
:101350000AFFF8BDFFE705062BD5150629D594F839
:101360003D002128F5D1A068B0F5805F01D120694A
:10137000B0B1206A411C2162216800784860E08C8D
:10138000401E0004000CE084E3D12068C16821F015
:101390008001C1602068C16841F04001C160D8E7A8
:1013A000206A0088C0F308004860206A801C206220
:1013B000E5E74006CDD55006CBD5CA68204622F0D9
:1013C0004002CA6084F83D3000F00FF9C1E7000028
:1013D0007B1D000870B5040004D094F83D00002582
:1013E00010B106E0012070BD84F83C50204600F0AA
:1013F00023F8242084F83D002068C16821F40051BE
:10140000C160204600F048FD2068016921F4904148
:1014100001612068416921F02A0141612068C168A9
:1014200041F40051C1602564202084F83D0084F817
:101430003E00002070BD0000F0B587B004461421C6
:101440006846FEF76FFF3749DFF8D4C027680022EF
:10145000344B14390224032507263348674517D136
:101460001F6847F010071F601B6803F01003059307
:101470000B6843F001030B60096802AF01F0010142
:1014800005916902CDE9001487E86400694644E0EB
:10149000DFF898C0674524D1224B1B1F1F6847F413
:1014A00000371F601B6803F4003305930B6843F09B
:1014B00001030B60096802AB01F0010105910C21E9
:1014C000CDE9001483E864006946FEF7E9FF0022D5
:1014D00005212620FFF76EF92620FFF75DF907B0FA
:1014E000F0BD134EB742FAD11E6846F020061E60CA
:1014F0001B6803F0200305930B6843F001030B60A6
:101500000968029201F0010105914FF4C051CDE943
:1015100000140821CDE903516946FEF7C1FFDEE75B
:1015200000100140443802400000024000440040E6
:1015300000140140704700002DE9F843044690F87C
:101540003D001F4616460D4620284CD1C5B1BEB100
:1015500094F83C00012846D0012084F83C004FF06C
:101560000008C4F84080212084F83D00FFF796F879
:10157000A6848146E684A068B0F5805F03D004E0CD
:101580000120BDE8F883206928B12E465FF00005F0
:1015900084F83C800EE00026FAE78021204600F027
:1015A00001FDA0B9AEB116F8010B21684860E08CCE
:1015B000401EE084E08C4B464FF00002009700286C
:1015C000EBD14FF04001204600F0ECFC30B103209D
:1015D000D7E735F8020BC0F30800E6E7202084F8CF
:1015E0003D000020CDE70220CBE77047FEE740F248
:1015F000365305E01946491E89B2FCD2401E80B21E
:101600000028F7D17047000070B506465FF000046F
:1016100004F1B000C0B200F09DF8012000F09AF88B
:10162000102000F097F80025304600F0BDF86D1C42
:10163000EDB2802DF8D3641CE4B2082CE8D370BD61
:1016400010B5384C012210212046FFF721F8002266
:1016500040212046FFF71CF83220FFF7C8FF012287
:1016600040212046FFF714F8AE2000F073F8002068
:1016700000F070F8102000F06DF8402000F06AF8DB
:10168000812000F067F8CF2000F064F8A12000F07E
:1016900061F8C82000F05EF8A62000F05BF8A820F2
:1016A00000F058F83F2000F055F8D32000F052F831
:1016B000002000F04FF8D52000F04CF8802000F01A
:1016C00049F8D92000F046F8F12000F043F8DA207C
:1016D00000F040F8122000F03DF8DB2000F03AF86E
:1016E000402000F037F8202000F034F8022000F00D
:1016F00031F88D2000F02EF8142000F02BF8A420F3
:1017000000F028F8A62000F025F8AF2000F022F81D
:101710000020FFF779FF0021BDE81040084600F0E7
:1017200003B800000000024010B50446B02000EBF2
:10173000D100C0B200F00EF8102040EA141000F002
:1017400009F804F00F00BDE8104040F0010000F07F
:1017500001B8000070B5134E054608240022802110
:101760003046FEF795FF002210213046FEF790FF2D
:1017700014E0280601D5012200E000222021304695
:10178000FEF786FF012210213046FEF781FF00227E
:1017900010213046FEF77CFF6806050E641EE4B299
:1017A000E7D270BD0000024070B5134E0546082414
:1017B000012280213046FEF76BFF002210213046C7
:1017C000FEF766FF14E0280601D5012200E00022A2
:1017D00020213046FEF75CFF012210213046FEF743
:1017E00057FF002210213046FEF752FF6806050E13
:1017F000641EE4B2E7D270BD0000024010B59EB096
:1018000000201C901D9001211CA800F082FC174CA8
:101810001C22174920616846FEF76BFD00216846CF
:1018200000F0F0FC124920601C221C3107A8FEF7D2
:1018300060FD002107A800F0E5FC0D4960601C2256
:1018400038310EA8FEF755FD00210EA800F0DAFC95
:101850000749A0601C22543115A8FEF74AFD00215B
:1018600015A800F0CFFCE0601EB010BD0000002005
:1018700088360008F0B587B014216846FEF752FD9F
:101880003A480024016841F004010160016801F058
:1018900004010591016841F080010160016801F0D7
:1018A00080010591016841F001010160016801F0CA
:1018B00001010591016841F00201016000682C4EB0
:1018C00000F002004FF400550590002229463046F2
:1018D000FEF7DEFE274F0022F0213846FEF7D8FE45
:1018E00000950125CDE90154694630460394FEF781
:1018F000D7FD4FF488160095CDE901646946384656
:10190000FEF7CEFDF0200090CDE90154694638463F
:101910000394FEF7C5FD0E20CDE90006694602944A
:101920001548FEF7BDFD002205210620FEF742FF07
:101930000620FEF731FF002205210720FEF73AFFBF
:101940000720FEF729FF002205210820FEF732FFBD
:101950000820FEF721FF002205210920FEF72AFFBB
:101960000920FEF719FF07B0F0BD00003038024033
:1019700000080240000002400004024010B586B09A
:1019800000241548009401940294039404944FF0A9
:1019900080410594C0E90014611EC0E90241046160
:1019A0008461FFF73BFA08B1FEF706FD4FF4805063
:1019B000009069460848FFF7A7FA08B1FEF7FCFC5B
:1019C000049404A904480594FFF7EAF9002801D01B
:1019D000FEF7F2FC06B010BDE40200200C4810B582
:1019E0000A4901604FF4E1314160002181600C221D
:1019F000C160C0E904128161C161FFF7EBFC0028FE
:101A000003D0BDE81040FEF7D7BC10BD0010014068
:101A10002C0300200C4810B50A4901604FF4E13155
:101A20004160002181600C22C160C0E90412816123
:101A3000C161FFF7CFFC002803D0BDE81040FEF7DE
:101A4000BBBC10BD00440040700300200C4810B522
:101A50000A4901604FF4E1314160002181600C22AC
:101A6000C160C0E904128161C161FFF7B3FC0028C5
:101A700003D0BDE81040FEF79FBC10BD001401402C
:101A8000B4030020FEE7FEE7012000F036FBFBE791
:101A90000B4E0C4C4FF4005541F288370AA000F071
:101AA000C5FA29463046FEF7EBFD384600F025FB27
:101AB000206900F04DFB0EA000F0B8FAEEE7000040
:101AC00000080240000000205B44454255475D3A53
:101AD00009C8CECEF132A3BA204C454420B7ADD7C9
:101AE000AAC8CECEF1D5FDD4DAD6B4D0D00D0A0036
:101AF0005B44454255475D3A09B7A2CBCDB6FED609
:101B0000B5D0C5BAC5C1BF0D0A0000000A4D4FF4DB
:101B10007A74204600F0F1FA08A000F087FA00215C
:101B2000286900F03DFB20B10DA000BF00F07EFA57
:101B3000EFE711A0FAE70000000000205B444542F7
:101B400055475D3A09C8CECEF13320B5C8B4FDB6CD
:101B5000FED6B5D0C5BAC5C1BF2E2E2E0D0A0000C7
:101B60005B44454255475D3A09B5C8B4FDD6D02E11
:101B70002E2E0D0A000000005B44454255475D3A99
:101B800009CAD5B5BDB6FED6B5D0C5BAC5C1BFA1C7
:101B9000A30D0A00012000F0B0FAFBE710B55020B9
:101BA00080F31188BFF34F8FBFF36F8F01F0D8FB25
:101BB00018B104494FF080500860002080F311886C
:101BC00010BD000004ED00E030B593B03021684650
:101BD000FEF7A8FB14210CA8FEF7A4FB1D48002566
:101BE000016841F080510160006800F08050119060
:101BF0001948016821F4404141F400410160006846
:101C0000022400F440401190012000900004019053
:101C10008001CDE9064019200890A820CDE90904EB
:101C200004200B906846FEF703FF08B172B6FEE78A
:101C30000CA90F2081E831004FF48050CDE90F0549
:101C400002210CA8FEF7E8FD002801D072B6FEE7DD
:101C500013B030BD403802400070004002480168B7
:101C600041F470010160704788ED00E00148FFF722
:101C7000BAB90000F8030020F0B502681D4B1E4CF5
:101C80009F031E4D1E4E984207D0B84205D0A04279
:101C900003D0A84201D0B04204D122F0700C4A68AF
:101CA00042EA0C02984210D0B8420ED0A0420CD0AA
:101CB000A8420AD0B04208D0124CA04205D0124C23
:101CC000A04202D0114CA04203D122F44074CA6851
:101CD00022434C6922F08002224302608A68C26279
:101CE0000A688262984201D1096901630121416158
:101CF000F0BD00000000014000040040000800406A
:101D0000000C0040004001400044014000480140F8
:101D100010B5846842EA032224F47F440A43224334
:101D2000826010BD826822F070020A4342F007010F
:101D30008160704710B5036A046A24F001040462EC
:101D4000846924F0F00444EA021423F00A020A43EE
:101D50008461026210BD10B5036A23F010030362B0
:101D60008369046A23F4704343EA023224F0A00337
:101D700043EA01118261016210BD10B5806B002140
:101D8000C185C184FFF7F0F910BD01680C3151E83D
:101D9000002F22F4907241E80023002BF5D1016856
:101DA000143151E8002F22F0010241E80023002BFA
:101DB000F5D1016B012909D101680C3151E8002FDF
:101DC00022F0100241E80023002BF5D1202180F8F9
:101DD0003E1000210163704708B590F83E1022299B
:101DE00001D0022008BD82684FF480539A4201D18D
:101DF000016921B1816A9A421BD04AB10AE00268A6
:101E0000816A5268C2F308020A80816A891C08E06C
:101E1000026972B10268526802F07F020A70816A38
:101E2000491C8162C18D491E0904090CC18503D07A
:101E300019E002685268F1E70168CA6822F02002DE
:101E4000CA600168CA6822F48072CA6001684A697F
:101E500022F001024A61202180F83E10016B012925
:101E600003D0FFF767FB002008BD00210163016874
:101E70000C3151E8002F22F0100241E80023002B22
:101E8000F5D101680A68D20602D50A68496800914E
:101E9000818DFFF768F9E6E770B5044600680169CF
:101EA000E26821F44051114301612169A068E269AF
:101EB00008436169114308432168CA6849F20C6309
:101EC0009A430243CA6020684169A26921F44071C3
:101ED0001143416131492068884202D0304988422B
:101EE00002D1FEF763FD01E0FEF750FDE269002339
:101EF000192164253226B2F5004F626828D0A0FB74
:101F00000101930F9200FEF7C3F90146B0FBF5F013
:101F10006FF01802504301EB800006EB0010B0FB9D
:101F2000F5F000F0F002B1FBF5F002EB0012B1FBAE
:101F3000F5F06FF01803584301EB800006EB00103A
:101F4000B0FBF5F000F00F0021681044886070BD10
:101F5000A0FB010192185B41FEF79AF90146B0FB24
:101F6000F5F00201B1FBF5F06FF01803584301EBF7
:101F7000800006EBC000B0FBF5F000F0F80002EBCB
:101F80004002B1FBF5F0584301EB800006EBC000C6
:101F9000B0FBF5F000F00700D6E7000000100140AC
:101FA000001401402DE9F041984617460E460446BC
:101FB000069D27E0681C25D02DB1FEF76FFBA0EB36
:101FC0000800A8421ED920680C3050E8001F21F4F8
:101FD000D07140E80012002AF5D12068143050E892
:101FE000001F21F0010140E80012002AF5D1202055
:101FF00084F83D0084F83E00002084F83C00032073
:10200000BDE8F0812068006836EA000004D00020B6
:10201000B842CFD00020F3E70120F9E70148FFF7ED
:10202000A5B8000070030020FEE70000014A024945
:1020300000F023B89D2000088C0000200907090E3D
:10204000002804DB00F1E02080F80014704700F065
:102050000F0000F1E02080F8141D704702E008C86E
:10206000121F08C1002AFAD170477047002001E012
:1020700001C1121F002AFBD170472DE9F04116461D
:102080000F460446002503E03946B047641C6D1C2A
:1020900020780028F8D12846BDE8F08108B5022351
:1020A0008DF80000012269460248FFF745FA00203A
:1020B00008BD00002C030020EFF30580002800D0AD
:1020C00001207047FEF7F8FAFFF77EFDFFF7D2FB1D
:1020D000FFF7BCFCFFF782FCFFF750FCFFF79AFC10
:1020E000FFF7AEFAFFF78AFB00F00EF8FEE70146B5
:1020F0000020842900D0C81C704710B500B9012009
:1021000000F06CFC002010BD10B500F003FD0020B5
:1021100010BD38B543684BB1012909D10320002215
:1021200000901146012000F0FCFD38BD012901D0CE
:10213000002038BD03220021012000F0D1FD040061
:1021400004D000231A46194600F062FE204638BD2E
:1021500038B5002405460094FFF7AEFF90B16946FC
:10216000284600F005FF012801D0FF2038BD009867
:1021700088B10A494FF080500860BFF34F8FBFF31A
:102180006F8F08E000231A461946284600F040FEEB
:10219000012800D0FF24204638BD000004ED00E0F7
:1021A00038B505004FF0000000900FD00024481C07
:1021B0000ED001B10C46FFF77FFFB8B16A4600218F
:1021C000284600F023FF012816D104E0802038BD06
:1021D0004FF0FF34EFE7009880B109494FF080508D
:1021E0000860BFF34F8FBFF36F8F07E0214628468B
:1021F00000F05AFF012801D0FF2038BD002038BD73
:1022000004ED00E07FB50D4604464169B0F90800D1
:1022100081B1A16971B1FFF76AFFD4E905128DE8B8
:102220000700D4E900102B46226901F060F8039002
:1022300004B070BDFFF75BFF03A9CDE90001208A60
:102240002B4682B2D4E9001001F024F8012801D015
:102250000020EDE70398EBE72DE9F041184C0F461D
:102260000546E6682068001D00F0C6FA38B9206807
:1022700090F82C1001208840216981432161681C5D
:1022800007D137B12168BDE8F0410E48091D00F0C3
:10229000F7BA20683544B5424560216805D2A06B85
:1022A000BDE8F041091D00F0D3BA606B091D00F0D4
:1022B000CFFAA06A854200D2A562BDE8F081000095
:1022C000240000201C0500202DE9F041054600F007
:1022D000E3FA2E4CA068401CA06020682C4F10B17F
:1022E000606940B32DE02560A068012829D100264F
:1022F00006EB860007EB800000F09CFA761C072EA8
:10230000F6D323488C3000F095FA2148A03000F035
:1023100091FA1F48B43000F08DFA1D48C83000F023
:1023200089FA1B48DC3000F085FA19488C3060636C
:102330001430A06305E02068E96AC06A884200D8CA
:102340002560606A401C6062E96A01202269884059
:102350001043206101EB810007EB8000291D00F094
:102360008FFA00F0B9FA606900280CD02068E96A99
:10237000C06A884207D207494FF080500860BFF317
:102380004F8FBFF36F8FBDE8F08100002400002065
:102390004004002004ED00E030B4026C0B46002A3B
:1023A0000BD0C1681144C1608468A14201D30168A7
:1023B000C16030BC1846FDF79CBF30BC70472DE9AA
:1023C000F041856B174604460026026C82B1C7B106
:1023D000E068FDF78EFFE168206C091AE160226871
:1023E000914202D2A168081AE060022F16D017E0CD
:1023F0002068A8B9A06801F019F806460020A0607E
:102400000EE06068FDF775FF216C6068084460604D
:10241000A168884204D32068606001E005B16D1EA8
:102420006D1CA5633046BDE8F08110B5044690F8F8
:10243000510058B101280CD002280FD0502080F351
:102440001188BFF34F8FBFF36F8FFEE7206B00F053
:1024500057FA2046BDE8104000F052BA10BD000007
:1024600010484FF47051420706D0C01D0D4920F0AE
:102470000700411AC1F570510B4A00230144C2E91B
:1024800000030839183A21F0070111604B600B6016
:102490000B1AC0E9001393604FF000405360506185
:1024A000704700003005002078000020144E154CC5
:1024B000A6F1C8074FF08058DFF84C9012E000BF3B
:1024C00000F0EAF9F068C568281D00F095F9A068E9
:1024D000401EA0606068401E606000F0FDF9284664
:1024E000FFF7A3FF60680028EAD138680128F9D90E
:1024F000C9F80080BFF34F8FBFF36F8FF2E7000082
:10250000080500202400002004ED00E003460098A8
:1025100029B10260C0E90F31012100F035BC006033
:10252000F8E72DE9F0479A46DDE9098481466FF026
:102530000303206B03EB82021044089E20F0070780
:10254000780707D0502080F31188BFF34F8FBFF377
:102550006F8FFEE7002561B1002023180A5C83F825
:1025600034200A5C12B1401C1028F6D384F8435082
:1025700001E084F83450072E00D30626E662C4E951
:102580001165201D00F061F904F1180000F05DF9FB
:102590002461C6F107006462A061E56484F85050CC
:1025A00052464946384600F011F92060B8F1000F54
:1025B00001D0C8F80040BDE8F087000030B51149EF
:1025C00000E011460A688242FBD34B685C188442E3
:1025D00003D1406818444860084643681C18944278
:1025E00009D1084C183C2468A24209D052681A4408
:1025F00042600A6812680260814200D0086030BD03
:102600000460F9E77800002010B5044600F044F9B2
:10261000A06B28B15FF0000400F05EF9204610BD09
:102620000124F9E70648416B096829B1416BC96883
:10263000C9684968816270474FF0FF31FAE70000CE
:102640002400002008484068401C4FF0500080F3F0
:10265000118804D0BFF34F8FBFF36F8FFEE7BFF336
:102660004F8FBFF36F8FFEE7800000202DE9F04110
:10267000044600F011F994F9455004F1240609E0EC
:10268000606A48B1304600F063FF08B100F0D4F949
:102690006D1E6DB2002DF3DC4FF0FF3684F84560FF
:1026A00000F01AF900F0F8F894F9445004F110071A
:1026B00009E0206948B1384600F04AFF08B100F04F
:1026C000BBF96D1E6DB2002DF3DC84F84460BDE8EB
:1026D000F04100F001B900002DE9F0410546002766
:1026E00000F04EFA324E306808B9FFF7B9FE706953
:1026F00005424ED1C5B3083568070ED005F0070076
:10270000C0F108000544680707D0502080F3118805
:10271000BFF34F8FBFF36F8FFEE72DB37068854215
:1027200037D82348183001460C6801E020460C4693
:102730006168A94202D221680029F7D131688C4230
:1027400027D007682168016060680837411B10299D
:102750000FD96019420708D0502080F31188BFF3C9
:102760004F8FBFF36F8FFEE713E041606560FFF7A7
:1027700025FF61687068401A7060B268904200D2AC
:10278000B060706901430020C4E90001F068401C9A
:10279000F06000F017FF780707D0502080F3118811
:1027A000BFF34F8FBFF36F8FFEE73846BDE8F08170
:1027B000600000200449086818B10868826C521C47
:1027C00082640868704700002400002010B5031FD1
:1027D0004FF080741C601B1F21F001011960191F4C
:1027E000044B0B6014390A60091F6FF00202443871
:1027F0000A6010BD45260008D0E9013201699A60DF
:10280000D0E901235A604A68824201D182684A6055
:10281000002202610868401E0860086870470000D6
:10282000034B036003F15400086080201060704780
:102830009000002000F108014FF0FF32C0E90112C2
:10284000C160016100210160704700210161704792
:1028500030B50B685A1C02D000F1080202E0026990
:1028600004E02246546825689D42FAD953684B60BB
:1028700099608A60516008610168491C016030BD3F
:1028800042684A6093688B60936859609160086100
:102890000168491C01607047502080F31188BFF324
:1028A0004F8FBFF36F8F0A494868401C486001286A
:1028B0000CD10848006810F0FF0F07D0502080F3BB
:1028C0001188BFF34F8FBFF36F8FFEE77047000093
:1028D0008000002004ED00E00849486828B1401E4F
:1028E000486001D180F311887047502080F311882F
:1028F000BFF34F8FBFF36F8FFEE700008000002013
:1029000070B500282AD0164DA0F1080460686969E6
:10291000084207D1502080F31188BFF34F8FBFF3D7
:102920006F8FFEE722683AB1502080F31188BFF321
:102930004F8FBFF36F8FFEE78843606000F020F990
:1029400060686968084468602046FFF737FE2869B8
:10295000401C2861BDE8704000F034BE70BD00002E
:10296000600000204FF0E0200021016181610549F5
:102970004FF47A720968B1FBF2F1491E41610721F7
:10298000016170472000002010B5FDF76BFC114974
:1029900010280ED300F1E02090F8F0030A7890425E
:1029A00007D2502080F31188BFF34F8FBFF36F8F92
:1029B000FEE709480068896800F4E060884207D9AA
:1029C000502080F31188BFF34F8FBFF36F8FFEE766
:1029D00010BD0000800000200CED00E010B50200EA
:1029E00014D00F48006B38B1502080F31188BFF32A
:1029F0004F8FBFF36F8FFEE700F0C2F80021104643
:102A0000FFF72AFC00F0DEFD002807D105494FF052
:102A100080500860BFF34F8FBFF36F8F10BD000071
:102A20002400002004ED00E002490A6A0260C9683F
:102A3000416070472400002001490120C8617047AF
:102A40002400002010B50C4650B10949096818311E
:102A5000FFF7FEFE2046BDE810400121FFF7FCBB5A
:102A6000502080F31188BFF34F8FBFF36F8FFEE7C5
:102A70002400002070B5040047D0A26CA2B1606CA5
:102A8000884200D30146E06A88423ED0012A3CD108
:102A90001E4D2A6894420FD1502080F31188BFF355
:102AA0004F8FBFF36F8FFEE7502080F31188BFF385
:102AB0004F8FBFF36F8FFEE7E162A269002A02DB4E
:102AC000C1F10701A161124E00EB8000616906EBC4
:102AD0008000814219D1201DFFF78EFE012130B9FF
:102AE00094F82C002A6901FA00F082432A61E06A16
:102AF0002A6981401143296100EB800006EB8000C8
:102B0000211DBDE87040FFF7BBBE70BD2400002052
:102B10004004002010B586B00024039405AA04A93F
:102B200003A80494FFF77CFEDDE903010094CDE9DE
:102B3000011000230EA11048059A00F0D8FB0F49A0
:102B40000028C86211D0502080F31188BFF34F8F46
:102B5000BFF36F8F4FF0FF30886201204861CC6077
:102B600006B0BDE8104000F041B806B010BD00004E
:102B700049444C4500000000AD240008240000201A
:102B80000248016B491C01637047000024000020CB
:102B90001448016B11B10121C16170470021C1616D
:102BA0000169B1FA81F1C1F11F0101EB81020E4906
:102BB00051F822306BB101EB820101F108034A6840
:102BC00052684A609A4201D152684A60D1680160F5
:102BD0007047502080F31188BFF34F8FBFF36F8F82
:102BE000FEE7000024000020400400201CB5374808
:102BF0000168374A914207D1502080F31188BFF312
:102C00004F8FBFF36F8FFEE700683149491E88423E
:102C100007D1502080F31188BFF34F8FBFF36F8F20
:102C2000FEE72C4908780190FF20087008788DF89D
:102C300000009DF800009DF8002000F0F000904298
:102C400007D0502080F31188BFF34F8FBFF36F8FF1
:102C5000FEE79DF80000204C00F050002070072097
:102C6000A06005E09DF8002052008DF80020401E75
:102C70009DF800201206F5D4A060032807D050204C
:102C800080F31188BFF34F8FBFF36F8FFEE74FF4D0
:102C90004070A060019808700C482030016841F431
:102CA00070010160016841F070410160FFF75AFE58
:102CB00000206060FDF79EFA0848016841F040413D
:102CC0000160FDF783FA00201CBD000000ED00E06C
:102CD00071C20F4100E400E08000002034EF00E00A
:102CE000F8B517460E46050013D005FB06F0483030
:102CF000FFF7F2FC04000AD0002084F8460004F13B
:102D000048023B46314628460094FFF7FFFB204629
:102D1000F8BD502080F31188BFF34F8FBFF36F8F42
:102D2000FEE738B5049D18B153B1CAB181B120E0B6
:102D3000502080F31188BFF34F8FBFF36F8FFEE7F2
:102D4000502080F31188BFF34F8FBFF36F8FFEE7E2
:102D5000502080F31188BFF34F8FBFF36F8FFEE7D2
:102D600039B1502080F31188BFF34F8FBFF36F8FBD
:102D7000FEE748241C46012384F846302B46009485
:102D8000FFF7C4FB204638BD70B50D46040025D0C2
:102D9000FFF782FDD4E90F20216802FB0011A1603A
:102DA0000021A163216861600A46D4E90F01401E39
:102DB00000FB0121E16021464FF0FF3001F8440F94
:102DC000487004F110008DB1FFF734FD04F12400C8
:102DD000FFF730FDFFF780FD012070BD502080F32C
:102DE0001188BFF34F8FBFF36F8FFEE72169002972
:102DF000F0D000F0ADFB0028ECD004494FF080503B
:102E00000860BFF34F8FBFF36F8FE3E704ED00E07F
:102E10002DE9FF4782B01D468A464FF000080400A6
:102E200003D0BAF1000F08D011E0502080F31188D0
:102E3000BFF34F8FBFF36F8FFEE7206C38B1502088
:102E400080F31188BFF34F8FBFF36F8FFEE7022D22
:102E50000AD1E06B012807D0502080F31188BFF31E
:102E60004F8FBFF36F8FFEE700F06CFA3F4F4FF0CC
:102E700000094FF0805648B9049838B1502080F3CB
:102E80001188BFF34F8FBFF36F8FFEE7FFF704FD8D
:102E9000A06BE16B884207D3022D05D00498D0B116
:102EA000B8F1000F1AD01EE02A4651462046FFF71F
:102EB00086FA616A19B104F1240000F049FB20B1DF
:102EC0003E60BFF34F8FBFF36F8FFFF705FD01200B
:102ED00006B0BDE8F087FFF7FFFC22E06846FFF789
:102EE000A3FD4FF00108FFF7F7FCFFF749FEFFF7DE
:102EF000D3FC94F94400401C01D184F8449094F927
:102F00004500401C01D184F84590FFF7E5FC04A979
:102F1000684600F085F930B12046FFF7A7FB00F0C6
:102F200051FB0020D4E7FFF7B7FCA06BE16B8842B0
:102F300013D1FFF7D1FC04F110000499FFF782FDD3
:102F40002046FFF793FB00F03DFB00289ED13E603A
:102F5000BFF34F8FBFF36F8F98E7FFF7BDFC20469D
:102F6000FFF784FB00F02EFB90E7000004ED00E08B
:102F700070B50E46040009D0206C78B1502080F363
:102F80001188BFF34F8FBFF36F8FFEE7502080F3A0
:102F90001188BFF34F8FBFF36F8FFEE7206848B9EA
:102FA000A06838B1502080F31188BFF34F8FBFF372
:102FB0006F8FFEE7FFF7E8FC5020EFF3118580F3F9
:102FC0001188BFF34F8FBFF36F8FA16BE06B884207
:102FD00018D994F94500491CA163411C04D0401C38
:102FE00084F8450001200EE0606A0028FAD004F160
:102FF000240000F0ADFA0028F4D0002EF2D0012019
:103000003060EFE7002085F3118870BD2DE9F047AF
:1030100090468946040003D0B9F1000F08D011E0B2
:10302000502080F31188BFF34F8FBFF36F8FFEE7FF
:10303000206C38B1502080F31188BFF34F8FBFF35D
:103040006F8FFEE7FFF7A0FC5020EFF3118680F3AF
:103050001188BFF34F8FBFF36F8FA76BF7B194F950
:10306000445049462046FFF797F97F1EA763681C26
:1030700004D06D1C84F84450012010E02069002821
:10308000FAD004F1100000F063FA0028F4D0B8F18F
:10309000000FF1D00121C8F80010EDE7002086F301
:1030A0001188BDE8F08700002DE9F343002683B0C6
:1030B0000400354609D0206C78B1502080F3118887
:1030C000BFF34F8FBFF36F8FFEE7502080F311885F
:1030D000BFF34F8FBFF36F8FFEE700F033F9DFF8D8
:1030E0003C814FF000094FF0805748B9049838B13F
:1030F000502080F31188BFF34F8FBFF36F8FFEE72F
:10310000FFF7CAFBA06BC8B1401EA063206810B9CE
:10311000FFF750FBA060206950B104F1100000F0EF
:1031200017FA28B1C8F80070BFF34F8FBFF36F8F45
:10313000FFF7D2FB012005B0BDE8F083049808B189
:1031400066B10FE03DB1502080F31188BFF34F8F7F
:10315000BFF36F8FFEE7FFF7BFFB5DE06846FFF749
:1031600063FC0126FFF7B8FBFFF70AFDFFF794FBAE
:1031700094F94400401C01D184F8449094F945002E
:10318000401C01D184F84590FFF7A6FB04A96846CE
:1031900000F046F80028204612D0FFF767FA00F04A
:1031A00011FA2046FFF730FA0028A9D09DB3FFF7A7
:1031B00073FB606A50B3206B0068C0F1070126E022
:1031C000FFF722FAE0B1206838B9FFF765FBA06885
:1031D00000F078F90546FFF77FFB04F1240004991D
:1031E000FFF730FC2046FFF741FA00F0EBF900282A
:1031F00086D1C8F80070BFF34F8FBFF36F8F7FE7A2
:103200002046FFF733FA00F0DDF979E70021A068E6
:10321000FFF730FC9FE7FFE700208CE704ED00E0BC
:103220002DE9F0410C46050011D0C4B1FFF734FB85
:10323000174BDA686E682068911B471C17D02F68FF
:103240001B6A9F4219D0964217D8012410E05020E3
:1032500080F31188BFF34F8FBFF36F8FFEE75020CD
:1032600080F31188BFF34F8FBFF36F8FFEE7002409
:10327000FFF732FB2046BDE8F081884205D9401AAD
:1032800020602846FFF7D0FBF1E700202060DCE754
:10329000240000202DE9FF5F8346DDE90E87994673
:1032A00016468A469000FFF717FA05001CD05420F6
:1032B000FFF712FA040014D00020256384F85100AF
:1032C000CDE90240CDE900874B463246514658468B
:1032D000FFF727F92046FEF7F7FF012004B0BDE80D
:1032E000F09F2846FFF70CFB4FF0FF30F6E7F0B5F4
:1032F00085B0DDE90B640A9DA6B1DCB154270097C7
:103300002663022684F85160002604AFCDE9024608
:10331000CDE90057FFF705F92046FEF7D5FF0498E1
:1033200005B0F0BD502080F31188BFF34F8FBFF37D
:103330006F8FFEE7502080F31188BFF34F8FBFF3EC
:103340006F8FFEE70548416919B1006B18B1002085
:1033500070470120704702207047000024000020C1
:103360002DE9F0412F4C0026206B28B1A069401CAC
:10337000A0613046BDE8F081E5686D1CE56013D1C1
:10338000606B006838B1502080F31188BFF34F8F15
:10339000BFF36F8FFEE7606BA16B6163A063206A70
:1033A000401C2062FFF73EF9A06ADFF87C8085426E
:1033B00009D3606B0068A0B1606BC068C7687868AB
:1033C000854211D2A0622068C06A00EB800158F8E3
:1033D0002100012800D90126E0690028C9D0012672
:1033E000C7E74FF0FF30EDE7381DFFF705FAB86A81
:1033F00018B107F11800FFF7FFF9F96A01202269F7
:1034000088401043206101EB810108EB8100391DE8
:10341000FFF736FAF86A2168C96A8842C9D30126DB
:10342000C7E70000240000204004002070B504001D
:103430004FF0000140D0214D2868844207D0502031
:1034400080F31188BFF34F8FBFF36F8FFEE7A06C3F
:1034500038B1401EA064636CE26A9A422CD040B13D
:103460002AE0502080F31188BFF34F8FBFF36F8F96
:10347000FEE7201DFFF7C0F9114A012150B9E06AAB
:1034800000EB800352F8233023B92B6901FA00F0D6
:1034900083432B61606CE062C0F10700A061E06AC9
:1034A0002B6981401943296100EB800002EB800009
:1034B000211DFFF7E5F90121084670BD2400002019
:1034C0004004002070B504004FF0000034D01E4DC1
:1034D000E16A2A68D26A91422FD2A069002804DBEF
:1034E0002868C06AC0F10700A061184E01EB810195
:1034F000606906EB810188421AD1201DFFF77CF933
:10350000012130B994F82C002A6901FA00F08243B5
:103510002A612868C06AE0622A69814011432961F2
:1035200000EB800006EB8000211DFFF7A9F902E007
:103530002868C06AE062012070BD616C2A68D26AA6
:103540009142F8D370BD0000240000204004002008
:103550002DE9F041C068C468ACB104F11800074619
:10356000FFF74AF9154D286B0126A0B139461448DA
:10357000FFF786F9E06A2968C96A88421CD90120E8
:10358000EE61BDE8F081502080F31188BFF34F8FCA
:10359000BFF36F8FFEE7201DFFF72EF9E16A2A695E
:1035A00006FA01F01043286101EB81000449B439A7
:1035B00001EB8000211DDBE70020E2E72400002072
:1035C000F40400202DE9F0472C4D00242746286BF9
:1035D00038B1FFF761F9286B401E2863286B40B1B2
:1035E00046E0502080F31188BFF34F8FBFF36F8FF9
:1035F000FEE7A968224E0120D1B3A6F1B4098046A6
:103600003068E8B1F068C46804F11800FFF7F4F816
:10361000201DFFF7F1F8E06A2A6908FA00F111436A
:10362000296100EB800109EB8100211DFFF728F9DA
:10363000E06A2968C96A8842E2D3C5F81C80DFE7DE
:103640000CB1FEF7EFFFAC6944B14646FFF788FEC8
:1036500000B1EE61641EF9D10020A861E86938B1BB
:103660000849012738070860BFF34F8FBFF36F8FFA
:10367000FFF732F93846BDE8F0870000240000204B
:10368000F404002004ED00E034370008891A000833
:1036900000000000000000008000000000000000AA
:1036A0000000000010370008911A0008FEFF00001B
:1036B000000000008000000000000000000000008A
:1036C0001C3700080D1B0008FEFF00000000000072
:1036D0008000000000000000000000002837000803
:1036E000951B0008FEFF00000000000080000000A5
:1036F00000000000000000000000000000000000CA
:103700000102030406070809000000000102030487
:103710006D795461736B3032000000006D79546133
:10372000736B3033000000006D795461736B30347B
:103730000000000064656661756C745461736B0011
:103740006037000800000020900000005C200008A6
:10375000F037000890000020A04400006C20000812
:103760000000000000000000000000000000000059
:103770000000000001000000100000000000000038
:103780000024F40000000000000000000000000021
:103790000000000000000000000000000000000029
:1037A0000000000000000000000000000000000019
:1037B0000000000000000000000000000000000009
:1037C00000000000000000000000000000000000F9
:1037D00000000000000000000000000000000000E9
:1037E00000000000AAAAAAAA000000000000000031
:040000050800019559
:00000001FF
