:020000040800F2
:10000000A89C0120610200084D2A00085D24000818
:100010002D2A0008B90F000815750008000000001F
:10002000000000000000000000000000FF48000881
:10003000ED1E0008000000000D2E0008BD4900085C
:100040007B0200087B0200087B0200087B0200089C
:100050007B0200087B0200087B0200087B0200088C
:10006000752000087B0200087B0200087B02000864
:100070007B0200087B020008611B00088D1B000842
:100080007B0200087B020008370C00087B02000896
:10009000D90F00087B0200087B0200087B020008E1
:1000A0007B0200087B0200087B0200087B0200083C
:1000B000F54A0008F94A00087B0200087B020008A4
:1000C0007B0200087B0200087B0200087B0200081C
:1000D0007B020008714D0008754D0008794D00083D
:1000E000412000087B0200087B0200087B02000818
:1000F0007B0200087B0200087B0200087B020008EC
:100100007B02000859350008FD4A00087B02000800
:100110007B0200087B0200087B020008014B0008FC
:100120007B020008B91B00087B020008E51B0008E1
:100130007B0200087B0200087B0200087B020008AB
:100140007B0200087B0200087B020008F92A0008F5
:100150007B0200087B0200087B0200087B0200088B
:100160007B0200087B0200087B0200087B0200087B
:100170007B0200087B020008911A00087B0200083D
:100180007B0200087B020008DFF810D000F0C8FCFA
:10019000004800473D310108AFF30080A89C0120D2
:1001A0002C4B19680868B0E8F04F80F30988BFF35A
:1001B0006F8F4FF0000080F311887047000000003F
:1001C00008480068006880F308884FF0000080F35A
:1001D000148862B661B6BFF34F8FBFF36F8F00DF35
:1001E00000BF00BF08ED00E0DFF80C00016841F43B
:1001F00070010160704700BF88ED00E0EFF30980F7
:10020000BFF36F8F134B1A681EF0100F08BF20ED5D
:10021000108A20E9F04F106009B44FF0500080F3CD
:100220001188BFF34F8FBFF36F8F1BF03BFD4FF073
:10023000000080F3118809BC19680868B0E8F04F25
:100240001EF0100F08BFB0EC108A80F30988BFF3CE
:100250006F8F7047FC050020EFF3058070470000AA
:100260000648804706480047FEE7FEE7FEE7FEE750
:10027000FEE7FEE7FEE7FEE7FEE7FEE7CD49000802
:10028000890100082DE9F05F0546002092469B4653
:1002900088460646814640241BE02846414647469C
:1002A000224600F023FA53465A46C01A914110D311
:1002B00011461846224600F00AFA2D1A67EB01088B
:1002C0004F4622460120002100F001FA17EB0009F9
:1002D0004E41201EA4F10104DFDC484631462A4687
:1002E0004346BDE8F09F2DE9FE43994615468846F2
:1002F000074601AC022942D3002D40D000200290D5
:10030000A8F101004FF0FF36009022E000FB0572DB
:1003100001FB057011464A469047002805DC54F859
:100320002600304444F8260013E060682A4600FBAB
:10033000057154F8040C00FB057007E00B7890F889
:1003400000C001F801CB00F8013B521E002AF5D194
:10035000764254F8040C61688842D7DC4B462A4642
:100360003846FFF7C0FF54F8040C4B46A8EB0001D9
:10037000401C00FB05702A46491EFFF7B4FFBDE88C
:10038000FE8310B5431A934209D28318881803E0FC
:1003900010F8011D03F8011D521EF9D210BD40EAEC
:1003A00001039B0703D009E008C9121F08C0042AF3
:1003B000FAD203E011F8013B00F8013B521EF9D2DA
:1003C00010BDD2B201E000F8012B491EFBD27047EC
:1003D0000022F6E710B513460A4604461946FFF711
:1003E000F0FF204610BD421E12F8013F002BFBD14A
:1003F00011F8013B02F8013B002BF9D1704710B511
:10040000044604E00B7800F8013B03B1491C521E7E
:10041000F8D2204610BDCAB2401E10F8011F8A4211
:1004200002D00029F9D100207047421C10F8011BAE
:100430000029FBD1801A704710B5002200E0521C41
:10044000835C8C5CA34201D1002BF8D1D8B2E1B21D
:10045000401A10BD034611F8012B00F8012B002AA9
:10046000F9D11846704730B505460020034600E034
:100470005B1C934205D2EC5CC85C201A01D1002CB5
:10048000F6D130BD2DE9F05F93460F468046044615
:10049000002607F077F8D0F80090824614F8015B48
:1004A0002DB100F045F90068405DC007F6D12B2D55
:1004B00002D02D2D1AD0641E0021CAF800105A4611
:1004C0003946204600F038F9014627B13868A04285
:1004D00001D1C7F80080DAF80000022809D0CAF874
:1004E0000090700505D54842BDE8F09F46F480664F
:1004F000E2E70846F8E72DE9FE4F804681EA03006F
:10050000C00F0C46009021F0004123F00045B8EBED
:100510000200A94105D24046214690461C460B46A2
:10052000024623F00040104347D0270DC7F30A00CE
:10053000C3F30A510290401A019040286BDAC3F3CA
:10054000130040F4801B0098924620B10023D2EBA8
:10055000030A63EB0B0B01985946C0F14002504669
:1005600000F0B5F806460D4650465946019A00F08F
:10057000CDF810EB08006141002487EA115284EAAB
:10058000E7731A4340D0009A62B3019A012A4FEAF6
:10059000075215DC001B61EB02014FF0004202EA3A
:1005A0000752CDE90042001C41F5801132462B462E
:1005B00000F057F903B0BDE8F08F40462146F9E757
:1005C000001B61EB0201001C41F5801300185B4128
:1005D0002018A2F5001747EB030140EAD570B619C1
:1005E0006D4111E06D084FEA360645EAC0754FEAE5
:1005F0000752001B61EB0201001C41F58011490804
:100600004FEA30000019514132462B4603B0BDE895
:10061000F04F00F017B90098012240000023D0EB02
:10062000020263EBE073009821464FEAE074B8EBF6
:10063000000061EB0401E9E783F000435BE781F030
:10064000004158E700F0004230F000400AD0C10DF0
:1006500001F56071C0F3160042EA0151C20840077B
:100660001143704700200146704701F0004330B449
:1006700021F0004150EA010206D00A0DA2F5607295
:10068000C1F31301002A02DC30BC00207047440F84
:1006900044EAC104C100E01830BC00EBC25000F0D5
:1006A0009AB830B50B46014600202022012409E00B
:1006B00021FA02F59D4205D303FA02F5491B04FA1B
:1006C00002F52844151EA2F10102F1DC30BD202AFA
:1006D00004DB203A00FA02F1002070479140C2F199
:1006E000200320FA03F3194390407047202A04DBCB
:1006F000203A21FA02F00021704721FA02F3D0409B
:10070000C2F120029140084319467047202A06DBB7
:10071000CB17203A41FA02F043EAE07306E041FACF
:1007200002F3D040C2F120029140084319467047BD
:1007300000487047A0AE04082DE9F05F82460078BB
:10074000002715468B460AF10104B946302801D02E
:100750009DB113E014F8010B0127782803D0582825
:1007600001D045B10AE00DB1102D07D100271025A9
:1007700014F8010B02E0082500E00A250026B04627
:100780000EE005FB080005FB06F1012701EB104612
:100790001FFA80F8B6F5803F00D3B94614F8010B74
:1007A000294600F0CFF90028EBDABBF1000F05D0A5
:1007B0000FB1641E00E05446CBF80040B9F1000FC1
:1007C00006D006F0DFFE02210160C81EBDE8F09FE2
:1007D00048EA0640FAE70029A8BF7047401C4900D4
:1007E00008BF20F00100704710B4B0FA80FC00FA96
:1007F0000CF050EA010404BF10BC704749B1CCF1C1
:10080000200421FA04F411FA0CF118BF012121434C
:100810000843A3EB0C01CB1D4FEA00614FEA102007
:1008200042BF002010BC704700EBC35010440029A9
:10083000A4BF10BC7047401C490008BF20F0010055
:1008400010BC704710B5141E73F1000408DA401C88
:1008500041F1000192185B411A4301D120F00100DF
:1008600010BD2DE9F04D92469B4611B1B1FA81F2CF
:1008700002E0B0FA80F220329046FFF728FF0446EB
:100880000F4640EA0A0041EA0B0153465A46084324
:1008900013D0114653EA010019D0C8F14002504666
:1008A000FFF724FF05460E46504659464246FFF7DD
:1008B0000EFF084305D0012004E020463946BDE87C
:1008C000F08D0020054346EAE0762C4337430A9832
:1008D0006305E40AA0EB08000022FD0A44EA47543D
:1008E0000A3002D500200146E9E7010510196941E7
:1008F000DDE9084500196941BDE8F04DA2E72DE9A1
:10090000FE4F81EA030404F0004421F0004100940A
:100910004FF0000B23F0004350EA01045ED052EA8E
:1009200003045BD0C3F30A54C1F30A552C44A4F268
:10093000F3340194A0FB0254C1F3130141F480117C
:10094000C3F3130343F4801301FB024400FB034E83
:10095000840A970A44EA815447EA8357A4FB07684C
:1009600002958D0A05FB07854FEA932C04FB0C5476
:100970002705029D4FEA065847EA1637B5EB0805EA
:100980006EEB070C870E920E47EA811742EA83123C
:10099000A7FB0201B6EB0B0164EB00042B0D43EA4D
:1009A0000C335E1844EB1C50DA465146E7FB02015B
:1009B000C5F313044FEA0B3343EA14534FEA0432EE
:1009C000019C43EA0603A4F10C040294009CCDE9C7
:1009D00000B4FFF746FF03B0BDE8F08F00200146EA
:1009E000F9E72DE9F04D81EA030404F0004B21F012
:1009F000004514464FF0000A23F0004150EA05027A
:100A000020D054EA01021DD0C5F30A570246C5F3AF
:100A10001303C1F31300C1F30A5640F4801543F4E5
:100A20008013A7EB0608101BD64608F2FD3873EBBF
:100A3000050002D308F1010801E092185B41B8F10A
:100A4000000F03DA00200146BDE8F08D00204FF4CE
:100A50008011064684460EE0171B73EB050705D38D
:100A6000121B63EB050306434CEA010C49084FEAED
:100A7000300092185B4150EA0107EDD152EA0300C1
:100A800012D082EA040083EA0501084305D0101B56
:100A9000AB4106D20122002306E000224FF00043C2
:100AA00002E06FF0010253101AEB06004CEB085104
:100AB00010EB0A0041EB0B01BDE8F04DFFF7C2BEA1
:100AC000C1F30A52C1F3130140F2FF3341F4801124
:100AD0009A4202DA00200146704740F233439A42BC
:100AE000A2F2334202DC5242FFF700BEFFF7EFBD35
:100AF00030B5041E71F1000404DB4FF000444042A5
:100B000064EB0101141E73F1000405DB1C464FF079
:100B10000043524263EB0403994208BF904230BD48
:100B2000064C074D06E0E06840F0010394E807003A
:100B300098471034AC42F6D3FFF72AFBB0B3040851
:100B4000F0B304083A2800D2303820F02002412ABD
:100B500001D3A2F13700884201D34FF0FF30704734
:100B600070B58C1810F8015B15F0070301D110F86F
:100B7000013B2A1106D110F8012B03E010F8016B9C
:100B800001F8016B5B1EF9D12B0705D40023521E1F
:100B90000DD401F8013BFAE710F8013BCB1A921C87
:100BA00003E013F8015B01F8015B521EF9D5A14285
:100BB000D8D3002070BDC94301607047090AC943FA
:100BC00001607047002904D0816841F00101816013
:100BD0007047816821F001018160704710B5074CB2
:100BE000226807490A40D0E900131943D0E90230CE
:100BF000034319431143216010BD00000423014049
:100C0000E030FCFFC06C80B27047024600201268E2
:100C10000A4200D00120704730B5024600200B0A7E
:100C2000546801258D402C401168194202D0002CD7
:100C300000D0012030BD12F0E9BA000030B54268A2
:100C40000F4B1A400C790B6842EA042213434360AD
:100C500083680C4A1340D1E9034222434D798C68E2
:100C600044EA450422431A438260C26A22F47002B5
:100C7000097D491EC9B242EA0151C16230BD00007E
:100C8000FFFEFFFCFDF7FFC070B5072609290AD952
:100C9000C568A1F10A0404EB4404A640B543A3408F
:100CA0001D43C56007E0056901EB4104A640B5435B
:100CB000A3401D4305611F23072A09D2446B521E1E
:100CC00002EB820293409C4391400C43446370BD0D
:100CD0000D2A09D2046BD21F02EB820293409C437F
:100CE00091400C43046370BDC46A0D3A02EB82026A
:100CF00093409C4391400C43C46270BD816841F0B5
:100D000080418160704700000849002806D0D1F872
:100D1000040340F40000C1F804037047D1F8040351
:100D200020F40000C1F804037047000000200140D7
:100D300010B5074C2060084600F00CF82068002829
:100D4000FCD1BDE8104000214FF0804003F0ECBE24
:100D5000A80400203EB504464FF0804500212846F7
:100D600003F0E2FE00220121284603F031FF022CAD
:100D700002D0012C03D005E00B20019002E042F6E6
:100D8000DF6001900520ADF800000020ADF80800FC
:100D9000ADF802006946284603F09EFF012128466F
:100DA00003F0BFFE0121284603F0ACFE01221146EC
:100DB000284603F00DFF0121284603F0B5FE3EBD95
:100DC00070B586B004460D4616460121084602F06D
:100DD0002DF80223ADF808300023ADF80A30ADF845
:100DE0000C40ADF80E50ADF81060ADF81230ADF813
:100DF000143002A800F06AFE0121084600F056FEF9
:100E00004E208DF8040001208DF805008DF80600B5
:100E10008DF8070001A801F027FE06B070BD0000A4
:100E20002DE9F04190B00746884615460121880516
:100E300001F0EEFF264E304600F00EFF4FF000703E
:100E40000190244802900397002404940595069489
:100E5000012D3BD0301507904FF480500890400092
:100E6000099040110A9040020B9004200C9003203E
:100E70000D900E940F9401A9304601F00DF8B8F1D1
:100E8000000F20D000223946304600F087FF4FF493
:100E900000224146304600F081FF0121304600F03B
:100EA00071FF01221021304600F0DCFF39208DF85F
:100EB000000001208DF801008DF802408DF803003C
:100EC000684601F0D1FD10B0BDE8F0810794C3E79A
:100ED00028640240280005502DE9FC41012117201B
:100EE00001F096FF304C0D220421204601F082FAD9
:100EF0000D220621204601F07DFA0D22092120460F
:100F000001F078FA294D0D220621284601F072FAE7
:100F10000D220721284601F06DFA254E0D220721EA
:100F2000304601F067FA234F0D220021384601F0C8
:100F300061FA0D220121384601F05CFA0D220421EC
:100F4000384601F057FA0D220521384601F052FAD1
:100F50000D220621384601F04DFA4FF4147100912C
:100F600002218DF8041003218DF8051000218DF861
:100F7000061001208DF807006946204601F0FCF9B3
:100F8000C02000906946284601F0F6F980200090C4
:100F90006946304601F0F0F9732000906946384602
:100FA00001F0EAF9BDE8FC810000024000040240C3
:100FB000000802400010024002A101201AF098FF30
:100FC000FEE700004275734661756C745F48616EA0
:100FD000646C65720D0A000012F0B0B910B500EB38
:100FE0000113D3F8B04104F004041472002C2CD087
:100FF000D3F8B041E408546003F5D8731C6804F0DA
:10100000020454725C6804F00F0494725C68240A51
:10101000D4749C68D4729C68240A14739C68240C51
:1010200054739C68240E9473DC68D473DC68240ABF
:101030001474DC68240C5474DB681B0E937449B17F
:10104000016941F02001016110BDD3F8B041640D88
:101050001460D1E7C16841F02001C16010BD70B5D6
:1010600000254FF4803400E0641E24B1802002F09B
:101070004DFA0028F8D02CB140F2FF5002F004FAEB
:10108000284670BD032070BD70B5054600243B495D
:10109000086800E0086810F0450FFBD0410705D54F
:1010A0000324042002F0F0F9204670BDC00705D0EB
:1010B0000124012002F0E8F9204670BD02F020FA78
:1010C000A84201D0102070BD40F2FF5002F0DCF9C0
:1010D000002002F037FA2A49084201D1204670BDAB
:1010E000002801DA1C2070BD410001D5092070BD27
:1010F000810001D50A2070BDC10001D50B2070BD53
:10110000010101D50C2070BD410101D50D2070BD3C
:10111000C10101D50E2070BD010201D50F2070BDA7
:10112000410201D5102070BD810201D5112070BD92
:10113000C10201D5122070BD010301D5132070BD7D
:10114000410301D5142070BD810301D5152070BD68
:10115000C10301D5162070BD010401D5172070BD53
:10116000410401D5182070BD810401D5192070BD3E
:10117000000701D51A2070BD204670BD342C0140F7
:1011800008E0FFFD10B500240E4A116800E0116868
:1011900011F0450FFBD0480705D50324042002F0C9
:1011A00073F9204610BDC80705D00124012002F0C4
:1011B0006BF9204610BD40F2FF5002F065F9204661
:1011C00010BD0000342C014010B500240A4A1168FB
:1011D00000E0116811F0450FFBD0480705D5032446
:1011E000042002F051F9204610BD40F2FF5002F0F9
:1011F0004BF9204610BD0000342C014070B5064666
:101200000C4600251C4A106800E0106810F0450FDD
:10121000FBD0410705D50324042002F035F9204610
:1012200070BDC00705D00124012002F02DF9204631
:1012300070BD02F065F9B04201D0102070BD40F2DF
:10124000FF5002F021F9002002F07CF910F4604F09
:1012500003D0810405D5132070BD000C20802846E2
:1012600070BD410401D5102070BD000401D50F20D0
:1012700070BD284670BD0000342C014010B5002020
:101280004FF480310D4B1A6801E0491E1A6812F0C4
:10129000450F01D10029F8D109B1510705D5032423
:1012A000042002F0F1F8204610BD5106FCD50024C0
:1012B000402002F0E9F8204610BD0000342C014027
:1012C0000122064B8240002903D0186810431860A1
:1012D0007047186890431860704700000074004021
:1012E00030B5084C236840F6FE7282409343D1E942
:1012F00000252A43D1E902510D432A4382401A4373
:10130000226030BD0074004008B5034A1044143018
:1013100000900098016008BD0074004010B50A46B6
:10132000110602F07F0306D503EB830100EBC10138
:1013300001F58E7105E002EB820100EBC10101F5C0
:101340005D7100248C700B70D2094A7004F0F6FEB7
:10135000002010BD70B50D4605F07F0404EB84013C
:101360002E0600EBC10102D501F58E7101E001F5F9
:101370005D710C70ED094D708A60CB7005B1CC8049
:10138000022B01D100220A7104F0AAFE002070BDD8
:1013900010B501F07F0404EB840100EBC10101F5FD
:1013A0005D71CA604B6100238B614B700C70C37818
:1013B000012B00D10A610A781AB104F0FDFE002069
:1013C00010BD04F003FEFAE7002261F30A1200697F
:1013D000016811430160704710B50A46110602F01A
:1013E0007F0306D503EB830100EBC10101F58E718C
:1013F00005E002EB820100EBC10101F55D71012402
:101400008C700B70D2094A7004F0B6FE002010BD3B
:1014100070B501F07F0404EB840100EBC10101F51C
:101420008E7101254D700C70CA600A6100228A61BC
:101430004B61002C03D004F0BFFE002070BD04F00F
:10144000C5FDFAE770B586B00646304604F095FD56
:1014500001A801F045FD029DF068C16821F47054B7
:101460000594C460304604F07DFF01460020032946
:101470000ED00120B0704020B0803E483E49284444
:1014800088420FD224F4705000F56050059066E059
:10149000B0704FF40070B08024F4705000F510501C
:1014A00005905CE0354836492844884205D224F44A
:1014B000705000F55050059051E0324832492844B0
:1014C000884205D224F4705000F54050059046E063
:1014D0002E482F492844884205D224F4705000F544
:1014E000305005903BE02B482B492844884205D2D8
:1014F00024F4705000F52050059030E0274828492A
:101500002844884205D224F4705000F5105005900C
:1015100025E0244824492844884205D224F4705008
:1015200000F5005005901AE02048214928448842DF
:1015300005D224F4705000F5E05005900FE01D48EE
:101540001D492844884205D224F4705000F5C0504B
:10155000059004E024F4705000F5A0500590F16867
:101560000598C8604FF40050F168486106B001204A
:1015700070BD0000401E1BFF40420F0000DC0BFF4F
:10158000E0C810002013FBFE20D61300003DE7FE4C
:10159000006A180000D3CEFE40771B00C05BB3FE8C
:1015A000C091210000CA91FE40AC2700C01D6AFE18
:1015B00040E13300803C36FEE09C4100F8B5054632
:1015C000002400200090284604F0E3FF064652E085
:1015D000F0074ED0E1B2284600F0CEF90090C007E7
:1015E0001CD0012101FA04F22869436B9343436341
:1015F000009105EB8400806981602148E1B20068B8
:10160000426828469047E878012807D134B995F810
:101610001101042802D1284604F04CFD009800076F
:1016200005D50820009005EB840189698860009841
:10163000C00605D51020009005EB840189698860FB
:101640000098400605D54020009005EB840189698B
:1016500088600098800705D50220009005EB840182
:10166000896988600098000603D52146284600F065
:1016700091F9641C7608002EAAD10120F8BD000063
:10168000080500202DE9FC410546002400200190BA
:10169000284604F084FF0646274F47E0F00743D072
:1016A000E1B2284604F081FF0190C00726D0012155
:1016B000019105EB8400426D9160E97801290DD11B
:1016C000406D0069009004EB840105EBC101C0F39B
:1016D0001200D1F87C23101AC1F88C033868E1B2EB
:1016E000026828469047E878012807D134B995F870
:1016F0001101052802D1284604F0DCFC019880077E
:1017000005D50220019005EB8401496D88600198A0
:10171000000709D538688168284688470820019065
:1017200005EB8401496D8860641C7608002EB5D1F4
:101730000120BDE8FC8100000805002038B5044602
:10174000A07A002808D0D4F80C01016821F0020129
:1017500021F00101009101602069416821F001013F
:101760004160054800688169204688474FF0004085
:10177000E1684861012038BD080500207CB50546B8
:1017800010200190E868816921F010018161E8680A
:10179000006A009000F00F0101EB810105EBC1042C
:1017A00004F55D740099C1F34341072923D2DFE8B2
:1017B00001F0222204222222160047F6F07108428C
:1017C00019D0C0F30A1632462846E16804F0F8FE44
:1017D000E0683044E060A0693044A0610BE008227A
:1017E00005F2CC51284604F0EBFE0099A069C1F344
:1017F0000A110844A061E868816941F01001816123
:1018000001207CBD10B50446044920460968C9681A
:1018100088470821E0684161012010BD08050020CB
:101820001FB504460020009094F81201009017485C
:1018300000684169204688472069806801904FF41C
:1018400000610391E2685161A17AE1B1C0071AD049
:1018500094F81501012816D19DF80000032812D133
:10186000D4F80C01016841F00101016003200290ED
:10187000D4F80C01016841F00301016004480168DB
:1018800041F00601016004B0012010BD08050020F0
:1018900010ED00E070B586B004460025059504956E
:1018A000039502950095012601962069416821F073
:1018B000010141600021204604F032FD0020FF229A
:1018C00006E004EB80018B699A60496D8A60401CD8
:1018D00061788142F5D821694FF0FF308861ADF819
:1018E0001460ADF8166021690598C86145F00800DC
:1018F00040F0010040F002002169486145F001001C
:1019000040F0080040F00200216908612069016888
:1019100021F4FE610160204604F0CCFB4FF48050BE
:10192000E16848610348006801692046884706B0BD
:10193000012070BD0805002010B504460549204669
:101940000968C96988474FF48011E0684161012046
:1019500010BD00000805002010B5044605492046CA
:101960000968096A88474FF40011E0684161012065
:1019700010BD00000805002002691369526BCA40BF
:1019800002F0010243EAC21200EB81008069806824
:10199000104070472DE9F84306460F46002000909E
:1019A00007EB870006EBC00404F58E74D4E905014B
:1019B000401AA168814200D20846C01C4FEA900933
:1019C00006EB8708D8F818008069009021E0D51A46
:1019D000A268AA4200D21546E81C4FEA9009ABB2B1
:1019E000FAB23046E16805F0DFFCE0682844E060C8
:1019F000A0692844A061D8F818108969009161692C
:101A0000814206D12078012181403069426B8A43AE
:101A10004263009880B2484505D9D4E90523934232
:101A200001D2002AD3D10120BDE8F883064900285D
:101A300004D0086840F0010008607047086820F092
:101A4000010008607047000000000550014948612E
:101A500070470000000005500649002804D00868BF
:101A600040F4804008607047086820F480400860B7
:101A70007047000000000550024600200349096934
:101A80001140002900D001207047000000000550DF
:101A900010B50120FFF7F0FF012805D1FFF7D6FFB1
:101AA000BDE8104011F0B0BC10BD0000064A00298E
:101AB00003D0D1680143D1607047D168C04380B280
:101AC0000140D160704700000000055030B50D495D
:101AD0000A6844F201039A430A600A6840F6F27306
:101AE0009A4303884488C588234384882C4323432E
:101AF00004892343448980892343034313430B60B0
:101B000030BD0000000005501CB50121102001F07F
:101B10007FF90C20009002208DF8050001208DF83F
:101B2000040000218DF806108DF807000B4C694663
:101B3000204600F021FC0421204600F075FC0A201C
:101B400000F0E2F90821204600F06EFC0A2000F0C7
:101B5000DBF90821204600F069FC1CBD00100240A2
:101B600070B5084C084D2146284600F051F901286F
:101B700007D12146284600F04DF8BDE8704012F02C
:101B8000B7B970BD008000185860024070B5084CAD
:101B9000084D2146284600F03BF9012807D121468F
:101BA000284600F037F8BDE8704012F0CBB870BDA1
:101BB000208000207060024070B5084C084D21461E
:101BC000284600F00BF9012807D12146284600F0ED
:101BD0000BF8BDE8704011F003BC70BD00080010A8
:101BE0002864024002F048BA074A904201D20748EE
:101BF00001E005481038064A8B0001EA020101D5D0
:101C0000C16070478160704710640240006002400C
:101C10007D0F7D0F074A904201D2074801E0054839
:101C20001038064A8B0001EA020101D5C1607047F5
:101C30008160704710640240006002407D0F7D0F9C
:101C4000002904D0016841F001010160704701687A
:101C500021F00101016070472DE9F043016821F096
:101C6000010101600021016041608160C16001618A
:101C7000212141613E493E4A10394FF03D089042D2
:101C800003D1C1F80880BDE8F083394A4FF4746588
:101C90001832904201D18D60F5E7354A4FF4741641
:101CA0003032904201D18E60EDE7314A4FF07467D7
:101CB0004832904201D18F60E5E72D4B2D4A6033C9
:101CC000984201D1CA60DEE7294C2B4B7834A04200
:101CD00001D1CB60D7E7DFF898C0284C0CF1900C0D
:101CE000604501D1CC60CEE7DFF884904FF03D5CD9
:101CF00009F1A809484502D1C1F80CC0C3E7204941
:101D0000DFF87C900839484502D1C1F80080BAE775
:101D1000DFF86C8008F11808404501D10D60B2E78A
:101D2000174D3035A84201D10E60ACE7144D48354F
:101D3000A84201D10F60A6E7114D11496035091F76
:101D4000A84201D10A609EE70D4A7832904201D143
:101D50000B6098E70A4A9032904201D10C6092E7FA
:101D6000074AA83290428ED1C1F800C08BE700002C
:101D7000106002403D000020400F002000003D2088
:101D800010640240002904D0016841F48021016000
:101D90007047016821F4802101607047002A04D057
:101DA000026842F40022026003E0026822F400228A
:101DB000026001617047002904D0016841F02001F0
:101DC00001607047016821F0200101607047014601
:101DD00000200968C90700D0012070470246002092
:101DE000084B9A4201D2084A01E0064A103A8B0099
:101DF00001D5526800E01268044B1A400A4200D034
:101E00000120704710640240006002407D0F7D0F8A
:101E100030B500240F4A904201D20F4A01E00D4A2A
:101E2000103A0E4B194205D01E2303EAD125036850
:101E30002B4002E0406900F08003880001D5506823
:101E400000E01068064A1040084201D003B10124A6
:101E5000204630BD10640240006002403C0F3C0F41
:101E60007D0F7D0F0B0609D522B1436943F0800336
:101E7000436103E0436923F080034361802905D077
:101E800001F01E011AB102680A430260704702683D
:101E90008A4302607047000030B50368124A13405D
:101EA000CC680A682243D1E905452C432243CC691A
:101EB00022430C6A22434C6A22438C6A22434C6BB5
:101EC00022438C6B22431A430260426922F00703CB
:101ED000D1E90B2422431A4342610A6942604A68ED
:101EE00082608968C16030BD3F801CF001A1012083
:101EF00019F0FEBF44656275674D6F6E5F48616E95
:101F0000646C65720D0A000003490A681044C860D9
:101F10000A689042FCD870470000002070B5064661
:101F20000D46322130460EF0DBFA0024012229460C
:101F300030460EF0E6FA6D1C641CE4B21E2CF5D39C
:101F400070BD00001B4A506803681146002B896869
:101F50000DDB0368DB050AD58B685B1C8B608B6827
:101F6000012B00D108605068486001207047036869
:101F7000002B0EDB03689B050BD50368DB0508D43B
:101F8000086000204860012088605068C068506088
:101F90000DE00368002B0ADB03689B0507D4036888
:101FA000DB0504D48B685B1C8B60C068506000202C
:101FB00070470000400500201EB500210191094B2B
:101FC00059680A68C2F30D42121F00929A68146899
:101FD0000294126892680192C96859609DE80E00E7
:101FE0000EC01EBD4005002018B500220092124A06
:101FF000136903F01C044FF6FF7303EAC023234365
:102000004FF4F86000EA8110184320F0020040F01D
:102010000100106109490098401C00901069C00738
:1020200002D000988842F6D30098884201D100205F
:1020300018BD506980B218BD00800240FFFF040047
:1020400010B54FF48044204600F02EF828B100204F
:1020500000F034F8204600F021F84FF48064204668
:1020600000F022F8002804D02046BDE8104000F01F
:1020700015B810BD10B5042000F016F8002809D0DE
:102080000548D0F8900040698047BDE81040042022
:1020900000F004B810BD00007C5D0120014908601B
:1020A00070470000143C014001460020024A1268BB
:1020B0000A4200D001207047143C014010B504468C
:1020C00012212046FFF790FF80040FD510212046F3
:1020D000FFF78AFFC00704D0BDE81040044813F0A2
:1020E0009EB9BDE81040024813F08CB910BD000045
:1020F000B86001208000A0F1C040002904D0016830
:1021000041F00101016070470168024A114001601D
:1021100070470000FEFF0F0070B501688900A1F153
:10212000C0410B68344A1340D0E901242243D0E96E
:1021300003452C4322434469224384692243C469F2
:102140002243046A2243446A2243846A2243C46AC3
:102150002243046B22431A430A608168082907D18D
:1021600001688900A1F1C0410A6842F040020A609A
:102170000168491C8A00A2F1C042116801F0404484
:10218000416BD1E9003543EA05138D688E892D0234
:1021900045EA06452B430D8A43EA05530D7D8969BF
:1021A00043EA05630B4323431360C16AB1F5804FD3
:1021B00008D000686FF070418000A0F1C040C0F806
:1021C000041170BD01688900A1F1C041D1F804215A
:1021D0000A4B1A40806BD0E9003443EA0413846848
:1021E0008589240244EA0544806923430343134359
:1021F000C1F8043170BD00008000F7FF0000F0CF8F
:102200002DE9FC470E460024002700970197574D03
:102210004FF0080AC5F800A0102068604FF0400990
:10222000C5F80890EF604FF48068C5F81080284624
:1022300001F0BEF91020FEF727FF002832D14C48EC
:1022400000890004286037206860C5F80890EF60B6
:10225000C5F81080284601F0ABF93720FEF714FFCF
:1022600000281FD1411E05F114000160C0F804A030
:10227000302181600221C16007610121416101F0CB
:102280001BF92F6033206860C5F80890EF60C5F82F
:102290001080284601F08CF93320FEF7F5FE054644
:1022A000280001D0BDE8FC874FF4001A6F46DFF824
:1022B000C48040F22A6908E0504601F027F920B1B5
:1022C00001F070F947F82400641CD8F8000010EA07
:1022D000090FF1D0082001F019F920B1082001F010
:1022E000D3F80420DEE7022001F010F920B102202B
:1022F00001F0CAF80220D5E7202001F007F920B14B
:10230000202001F0C1F80620CCE74FF400742046ED
:1023100001F0FCF820B1204601F0B6F80720C1E733
:1023200040F2FF5001F0B0F800980099000601F467
:102330007F4140EA0120009901F47F0140EA112029
:10234000009940EA1160706001980199000601F45B
:102350007F4140EA0120019901F47F0140EA112008
:10236000019940EA1160306028469BE7F00F002099
:1023700044010020342C01402DE9F04100220127C6
:102380004FF0030C07FA02F50B682B40AB422CD13F
:10239000066853000CFA03F4A64306600E79D0F8E1
:1023A00000809E4046EA080606600E79012E01D0A4
:1023B000022E12D18668A64386604E79D0F8088036
:1023C0009E4046EA080686604668AE434660456819
:1023D0008E799640B6B235434560C568A543C56061
:1023E000CC799C40C3681C43C460521C102AC9D3DA
:1023F000BDE8F08110B54B07DB0E9A40C90800EB31
:102400008100016A0F249C40A1430162016A1143CB
:10241000016210BD006980B2704702460020126957
:102420000A4200D001207047418370470183704702
:10243000084490F88308704700EB8100D0F8380812
:102440007047D0F8F40770470022431883F88328B8
:1024500000EB4113C3F8A82803F0EABF02A1012052
:1024600019F046FDFEE70000486172644661756C34
:10247000745F48616E646C65720D0A00002904D0B7
:10248000018841F4806101807047018821F48061F6
:1024900001807047034600209A8A1B8B1B041A4355
:1024A00022F07F42914300D101207047002904D0DF
:1024B000018841F0010101807047018821F001018C
:1024C0000180704710B5154988420AD101214C0599
:1024D000204600F0D5FC2046BDE81040002100F069
:1024E000CFBC0F4988420AD101218C05204600F05B
:1024F000C7FC2046BDE81040002100F0C1BC0949DE
:1025000088420AD10121CC05204600F0B9FC2046C2
:10251000BDE81040002100F0B3BC10BD00540040E5
:1025200000580040005C0040002904D0018841F4BC
:10253000807101807047018821F4807101807047AB
:10254000002904D0018841F400710180704701889E
:1025500021F40071018070477FB504460D46A088C4
:1025600020F03F06684600F0BBFC02982749B0FB0C
:10257000F1F189B20E43A680228822F00102228066
:10258000234B2A689A4209D85200B0FBF2F080B27D
:10259000042800D20420491C218423E0EB88A3F501
:1025A0003F46FF3E0BD002EBC20303EB0212B0FB2F
:1025B000F2F080B240F48040020506D007E002EB62
:1025C0004202B0FBF2F080B2F6E740F0010040F4C6
:1025D00000404FF4967251434FF47A72B1FBF2F11E
:1025E000491C2184A083208840F00100208020889D
:1025F0004FF6F5310840A9886A89114301432180CB
:10260000A8892989084320817FBD000040420F002E
:10261000A0860100008AC0B27047002A02D041F0B3
:10262000010101E001F0FE01018270470182704763
:10263000002904D0818B41F4806181837047818BB4
:1026400021F480618183704730B50023828B4FF283
:1026500040042240828302220284848B0A884FF441
:102660008075B2F5007F00D002B92B464A888D886C
:1026700089892A4319430A43224342F40061818332
:1026800030BD0000F0B5022200230124858B4FF2FB
:1026900040063540858302250584868B8D68022D92
:1026A00042D08A8802B102242F4A13681B0203D544
:1026B000136823F4000313602B4A7C321368C3F3BE
:1026C00088131268C2F30275274F3F1F3A6802F061
:1026D0003F023F687F0206D5244FB7FBF2F25A4310
:1026E000B2FBF5F205E0224FB7FBF2F25A43B2FB20
:1026F000F5F2CB88B3F5007F2BD06301B2FBF3F288
:1027000002EB82028B685200B2FBF3F2521D92B2CE
:102710000A23B2FBF3F202F00103D21AC2F34F0212
:102720004FF6FF7404EA0323941EFE2C01D3022209
:102730000023CC881A43144304840A884B881A4324
:102740008B8889890B431A43324342F400618183A9
:10275000F0BD120A02EB82028B685200B2FBF3F268
:10276000521D92B2D4E700000838024000127A00ED
:102770000024F40030B58BB0002507953D4C20783F
:1027800001282FD002282BD13B494868E06000285F
:102790003BD003202070084609F02AFCE068010EB7
:1027A0008DF81C10C0F307448DF81D40C0F30723BB
:1027B0008DF81E30C2B28DF81F20CDE900412FA147
:1027C00002A804F0B9FE31A1032019F091FB35A154
:1027D000032019F08DFB02AA38A1032019F088FB11
:1027E0000BB030BD02202070234809F0A7FBE56044
:1027F00034A1032019F07CFB38A1032019F078FBE9
:102800003CA1032019F074FBEAE7486A407B0428E6
:10281000E6D904202070184809F0EAFB3B480A90EA
:102820006FF07F4009903A48089008AB09AA0AA9BE
:10283000114812F08BFD37A1032019F059FB0A2033
:102840008DF81C008DF81D50A8238DF81E30C02275
:102850008DF81F20CDE9005034A102A804F06CFED1
:1028600036A1032019F044FB02AA3AA1032019F073
:102870003FFBB5E728050020B86001202025642E25
:1028800025642E25642E2564000000004950206137
:102890006464726573732061737369676E65640D38
:1028A0000A00000020206279206120444843502023
:1028B00073657276657220200D0A00002025730D65
:1028C0000A00000020202020204C6F6F6B696E678B
:1028D00020666F72202020200D0A0000202020207A
:1028E0002044484350207365727665722020202072
:1028F0000D0A00002020202020706C656173652087
:10290000776169742E2E2E200D0A0000C0A8000ADF
:10291000C0A8000120202020444843502074696D45
:10292000656F7574202020200D0A0000202025648A
:102930002E25642E25642E2564000000202053746B
:102940006174696320495020616464726573732007
:102950002020000025730D0A0000000031B51C4C3A
:1029600000996068081AFA2803D30098606017F08D
:10297000B5FB0098A168401A41F28831884203D320
:102980000098A0600EF0D0FB00982169401AB0F5C5
:10299000FA7F0ED30098206108F08AFE2078032881
:1029A00007D02078042804D02078052801D0FFF72C
:1029B000E1FE00986169401A4EF66021884205D315
:1029C00000986061BDE8384008F056BD38BD000091
:1029D0002805002001480EF0C9BB0000B8600120A6
:1029E0001CB5012000F076FA0121084600F010FA2B
:1029F0000D4C002208212046FFF7FCFCA115009198
:102A000002218DF805108DF8041000218DF80610B4
:102A100001218DF8071069462046FFF7ADFC002123
:102A2000084600F0DFFA1CBD0000024002A10120B0
:102A300019F05EFAFEE700004D656D4D616E61674D
:102A4000655F48616E646C65720D0A0002A1012029
:102A500019F04EFAFEE700004E4D495F48616E6482
:102A60006C65720D0A00000030B50F23C278012595
:102A70000178002A1FD0154A126802F4E062C2F5FC
:102A8000E062C2F30722C2F10404D3404278A240BC
:102A900084781C401443220101F1E02181F80024D4
:102AA000007800F01F018D404009800000F1E02017
:102AB000C0F8005130BD01F01F008540480980007A
:102AC00000F1E020C0F8805130BD00000CED00E0C6
:102AD0000249084302490860704700000000FA05F7
:102AE0000CED00E0024A11400143024801607047CA
:102AF00080FFFF1F08ED00E010B5074803F03DFD23
:102B000020B1BDE81040044803F070B9BDE81040A2
:102B1000014802F0C7BB0000E852012010B504468E
:102B2000062C17D2DFE804F016030C0C0C0C002264
:102B300011462020FEF744F9BDE8104000F0B6B879
:102B4000002280212020FEF73BF92046BDE81040FE
:102B500000F00AB8002280212020FEF731F9BDE8FC
:102B6000104000F089B8000070B5054600F0D1F8BB
:102B7000C820FFF7C9F900243C4E06EB4400417819
:102B800016F8140000F0D0F8641CBE2CF5D3002415
:102B9000374E06EB4400417816F8140000F0C4F8F4
:102BA000641C092CF5D30121FF2000F0BDF80021A1
:102BB000152000F0B9F800242D4E123606EB440023
:102BC000417816F8140000F0AFF8641C082CF5D317
:102BD0006420FFF799F9264E2236022D11D0032DDD
:102BE0001BD0042D27D0052D33D0002406EB440044
:102BF000417816F8140000F097F8641C272CF5D3E0
:102C000070BD002406EB4400417816F8140000F073
:102C10008BF8641C272CF5D370BD0024144D70353F
:102C200005EB4400417815F8140000F07DF8641CB1
:102C3000272CF5D370BD00240D4DBE3505EB4400A7
:102C4000417815F8140000F06FF8641C272CF5D3B8
:102C500070BD0024074D05EB4400417815F81400C1
:102C600000F062F8641C272CF5D370BD74DC0108F9
:102C7000F0DD0108FCDE010870B500F04AF8C8205C
:102C8000FFF742F90024084D4FF4A47605EB440009
:102C9000417815F8140000F047F80220FFF734F9E6
:102CA000641CB442F2D370BD2CD8010870B500F09A
:102CB00030F8C820FFF728F90024074D05EB440041
:102CC000417815F8140000F02FF80220FFF71CF9E6
:102CD000641CDC2CF2D370BDBCDA010810B50446CC
:102CE0000121FF2000F020F81C2000F00EF82070D9
:102CF0001D2000F00AF860700A2000F006F8A070AD
:102D00000B2000F002F8E07010BD0146612005F0D4
:102D1000F3BA10B50121FF2000F006F88021BDE8CC
:102D200010401220AFF300800A460146602005F0F3
:102D300075BB10B50446402280210020FEF740F804
:102D40002CB1012C07D0BDE8104000F009B8BDE857
:102D5000104000F005B8BDE8104000F019B80000C0
:102D600070B500F044F8C820FFF7CEF80024074DF6
:102D700005EB4400417815F8140000F03CF80220FF
:102D8000FFF7C2F8641C972CF2D370BD4ADF01082C
:102D900070B500F02CF8C820FFF7B6F80024074DF6
:102DA00005EB4400417815F8140000F024F80220E7
:102DB000FFF7AAF8641C972CF2D370BD78E00108E5
:102DC00010B504461C2000F00EF820701D2000F005
:102DD0000AF860700B2000F006F8A0700A2000F0DE
:102DE00002F8E07010BD0146612005F085BA80212F
:102DF0001220AFF300800A460146602005F00EBBAA
:102E0000014908627047000000000E42FDF7F6B964
:102E1000054A002903D01168014311607047116809
:102E2000814311607047000030380240054A002994
:102E300003D011680143116070471168814311602C
:102E40007047000034380240054A002903D0116859
:102E500001431160704711688143116070470000A1
:102E600038380240054A002903D011680143116037
:102E7000704711688143116070470000403802407C
:102E8000054A002903D01168014311607047116899
:102E9000814311607047000020380240054A002934
:102EA00003D01168014311607047116881431160BC
:102EB0007047000044380240054A002903D01168D9
:102EC0000143116070471168814311607047000031
:102ED000243802400149C86470470000000047429E
:102EE00070B5244B196801F00C01234C00291ED049
:102EF000661004291DD008291DD00460196801F04E
:102F0000F00109091D4A545C0168E14041601C68F8
:102F100004F4E054A40A145D21FA04F484601B68EC
:102F200003F460435B0BD25CD140C16070BD0460B0
:102F3000E4E70660E2E70F4A121F1168C1F380550B
:102F4000116801F03F0135B1B6FBF1F11468C4F32B
:102F50008814614305E0B4FBF1F11468C4F38814EC
:102F600061431268C2F30142521C5200B1FBF2F1FC
:102F70000160C3E7083802400024F400500000203C
:102F800002460020510901290BD002290DD0094920
:102F9000096802F01F02012393400B4200D0012078
:102FA0007047044974390968F3E70249091F096841
:102FB000EFE70000743802400149086070470000E4
:102FC0005C014742064900220A700A70012804D0B9
:102FD000042801D10520087070470120087070474F
:102FE00070380240034B1A6822F0EC620843104329
:102FF0001860704708380240014988667047000031
:103000000000474201490860704700003C0E4742FB
:10301000C0F30121032907D1074B196821F4F812E5
:103020000649014011431960034A68321168C0F330
:103030000B0001431160704708380240FFFCFF0F8E
:10304000010901EB8101490000F00F000844C0B202
:103050007047002103E0491CC9B20A38C0B20A28EF
:10306000F9D2090740EA11607047000008B5002056
:1030700000900E490868400615D44FF0FF300860F4
:103080008B13086800F04000009A521C0092009ACE
:103090009A4201D00028F4D00868400601D50120EA
:1030A00008BD002008BD012008BD00000C2800401C
:1030B0000248016821F08001016070470C2800403F
:1030C00070B504460025114ECA2030605320306090
:1030D000FFF7CCFFA8B10D481C38016821F0400172
:1030E000016001682268114301600848A168143832
:1030F00001600168A28841EA02410160FFF7D8FF40
:103100000125FF203060284670BD000024280040C3
:1031100008B5034901EB800000900098006808BDE5
:103120005028004070B505460C460026002D06D1FB
:103130006078C10603D520F010000A3060702DB110
:103140006078FFF77DFFA078FFF77AFF55B1A07890
:10315000E17840EA014560782178000240EA413098
:1031600005430FE0E078FFF774FF05046078FFF790
:1031700070FF45EA0025A078FFF76BFF0543207834
:1031800045EA40350E4CCA20206053202060FFF7EE
:103190006DFF88B10B480540094820380560FFF7EE
:1031A00087FF07481C380068800604D400F060F8E8
:1031B00010B1012600E00126FF202060304670BDDE
:1031C000242800403FFFFF002DE9F04105460C4652
:1031D00000260020244F002D06D03968490608D566
:1031E0002078FFF72DFF05E03968490602D4E0702A
:1031F00000E0E07055B1A078217840EA01456078A0
:10320000E178000240EA014005430FE02078FFF733
:1032100020FF05046078FFF71CFF45EA0025A07831
:10322000FFF717FF0543E07845EA00450E4CCA203A
:103230001C34206053202060FFF718FF78B10B4842
:103240000540094808380560FFF732FF38688006F6
:1032500004D400F00DF810B1012600E00126FF2093
:1032600020603046BDE8F081082800407F7F7F0065
:1032700018B500200090104BCA2018605320186029
:103280000D491839086820F0A00008604FF4003498
:10329000086800F02000009A521C0092009AA24296
:1032A00001D00028F4D00868800601D5012000E094
:1032B0000020FF21196018BD2428004008B5034AEA
:1032C00002EB800000900098016008BD502800408B
:1032D00030B587B001218805FFF7C4FD012120200A
:1032E000FFF796FD1F4D042200212846FFF782F8C4
:1032F000042201212846FFF77DF8032105910221D0
:103300008DF8181000248DF8194001218DF81A103D
:103310008DF81B4005A92846FFF72EF8124D2846C8
:10332000FFF7D0F8ADF808404BF6FF71ADF80A1082
:10333000FE21ADF80C102915ADF80E100901ADF8FD
:10334000101042F21071019101A92846FFF704F90B
:1033500001212846FFF7AAF801212846FFF78EF839
:1033600007B030BD00140240005800402DE9FC4772
:103370000646002400940194002000F0E3F8800148
:1033800002D50E20BDE8FC8733A1042018F0B0FD63
:10339000374D6946288980B2FEF732FF07463A4624
:1033A00034A1042018F0A4FD0FB13846EAE7372015
:1033B000344F4FF0060A4FF040094FF48068012E59
:1033C00022D00199C90345D529890904396078605B
:1033D000C7F80890FC60C7F81080384600F0E8F89D
:1033E0003720FDF751FE0028CCD13C60C7F804A07F
:1033F000C7F80890FC60C7F81080384600F0D8F88D
:103400000620FDF741FEBDE70199490320D5298932
:10341000090439607860C7F80890FC60C7F810802C
:10342000184800F0C5F83720FDF72EFE0028A9D176
:1034300002203860C7F804A0C7F80890FC60C7F8FD
:103440001080104800F0B4F80620FDF71DFE99E743
:10345000252097E7252095E75344494F5F4765743A
:10346000526573706F6E7365206F6B0D0A000000FC
:103470004401002046696E645343523A25640D0AA4
:1034800000000000F00F00200149086070470000B4
:10349000382C01400149086070470000382C014079
:1034A0000149086070470000A0802542014908607A
:1034B000704700008C85254210B50A4A01681160EA
:1034C000121D41681160141D216821F0F701D0E937
:1034D00002231A43D0E9043003431A430A4322600B
:1034E00010BD0000242C014010B50121CC02204663
:1034F000FFF7E2FC2046BDE810400021FFF7DCBCEE
:1035000001480068C0B27047102C014001460020FD
:10351000024A12680A4200D001207047342C014050
:1035200001460020024A12680A4200D0012070477A
:10353000342C01400248006800F00300704700008E
:10354000002C014008B50349084400900098006829
:1035500008BD0000142C014000F0A2BD054A00295E
:1035600003D01168014311607047116881431160F5
:10357000704700003C2C014030B5094B196847F6F4
:10358000FF629143027D8468C568224344682C43EE
:10359000224304680069224302430A431A6030BD93
:1035A000042C01400148006870470000802C014055
:1035B00010B5084A01681160141D21686FF30A01F3
:1035C000D0E901231A43D0E9033003431A430A43E5
:1035D000226010BD082C01400149086070470000BE
:1035E000002C014008B50120009041030448FEF77B
:1035F00014FF08B1002000909DF8000008BD0000F5
:10360000000802402DE9F04100261E4949680329BF
:1036100005D039B1012905D0022903D030E0272097
:10362000BDE8F081B0F5805F10D04FF40067002452
:10363000154DB84216D10120FFF798FE06463246D6
:1036400012A1042018F054FC16B119E02720E7E776
:103650002C752C606C60AC60EF602C610A48FFF741
:103660008BFF0DE00020FFF781FE064646B92C7562
:103670002C606C60AC60EC602C610348FFF77CFF51
:103680003046CDE744010020D80F00205344456E5A
:10369000576964654275733A25640D0A000000009D
:1036A0002DE9F04704469B48426884F8562000897B
:1036B000A4F85400DFF86092D9F80000010E8B09DD
:1036C0002370C1F38303637001F00301A170010C47
:1036D000E170010A21716071D9F80400010E09013D
:1036E000E180C0F30741E38843EA1113E38001F06E
:1036F0000F012172C0F30727F9096172C7F3801126
:10370000A172C7F34011E172C7F3001121730026C3
:10371000667349464FF001088D68290EC5F30743CB
:10372000C5F30725002A04D0012A02D0022A3BD083
:1037300057E0BA07120D2261C0B2226942EA800046
:103740002061206940EA91102061C1F3C200207518
:1037500001F0070060755809A075C3F38200E07599
:103760009807400F20762F46207E40EAD71020761B
:1037700025696D1C217E891C08FA01F0A5FB003229
:10378000C11706FB002005FB01011846237A08FA41
:1037900003F222650346A3FB020501FB025103FB72
:1037A0000611C4E912011CE08006800A206120692C
:1037B00040EA012020612069184320612F462269D8
:1037C00056A1042018F094FB2069401C46F100012A
:1037D000C90441EA5031C004C4E912014FF4007039
:1037E00020651C34C7F3801004F8030CB806400EA3
:1037F00004F8020C99F8080014F8021C41EAD011F0
:1038000004F8021C00F07F0004F8010CD9F80C1039
:10381000080EC2092270C0F341126270C0F3820226
:10382000A2708007000FE070C1F30740E27842EA1F
:103830009012E270C0F340122271667100F0010034
:10384000A071C1F30720C209E271C0F38012227295
:10385000C0F340126272C0F30012A272C0F3810280
:10386000E27200F003002073C8B24008607384F86D
:103870000E80294910310868020E2274020C1202CF
:103880006282C0F30722638A134363820006606189
:103890004868020E636943EA02426261C0F307426C
:1038A000636943EA02226261C0F30722636913433A
:1038B000636120768868020E6276020C1206E2616D
:1038C000C0F30722E36943EA0242E261C0B2E2695F
:1038D00042EA0020E061C868010EE2690A43E26141
:1038E000C0F3074194F8202042EA111284F8202006
:1038F0000907090D6184C0F30721628C0A436284C1
:10390000C0B2400884F8240084F825803046BDE821
:10391000F087000044010020500F00200D0A2D2DDB
:103920002D2D2D2D2D53445F6373642E44657669D0
:10393000636553697A653A25642D2D2D2D2D2D2D26
:103940002D2D2D0D0A00000008B500200090FFF776
:1039500049FE012801D0FF2008BD684600F068FC40
:1039600008B1FF2008BD0098C0F3432008BD10B582
:10397000FFF7EAFF042803D0FF2803D0012010BD81
:10398000002010BD022010BD38B50024009400F0C6
:1039900097FA00F037FAFFF7A7FD00F0ABFA0090B6
:1039A0009DF8000010B19DF8000038BD2FA1042043
:1039B00018F09EFA00F012F900909DF8000010B186
:1039C0009DF8000038BD32A1042018F091FA3B4860
:1039D0000475046044608460C4600461FFF7CCFD3A
:1039E00036485838FFF75CFE009035A1042018F0E7
:1039F0007FFA324C583C3CA10420E26C18F078FA73
:103A000039A10420A26C18F073FA41A10420226DA0
:103A100018F06EFAB4F8542047A1042018F068FAA0
:103A200094F856204CA1042018F062FA9DF800008A
:103A300030B9B4F854000021000400F0E3FB00901A
:103A40009DF8000040B94DA1042018F051FA4FF440
:103A50000060FFF7D7FD00909DF8002052A10420E0
:103A600018F046FA9DF8000038BD00000D0A2D2D13
:103A70002D2D2D2D2D53445F506F7765724F4E20A5
:103A80006F6B2D2D2D2D2D2D2D2D2D2D0D0A000083
:103A90000D0A2D2D2D2D2D2D2D53445F496E69744A
:103AA00069616C697A654361726473206F6B2D2D57
:103AB0002D2D2D2D2D2D2D2D0D0A0000D80F002080
:103AC0000D0A2D2D2D2D2D2D2D53445F476574434B
:103AD000617264496E666F206F6B2D2D2D2D2D2D1B
:103AE0002D2D2D2D0D0A00000D0A2D2D2D2D2D2DE6
:103AF0002D4361726443617061636974793A253062
:103B000038582D2D2D2D2D2D2D2D2D2D0D0A00004C
:103B10000D0A2D2D2D2D2D2D2D43617264426C6FBC
:103B2000636B53697A653A2564202D2D2D2D2D2D3B
:103B30002D2D2D2D0D0A00000D0A2D2D2D2D2D2D95
:103B40002D5243413A2564202D2D2D2D2D2D2D2D27
:103B50002D2D0D0A000000000D0A2D2D2D2D2D2DCF
:103B60002D43617264547970653A2564202D2D2DA2
:103B70002D2D2D2D2D2D2D0D0A0000000D0A2D2D82
:103B80002D2D2D2D2D53445F53656C656374446555
:103B900073656C656374206F6B2D2D2D2D2D2D2D70
:103BA0002D2D2D0D0A0000000D0A2D2D2D2D2D2D52
:103BB0002D53445F456E61626C655769646542755B
:103BC000734F7065726174696F6E3A25642D2D2D87
:103BD0002D2D2D2D2D2D2D0D0A0000002DE9F84F36
:103BE000002401200090FFF7A5FCE0B1DFF8FC8085
:103BF00000263F4DD8F804004FF0C0094FF480670D
:103C000004282AD02E6002206860C5F80890EE6073
:103C10002F612846FFF7CCFCFDF7B4FA04462000DC
:103C200003D0BDE8F88F2520FBE70020FFF78AFCD2
:103C3000DFF8BCA0AAF1900ACAF800000420FFF740
:103C400081FCCAF804000820FFF77CFCCAF80800D1
:103C50000C20FFF777FCCAF80C00D8F8040028B154
:103C6000012803D0062801D0022811D12E6003209C
:103C700068604020A860EE602F611D48FFF798FC47
:103C800069460320FDF7BAFA0446200000D0C8E7D1
:103C9000D8F80400042826D0BDF80000C8F80800B1
:103CA0000004286009206860C5F80890EE602F6164
:103CB0000F48FFF77DFCFDF765FA0446200000D0B1
:103CC000AFE70020FFF73EFC094DA03D286004202F
:103CD000FFF738FC68600820FFF734FCA8600C2070
:103CE000FFF730FCE86020469BE70000440100201D
:103CF000F00F002070B590B005460C461D4E4FF0F9
:103D0000FA513046FDF770FF00213046FDF798FF6D
:103D10003046FDF7A1FF4FF0006001901648029079
:103D200003950020049005940690311507918900B1
:103D3000089109900A904FF440300B9004200C90A9
:103D400003200D90C8020E9080100F9001A93046FC
:103D5000FEF7A2F8012210213046FEF783F8202159
:103D60003046FEF728F801213046FDF769FF10B014
:103D700070BD000058640240802C014070B590B0C6
:103D800004460D461D4E4FF0FA513046FDF72CFF0C
:103D900000213046FDF754FF3046FDF75DFF4FF040
:103DA000006001901648029003944020049005950D
:103DB00000200690311507918900089109900A901A
:103DC0004FF440300B9004200C9003200D90C8025B
:103DD0000E9080100F9001A93046FEF75DF8012289
:103DE00010213046FEF73EF820213046FDF7E3FF74
:103DF00001213046FDF724FF10B070BD5864024029
:103E0000802C01402DE9FC4101210C20FFF700F836
:103E1000294E0C2208213046FEF7ECFA0C2209212B
:103E20003046FEF7E7FA0C220A213046FEF7E2FAA6
:103E30000C220B213046FEF7DDFA0C2211463046EB
:103E4000FEF7D8FA1D4F0C2202213846FEF7D2FAAF
:103E50004FF47060009002218DF805108DF8041069
:103E600000248DF8064001258DF80750694630463C
:103E7000FEF782FA0420009069463846FEF77CFA85
:103E8000280300908DF8074069463046FEF774FA23
:103E9000680300908DF804408DF80750694630465D
:103EA000FEF76AFA0121C802FEF7F8FF0121880532
:103EB000FEF7AEFFBDE8FC8100080240000C0240A6
:103EC00038B531208DF8000000248DF801408DF8C0
:103ED000024001258DF803506846FEF7C5FD3B20E2
:103EE0008DF800008DF801508DF802406846FEF70D
:103EF000BBFD38BD2DE9F84F00270097BB460024D5
:103F0000A246002559487621017507604760876001
:103F1000C7600761FFF730FB0320FFF75DFB01205F
:103F2000FFF7BEFA514E183637607760B760F7601A
:103F30004FF48069C6F810903046FFF739FBFDF763
:103F40008EF800909DF8000018B19DF80000BDE8C3
:103F5000F88F4FF4D5703060082070604FF0400843
:103F6000C6F80880F760C6F8109040481830FFF790
:103F70001FFBFDF783F900909DF8000018B3376030
:103F800037207060C6F80880F760C6F81090374890
:103F90001830FFF70DFB3720FDF776F800903760FB
:103FA00037207060C6F80880F760C6F810902F4878
:103FB0001830FFF7FDFA3720FDF766F800909DF8FE
:103FC000000090B34FE02A48012141608D07E6E7E9
:103FD000376037207060C6F80880F760C6F8109028
:103FE00022481830FFF7E4FA3720FDF74DF800902B
:103FF0009DF8000010B19DF80000A8E71D48284377
:10400000306029207060C6F80880F760C6F810900C
:1040100016481830FFF7CCFAFDF7D6F800909DF857
:10402000000018B19DF8000091E706E00020FFF7BE
:1040300089FA83464FEADB7A641CBAF1000F03D198
:104040004FF6FF708442C3D34FF6FF70844204D30F
:104050001B2000909DF8000079E71BF0804F02D0F4
:104060000348022141609DF8000070E7D80F00204E
:1040700044010020000010800748006810F0C05F75
:1040800008D006490120486103484FF0C25158301A
:10409000FDF7AABD70470000006402404401002003
:1040A00070B54FF480752846FFF73AFA1F4C30B1CF
:1040B000002020702846FFF7EDF901202061022042
:1040C000FFF72EFA20B10220FFF7E4F9022020705A
:1040D0000820FFF725FA20B10820FFF7DBF90420BC
:1040E00020702020FFF71CFA20B12020FFF7D2F922
:1040F000062020701020FFF713FA20B11020FFF7E0
:10410000C9F9052020704FF400752846FFF708FA1A
:1041100020B12846FFF7BEF90720207000214CF29D
:104120003A30FFF71BFA207870BD000044010020F0
:104130002DE9F05F8346DDE90A6714461D46DFF886
:10414000B8A04FF000088AF80080CAF810804FF03D
:104150000109CAF80C902948C0F80080012140F2FA
:104160002A30FFF7FBF907FB06F15846FFF7C2FDBF
:104170000120FFF79BF9DAF80400022803D10602B8
:10418000640A44EAC5541E4D2E60102068604FF04A
:10419000400AC5F808A0C5F80C804FF4806BC5F83C
:1041A00010B02846FFF704FA1020FCF76DFF002836
:1041B00020D1411E05F11400016077434760902132
:1041C00081600221C160C0F81080C0F81490FFF730
:1041D00073F92C6012206860C5F808A0C5F80C803F
:1041E000C5F810B02846FFF7E3F9BDE8F05F1220EC
:1041F000FCF74ABFBDE8F09F440100202C2C014091
:10420000F00F002010B5094A1060072050604020D0
:1042100090600020D0604FF4806010611046FFF77E
:10422000C7F9BDE810400720FCF72EBFF00F0020B3
:1042300070B50546002D16D00F48008901040F48BF
:1042400001600D214160402181600021C1604FF477
:1042500080610161FFF7ACF90D20FCF715FF044602
:104260001CB1204670BD262070BD0020FFF76AF902
:104270002860204670BD000044010020F00F00209F
:1042800010B50848002101600C2242604022826083
:10429000C16011010161FFF78BF9BDE810400C20EE
:1042A000FCF7F2BEF00F00202DE9F04100256C1E56
:1042B0002146154E00E0491E706928B9306918B9C9
:1042C000307808B90029F6D1002777610F4800E05F
:1042D000641E0168890401D5002CF9D1F068012819
:1042E00003D1FFF7CDFF0546F7602C4300D104252D
:1042F00040F2FF50FFF7C8F8307810B13078BDE8D1
:10430000F0812846FBE7000044010020342C0140E6
:104310002DE9F04100256C1E2146154E00E0491E96
:10432000706928B9306918B9307808B90029F6D110
:10433000002777610F4800E0641E0168C90401D5B9
:10434000002CF9D1F068012803D1FFF799FF054649
:10435000F7602C4300D1042540F2FF50FFF794F89A
:10436000307810B13078BDE8F0812846FBE70000D6
:1043700044010020342C01402DE9F05F8246DDE944
:104380000A6714461D46DFF804914FF0000889F8CB
:104390000080C9F810800120C9F80C003C48C0F822
:1043A0000080012140F22A30FFF7D8F807FB06F120
:1043B0005046FFF7E3FC0120FFF778F8D9F8040036
:1043C000022803D10602640A44EAC554314D2E6026
:1043D000102068604FF0400BC5F808B0C5F80C809D
:1043E0004FF4806AC5F810A02846FFF7E1F81020C6
:1043F000FCF74AFE002847D1B9F8080000042860FD
:1044000037206860C5F808B0C5F80C80C5F810A062
:104410002846FFF7CDF83720FCF736FE002833D1C9
:104420002F6017206860C5F808B0C5F80C80C5F883
:1044300010A02846FFF7BCF81720FCF725FE00283F
:1044400022D12C6019206860C5F808B0C5F80C802E
:10445000C5F810A02846FFF7ABF81920FCF714FEAA
:10446000002811D105F11402401E106077435760F7
:1044700090209060C2F80C80C2F81080012050613A
:104480001046FFF719F84046BDE8F09F44010020B0
:104490002C2C0140F00F002010B5FFF775FA08B181
:1044A000012010BD002010BD002908D00C480129B2
:1044B00007D002290AD003290DD00420704700201C
:1044C0007047806C400A1060002070474FF4007005
:1044D000108000207047006D1060002070470000C1
:1044E000800F00201CB508464FF40074CDE900434E
:1044F00052020023FFF71CFE044634B9FFF7D4FE36
:104500000446FFF734FA0028FBD10CB101201CBD92
:1045100000201CBD002070471CB508464FF40074F5
:10452000CDE9004352020023FFF726FF044634B9C9
:10453000FFF7EEFE0446FFF71AFA0028FBD10CB194
:1045400001201CBD00201CBD0168084AC86F9042B4
:1045500002D007484864704791F8740008B1002001
:10456000704703481830486470470000150309205D
:10457000D8D8FFFF2DE9F04104461449E06F884286
:1045800003D013486064BDE8F08194F8740020B152
:104590000F48801E60648013F5E700250C4F00264D
:1045A000FF1E0DE0A4F856602946204612F08FFA4F
:1045B00000B13846002801DA6064E4E76D1CADB252
:1045C000206AA842EED80020DDE70000150309208C
:1045D000D8D8FFFF2DE9F05F0446DDE90A860C9D7F
:1045E0008B4691461F46D4F878A080212046FBF7E1
:1045F000EFFE202259462046FBF7C3FEC4F878A000
:10460000A169E068B0FBF1F02062C4F83890E0697D
:104610004844606341463846FBF7DAFE07F0030082
:1046200020B1C0F104000744A8EB0008E763302084
:10463000B8FBF0F0206406F0030018B1C0F10400EC
:1046400006442D1A15F0030F02D005F003002D1AB1
:10465000E665E069B5EB401F00D9450125662046B7
:1046600012F096F8D4E90610B1FBF0F35B00B1FB51
:10467000F0F2B3FBF0F383B1B1FBF0F14900B1FB11
:10468000F0F1511A4208B1FBF2F302FB1311001FC3
:10469000B0EB410F03D3002002E00121F1E70B480A
:1046A000002802DA6064BDE8F09F0948E067204610
:1046B00013F07CFA002801DA6064F4E70D98E066F4
:1046C000012084F874000020EDE70000D4D8FFFF3B
:1046D000150309200A4BC16F994203D0094941646F
:1046E0000020704790F8741029B11060002090806D
:1046F00090601046704703491831416400207047AC
:1047000015030920D8D8FFFF70B588B004460D46C0
:10471000206890F87410002915D0002607ABCDE969
:10472000035306AA059200210F4A0291CDE9001217
:10473000A1880423A26813F063F840B1216848649B
:10474000304608B070BD094941640020F9E7BDF862
:104750001C00A0800698401CA060288820F400401F
:1047600028802E46ECE70000118F0108F0D8FFFFEB
:104770002DE9F04105461149E86F88421CD195F8B2
:104780007400002818D0EF6B00240FE004EB440005
:1047900007EB0016B6F9041039B1284612F038FAC2
:1047A000B6F90410284612F017FA641C286CA042CF
:1047B000ECD8002085F87400BDE8F08115030920CD
:1047C000002904D0018841F0400101807047018830
:1047D00021F0400101807047002A03D082880A43FB
:1047E0008280704782888A438280704710B52A4948
:1047F00088420AD1841401212046FEF75DFB204641
:10480000BDE810400021FEF757BB244988420AD179
:10481000041401212046FEF733FB2046BDE810407A
:104820000021FEF72DBB1E4988420AD1C413012185
:104830002046FEF725FB2046BDE810400021FEF78C
:104840001FBB184988420AD1441401212046FEF7B3
:1048500033FB2046BDE810400021FEF72DBB124976
:1048600088420AD101210C052046FEF725FB20468F
:10487000BDE810400021FEF71FBB0C4988420AD159
:1048800001214C052046FEF717FB2046BDE81040ED
:104890000021FEF711BB10BD003001400038004080
:1048A000003C0040003401400050014000540140F1
:1048B0000246002012890A4200D0012070478089F8
:1048C00070478181704730B5028802F441530A88ED
:1048D0004C88CD8822438C882C4322430C89224368
:1048E0004C8922438C892243CC8922431A4302807B
:1048F000828B22F400628283098A018230BDFBF739
:104900004FBC00000CB500220192009227490868B4
:1049100040F4803008604FF4A043086800F4003091
:1049200000900198401C0190009810B9019898429D
:10493000F3D10868800302D50120009000E00092C6
:104940000098012831D119484030026842F0805265
:1049500002601748026842F440420260134808307F
:1049600002680260026842F400420260026842F497
:10497000A0520260021F0F4B13600A6842F080725F
:104980000A600A689201FCD50B4A40F20571116079
:10499000016821F003010160016841F0020101603A
:1049A0000168C1F381010229FAD10CBD003802402F
:1049B0000070004008544007003C024010B500F071
:1049C000CFF9BDE8104017F02BBC000010B512481D
:1049D000016841F4700101601048016841F0010173
:1049E00001600E4A00210832116002680C4B1A4027
:1049F0000260031D0B4A1A60026822F480220260E2
:104A000006480C300160FFF77DFF03494FF000605E
:104A10008039086010BD000088ED00E000380240D9
:104A2000FFFFF6FE1030002470B5048C24F0010462
:104A30000484058B048C25F0F3054FF6FF7606EA17
:104A4000031313432B4324F00A020A4342F00101EB
:104A50000383018470BD70B5048C24F010040484B9
:104A6000058B068C4FF6FF7404EA011125F473459B
:104A700004EA03332B4304EA02221A4326F0A0037C
:104A80000B4343F010010283018470BDF0B5048C28
:104A900024F480740484868B058C4FF6FF7707EA34
:104AA000012426F0F30607EA03111143314325F4EC
:104AB0002062224342F4807281830284F0BD70B58B
:104AC000048C24F480540484858B068C4FF6FF7488
:104AD00004EA013125F4734504EA02222A4304EA78
:104AE0000333134326F420420A4342F48051838364
:104AF000018470BD01F01ABA0FF088BC0FF016BD2A
:104B00000FF068BD002904D0018841F080010180C8
:104B10007047018821F0800101807047C9430182FC
:104B20007047C94301827047002904D0018841F0D1
:104B3000010101807047018821F001010180704767
:104B4000006C7047406A704702460020128A0A4291
:104B500000D00120704702460020138A0B40928942
:104B60000A40002B02D0002A00D00120704770B507
:104B700006460C4625886188A2882389002D0CD022
:104B8000042D13D0082D1AD03046FFF798FFE18886
:104B90003046BDE8704000F093B83046FFF744FF60
:104BA000E1883046BDE8704000F06EB83046FFF74F
:104BB00052FFE1883046BDE8704000F06DB83046E5
:104BC000FFF764FFE1883046BDE8704000F070B840
:104BD000002A03D082890A438281704782898A43EE
:104BE0008281704770B5028C22F010020284028C20
:104BF0008388048B24F4E04424F440760D884FF637
:104C0000FF7404EA0525354322F020028E8904EA68
:104C1000061616434A8804EA02123243114EB04285
:104C200002D0114EB04217D122F08002CE8904EAA0
:104C30000616164326F040068A8804EA021232431A
:104C400023F4806323F400630E8A04EA86061E437D
:104C50004B8A04EA83033343838005838968816335
:104C6000028470BD0000014000040140028B22F468
:104C700000624FF6FF7303EA01211143018370477D
:104C80008163704741627047028B22F00C020283FD
:104C9000028B0A4302837047028B22F44062028334
:104CA000028B4FF6FF7303EA01210A430283704728
:104CB000828B22F00C028283828B0A4382837047AC
:104CC000828B22F440628283828B4FF6FF7303EA69
:104CD00001210A438283704730B50288164C174D74
:104CE000A0420DD0A8420BD0B0F1804F08D0144B99
:104CF000984205D0134B984202D0134B984203D1EF
:104D000022F070034A881A43104B984206D0104B89
:104D1000984203D022F440730A891A4302804A68F9
:104D2000C2620A880285A04201D0A84201D1897AD4
:104D300001860121818230BD000001400004014054
:104D40000004004000080040000C0040001000403B
:104D50000014004001480068704700000000002077
:104D600002480168491C01607047000000000020F3
:104D70000FF0FCBC0FF044BD0FF08EBD8A05C94397
:104D80000180704740F66A120A0A01219140C94326
:104D900001807047002904D0818941F4005181814C
:104DA0007047818921F400518181704702460020BB
:104DB00012880A4200D00120704770B5002440F6E6
:104DC0006A12C1F3421301F01F05012606FA05F22B
:104DD000012B0CD0022B0DD0838A1340090A8E4080
:104DE000008830400BB100B10124204670BD83899A
:104DF0001340F3E7038A1340F0E710B540F66A1357
:104E0000C1F3421301F01F040121A140012B07D07F
:104E1000022B07D014303AB102680A43026010BD79
:104E20000C30F8E71030F6E702688A43026010BDE4
:104E30007FB504460D46208A20F44051E888084397
:104E40002082A08941F20C618843A9882A891143F4
:104E50006A8902431143A181A08A20F44071A88984
:104E60000843A0826846FEF73BF81E48844202D001
:104E70001D48844201D1039800E00298A1890904E9
:104E800008D500EBC00101EB001029684900B0FB18
:104E9000F1F007E000EBC00101EB00102968890088
:104EA000B0FBF1F06422B0FBF2F109010B096FF0E5
:104EB00018056B4300EB8300A3891D044FF03203F8
:104EC00007D503EBC000B0FBF2F000F00700084389
:104ED00006E003EB0010B0FBF2F000F00F00084317
:104EE00020817FBD00100140001401408088C0F384
:104EF00008007047C1F308018180704710B5D0F8F1
:104F0000E42552689047002010BD10B5044694F87F
:104F10001201022806D0032804D02046BDE8104024
:104F200000F023B8488801280CD10020C4F81801EB
:104F3000D4F8E4058268204690472046BDE810403A
:104F400000F043B810BD10B5002413460A460021F6
:104F5000FCF71EFA204610BD10B5002413460A4681
:104F60000021FCF755FA204610BD10B504468021FB
:104F70002046FCF731FA00212046FCF72DFA2046A6
:104F8000BDE8104001F096B870B505460024052034
:104F900085F8110100231A4619462846FCF7F8F94E
:104FA000284601F087F8204670BD10B50024C0F8EF
:104FB0003C21C0F83821022380F8113113460A46FB
:104FC0000021FCF725FA204610BD70B505460024E7
:104FD000042085F8110100231A4619462846FCF7DB
:104FE00017FA284601F066F8204670BD70B50546F0
:104FF000002909D0D5F8E4054269002A56D095F871
:105000001201032850D051E005F58E7495F8110176
:10501000002602283ED1E169A068814215D9081A0C
:10502000E061E878012803D1D4E902100844E06087
:10503000A08BE16882B22846FFF78EFF00231A4654
:1050400019462846FCF7A4F924E0216AB1FBF0F2E6
:1050500000FB12128AB981420FD3606A81420CD2DE
:10506000002211462846FFF777FF666200231A46A2
:1050700019462846FCF78CF90CE0D5F8E405C16820
:1050800029B195F81201032801D1284688472846FE
:10509000FFF77AFF95F81601012807D1284600F09E
:1050A0009DF985F8166101E028469047002070BD03
:1050B00070B50546002908D0D5F8E40582690AB321
:1050C00095F8120103282CD02DE005F55D7495F8B4
:1050D0001101032827D1E169A068814213D9081A78
:1050E000E061E878012803D1D4E902100844E060C7
:1050F000E169A068814200D2084682B22846E16890
:10510000FFF721FF0FE0D5F8E405016929B195F813
:105110001201032801D1284688472846FFF755FF8A
:1051200001E028469047002070BD0000CA88012A8F
:1051300001D0FFF71ABF90F81221022A03D0032AE8
:1051400005D0FFF712BF01220349FFF72EBF01224E
:1051500000F58871FFF729BF1805002038B504460F
:105160000D46E88800906888010A08296ED2DFE8B9
:1051700001F06D040C186D6D6368D4F8EC15A0781F
:105180000A6869469047014642E0D4F8E415A078E1
:105190008A6A69469047014602204870C4F8F015B3
:1051A00036E0C0B2062842D2DFE800F0030B131B42
:1051B000232BD4F8EC15A0784A686946904701463D
:1051C00026E0D4F8EC15A0788A6869469047014635
:1051D0001EE0D4F8EC15A078CA68694690470146ED
:1051E00016E0D4F8EC15A0780A69694690470146A4
:1051F0000EE0D4F8EC15A0784A696946904701465C
:1052000006E0D4F8EC15A0788A6969469047014613
:10521000BDF80000002809D0EA88002A06D08242A2
:1052200000D9024600922046FFF7BFFE38BD29464E
:105230002046FFF79AFE38BD29462046FFF795FE27
:1052400038BD29462046FFF790FE38BD2946204646
:10525000FFF78BFE38BD000090F81221022A03D020
:10526000032A01D0FFF781BE06490122CA60D0F8A7
:1052700018210AB10322CA60024902220C31FFF749
:1052800094BE00001005002010B5D0F8E415096A9E
:105290008847002010BD10B5D0F8E415496A88474A
:1052A000002010BD7CB506460024304601F056F9BA
:1052B000002849D0304601F067F905460190E8B36F
:1052C000280303D53046FCF7DDF90446680303D50F
:1052D0003046FCF773F90443A80703D50220009079
:1052E000F1684861002D03DA3046FCF727FA0443E1
:1052F000280503D53046FCF793FA0443280703D565
:105300003046FCF77FFA0443E80603D53046FCF745
:1053100035FA0443E80403D53046FCF7BBFA0443EE
:10532000A80403D53046FCF78DF80443E80203D502
:105330003046FCF701FB0443A80200E006E003D579
:105340003046FCF709FB044320467CBD00207CBDB1
:1053500090F8CC250A7090F8CD254A7090F8CE25AB
:1053600090F8CF3502EB03224A8090F8D02590F8D0
:10537000D13502EB03228A8090F8D22590F8D335FC
:1053800002EB032292B2CA80C0F84021012180F8CA
:105390001111704710B504460023402219462046DB
:1053A000FBF7D8FF0023402280212046FBF7D2FFE5
:1053B000012084F81201D4F8E815A07849688847DC
:1053C000002010BD10B50446D4F8E80500698047F8
:1053D000032084F81201002010BD00000249096872
:1053E00000694160002070470C05002010B5D0F81E
:1053F000E415C969002900D08847002010BD70B5A8
:1054000004468888002801D1C88820B12046BDE81C
:105410007040FFF7AABD887800F07F0594F812016C
:1054200003280DD084F8145129462046FBF7CCFF01
:105430002046FFF7CAFD45B1022084F8120170BD75
:105440002046BDE87040FFF790BD012084F81201AE
:1054500070BD10B50446D4F8E405026820469047B4
:10546000D4F8E80580688047002010BD70B5044678
:105470000846284D81782970012905D90146204622
:10548000BDE87040FFF771BD94F81221022A07D0E1
:10549000032A18D001462046BDE87040FFF765BDDD
:1054A00061B184F81011032084F812012046FFF73F
:1054B000D0FF2046BDE87040FFF787BD2046BDE81D
:1054C0007040FFF782BD91B194F8100188421BD063
:1054D00001462046FFF712FD297884F81011204676
:1054E000FFF7B7FF2046BDE87040FFF76EBD022012
:1054F00084F8120184F810112046FFF7FFFC2046C3
:10550000BDE87040FFF761BD2046BDE87040FFF781
:105510005CBD00001005002038B504464888012213
:10552000012810D0022841D1888810F0FF0F3DD10A
:10553000216949680091000A062829D2DFE800F0B5
:10554000280F14191E23C4F81821D4F8E405826822
:10555000204690472046BDE83840FFF736BD21F091
:1055600070001030009017E021F0700020300090A3
:1055700012E021F07000303000900DE021F070005A
:105580004030009008E021F070005030009003E0BF
:1055900021F070001030009005480099016084F8F7
:1055A00016212046BDE83840FFF70FBD38BD00008A
:1055B0000C0500201CB5044669462046FFF7C8FECE
:1055C0009DF8002012F01F010AD001290DD00229F8
:1055D00010D002F080012046FBF7FEFE00201CBD2B
:1055E0006946204600F00BF8F8E76946204600F0CF
:1055F000C9F8F3E76946204600F026F8EEE710B553
:1056000000244A780A2A1BD2DFE802F011171A1484
:105610001A08051A0E0BFFF7A1FD13E0FFF7EFFEC6
:1056200010E0FFF723FF0DE0FFF780FD0AE0FFF732
:1056300013FE07E0FFF770FF04E0FFF766FC01E0F0
:10564000FFF793FC204610BD70B504460D460026BA
:1056500029792878C0F34110012806D0687880B3F2
:1056600001282FD003285BD107E0D4F8E4052946B0
:10567000826820469047304670BD94F81201022897
:1056800006D003280BD029462046FFF76EFC47E0E2
:1056900011B3802944D02046FBF79EFE40E0688885
:1056A00028B921B1802902D02046FBF795FED4F815
:1056B000E40529468268204690472046FFF785FC8E
:1056C0002EE023E094F81201022806D003280BD024
:1056D00029462046FFF749FC22E009B380291FD064
:1056E0002046FBF779FE1BE06888C8B951B18029D4
:1056F00008D02046FBF712FED4F8E405294682685C
:10570000204690472046FFF760FC09E094F812011C
:10571000022807D003280DD029462046FFF725FC94
:10572000304670BD0029FBD08029F9D02046FBF718
:1057300053FEF5E7124A08064FF000054FF001034B
:105740000CD501F07F0000EB800004EBC00090F866
:105750001E0108B153600BE0556009E001EB8100C8
:1057600004EBC00090F8760308B1536000E0556088
:1057700003490222091D2046FFF717FCD0E700006D
:105780001005002070B504460D46002694F812015D
:10579000032805D029462046FFF7E7FB304670BDB9
:1057A000287901280CD8D4F8E405294682682046D7
:1057B0009047E8880028F1D12046FFF706FCEDE786
:1057C00029462046FFF7D1FBE8E710B500F58970C0
:1057D0000178417004210170D0F8D604C068804778
:1057E000002010BD70B50D46194600EB4114012391
:1057F00084F89638C4F8A058C4F8A42894F8AC28C3
:10580000002A06D0022284F89C28FCF71DFE002006
:1058100070BD002284F89C28F7E770B50D46194644
:1058200000EB4114002384F89638C4F8A058C4F85B
:10583000A42894F8AD28002A06D0022284F89C28D7
:10584000FCF702FE002070BD84F89C38F8E730B405
:1058500002240C7501244C750024CC820A834C83ED
:10586000150600EB431202D582F8AC4801E082F83D
:10587000AD48002330BC1A4600F005B80121C0F83D
:10588000F4170020704770B50C4611461A460125E2
:10589000E078012802D0022819D105E0204600F066
:1058A00005FB0220E07012E0207F01210D2804D0CA
:1058B0000B2807D00C2808D009E0E17000202077E1
:1058C000002504E0E170022501E0E170032528468F
:1058D00070BD70B504460021204600F0F1FAE06882
:1058E00000258561E168681E4861204600F03DFBA7
:1058F000C4F8F457002070BD70B5044601200C4D6B
:10590000002A02D0012A0BD105E02B78EA78204644
:10591000FFF79DFF04E06B78AA782046FFF797FF1A
:10592000044A1169491C1161042900D9042070BD81
:10593000505E0120C404002070B5054601242846AD
:10594000FCF77FFDF8B1124801782846FCF774FD9A
:105950000D2801D0022416E00E480F4A016891423A
:1059600010D1A0F120024168526891420BD1007B16
:1059700020B1012807D0022802D004E0002402E070
:10598000022400E0022403481030C473204670BD96
:10599000505E0120305E0120555342532DE9F35FE4
:1059A0000098FCF74EFD002821D0AD4C0227AD48F1
:1059B0002179AD4D00264FF008094FF0070B4FF04D
:1059C00005084FF0010A092911D2DFE801F010059E
:1059D00012498CEAFDFCFB00A14943781F223039B3
:1059E0000098FFF71AFF84F805A027716E70BDE8D4
:1059F000FC9F41780098FCF71BFD01280ED002287F
:105A000024D0042825D00328F1D16878401CC0B2E6
:105A10006870032822D260792071E8E72E616771EF
:105A20008F483038017B01F08001806858B1686090
:105A3000A068A860E860802902D004202071D6E721
:105A400003202071D3E784F80480D0E760792071C7
:105A5000CDE785F800A084F80490C8E7E773C6E7AF
:105A6000814601780098FCF7E3FC0146012902D049
:105A70006079032823D02E6103206071B9F80420D7
:105A8000686882420ED299F80030A9680098FFF742
:105A9000A9FEB9F804006968091A6960A968084490
:105AA000A860A4E740B182B299F80030A9680098D4
:105AB000FFF798FE6E609AE784F8048097E7042960
:105AC00009D0032993D16978491CC9B269700329A7
:105AD00007D220718BE72E7084F804B084F805801B
